{"contracts/HopliteNFT.sol":{"HopliteNFT":{"abi":[{"inputs":[{"internalType":"string","name":"baseURI","type":"string"},{"internalType":"uint256","name":"_goLiveDate","type":"uint256"},{"internalType":"uint256","name":"_minGasToTransfer","type":"uint256"},{"internalType":"address","name":"_lzEndpoint","type":"address"}],"stateMutability":"nonpayable","type":"constructor"},{"inputs":[],"name":"NotWhiteList","type":"error"},{"inputs":[],"name":"TooHigh","type":"error"},{"anonymous":false,"inputs":[{"indexed":true,"internalType":"address","name":"owner","type":"address"},{"indexed":true,"internalType":"address","name":"approved","type":"address"},{"indexed":true,"internalType":"uint256","name":"tokenId","type":"uint256"}],"name":"Approval","type":"event"},{"anonymous":false,"inputs":[{"indexed":true,"internalType":"address","name":"owner","type":"address"},{"indexed":true,"internalType":"address","name":"operator","type":"address"},{"indexed":false,"internalType":"bool","name":"approved","type":"bool"}],"name":"ApprovalForAll","type":"event"},{"anonymous":false,"inputs":[{"indexed":false,"internalType":"bytes32","name":"_hashedPayload","type":"bytes32"}],"name":"CreditCleared","type":"event"},{"anonymous":false,"inputs":[{"indexed":false,"internalType":"bytes32","name":"_hashedPayload","type":"bytes32"},{"indexed":false,"internalType":"bytes","name":"_payload","type":"bytes"}],"name":"CreditStored","type":"event"},{"anonymous":false,"inputs":[{"indexed":false,"internalType":"uint16","name":"_srcChainId","type":"uint16"},{"indexed":false,"internalType":"bytes","name":"_srcAddress","type":"bytes"},{"indexed":false,"internalType":"uint64","name":"_nonce","type":"uint64"},{"indexed":false,"internalType":"bytes","name":"_payload","type":"bytes"},{"indexed":false,"internalType":"bytes","name":"_reason","type":"bytes"}],"name":"MessageFailed","type":"event"},{"anonymous":false,"inputs":[{"indexed":false,"internalType":"uint256","name":"newRoyalty","type":"uint256"}],"name":"NewRoyalty","type":"event"},{"anonymous":false,"inputs":[{"indexed":true,"internalType":"address","name":"previousOwner","type":"address"},{"indexed":true,"internalType":"address","name":"newOwner","type":"address"}],"name":"OwnershipTransferred","type":"event"},{"anonymous":false,"inputs":[{"indexed":true,"internalType":"uint16","name":"_srcChainId","type":"uint16"},{"indexed":true,"internalType":"bytes","name":"_srcAddress","type":"bytes"},{"indexed":true,"internalType":"address","name":"_toAddress","type":"address"},{"indexed":false,"internalType":"uint256[]","name":"_tokenIds","type":"uint256[]"}],"name":"ReceiveFromChain","type":"event"},{"anonymous":false,"inputs":[{"indexed":false,"internalType":"uint16","name":"_srcChainId","type":"uint16"},{"indexed":false,"internalType":"bytes","name":"_srcAddress","type":"bytes"},{"indexed":false,"internalType":"uint64","name":"_nonce","type":"uint64"},{"indexed":false,"internalType":"bytes32","name":"_payloadHash","type":"bytes32"}],"name":"RetryMessageSuccess","type":"event"},{"anonymous":false,"inputs":[{"indexed":true,"internalType":"uint16","name":"_dstChainId","type":"uint16"},{"indexed":true,"internalType":"address","name":"_from","type":"address"},{"indexed":true,"internalType":"bytes","name":"_toAddress","type":"bytes"},{"indexed":false,"internalType":"uint256[]","name":"_tokenIds","type":"uint256[]"}],"name":"SendToChain","type":"event"},{"anonymous":false,"inputs":[{"indexed":false,"internalType":"uint16","name":"_dstChainId","type":"uint16"},{"indexed":false,"internalType":"uint256","name":"_dstChainIdToBatchLimit","type":"uint256"}],"name":"SetDstChainIdToBatchLimit","type":"event"},{"anonymous":false,"inputs":[{"indexed":false,"internalType":"uint16","name":"_dstChainId","type":"uint16"},{"indexed":false,"internalType":"uint256","name":"_dstChainIdToTransferGas","type":"uint256"}],"name":"SetDstChainIdToTransferGas","type":"event"},{"anonymous":false,"inputs":[{"indexed":false,"internalType":"uint16","name":"_dstChainId","type":"uint16"},{"indexed":false,"internalType":"uint16","name":"_type","type":"uint16"},{"indexed":false,"internalType":"uint256","name":"_minDstGas","type":"uint256"}],"name":"SetMinDstGas","type":"event"},{"anonymous":false,"inputs":[{"indexed":false,"internalType":"uint256","name":"_minGasToTransferAndStore","type":"uint256"}],"name":"SetMinGasToTransferAndStore","type":"event"},{"anonymous":false,"inputs":[{"indexed":false,"internalType":"address","name":"precrime","type":"address"}],"name":"SetPrecrime","type":"event"},{"anonymous":false,"inputs":[{"indexed":false,"internalType":"uint16","name":"_remoteChainId","type":"uint16"},{"indexed":false,"internalType":"bytes","name":"_path","type":"bytes"}],"name":"SetTrustedRemote","type":"event"},{"anonymous":false,"inputs":[{"indexed":false,"internalType":"uint16","name":"_remoteChainId","type":"uint16"},{"indexed":false,"internalType":"bytes","name":"_remoteAddress","type":"bytes"}],"name":"SetTrustedRemoteAddress","type":"event"},{"anonymous":false,"inputs":[{"indexed":true,"internalType":"address","name":"from","type":"address"},{"indexed":true,"internalType":"address","name":"to","type":"address"},{"indexed":true,"internalType":"uint256","name":"tokenId","type":"uint256"}],"name":"Transfer","type":"event"},{"inputs":[],"name":"DEFAULT_PAYLOAD_SIZE_LIMIT","outputs":[{"internalType":"uint256","name":"","type":"uint256"}],"stateMutability":"view","type":"function"},{"inputs":[],"name":"FUNCTION_TYPE_SEND","outputs":[{"internalType":"uint16","name":"","type":"uint16"}],"stateMutability":"view","type":"function"},{"inputs":[],"name":"MAX_SUPPLY","outputs":[{"internalType":"uint256","name":"","type":"uint256"}],"stateMutability":"view","type":"function"},{"inputs":[{"internalType":"uint96","name":"newRoyalty","type":"uint96"}],"name":"adjustRoyalty","outputs":[],"stateMutability":"nonpayable","type":"function"},{"inputs":[{"internalType":"address","name":"to","type":"address"},{"internalType":"uint256","name":"tokenId","type":"uint256"}],"name":"approve","outputs":[],"stateMutability":"nonpayable","type":"function"},{"inputs":[{"internalType":"address","name":"owner","type":"address"}],"name":"balanceOf","outputs":[{"internalType":"uint256","name":"","type":"uint256"}],"stateMutability":"view","type":"function"},{"inputs":[],"name":"baseTokenURI","outputs":[{"internalType":"string","name":"","type":"string"}],"stateMutability":"view","type":"function"},{"inputs":[{"internalType":"bytes","name":"_payload","type":"bytes"}],"name":"clearCredits","outputs":[],"stateMutability":"nonpayable","type":"function"},{"inputs":[{"internalType":"uint16","name":"","type":"uint16"}],"name":"dstChainIdToBatchLimit","outputs":[{"internalType":"uint256","name":"","type":"uint256"}],"stateMutability":"view","type":"function"},{"inputs":[{"internalType":"uint16","name":"","type":"uint16"}],"name":"dstChainIdToTransferGas","outputs":[{"internalType":"uint256","name":"","type":"uint256"}],"stateMutability":"view","type":"function"},{"inputs":[{"internalType":"uint16","name":"_dstChainId","type":"uint16"},{"internalType":"bytes","name":"_toAddress","type":"bytes"},{"internalType":"uint256[]","name":"_tokenIds","type":"uint256[]"},{"internalType":"bool","name":"_useZro","type":"bool"},{"internalType":"bytes","name":"_adapterParams","type":"bytes"}],"name":"estimateSendBatchFee","outputs":[{"internalType":"uint256","name":"nativeFee","type":"uint256"},{"internalType":"uint256","name":"zroFee","type":"uint256"}],"stateMutability":"view","type":"function"},{"inputs":[{"internalType":"uint16","name":"_dstChainId","type":"uint16"},{"internalType":"bytes","name":"_toAddress","type":"bytes"},{"internalType":"uint256","name":"_tokenId","type":"uint256"},{"internalType":"bool","name":"_useZro","type":"bool"},{"internalType":"bytes","name":"_adapterParams","type":"bytes"}],"name":"estimateSendFee","outputs":[{"internalType":"uint256","name":"nativeFee","type":"uint256"},{"internalType":"uint256","name":"zroFee","type":"uint256"}],"stateMutability":"view","type":"function"},{"inputs":[{"internalType":"uint16","name":"","type":"uint16"},{"internalType":"bytes","name":"","type":"bytes"},{"internalType":"uint64","name":"","type":"uint64"}],"name":"failedMessages","outputs":[{"internalType":"bytes32","name":"","type":"bytes32"}],"stateMutability":"view","type":"function"},{"inputs":[{"internalType":"uint16","name":"_srcChainId","type":"uint16"},{"internalType":"bytes","name":"_srcAddress","type":"bytes"}],"name":"forceResumeReceive","outputs":[],"stateMutability":"nonpayable","type":"function"},{"inputs":[{"internalType":"uint256","name":"tokenId","type":"uint256"}],"name":"getApproved","outputs":[{"internalType":"address","name":"","type":"address"}],"stateMutability":"view","type":"function"},{"inputs":[{"internalType":"uint16","name":"_version","type":"uint16"},{"internalType":"uint16","name":"_chainId","type":"uint16"},{"internalType":"address","name":"","type":"address"},{"internalType":"uint256","name":"_configType","type":"uint256"}],"name":"getConfig","outputs":[{"internalType":"bytes","name":"","type":"bytes"}],"stateMutability":"view","type":"function"},{"inputs":[{"internalType":"uint16","name":"_remoteChainId","type":"uint16"}],"name":"getTrustedRemoteAddress","outputs":[{"internalType":"bytes","name":"","type":"bytes"}],"stateMutability":"view","type":"function"},{"inputs":[],"name":"goLiveDate","outputs":[{"internalType":"uint256","name":"","type":"uint256"}],"stateMutability":"view","type":"function"},{"inputs":[{"internalType":"address","name":"owner","type":"address"},{"internalType":"address","name":"operator","type":"address"}],"name":"isApprovedForAll","outputs":[{"internalType":"bool","name":"","type":"bool"}],"stateMutability":"view","type":"function"},{"inputs":[{"internalType":"uint16","name":"_srcChainId","type":"uint16"},{"internalType":"bytes","name":"_srcAddress","type":"bytes"}],"name":"isTrustedRemote","outputs":[{"internalType":"bool","name":"","type":"bool"}],"stateMutability":"view","type":"function"},{"inputs":[],"name":"lzEndpoint","outputs":[{"internalType":"contract ILayerZeroEndpoint","name":"","type":"address"}],"stateMutability":"view","type":"function"},{"inputs":[{"internalType":"uint16","name":"_srcChainId","type":"uint16"},{"internalType":"bytes","name":"_srcAddress","type":"bytes"},{"internalType":"uint64","name":"_nonce","type":"uint64"},{"internalType":"bytes","name":"_payload","type":"bytes"}],"name":"lzReceive","outputs":[],"stateMutability":"nonpayable","type":"function"},{"inputs":[{"internalType":"uint16","name":"","type":"uint16"},{"internalType":"uint16","name":"","type":"uint16"}],"name":"minDstGasLookup","outputs":[{"internalType":"uint256","name":"","type":"uint256"}],"stateMutability":"view","type":"function"},{"inputs":[],"name":"minGasToTransferAndStore","outputs":[{"internalType":"uint256","name":"","type":"uint256"}],"stateMutability":"view","type":"function"},{"inputs":[],"name":"name","outputs":[{"internalType":"string","name":"","type":"string"}],"stateMutability":"view","type":"function"},{"inputs":[{"internalType":"uint16","name":"_srcChainId","type":"uint16"},{"internalType":"bytes","name":"_srcAddress","type":"bytes"},{"internalType":"uint64","name":"_nonce","type":"uint64"},{"internalType":"bytes","name":"_payload","type":"bytes"}],"name":"nonblockingLzReceive","outputs":[],"stateMutability":"nonpayable","type":"function"},{"inputs":[],"name":"owner","outputs":[{"internalType":"address","name":"","type":"address"}],"stateMutability":"view","type":"function"},{"inputs":[{"internalType":"uint256","name":"tokenId","type":"uint256"}],"name":"ownerOf","outputs":[{"internalType":"address","name":"","type":"address"}],"stateMutability":"view","type":"function"},{"inputs":[{"internalType":"uint16","name":"","type":"uint16"}],"name":"payloadSizeLimitLookup","outputs":[{"internalType":"uint256","name":"","type":"uint256"}],"stateMutability":"view","type":"function"},{"inputs":[],"name":"precrime","outputs":[{"internalType":"address","name":"","type":"address"}],"stateMutability":"view","type":"function"},{"inputs":[{"internalType":"address[]","name":"_whiteListUsers","type":"address[]"}],"name":"removeWhiteList","outputs":[],"stateMutability":"nonpayable","type":"function"},{"inputs":[],"name":"renounceOwnership","outputs":[],"stateMutability":"nonpayable","type":"function"},{"inputs":[{"internalType":"uint16","name":"_srcChainId","type":"uint16"},{"internalType":"bytes","name":"_srcAddress","type":"bytes"},{"internalType":"uint64","name":"_nonce","type":"uint64"},{"internalType":"bytes","name":"_payload","type":"bytes"}],"name":"retryMessage","outputs":[],"stateMutability":"payable","type":"function"},{"inputs":[],"name":"royaltyHandler","outputs":[{"internalType":"address","name":"","type":"address"}],"stateMutability":"view","type":"function"},{"inputs":[{"internalType":"uint256","name":"tokenId","type":"uint256"},{"internalType":"uint256","name":"salePrice","type":"uint256"}],"name":"royaltyInfo","outputs":[{"internalType":"address","name":"","type":"address"},{"internalType":"uint256","name":"","type":"uint256"}],"stateMutability":"view","type":"function"},{"inputs":[{"internalType":"address","name":"from","type":"address"},{"internalType":"address","name":"to","type":"address"},{"internalType":"uint256","name":"tokenId","type":"uint256"}],"name":"safeTransferFrom","outputs":[],"stateMutability":"nonpayable","type":"function"},{"inputs":[{"internalType":"address","name":"from","type":"address"},{"internalType":"address","name":"to","type":"address"},{"internalType":"uint256","name":"tokenId","type":"uint256"},{"internalType":"bytes","name":"data","type":"bytes"}],"name":"safeTransferFrom","outputs":[],"stateMutability":"nonpayable","type":"function"},{"inputs":[{"internalType":"address","name":"_from","type":"address"},{"internalType":"uint16","name":"_dstChainId","type":"uint16"},{"internalType":"bytes","name":"_toAddress","type":"bytes"},{"internalType":"uint256[]","name":"_tokenIds","type":"uint256[]"},{"internalType":"address payable","name":"_refundAddress","type":"address"},{"internalType":"address","name":"_zroPaymentAddress","type":"address"},{"internalType":"bytes","name":"_adapterParams","type":"bytes"}],"name":"sendBatchFrom","outputs":[],"stateMutability":"payable","type":"function"},{"inputs":[{"internalType":"address","name":"_from","type":"address"},{"internalType":"uint16","name":"_dstChainId","type":"uint16"},{"internalType":"bytes","name":"_toAddress","type":"bytes"},{"internalType":"uint256","name":"_tokenId","type":"uint256"},{"internalType":"address payable","name":"_refundAddress","type":"address"},{"internalType":"address","name":"_zroPaymentAddress","type":"address"},{"internalType":"bytes","name":"_adapterParams","type":"bytes"}],"name":"sendFrom","outputs":[],"stateMutability":"payable","type":"function"},{"inputs":[{"internalType":"address","name":"operator","type":"address"},{"internalType":"bool","name":"approved","type":"bool"}],"name":"setApprovalForAll","outputs":[],"stateMutability":"nonpayable","type":"function"},{"inputs":[{"internalType":"string","name":"baseURI","type":"string"}],"name":"setBaseURI","outputs":[],"stateMutability":"nonpayable","type":"function"},{"inputs":[{"internalType":"uint16","name":"_version","type":"uint16"},{"internalType":"uint16","name":"_chainId","type":"uint16"},{"internalType":"uint256","name":"_configType","type":"uint256"},{"internalType":"bytes","name":"_config","type":"bytes"}],"name":"setConfig","outputs":[],"stateMutability":"nonpayable","type":"function"},{"inputs":[{"internalType":"uint16","name":"_dstChainId","type":"uint16"},{"internalType":"uint256","name":"_dstChainIdToBatchLimit","type":"uint256"}],"name":"setDstChainIdToBatchLimit","outputs":[],"stateMutability":"nonpayable","type":"function"},{"inputs":[{"internalType":"uint16","name":"_dstChainId","type":"uint16"},{"internalType":"uint256","name":"_dstChainIdToTransferGas","type":"uint256"}],"name":"setDstChainIdToTransferGas","outputs":[],"stateMutability":"nonpayable","type":"function"},{"inputs":[{"internalType":"uint16","name":"_dstChainId","type":"uint16"},{"internalType":"uint16","name":"_packetType","type":"uint16"},{"internalType":"uint256","name":"_minGas","type":"uint256"}],"name":"setMinDstGas","outputs":[],"stateMutability":"nonpayable","type":"function"},{"inputs":[{"internalType":"uint256","name":"_minGasToTransferAndStore","type":"uint256"}],"name":"setMinGasToTransferAndStore","outputs":[],"stateMutability":"nonpayable","type":"function"},{"inputs":[{"internalType":"uint16","name":"_dstChainId","type":"uint16"},{"internalType":"uint256","name":"_size","type":"uint256"}],"name":"setPayloadSizeLimit","outputs":[],"stateMutability":"nonpayable","type":"function"},{"inputs":[{"internalType":"address","name":"_precrime","type":"address"}],"name":"setPrecrime","outputs":[],"stateMutability":"nonpayable","type":"function"},{"inputs":[{"internalType":"uint16","name":"_version","type":"uint16"}],"name":"setReceiveVersion","outputs":[],"stateMutability":"nonpayable","type":"function"},{"inputs":[{"internalType":"address","name":"_handler","type":"address"}],"name":"setRoyaltyHandler","outputs":[],"stateMutability":"nonpayable","type":"function"},{"inputs":[{"internalType":"uint16","name":"_version","type":"uint16"}],"name":"setSendVersion","outputs":[],"stateMutability":"nonpayable","type":"function"},{"inputs":[{"internalType":"uint16","name":"_remoteChainId","type":"uint16"},{"internalType":"bytes","name":"_path","type":"bytes"}],"name":"setTrustedRemote","outputs":[],"stateMutability":"nonpayable","type":"function"},{"inputs":[{"internalType":"uint16","name":"_remoteChainId","type":"uint16"},{"internalType":"bytes","name":"_remoteAddress","type":"bytes"}],"name":"setTrustedRemoteAddress","outputs":[],"stateMutability":"nonpayable","type":"function"},{"inputs":[{"internalType":"bytes32","name":"","type":"bytes32"}],"name":"storedCredits","outputs":[{"internalType":"uint16","name":"srcChainId","type":"uint16"},{"internalType":"address","name":"toAddress","type":"address"},{"internalType":"uint256","name":"index","type":"uint256"},{"internalType":"bool","name":"creditsRemain","type":"bool"}],"stateMutability":"view","type":"function"},{"inputs":[{"internalType":"bytes4","name":"interfaceId","type":"bytes4"}],"name":"supportsInterface","outputs":[{"internalType":"bool","name":"","type":"bool"}],"stateMutability":"view","type":"function"},{"inputs":[],"name":"symbol","outputs":[{"internalType":"string","name":"","type":"string"}],"stateMutability":"view","type":"function"},{"inputs":[{"internalType":"uint256","name":"tokenId","type":"uint256"}],"name":"tokenURI","outputs":[{"internalType":"string","name":"","type":"string"}],"stateMutability":"view","type":"function"},{"inputs":[{"internalType":"address","name":"from","type":"address"},{"internalType":"address","name":"to","type":"address"},{"internalType":"uint256","name":"tokenId","type":"uint256"}],"name":"transferFrom","outputs":[],"stateMutability":"nonpayable","type":"function"},{"inputs":[{"internalType":"address","name":"newOwner","type":"address"}],"name":"transferOwnership","outputs":[],"stateMutability":"nonpayable","type":"function"},{"inputs":[{"internalType":"uint16","name":"","type":"uint16"}],"name":"trustedRemoteLookup","outputs":[{"internalType":"bytes","name":"","type":"bytes"}],"stateMutability":"view","type":"function"},{"inputs":[{"internalType":"uint256","name":"_newLiveDate","type":"uint256"}],"name":"updateGoLiveDate","outputs":[],"stateMutability":"nonpayable","type":"function"},{"inputs":[{"internalType":"address[]","name":"_whiteListUsers","type":"address[]"}],"name":"updateWhiteList","outputs":[],"stateMutability":"nonpayable","type":"function"},{"inputs":[{"internalType":"address","name":"","type":"address"}],"name":"whiteList","outputs":[{"internalType":"bool","name":"","type":"bool"}],"stateMutability":"view","type":"function"}],"evm":{"bytecode":{"linkReferences":{},"object":"60a06040523480156200001157600080fd5b506040516200563c3803806200563c833981016040819052620000349162000460565b6040518060400160405280600f81526020016e4d6f7a61696320486f706c6974657360881b815250604051806040016040528060038152602001620484f560ec1b81525083838383838380806200009a62000094620001b360201b60201c565b620001b7565b6001600160a01b0316608052506001600655816200010b5760405162461bcd60e51b8152602060048201526024808201527f6d696e476173546f5472616e73666572416e6453746f7265206d7573742062656044820152630203e20360e41b60648201526084015b60405180910390fd5b50600755600b6200011d8382620005ea565b50600c6200012c8282620005ea565b5050505050505062000144846200020760201b60201c565b6016839055336000908152601560205260408120805460ff191660011790555b61017981101562000190576200017b338262000223565b806200018781620006b6565b91505062000164565b5050336000908152601560205260409020805460ff191690555062000715915050565b3390565b600080546001600160a01b038381166001600160a01b0319831681178455604051919092169283917f8be0079c531659141344cd1fd0a4f28419497f9722a3daafe3b4186f6b6457e09190a35050565b6200021162000366565b60136200021f8282620005ea565b5050565b6001600160a01b0382166200027b5760405162461bcd60e51b815260206004820181905260248201527f4552433732313a206d696e7420746f20746865207a65726f2061646472657373604482015260640162000102565b6000818152600d60205260409020546001600160a01b031615620002b35760405162461bcd60e51b81526004016200010290620006de565b620002c3600083836001620003c4565b6000818152600d60205260409020546001600160a01b031615620002fb5760405162461bcd60e51b81526004016200010290620006de565b6001600160a01b0382166000818152600e6020908152604080832080546001019055848352600d90915280822080546001600160a01b0319168417905551839291907fddf252ad1be2c89b69c2b068fc378daa952ba7f163c4a11628f55a4df523b3ef908290a45050565b6000546001600160a01b03163314620003c25760405162461bcd60e51b815260206004820181905260248201527f4f776e61626c653a2063616c6c6572206973206e6f7420746865206f776e6572604482015260640162000102565b565b60165442108015620003ef57506001600160a01b03831660009081526015602052604090205460ff16155b156200040e57604051637aa6656d60e11b815260040160405180910390fd5b62000427848484846200042760201b62001cc41760201c565b50505050565b634e487b7160e01b600052604160045260246000fd5b80516001600160a01b03811681146200045b57600080fd5b919050565b600080600080608085870312156200047757600080fd5b84516001600160401b03808211156200048f57600080fd5b818701915087601f830112620004a457600080fd5b815181811115620004b957620004b96200042d565b604051601f8201601f19908116603f01168101908382118183101715620004e457620004e46200042d565b81604052828152602093508a848487010111156200050157600080fd5b600091505b8282101562000525578482018401518183018501529083019062000506565b6000848483010152809850505050808701519450505060408501519150620005506060860162000443565b905092959194509250565b600181811c908216806200057057607f821691505b6020821081036200059157634e487b7160e01b600052602260045260246000fd5b50919050565b601f821115620005e557600081815260208120601f850160051c81016020861015620005c05750805b601f850160051c820191505b81811015620005e157828155600101620005cc565b5050505b505050565b81516001600160401b038111156200060657620006066200042d565b6200061e816200061784546200055b565b8462000597565b602080601f8311600181146200065657600084156200063d5750858301515b600019600386901b1c1916600185901b178555620005e1565b600085815260208120601f198616915b82811015620006875788860151825594840194600190910190840162000666565b5085821015620006a65787850151600019600388901b60f8161c191681555b5050505050600190811b01905550565b600060018201620006d757634e487b7160e01b600052601160045260246000fd5b5060010190565b6020808252601c908201527f4552433732313a20746f6b656e20616c7265616479206d696e74656400000000604082015260600190565b608051614ed3620007696000396000818161097901528181610ba901528181610eb5015281816111390152818161145c01528181611ea50152818161231f0152818161245201526135aa0152614ed36000f3fe6080604052600436106102d75760003560e01c80637533d788116101825780637533d788146107aa5780637ac8fd87146107ca5780638cfd8f5c146107ea5780638da5cb5b146108225780638ffa1f2a14610837578063950c8a741461085757806395d89b41146108775780639a733c181461088c5780639ea5d6b1146108ac5780639f38369a146108cc578063a22cb465146108ec578063a6c3d1651461090c578063ab3ffb931461092c578063af3fb21c1461093f578063b353aaa714610967578063b88d4fde1461099b578063baf3292d146109bb578063bd075be8146109db578063c4461834146109fb578063c87b56dd14610a11578063cbed8b9c14610a31578063d12473a514610a51578063d1deba1f14610a71578063d547cfb714610a84578063df2a5b3b14610a99578063e985e9c514610ab9578063eb8d72b714610ad9578063f235364114610af9578063f2fde38b14610b19578063f5ecbdbc14610b39578063f999e05d14610b59578063fa25f9b614610b7957600080fd5b80621d3567146102dc57806301ffc9a7146102fe57806306fdde031461033357806307e0db1714610355578063081812fc14610375578063095ea7b3146103a25780630b4cad4c146103c25780630df37483146103e257806310ddb1371461040257806322a3ecf91461042257806323b872dd146104a55780632a205e3d146104c55780632a55205a146104fa57806332cb6b0c14610539578063372c12b11461055d578063397457911461058d5780633d8b38f6146105ad5780633f1f4fa4146105cd57806342842e0e146105fa57806342d65a8d1461061a578063482881901461063a5780634ac3f4ff14610650578063519056361461067d57806355f804b3146106905780635b8c41e6146106b0578063612debbd146106ff5780636352211e1461071f57806366ad5c8a1461073f5780636cee6da21461075f57806370a0823114610775578063715018a614610795575b600080fd5b3480156102e857600080fd5b506102fc6102f7366004613b60565b610ba6565b005b34801561030a57600080fd5b5061031e610319366004613c09565b610dd7565b60405190151581526020015b60405180910390f35b34801561033f57600080fd5b50610348610e02565b60405161032a9190613c76565b34801561036157600080fd5b506102fc610370366004613c89565b610e94565b34801561038157600080fd5b50610395610390366004613ca4565b610f1d565b60405161032a9190613cbd565b3480156103ae57600080fd5b506102fc6103bd366004613cf1565b610f44565b3480156103ce57600080fd5b506102fc6103dd366004613ca4565b611059565b3480156103ee57600080fd5b506102fc6103fd366004613d1d565b6110f9565b34801561040e57600080fd5b506102fc61041d366004613c89565b611118565b34801561042e57600080fd5b5061047661043d366004613ca4565b600a6020526000908152604090208054600182015460029092015461ffff821692620100009092046001600160a01b0316919060ff1684565b6040805161ffff90951685526001600160a01b039093166020850152918301521515606082015260800161032a565b3480156104b157600080fd5b506102fc6104c0366004613d39565b611170565b3480156104d157600080fd5b506104e56104e0366004613e55565b6111a2565b6040805192835260208301919091520161032a565b34801561050657600080fd5b5061051a610515366004613ee3565b6111c8565b604080516001600160a01b03909316835260208301919091520161032a565b34801561054557600080fd5b5061054f61138881565b60405190815260200161032a565b34801561056957600080fd5b5061031e610578366004613f05565b60156020526000908152604090205460ff1681565b34801561059957600080fd5b506102fc6105a8366004613f45565b611276565b3480156105b957600080fd5b5061031e6105c8366004613fde565b611356565b3480156105d957600080fd5b5061054f6105e8366004613c89565b60036020526000908152604090205481565b34801561060657600080fd5b506102fc610615366004613d39565b611422565b34801561062657600080fd5b506102fc610635366004613fde565b61143d565b34801561064657600080fd5b5061054f60075481565b34801561065c57600080fd5b5061054f61066b366004613c89565b60086020526000908152604090205481565b6102fc61068b366004614030565b6114c3565b34801561069c57600080fd5b506102fc6106ab3660046140e9565b6114da565b3480156106bc57600080fd5b5061054f6106cb366004614131565b6005602090815260009384526040808520845180860184018051928152908401958401959095209452929052825290205481565b34801561070b57600080fd5b506102fc61071a366004613ca4565b6114ee565b34801561072b57600080fd5b5061039561073a366004613ca4565b6114fb565b34801561074b57600080fd5b506102fc61075a366004613b60565b61152f565b34801561076b57600080fd5b5061054f60165481565b34801561078157600080fd5b5061054f610790366004613f05565b61160b565b3480156107a157600080fd5b506102fc611691565b3480156107b657600080fd5b506103486107c5366004613c89565b6116a5565b3480156107d657600080fd5b50601454610395906001600160a01b031681565b3480156107f657600080fd5b5061054f61080536600461418e565b600260209081526000928352604080842090915290825290205481565b34801561082e57600080fd5b5061039561173f565b34801561084357600080fd5b506102fc6108523660046141c1565b61174e565b34801561086357600080fd5b50600454610395906001600160a01b031681565b34801561088357600080fd5b50610348611999565b34801561089857600080fd5b506102fc6108a7366004613f05565b6119a8565b3480156108b857600080fd5b506102fc6108c7366004613d1d565b611a22565b3480156108d857600080fd5b506103486108e7366004613c89565b611ad9565b3480156108f857600080fd5b506102fc6109073660046141f5565b611bef565b34801561091857600080fd5b506102fc610927366004613fde565b611bfa565b6102fc61093a366004614287565b611c83565b34801561094b57600080fd5b50610954600181565b60405161ffff909116815260200161032a565b34801561097357600080fd5b506103957f000000000000000000000000000000000000000000000000000000000000000081565b3480156109a757600080fd5b506102fc6109b636600461433c565b611c92565b3480156109c757600080fd5b506102fc6109d6366004613f05565b611cca565b3480156109e757600080fd5b506102fc6109f63660046143a7565b611d1d565b348015610a0757600080fd5b5061054f61271081565b348015610a1d57600080fd5b50610348610a2c366004613ca4565b611e13565b348015610a3d57600080fd5b506102fc610a4c3660046143d0565b611e86565b348015610a5d57600080fd5b506102fc610a6c366004613d1d565b611f1b565b6102fc610a7f366004613b60565b611fcb565b348015610a9057600080fd5b506103486121e1565b348015610aa557600080fd5b506102fc610ab436600461443e565b6121ee565b348015610ac557600080fd5b5061031e610ad436600461447a565b612258565b348015610ae557600080fd5b506102fc610af4366004613fde565b612286565b348015610b0557600080fd5b506104e5610b143660046144b3565b6122e0565b348015610b2557600080fd5b506102fc610b34366004613f05565b6123ab565b348015610b4557600080fd5b50610348610b5436600461452c565b612421565b348015610b6557600080fd5b506102fc610b74366004613f45565b6124d4565b348015610b8557600080fd5b5061054f610b94366004613c89565b60096020526000908152604090205481565b337f00000000000000000000000000000000000000000000000000000000000000006001600160a01b031614610c235760405162461bcd60e51b815260206004820152601e60248201527f4c7a4170703a20696e76616c696420656e64706f696e742063616c6c6572000060448201526064015b60405180910390fd5b61ffff861660009081526001602052604081208054610c4190614579565b80601f0160208091040260200160405190810160405280929190818152602001828054610c6d90614579565b8015610cba5780601f10610c8f57610100808354040283529160200191610cba565b820191906000526020600020905b815481529060010190602001808311610c9d57829003601f168201915b50505050509050805186869050148015610cd5575060008151115b8015610cfd575080516020820120604051610cf390889088906145b3565b6040518091039020145b610d585760405162461bcd60e51b815260206004820152602660248201527f4c7a4170703a20696e76616c696420736f757263652073656e64696e6720636f6044820152651b9d1c9858dd60d21b6064820152608401610c1a565b610dce8787878080601f01602080910402602001604051908101604052809392919081815260200183838082843760009201919091525050604080516020601f8a018190048102820181019092528881528a9350915088908890819084018382808284376000920191909152506125b092505050565b50505050505050565b60006001600160e01b031982166369a61f9960e11b1480610dfc5750610dfc82612629565b92915050565b6060600b8054610e1190614579565b80601f0160208091040260200160405190810160405280929190818152602001828054610e3d90614579565b8015610e8a5780601f10610e5f57610100808354040283529160200191610e8a565b820191906000526020600020905b815481529060010190602001808311610e6d57829003601f168201915b5050505050905090565b610e9c61264e565b6040516307e0db1760e01b815261ffff821660048201527f00000000000000000000000000000000000000000000000000000000000000006001600160a01b0316906307e0db17906024015b600060405180830381600087803b158015610f0257600080fd5b505af1158015610f16573d6000803e3d6000fd5b5050505050565b6000610f28826126ad565b506000908152600f60205260409020546001600160a01b031690565b6000610f4f826114fb565b9050806001600160a01b0316836001600160a01b031603610fbc5760405162461bcd60e51b815260206004820152602160248201527f4552433732313a20617070726f76616c20746f2063757272656e74206f776e656044820152603960f91b6064820152608401610c1a565b336001600160a01b0382161480610fd85750610fd88133612258565b61104a5760405162461bcd60e51b815260206004820152603d60248201527f4552433732313a20617070726f76652063616c6c6572206973206e6f7420746f60448201527f6b656e206f776e6572206f7220617070726f76656420666f7220616c6c0000006064820152608401610c1a565b61105483836126d2565b505050565b61106161264e565b600081116110bd5760405162461bcd60e51b8152602060048201526024808201527f6d696e476173546f5472616e73666572416e6453746f7265206d7573742062656044820152630203e20360e41b6064820152608401610c1a565b60078190556040518181527ffebbc4f8bb9ec2313950c718d43123124b15778efda4c1f1d529de2995b4f34d906020015b60405180910390a150565b61110161264e565b61ffff909116600090815260036020526040902055565b61112061264e565b6040516310ddb13760e01b815261ffff821660048201527f00000000000000000000000000000000000000000000000000000000000000006001600160a01b0316906310ddb13790602401610ee8565b61117b335b82612740565b6111975760405162461bcd60e51b8152600401610c1a906145c3565b61105483838361279e565b6000806111ba87876111b3886128fd565b87876122e0565b915091509550959350505050565b60008281526012602090815260408083208151808301909252546001600160a01b038116808352600160a01b9091046001600160601b031692820192909252829161123d5750604080518082019091526011546001600160a01b0381168252600160a01b90046001600160601b031660208201525b60208101516000906127109061125c906001600160601b031687614626565b611266919061463d565b91519350909150505b9250929050565b61127e61264e565b600081511161129f5760405162461bcd60e51b8152600401610c1a9061465f565b60005b81518110156113525760006001600160a01b03168282815181106112c8576112c8614686565b60200260200101516001600160a01b0316036112f65760405162461bcd60e51b8152600401610c1a9061469c565b60006015600084848151811061130e5761130e614686565b6020908102919091018101516001600160a01b03168252810191909152604001600020805460ff19169115159190911790558061134a816146c5565b9150506112a2565b5050565b61ffff83166000908152600160205260408120805482919061137790614579565b80601f01602080910402602001604051908101604052809291908181526020018280546113a390614579565b80156113f05780601f106113c5576101008083540402835291602001916113f0565b820191906000526020600020905b8154815290600101906020018083116113d357829003601f168201915b5050505050905083836040516114079291906145b3565b60405180910390208180519060200120149150509392505050565b61105483838360405180602001604052806000815250611c92565b61144561264e565b6040516342d65a8d60e01b81526001600160a01b037f000000000000000000000000000000000000000000000000000000000000000016906342d65a8d9061149590869086908690600401614707565b600060405180830381600087803b1580156114af57600080fd5b505af1158015610dce573d6000803e3d6000fd5b610dce8787876114d2886128fd565b878787612948565b6114e261264e565b60136113528282614780565b6114f661264e565b601655565b60008061150783612b1c565b90506001600160a01b038116610dfc5760405162461bcd60e51b8152600401610c1a90614839565b33301461158d5760405162461bcd60e51b815260206004820152602660248201527f4e6f6e626c6f636b696e674c7a4170703a2063616c6c6572206d7573742062656044820152650204c7a4170760d41b6064820152608401610c1a565b6116038686868080601f01602080910402602001604051908101604052809392919081815260200183838082843760009201919091525050604080516020601f890181900481028201810190925287815289935091508790879081908401838280828437600092019190915250612b3792505050565b505050505050565b60006001600160a01b0382166116755760405162461bcd60e51b815260206004820152602960248201527f4552433732313a2061646472657373207a65726f206973206e6f7420612076616044820152683634b21037bbb732b960b91b6064820152608401610c1a565b506001600160a01b03166000908152600e602052604090205490565b61169961264e565b6116a36000612c8e565b565b600160205260009081526040902080546116be90614579565b80601f01602080910402602001604051908101604052809291908181526020018280546116ea90614579565b80156117375780601f1061170c57610100808354040283529160200191611737565b820191906000526020600020905b81548152906001019060200180831161171a57829003601f168201915b505050505081565b6000546001600160a01b031690565b611756612cde565b80516020808301919091206000818152600a90925260409091206002015460ff166117b75760405162461bcd60e51b81526020600482015260116024820152701b9bc818dc99591a5d1cc81cdd1bdc9959607a1b6044820152606401610c1a565b6000828060200190518101906117cd91906148b0565b6000848152600a6020526040812080546001909101549294509092506118099161ffff8216916201000090046001600160a01b03169085612d37565b6000848152600a6020526040902060010154909150811161187e5760405162461bcd60e51b815260206004820152602960248201527f6e6f7420656e6f7567682067617320746f2070726f6365737320637265646974604482015268103a3930b739b332b960b91b6064820152608401610c1a565b815181036118f5576000838152600a602052604080822080546001600160b01b031916815560018101929092556002909101805460ff19169055517fd7be02b8dd0d27bd0517a9cb4d7469ce27df4313821ae5ec1ff69acc594ba233906118e89085815260200190565b60405180910390a1611989565b604080516080810182526000858152600a6020818152848320805461ffff80821687526001600160a01b03620100008084048216868a019081529989018b8152600160608b01818152998f90529790965297519851169096026001600160b01b03199091169690951695909517939093178455915191830191909155516002909101805491151560ff199092169190911790555b5050506119966001600655565b50565b6060600c8054610e1190614579565b6119b061264e565b6001600160a01b038116611a005760405162461bcd60e51b8152602060048201526017602482015276496e76616c69642068616e646c6572206164647265737360481b6044820152606401610c1a565b601480546001600160a01b0319166001600160a01b0392909216919091179055565b611a2a61264e565b60008111611a855760405162461bcd60e51b815260206004820152602260248201527f647374436861696e4964546f42617463684c696d6974206d757374206265203e604482015261020360f41b6064820152608401610c1a565b61ffff8216600081815260086020908152604091829020849055815192835282018390527f7315f7654d594ead24a30160ed9ba2d23247f543016b918343591e93d7afdb6d91015b60405180910390a15050565b61ffff8116600090815260016020526040812080546060929190611afc90614579565b80601f0160208091040260200160405190810160405280929190818152602001828054611b2890614579565b8015611b755780601f10611b4a57610100808354040283529160200191611b75565b820191906000526020600020905b815481529060010190602001808311611b5857829003601f168201915b505050505090508051600003611bcd5760405162461bcd60e51b815260206004820152601d60248201527f4c7a4170703a206e6f20747275737465642070617468207265636f72640000006044820152606401610c1a565b611be8600060148351611be0919061496a565b839190612d83565b9392505050565b611352338383612e90565b611c0261264e565b818130604051602001611c179392919061497d565b60408051601f1981840301815291815261ffff8516600090815260016020522090611c429082614780565b507f8c0400cfe2d1199b1a725c78960bcc2a344d869b80590d0f2bd005db15a572ce838383604051611c7693929190614707565b60405180910390a1505050565b610dce87878787878787612948565b611c9c3383612740565b611cb85760405162461bcd60e51b8152600401610c1a906145c3565b611cc484848484612f5a565b50505050565b611cd261264e565b600480546001600160a01b0319166001600160a01b0383161790556040517f5db758e995a17ec1ad84bdef7e8c3293a0bd6179bcce400dff5d4c3d87db726b906110ee908390613cbd565b611d2561264e565b6103e8816001600160601b03161115611d735760405162461bcd60e51b815260206004820152601060248201526f546f6f206869676820726f79616c747960801b6044820152606401610c1a565b6014546001600160a01b0316611dc45760405162461bcd60e51b815260206004820152601660248201527529b2ba103a3432903937bcb0b63a3ca430b7323632b960511b6044820152606401610c1a565b601454611dda906001600160a01b031682612f8d565b6040516001600160601b03821681527ff56c18f7a70485e938b87e3d7e58858e493a28163eb0efb8f9b607f50d0a9127906020016110ee565b6060611e1e826126ad565b6000611e3560408051602081019091526000815290565b90506000815111611e555760405180602001604052806000815250611be8565b80611e5f84613086565b604051602001611e7092919061499e565b6040516020818303038152906040529392505050565b611e8e61264e565b6040516332fb62e760e21b81526001600160a01b037f0000000000000000000000000000000000000000000000000000000000000000169063cbed8b9c90611ee290889088908890889088906004016149cd565b600060405180830381600087803b158015611efc57600080fd5b505af1158015611f10573d6000803e3d6000fd5b505050505050505050565b611f2361264e565b60008111611f7f5760405162461bcd60e51b815260206004820152602360248201527f647374436861696e4964546f5472616e73666572476173206d7573742062652060448201526203e20360ec1b6064820152608401610c1a565b61ffff8216600081815260096020908152604091829020849055815192835282018390527fc46df2983228ac2d9754e94a0d565e6671665dc8ad38602bc8e544f0685a29fb9101611acd565b61ffff86166000908152600560205260408082209051611fee90889088906145b3565b90815260408051602092819003830190206001600160401b0387166000908152925290205490508061206e5760405162461bcd60e51b815260206004820152602360248201527f4e6f6e626c6f636b696e674c7a4170703a206e6f2073746f726564206d65737360448201526261676560e81b6064820152608401610c1a565b80838360405161207f9291906145b3565b6040518091039020146120de5760405162461bcd60e51b815260206004820152602160248201527f4e6f6e626c6f636b696e674c7a4170703a20696e76616c6964207061796c6f616044820152601960fa1b6064820152608401610c1a565b61ffff8716600090815260056020526040808220905161210190899089906145b3565b90815260408051602092819003830181206001600160401b038916600090815290845282902093909355601f88018290048202830182019052868252612199918991899089908190840183828082843760009201919091525050604080516020601f8a018190048102820181019092528881528a935091508890889081908401838280828437600092019190915250612b3792505050565b7fc264d91f3adc5588250e1551f547752ca0cfa8f6b530d243b9f9f4cab10ea8e587878787856040516121d09594939291906149fb565b60405180910390a150505050505050565b601380546116be90614579565b6121f661264e565b61ffff83811660008181526002602090815260408083209487168084529482529182902085905581519283528201929092529081018290527f9d5c7c0b934da8fefa9c7760c98383778a12dfbfc0c3b3106518f43fb9508ac090606001611c76565b6001600160a01b03918216600090815260106020908152604080832093909416825291909152205460ff1690565b61228e61264e565b61ffff831660009081526001602052604090206122ac828483614a36565b507ffa41487ad5d6728f0b19276fa1eddc16558578f5109fc39d2dc33c3230470dab838383604051611c7693929190614707565b600080600086866040516020016122f8929190614b2a565b60408051601f198184030181529082905263040a7bb160e41b825291506001600160a01b037f000000000000000000000000000000000000000000000000000000000000000016906340a7bb109061235c908b90309086908b908b90600401614b58565b6040805180830381865afa158015612378573d6000803e3d6000fd5b505050506040513d601f19601f8201168201806040525081019061239c9190614bac565b92509250509550959350505050565b6123b361264e565b6001600160a01b0381166124185760405162461bcd60e51b815260206004820152602660248201527f4f776e61626c653a206e6577206f776e657220697320746865207a65726f206160448201526564647265737360d01b6064820152608401610c1a565b61199681612c8e565b604051633d7b2f6f60e21b815261ffff808616600483015284166024820152306044820152606481018290526060907f00000000000000000000000000000000000000000000000000000000000000006001600160a01b03169063f5ecbdbc90608401600060405180830381865afa1580156124a1573d6000803e3d6000fd5b505050506040513d6000823e601f3d908101601f191682016040526124c99190810190614bd0565b90505b949350505050565b6124dc61264e565b60008151116124fd5760405162461bcd60e51b8152600401610c1a9061465f565b60005b81518110156113525760006001600160a01b031682828151811061252657612526614686565b60200260200101516001600160a01b0316036125545760405162461bcd60e51b8152600401610c1a9061469c565b60016015600084848151811061256c5761256c614686565b6020908102919091018101516001600160a01b03168252810191909152604001600020805460ff1916911515919091179055806125a8816146c5565b915050612500565b6000806126135a60966366ad5c8a60e01b898989896040516024016125d89493929190614c04565b60408051601f198184030181529190526020810180516001600160e01b03166001600160e01b03199093169290921790915230929190613118565b91509150816116035761160386868686856131a2565b60006001600160e01b0319821663152a902d60e11b1480610dfc5750610dfc8261323f565b3361265761173f565b6001600160a01b0316146116a35760405162461bcd60e51b815260206004820181905260248201527f4f776e61626c653a2063616c6c6572206973206e6f7420746865206f776e65726044820152606401610c1a565b6126b68161325c565b6119965760405162461bcd60e51b8152600401610c1a90614839565b6000818152600f6020526040902080546001600160a01b0319166001600160a01b0384169081179091558190612707826114fb565b6001600160a01b03167f8c5be1e5ebec7d5bd14f71427d1e84f3dd0314c0f7b2291e5b200ac8c7c3b92560405160405180910390a45050565b60008061274c836114fb565b9050806001600160a01b0316846001600160a01b0316148061277357506127738185612258565b806124cc5750836001600160a01b031661278c84610f1d565b6001600160a01b031614949350505050565b826001600160a01b03166127b1826114fb565b6001600160a01b0316146127d75760405162461bcd60e51b8152600401610c1a90614c42565b6001600160a01b0382166128395760405162461bcd60e51b8152602060048201526024808201527f4552433732313a207472616e7366657220746f20746865207a65726f206164646044820152637265737360e01b6064820152608401610c1a565b6128468383836001613279565b826001600160a01b0316612859826114fb565b6001600160a01b03161461287f5760405162461bcd60e51b8152600401610c1a90614c42565b6000818152600f6020908152604080832080546001600160a01b03199081169091556001600160a01b03878116808652600e8552838620805460001901905590871680865283862080546001019055868652600d9094528285208054909216841790915590518493600080516020614e7e83398151915291a4505050565b6040805160018082528183019092526060916000919060208083019080368337019050509050828160008151811061293757612937614686565b602090810291909101015292915050565b600084511161298f5760405162461bcd60e51b8152602060048201526013602482015272746f6b656e4964735b5d20697320656d70747960681b6044820152606401610c1a565b8351600114806129b3575061ffff8616600090815260086020526040902054845111155b612a0a5760405162461bcd60e51b815260206004820152602260248201527f62617463682073697a65206578636565647320647374206261746368206c696d6044820152611a5d60f21b6064820152608401610c1a565b60005b8451811015612a4d57612a3b888888888581518110612a2e57612a2e614686565b60200260200101516132c6565b80612a45816146c5565b915050612a0d565b5060008585604051602001612a63929190614b2a565b6040516020818303038152906040529050612aa8876001848851600960008d61ffff1661ffff16815260200190815260200160002054612aa39190614626565b6133b1565b612ab6878286868634613481565b85604051612ac49190614c87565b6040518091039020886001600160a01b03168861ffff167fe1b87c47fdeb4f9cbadbca9df3af7aba453bb6e501075d0440d88125b711522a88604051612b0a9190614ca3565b60405180910390a45050505050505050565b6000908152600d60205260409020546001600160a01b031690565b60008082806020019051810190612b4e91906148b0565b601482015191935091506000612b6688838386612d37565b90508251811015612c3a5784516020808701919091206040805160808101825261ffff808d1682526001600160a01b038088168387019081528385018881526001606086018181526000898152600a909a529887902095518654935190941662010000026001600160b01b03199093169390941692909217178355519082015592516002909301805493151560ff199094169390931790925590517f10e0b70d256bccc84b7027506978bd8b68984a870788b93b479def144c839ad790612c309083908990614cb6565b60405180910390a1505b816001600160a01b031687604051612c529190614c87565b60405180910390208961ffff167f5b821db8a46f8ecbe1941ba2f51cfeea9643268b56631f70d45e2a745d99026586604051612b0a9190614ca3565b600080546001600160a01b038381166001600160a01b0319831681178455604051919092169283917f8be0079c531659141344cd1fd0a4f28419497f9722a3daafe3b4186f6b6457e09190a35050565b600260065403612d305760405162461bcd60e51b815260206004820152601f60248201527f5265656e7472616e637947756172643a207265656e7472616e742063616c6c006044820152606401610c1a565b6002600655565b6000825b82518110156124c9576007545a106124c957612d718686858481518110612d6457612d64614686565b6020026020010151613626565b80612d7b816146c5565b915050612d3b565b606081612d9181601f614ccf565b1015612dd05760405162461bcd60e51b815260206004820152600e60248201526d736c6963655f6f766572666c6f7760901b6044820152606401610c1a565b612dda8284614ccf565b84511015612e1e5760405162461bcd60e51b8152602060048201526011602482015270736c6963655f6f75744f66426f756e647360781b6044820152606401610c1a565b606082158015612e3d5760405191506000825260208201604052612e87565b6040519150601f8416801560200281840101858101878315602002848b0101015b81831015612e76578051835260209283019201612e5e565b5050858452601f01601f1916604052505b50949350505050565b816001600160a01b0316836001600160a01b031603612eed5760405162461bcd60e51b815260206004820152601960248201527822a9219b99189d1030b8383937bb32903a379031b0b63632b960391b6044820152606401610c1a565b6001600160a01b03838116600081815260106020908152604080832094871680845294825291829020805460ff191686151590811790915591519182527f17307eab39ab6107e8899845ad3d59bd9653f200f220920489ca2b5937696c31910160405180910390a3505050565b612f6584848461279e565b612f7184848484613686565b611cc45760405162461bcd60e51b8152600401610c1a90614ce2565b6127106001600160601b0382161115612ffb5760405162461bcd60e51b815260206004820152602a60248201527f455243323938313a20726f79616c7479206665652077696c6c206578636565646044820152692073616c65507269636560b01b6064820152608401610c1a565b6001600160a01b03821661304d5760405162461bcd60e51b815260206004820152601960248201527822a921991c9c189d1034b73b30b634b2103932b1b2b4bb32b960391b6044820152606401610c1a565b604080518082019091526001600160a01b039092168083526001600160601b039091166020909201829052600160a01b90910217601155565b6060600061309383613784565b60010190506000816001600160401b038111156130b2576130b2613d7a565b6040519080825280601f01601f1916602001820160405280156130dc576020820181803683370190505b5090508181016020015b600019016f181899199a1a9b1b9c1cb0b131b232b360811b600a86061a8153600a85049450846130e657509392505050565b6000606060008060008661ffff166001600160401b0381111561313d5761313d613d7a565b6040519080825280601f01601f191660200182016040528015613167576020820181803683370190505b50905060008087516020890160008d8df191503d925086831115613189578692505b828152826000602083013e909890975095505050505050565b8180519060200120600560008761ffff1661ffff168152602001908152602001600020856040516131d39190614c87565b9081526040805191829003602090810183206001600160401b0388166000908152915220919091557fe183f33de2837795525b4792ca4cd60535bd77c53b7e7030060bfcf5734d6b0c906132309087908790879087908790614d34565b60405180910390a15050505050565b60006001600160e01b031982161580610dfc5750610dfc8261385a565b60008061326883612b1c565b6001600160a01b0316141592915050565b601654421080156132a357506001600160a01b03831660009081526015602052604090205460ff16155b156132c157604051637aa6656d60e11b815260040160405180910390fd5b611cc4565b6132cf33611175565b6133325760405162461bcd60e51b815260206004820152602e60248201527f4f4e46543732313a2073656e642063616c6c6572206973206e6f74206f776e6560448201526d1c881b9bdc88185c1c1c9bdd995960921b6064820152608401610c1a565b836001600160a01b0316613345826114fb565b6001600160a01b0316146133a65760405162461bcd60e51b815260206004820152602260248201527f4f4e46543732313a2073656e642066726f6d20696e636f7272656374206f776e60448201526132b960f11b6064820152608401610c1a565b611cc484308361279e565b60006133bc8361389a565b61ffff8087166000908152600260209081526040808320938916835292905220549091508061342a5760405162461bcd60e51b815260206004820152601a602482015279131e905c1c0e881b5a5b91d85cd31a5b5a5d081b9bdd081cd95d60321b6044820152606401610c1a565b6134348382614ccf565b8210156116035760405162461bcd60e51b815260206004820152601b60248201527a4c7a4170703a20676173206c696d697420697320746f6f206c6f7760281b6044820152606401610c1a565b61ffff86166000908152600160205260408120805461349f90614579565b80601f01602080910402602001604051908101604052809291908181526020018280546134cb90614579565b80156135185780601f106134ed57610100808354040283529160200191613518565b820191906000526020600020905b8154815290600101906020018083116134fb57829003601f168201915b5050505050905080516000036135895760405162461bcd60e51b815260206004820152603060248201527f4c7a4170703a2064657374696e6174696f6e20636861696e206973206e6f742060448201526f61207472757374656420736f7572636560801b6064820152608401610c1a565b6135948787516138f5565b60405162c5803160e81b81526001600160a01b037f0000000000000000000000000000000000000000000000000000000000000000169063c58031009084906135eb908b9086908c908c908c908c90600401614d86565b6000604051808303818588803b15801561360457600080fd5b505af1158015613618573d6000803e3d6000fd5b505050505050505050505050565b61362f8161325c565b158061365b575061363f8161325c565b801561365b575030613650826114fb565b6001600160a01b0316145b61366457600080fd5b61366d8161325c565b61367b576110548282613966565b61105430838361279e565b60006001600160a01b0384163b1561377c57604051630a85bd0160e11b81526001600160a01b0385169063150b7a02906136ca903390899088908890600401614ded565b6020604051808303816000875af1925050508015613705575060408051601f3d908101601f1916820190925261370291810190614e2a565b60015b613762573d808015613733576040519150601f19603f3d011682016040523d82523d6000602084013e613738565b606091505b50805160000361375a5760405162461bcd60e51b8152600401610c1a90614ce2565b805181602001fd5b6001600160e01b031916630a85bd0160e11b1490506124cc565b5060016124cc565b60008072184f03e93ff9f4daa797ed6e38ed64bf6a1f0160401b83106137c35772184f03e93ff9f4daa797ed6e38ed64bf6a1f0160401b830492506040015b6904ee2d6d415b85acef8160201b83106137ed576904ee2d6d415b85acef8160201b830492506020015b662386f26fc10000831061380b57662386f26fc10000830492506010015b6305f5e1008310613823576305f5e100830492506008015b612710831061383757612710830492506004015b60648310613849576064830492506002015b600a8310610dfc5760010192915050565b60006001600160e01b031982166380ac58cd60e01b148061388b57506001600160e01b03198216635b5e139f60e01b145b80610dfc5750610dfc82613980565b60006022825110156138ed5760405162461bcd60e51b815260206004820152601c60248201527b4c7a4170703a20696e76616c69642061646170746572506172616d7360201b6044820152606401610c1a565b506022015190565b61ffff82166000908152600360205260408120549081900361391657506127105b808211156110545760405162461bcd60e51b815260206004820181905260248201527f4c7a4170703a207061796c6f61642073697a6520697320746f6f206c617267656044820152606401610c1a565b6113528282604051806020016040528060008152506139b5565b60006001600160e01b031982166322bac5d960e01b1480610dfc57506301ffc9a760e01b6001600160e01b0319831614610dfc565b6139bf83836139e8565b6139cc6000848484613686565b6110545760405162461bcd60e51b8152600401610c1a90614ce2565b6001600160a01b038216613a3e5760405162461bcd60e51b815260206004820181905260248201527f4552433732313a206d696e7420746f20746865207a65726f20616464726573736044820152606401610c1a565b613a478161325c565b15613a645760405162461bcd60e51b8152600401610c1a90614e47565b613a72600083836001613279565b613a7b8161325c565b15613a985760405162461bcd60e51b8152600401610c1a90614e47565b6001600160a01b0382166000818152600e6020908152604080832080546001019055848352600d90915280822080546001600160a01b031916841790555183929190600080516020614e7e833981519152908290a45050565b803561ffff81168114613b0357600080fd5b919050565b60008083601f840112613b1a57600080fd5b5081356001600160401b03811115613b3157600080fd5b60208301915083602082850101111561126f57600080fd5b80356001600160401b0381168114613b0357600080fd5b60008060008060008060808789031215613b7957600080fd5b613b8287613af1565b955060208701356001600160401b0380821115613b9e57600080fd5b613baa8a838b01613b08565b9097509550859150613bbe60408a01613b49565b94506060890135915080821115613bd457600080fd5b50613be189828a01613b08565b979a9699509497509295939492505050565b6001600160e01b03198116811461199657600080fd5b600060208284031215613c1b57600080fd5b8135611be881613bf3565b60005b83811015613c41578181015183820152602001613c29565b50506000910152565b60008151808452613c62816020860160208601613c26565b601f01601f19169290920160200192915050565b602081526000611be86020830184613c4a565b600060208284031215613c9b57600080fd5b611be882613af1565b600060208284031215613cb657600080fd5b5035919050565b6001600160a01b0391909116815260200190565b6001600160a01b038116811461199657600080fd5b8035613b0381613cd1565b60008060408385031215613d0457600080fd5b8235613d0f81613cd1565b946020939093013593505050565b60008060408385031215613d3057600080fd5b613d0f83613af1565b600080600060608486031215613d4e57600080fd5b8335613d5981613cd1565b92506020840135613d6981613cd1565b929592945050506040919091013590565b634e487b7160e01b600052604160045260246000fd5b604051601f8201601f191681016001600160401b0381118282101715613db857613db8613d7a565b604052919050565b60006001600160401b03821115613dd957613dd9613d7a565b50601f01601f191660200190565b6000613dfa613df584613dc0565b613d90565b9050828152838383011115613e0e57600080fd5b828260208301376000602084830101529392505050565b600082601f830112613e3657600080fd5b611be883833560208501613de7565b80358015158114613b0357600080fd5b600080600080600060a08688031215613e6d57600080fd5b613e7686613af1565b945060208601356001600160401b0380821115613e9257600080fd5b613e9e89838a01613e25565b955060408801359450613eb360608901613e45565b93506080880135915080821115613ec957600080fd5b50613ed688828901613e25565b9150509295509295909350565b60008060408385031215613ef657600080fd5b50508035926020909101359150565b600060208284031215613f1757600080fd5b8135611be881613cd1565b60006001600160401b03821115613f3b57613f3b613d7a565b5060051b60200190565b60006020808385031215613f5857600080fd5b82356001600160401b03811115613f6e57600080fd5b8301601f81018513613f7f57600080fd5b8035613f8d613df582613f22565b81815260059190911b82018301908381019087831115613fac57600080fd5b928401925b82841015613fd3578335613fc481613cd1565b82529284019290840190613fb1565b979650505050505050565b600080600060408486031215613ff357600080fd5b613ffc84613af1565b925060208401356001600160401b0381111561401757600080fd5b61402386828701613b08565b9497909650939450505050565b600080600080600080600060e0888a03121561404b57600080fd5b873561405681613cd1565b965061406460208901613af1565b955060408801356001600160401b038082111561408057600080fd5b61408c8b838c01613e25565b965060608a0135955060808a013591506140a582613cd1565b90935060a0890135906140b782613cd1565b90925060c089013590808211156140cd57600080fd5b506140da8a828b01613e25565b91505092959891949750929550565b6000602082840312156140fb57600080fd5b81356001600160401b0381111561411157600080fd5b8201601f8101841361412257600080fd5b6124cc84823560208401613de7565b60008060006060848603121561414657600080fd5b61414f84613af1565b925060208401356001600160401b0381111561416a57600080fd5b61417686828701613e25565b92505061418560408501613b49565b90509250925092565b600080604083850312156141a157600080fd5b6141aa83613af1565b91506141b860208401613af1565b90509250929050565b6000602082840312156141d357600080fd5b81356001600160401b038111156141e957600080fd5b6124cc84828501613e25565b6000806040838503121561420857600080fd5b823561421381613cd1565b91506141b860208401613e45565b600082601f83011261423257600080fd5b81356020614242613df583613f22565b82815260059290921b8401810191818101908684111561426157600080fd5b8286015b8481101561427c5780358352918301918301614265565b509695505050505050565b600080600080600080600060e0888a0312156142a257600080fd5b87356142ad81613cd1565b96506142bb60208901613af1565b955060408801356001600160401b03808211156142d757600080fd5b6142e38b838c01613e25565b965060608a01359150808211156142f957600080fd5b6143058b838c01614221565b955060808a0135915061431782613cd1565b81945061432660a08b01613ce6565b935060c08a01359150808211156140cd57600080fd5b6000806000806080858703121561435257600080fd5b843561435d81613cd1565b9350602085013561436d81613cd1565b92506040850135915060608501356001600160401b0381111561438f57600080fd5b61439b87828801613e25565b91505092959194509250565b6000602082840312156143b957600080fd5b81356001600160601b0381168114611be857600080fd5b6000806000806000608086880312156143e857600080fd5b6143f186613af1565b94506143ff60208701613af1565b93506040860135925060608601356001600160401b0381111561442157600080fd5b61442d88828901613b08565b969995985093965092949392505050565b60008060006060848603121561445357600080fd5b61445c84613af1565b925061446a60208501613af1565b9150604084013590509250925092565b6000806040838503121561448d57600080fd5b823561449881613cd1565b915060208301356144a881613cd1565b809150509250929050565b600080600080600060a086880312156144cb57600080fd5b6144d486613af1565b945060208601356001600160401b03808211156144f057600080fd5b6144fc89838a01613e25565b9550604088013591508082111561451257600080fd5b61451e89838a01614221565b9450613eb360608901613e45565b6000806000806080858703121561454257600080fd5b61454b85613af1565b935061455960208601613af1565b9250604085013561456981613cd1565b9396929550929360600135925050565b600181811c9082168061458d57607f821691505b6020821081036145ad57634e487b7160e01b600052602260045260246000fd5b50919050565b8183823760009101908152919050565b6020808252602d908201527f4552433732313a2063616c6c6572206973206e6f7420746f6b656e206f776e6560408201526c1c881bdc88185c1c1c9bdd9959609a1b606082015260800190565b634e487b7160e01b600052601160045260246000fd5b8082028115828204841417610dfc57610dfc614610565b60008261465a57634e487b7160e01b600052601260045260246000fd5b500490565b6020808252600d908201526c496e76616c696420506172616d60981b604082015260600190565b634e487b7160e01b600052603260045260246000fd5b6020808252600f908201526e496e76616c6964204164647265737360881b604082015260600190565b6000600182016146d7576146d7614610565b5060010190565b81835281816020850137506000828201602090810191909152601f909101601f19169091010190565b61ffff841681526040602082015260006124c96040830184866146de565b601f82111561105457600081815260208120601f850160051c8101602086101561474c5750805b601f850160051c820191505b8181101561160357828155600101614758565b600019600383901b1c191660019190911b1790565b81516001600160401b0381111561479957614799613d7a565b6147ad816147a78454614579565b84614725565b602080601f8311600181146147dc57600084156147ca5750858301515b6147d4858261476b565b865550611603565b600085815260208120601f198616915b8281101561480b578886015182559484019460019091019084016147ec565b50858210156148295787850151600019600388901b60f8161c191681555b5050505050600190811b01905550565b602080825260189082015277115490cdcc8c4e881a5b9d985b1a59081d1bdad95b88125160421b604082015260600190565b600082601f83011261487c57600080fd5b815161488a613df582613dc0565b81815284602083860101111561489f57600080fd5b6124cc826020830160208701613c26565b600080604083850312156148c357600080fd5b82516001600160401b03808211156148da57600080fd5b6148e68683870161486b565b93506020915081850151818111156148fd57600080fd5b85019050601f8101861361491057600080fd5b805161491e613df582613f22565b81815260059190911b8201830190838101908883111561493d57600080fd5b928401925b8284101561495b57835182529284019290840190614942565b80955050505050509250929050565b81810381811115610dfc57610dfc614610565b8284823760609190911b6001600160601b0319169101908152601401919050565b600083516149b0818460208801613c26565b8351908301906149c4818360208801613c26565b01949350505050565b600061ffff808816835280871660208401525084604083015260806060830152613fd36080830184866146de565b61ffff86168152608060208201526000614a196080830186886146de565b6001600160401b0394909416604083015250606001529392505050565b6001600160401b03831115614a4d57614a4d613d7a565b614a6183614a5b8354614579565b83614725565b6000601f841160018114614a8f5760008515614a7d5750838201355b614a87868261476b565b845550610f16565b600083815260209020601f19861690835b82811015614ac05786850135825560209485019460019092019101614aa0565b5086821015614add5760001960f88860031b161c19848701351681555b505060018560011b0183555050505050565b600081518084526020808501945080840160005b83811015614b1f57815187529582019590820190600101614b03565b509495945050505050565b604081526000614b3d6040830185613c4a565b8281036020840152614b4f8185614aef565b95945050505050565b61ffff861681526001600160a01b038516602082015260a060408201819052600090614b8690830186613c4a565b84151560608401528281036080840152614ba08185613c4a565b98975050505050505050565b60008060408385031215614bbf57600080fd5b505080516020909101519092909150565b600060208284031215614be257600080fd5b81516001600160401b03811115614bf857600080fd5b6124cc8482850161486b565b61ffff85168152608060208201526000614c216080830186613c4a565b6001600160401b03851660408401528281036060840152613fd38185613c4a565b60208082526025908201527f4552433732313a207472616e736665722066726f6d20696e636f72726563742060408201526437bbb732b960d91b606082015260800190565b60008251614c99818460208701613c26565b9190910192915050565b602081526000611be86020830184614aef565b8281526040602082015260006124cc6040830184613c4a565b80820180821115610dfc57610dfc614610565b60208082526032908201527f4552433732313a207472616e7366657220746f206e6f6e20455243373231526560408201527131b2b4bb32b91034b6b83632b6b2b73a32b960711b606082015260800190565b61ffff8616815260a060208201526000614d5160a0830187613c4a565b6001600160401b03861660408401528281036060840152614d728186613c4a565b90508281036080840152614ba08185613c4a565b61ffff8716815260c060208201526000614da360c0830188613c4a565b8281036040840152614db58188613c4a565b6001600160a01b0387811660608601528616608085015283810360a08501529050614de08185613c4a565b9998505050505050505050565b6001600160a01b0385811682528416602082015260408101839052608060608201819052600090614e2090830184613c4a565b9695505050505050565b600060208284031215614e3c57600080fd5b8151611be881613bf3565b6020808252601c908201527b115490cdcc8c4e881d1bdad95b88185b1c9958591e481b5a5b9d195960221b60408201526060019056feddf252ad1be2c89b69c2b068fc378daa952ba7f163c4a11628f55a4df523b3efa26469706673582212207494e5c35f0b8c4986508032fc983918ab718c839c87ddbbb4fc3347866f1c1f64736f6c63430008120033","opcodes":"PUSH1 0xA0 PUSH1 0x40 MSTORE CALLVALUE DUP1 ISZERO PUSH3 0x11 JUMPI PUSH1 0x0 DUP1 REVERT JUMPDEST POP PUSH1 0x40 MLOAD PUSH3 0x563C CODESIZE SUB DUP1 PUSH3 0x563C DUP4 CODECOPY DUP2 ADD PUSH1 0x40 DUP2 SWAP1 MSTORE PUSH3 0x34 SWAP2 PUSH3 0x460 JUMP JUMPDEST PUSH1 0x40 MLOAD DUP1 PUSH1 0x40 ADD PUSH1 0x40 MSTORE DUP1 PUSH1 0xF DUP2 MSTORE PUSH1 0x20 ADD PUSH15 0x4D6F7A61696320486F706C69746573 PUSH1 0x88 SHL DUP2 MSTORE POP PUSH1 0x40 MLOAD DUP1 PUSH1 0x40 ADD PUSH1 0x40 MSTORE DUP1 PUSH1 0x3 DUP2 MSTORE PUSH1 0x20 ADD PUSH3 0x484F5 PUSH1 0xEC SHL DUP2 MSTORE POP DUP4 DUP4 DUP4 DUP4 DUP4 DUP4 DUP1 DUP1 PUSH3 0x9A PUSH3 0x94 PUSH3 0x1B3 PUSH1 0x20 SHL PUSH1 0x20 SHR JUMP JUMPDEST PUSH3 0x1B7 JUMP JUMPDEST PUSH1 0x1 PUSH1 0x1 PUSH1 0xA0 SHL SUB AND PUSH1 0x80 MSTORE POP PUSH1 0x1 PUSH1 0x6 SSTORE DUP2 PUSH3 0x10B JUMPI PUSH1 0x40 MLOAD PUSH3 0x461BCD PUSH1 0xE5 SHL DUP2 MSTORE PUSH1 0x20 PUSH1 0x4 DUP3 ADD MSTORE PUSH1 0x24 DUP1 DUP3 ADD MSTORE PUSH32 0x6D696E476173546F5472616E73666572416E6453746F7265206D757374206265 PUSH1 0x44 DUP3 ADD MSTORE PUSH4 0x203E203 PUSH1 0xE4 SHL PUSH1 0x64 DUP3 ADD MSTORE PUSH1 0x84 ADD JUMPDEST PUSH1 0x40 MLOAD DUP1 SWAP2 SUB SWAP1 REVERT JUMPDEST POP PUSH1 0x7 SSTORE PUSH1 0xB PUSH3 0x11D DUP4 DUP3 PUSH3 0x5EA JUMP JUMPDEST POP PUSH1 0xC PUSH3 0x12C DUP3 DUP3 PUSH3 0x5EA JUMP JUMPDEST POP POP POP POP POP POP POP PUSH3 0x144 DUP5 PUSH3 0x207 PUSH1 0x20 SHL PUSH1 0x20 SHR JUMP JUMPDEST PUSH1 0x16 DUP4 SWAP1 SSTORE CALLER PUSH1 0x0 SWAP1 DUP2 MSTORE PUSH1 0x15 PUSH1 0x20 MSTORE PUSH1 0x40 DUP2 KECCAK256 DUP1 SLOAD PUSH1 0xFF NOT AND PUSH1 0x1 OR SWAP1 SSTORE JUMPDEST PUSH2 0x179 DUP2 LT ISZERO PUSH3 0x190 JUMPI PUSH3 0x17B CALLER DUP3 PUSH3 0x223 JUMP JUMPDEST DUP1 PUSH3 0x187 DUP2 PUSH3 0x6B6 JUMP JUMPDEST SWAP2 POP POP PUSH3 0x164 JUMP JUMPDEST POP POP CALLER PUSH1 0x0 SWAP1 DUP2 MSTORE PUSH1 0x15 PUSH1 0x20 MSTORE PUSH1 0x40 SWAP1 KECCAK256 DUP1 SLOAD PUSH1 0xFF NOT AND SWAP1 SSTORE POP PUSH3 0x715 SWAP2 POP POP JUMP JUMPDEST CALLER SWAP1 JUMP JUMPDEST PUSH1 0x0 DUP1 SLOAD PUSH1 0x1 PUSH1 0x1 PUSH1 0xA0 SHL SUB DUP4 DUP2 AND PUSH1 0x1 PUSH1 0x1 PUSH1 0xA0 SHL SUB NOT DUP4 AND DUP2 OR DUP5 SSTORE PUSH1 0x40 MLOAD SWAP2 SWAP1 SWAP3 AND SWAP3 DUP4 SWAP2 PUSH32 0x8BE0079C531659141344CD1FD0A4F28419497F9722A3DAAFE3B4186F6B6457E0 SWAP2 SWAP1 LOG3 POP POP JUMP JUMPDEST PUSH3 0x211 PUSH3 0x366 JUMP JUMPDEST PUSH1 0x13 PUSH3 0x21F DUP3 DUP3 PUSH3 0x5EA JUMP JUMPDEST POP POP JUMP JUMPDEST PUSH1 0x1 PUSH1 0x1 PUSH1 0xA0 SHL SUB DUP3 AND PUSH3 0x27B JUMPI PUSH1 0x40 MLOAD PUSH3 0x461BCD PUSH1 0xE5 SHL DUP2 MSTORE PUSH1 0x20 PUSH1 0x4 DUP3 ADD DUP2 SWAP1 MSTORE PUSH1 0x24 DUP3 ADD MSTORE PUSH32 0x4552433732313A206D696E7420746F20746865207A65726F2061646472657373 PUSH1 0x44 DUP3 ADD MSTORE PUSH1 0x64 ADD PUSH3 0x102 JUMP JUMPDEST PUSH1 0x0 DUP2 DUP2 MSTORE PUSH1 0xD PUSH1 0x20 MSTORE PUSH1 0x40 SWAP1 KECCAK256 SLOAD PUSH1 0x1 PUSH1 0x1 PUSH1 0xA0 SHL SUB AND ISZERO PUSH3 0x2B3 JUMPI PUSH1 0x40 MLOAD PUSH3 0x461BCD PUSH1 0xE5 SHL DUP2 MSTORE PUSH1 0x4 ADD PUSH3 0x102 SWAP1 PUSH3 0x6DE JUMP JUMPDEST PUSH3 0x2C3 PUSH1 0x0 DUP4 DUP4 PUSH1 0x1 PUSH3 0x3C4 JUMP JUMPDEST PUSH1 0x0 DUP2 DUP2 MSTORE PUSH1 0xD PUSH1 0x20 MSTORE PUSH1 0x40 SWAP1 KECCAK256 SLOAD PUSH1 0x1 PUSH1 0x1 PUSH1 0xA0 SHL SUB AND ISZERO PUSH3 0x2FB JUMPI PUSH1 0x40 MLOAD PUSH3 0x461BCD PUSH1 0xE5 SHL DUP2 MSTORE PUSH1 0x4 ADD PUSH3 0x102 SWAP1 PUSH3 0x6DE JUMP JUMPDEST PUSH1 0x1 PUSH1 0x1 PUSH1 0xA0 SHL SUB DUP3 AND PUSH1 0x0 DUP2 DUP2 MSTORE PUSH1 0xE PUSH1 0x20 SWAP1 DUP2 MSTORE PUSH1 0x40 DUP1 DUP4 KECCAK256 DUP1 SLOAD PUSH1 0x1 ADD SWAP1 SSTORE DUP5 DUP4 MSTORE PUSH1 0xD SWAP1 SWAP2 MSTORE DUP1 DUP3 KECCAK256 DUP1 SLOAD PUSH1 0x1 PUSH1 0x1 PUSH1 0xA0 SHL SUB NOT AND DUP5 OR SWAP1 SSTORE MLOAD DUP4 SWAP3 SWAP2 SWAP1 PUSH32 0xDDF252AD1BE2C89B69C2B068FC378DAA952BA7F163C4A11628F55A4DF523B3EF SWAP1 DUP3 SWAP1 LOG4 POP POP JUMP JUMPDEST PUSH1 0x0 SLOAD PUSH1 0x1 PUSH1 0x1 PUSH1 0xA0 SHL SUB AND CALLER EQ PUSH3 0x3C2 JUMPI PUSH1 0x40 MLOAD PUSH3 0x461BCD PUSH1 0xE5 SHL DUP2 MSTORE PUSH1 0x20 PUSH1 0x4 DUP3 ADD DUP2 SWAP1 MSTORE PUSH1 0x24 DUP3 ADD MSTORE PUSH32 0x4F776E61626C653A2063616C6C6572206973206E6F7420746865206F776E6572 PUSH1 0x44 DUP3 ADD MSTORE PUSH1 0x64 ADD PUSH3 0x102 JUMP JUMPDEST JUMP JUMPDEST PUSH1 0x16 SLOAD TIMESTAMP LT DUP1 ISZERO PUSH3 0x3EF JUMPI POP PUSH1 0x1 PUSH1 0x1 PUSH1 0xA0 SHL SUB DUP4 AND PUSH1 0x0 SWAP1 DUP2 MSTORE PUSH1 0x15 PUSH1 0x20 MSTORE PUSH1 0x40 SWAP1 KECCAK256 SLOAD PUSH1 0xFF AND ISZERO JUMPDEST ISZERO PUSH3 0x40E JUMPI PUSH1 0x40 MLOAD PUSH4 0x7AA6656D PUSH1 0xE1 SHL DUP2 MSTORE PUSH1 0x4 ADD PUSH1 0x40 MLOAD DUP1 SWAP2 SUB SWAP1 REVERT JUMPDEST PUSH3 0x427 DUP5 DUP5 DUP5 DUP5 PUSH3 0x427 PUSH1 0x20 SHL PUSH3 0x1CC4 OR PUSH1 0x20 SHR JUMP JUMPDEST POP POP POP POP JUMP JUMPDEST PUSH4 0x4E487B71 PUSH1 0xE0 SHL PUSH1 0x0 MSTORE PUSH1 0x41 PUSH1 0x4 MSTORE PUSH1 0x24 PUSH1 0x0 REVERT JUMPDEST DUP1 MLOAD PUSH1 0x1 PUSH1 0x1 PUSH1 0xA0 SHL SUB DUP2 AND DUP2 EQ PUSH3 0x45B JUMPI PUSH1 0x0 DUP1 REVERT JUMPDEST SWAP2 SWAP1 POP JUMP JUMPDEST PUSH1 0x0 DUP1 PUSH1 0x0 DUP1 PUSH1 0x80 DUP6 DUP8 SUB SLT ISZERO PUSH3 0x477 JUMPI PUSH1 0x0 DUP1 REVERT JUMPDEST DUP5 MLOAD PUSH1 0x1 PUSH1 0x1 PUSH1 0x40 SHL SUB DUP1 DUP3 GT ISZERO PUSH3 0x48F JUMPI PUSH1 0x0 DUP1 REVERT JUMPDEST DUP2 DUP8 ADD SWAP2 POP DUP8 PUSH1 0x1F DUP4 ADD SLT PUSH3 0x4A4 JUMPI PUSH1 0x0 DUP1 REVERT JUMPDEST DUP2 MLOAD DUP2 DUP2 GT ISZERO PUSH3 0x4B9 JUMPI PUSH3 0x4B9 PUSH3 0x42D JUMP JUMPDEST PUSH1 0x40 MLOAD PUSH1 0x1F DUP3 ADD PUSH1 0x1F NOT SWAP1 DUP2 AND PUSH1 0x3F ADD AND DUP2 ADD SWAP1 DUP4 DUP3 GT DUP2 DUP4 LT OR ISZERO PUSH3 0x4E4 JUMPI PUSH3 0x4E4 PUSH3 0x42D JUMP JUMPDEST DUP2 PUSH1 0x40 MSTORE DUP3 DUP2 MSTORE PUSH1 0x20 SWAP4 POP DUP11 DUP5 DUP5 DUP8 ADD ADD GT ISZERO PUSH3 0x501 JUMPI PUSH1 0x0 DUP1 REVERT JUMPDEST PUSH1 0x0 SWAP2 POP JUMPDEST DUP3 DUP3 LT ISZERO PUSH3 0x525 JUMPI DUP5 DUP3 ADD DUP5 ADD MLOAD DUP2 DUP4 ADD DUP6 ADD MSTORE SWAP1 DUP4 ADD SWAP1 PUSH3 0x506 JUMP JUMPDEST PUSH1 0x0 DUP5 DUP5 DUP4 ADD ADD MSTORE DUP1 SWAP9 POP POP POP POP DUP1 DUP8 ADD MLOAD SWAP5 POP POP POP PUSH1 0x40 DUP6 ADD MLOAD SWAP2 POP PUSH3 0x550 PUSH1 0x60 DUP7 ADD PUSH3 0x443 JUMP JUMPDEST SWAP1 POP SWAP3 SWAP6 SWAP2 SWAP5 POP SWAP3 POP JUMP JUMPDEST PUSH1 0x1 DUP2 DUP2 SHR SWAP1 DUP3 AND DUP1 PUSH3 0x570 JUMPI PUSH1 0x7F DUP3 AND SWAP2 POP JUMPDEST PUSH1 0x20 DUP3 LT DUP2 SUB PUSH3 0x591 JUMPI PUSH4 0x4E487B71 PUSH1 0xE0 SHL PUSH1 0x0 MSTORE PUSH1 0x22 PUSH1 0x4 MSTORE PUSH1 0x24 PUSH1 0x0 REVERT JUMPDEST POP SWAP2 SWAP1 POP JUMP JUMPDEST PUSH1 0x1F DUP3 GT ISZERO PUSH3 0x5E5 JUMPI PUSH1 0x0 DUP2 DUP2 MSTORE PUSH1 0x20 DUP2 KECCAK256 PUSH1 0x1F DUP6 ADD PUSH1 0x5 SHR DUP2 ADD PUSH1 0x20 DUP7 LT ISZERO PUSH3 0x5C0 JUMPI POP DUP1 JUMPDEST PUSH1 0x1F DUP6 ADD PUSH1 0x5 SHR DUP3 ADD SWAP2 POP JUMPDEST DUP2 DUP2 LT ISZERO PUSH3 0x5E1 JUMPI DUP3 DUP2 SSTORE PUSH1 0x1 ADD PUSH3 0x5CC JUMP JUMPDEST POP POP POP JUMPDEST POP POP POP JUMP JUMPDEST DUP2 MLOAD PUSH1 0x1 PUSH1 0x1 PUSH1 0x40 SHL SUB DUP2 GT ISZERO PUSH3 0x606 JUMPI PUSH3 0x606 PUSH3 0x42D JUMP JUMPDEST PUSH3 0x61E DUP2 PUSH3 0x617 DUP5 SLOAD PUSH3 0x55B JUMP JUMPDEST DUP5 PUSH3 0x597 JUMP JUMPDEST PUSH1 0x20 DUP1 PUSH1 0x1F DUP4 GT PUSH1 0x1 DUP2 EQ PUSH3 0x656 JUMPI PUSH1 0x0 DUP5 ISZERO PUSH3 0x63D JUMPI POP DUP6 DUP4 ADD MLOAD JUMPDEST PUSH1 0x0 NOT PUSH1 0x3 DUP7 SWAP1 SHL SHR NOT AND PUSH1 0x1 DUP6 SWAP1 SHL OR DUP6 SSTORE PUSH3 0x5E1 JUMP JUMPDEST PUSH1 0x0 DUP6 DUP2 MSTORE PUSH1 0x20 DUP2 KECCAK256 PUSH1 0x1F NOT DUP7 AND SWAP2 JUMPDEST DUP3 DUP2 LT ISZERO PUSH3 0x687 JUMPI DUP9 DUP7 ADD MLOAD DUP3 SSTORE SWAP5 DUP5 ADD SWAP5 PUSH1 0x1 SWAP1 SWAP2 ADD SWAP1 DUP5 ADD PUSH3 0x666 JUMP JUMPDEST POP DUP6 DUP3 LT ISZERO PUSH3 0x6A6 JUMPI DUP8 DUP6 ADD MLOAD PUSH1 0x0 NOT PUSH1 0x3 DUP9 SWAP1 SHL PUSH1 0xF8 AND SHR NOT AND DUP2 SSTORE JUMPDEST POP POP POP POP POP PUSH1 0x1 SWAP1 DUP2 SHL ADD SWAP1 SSTORE POP JUMP JUMPDEST PUSH1 0x0 PUSH1 0x1 DUP3 ADD PUSH3 0x6D7 JUMPI PUSH4 0x4E487B71 PUSH1 0xE0 SHL PUSH1 0x0 MSTORE PUSH1 0x11 PUSH1 0x4 MSTORE PUSH1 0x24 PUSH1 0x0 REVERT JUMPDEST POP PUSH1 0x1 ADD SWAP1 JUMP JUMPDEST PUSH1 0x20 DUP1 DUP3 MSTORE PUSH1 0x1C SWAP1 DUP3 ADD MSTORE PUSH32 0x4552433732313A20746F6B656E20616C7265616479206D696E74656400000000 PUSH1 0x40 DUP3 ADD MSTORE PUSH1 0x60 ADD SWAP1 JUMP JUMPDEST PUSH1 0x80 MLOAD PUSH2 0x4ED3 PUSH3 0x769 PUSH1 0x0 CODECOPY PUSH1 0x0 DUP2 DUP2 PUSH2 0x979 ADD MSTORE DUP2 DUP2 PUSH2 0xBA9 ADD MSTORE DUP2 DUP2 PUSH2 0xEB5 ADD MSTORE DUP2 DUP2 PUSH2 0x1139 ADD MSTORE DUP2 DUP2 PUSH2 0x145C ADD MSTORE DUP2 DUP2 PUSH2 0x1EA5 ADD MSTORE DUP2 DUP2 PUSH2 0x231F ADD MSTORE DUP2 DUP2 PUSH2 0x2452 ADD MSTORE PUSH2 0x35AA ADD MSTORE PUSH2 0x4ED3 PUSH1 0x0 RETURN INVALID PUSH1 0x80 PUSH1 0x40 MSTORE PUSH1 0x4 CALLDATASIZE LT PUSH2 0x2D7 JUMPI PUSH1 0x0 CALLDATALOAD PUSH1 0xE0 SHR DUP1 PUSH4 0x7533D788 GT PUSH2 0x182 JUMPI DUP1 PUSH4 0x7533D788 EQ PUSH2 0x7AA JUMPI DUP1 PUSH4 0x7AC8FD87 EQ PUSH2 0x7CA JUMPI DUP1 PUSH4 0x8CFD8F5C EQ PUSH2 0x7EA JUMPI DUP1 PUSH4 0x8DA5CB5B EQ PUSH2 0x822 JUMPI DUP1 PUSH4 0x8FFA1F2A EQ PUSH2 0x837 JUMPI DUP1 PUSH4 0x950C8A74 EQ PUSH2 0x857 JUMPI DUP1 PUSH4 0x95D89B41 EQ PUSH2 0x877 JUMPI DUP1 PUSH4 0x9A733C18 EQ PUSH2 0x88C JUMPI DUP1 PUSH4 0x9EA5D6B1 EQ PUSH2 0x8AC JUMPI DUP1 PUSH4 0x9F38369A EQ PUSH2 0x8CC JUMPI DUP1 PUSH4 0xA22CB465 EQ PUSH2 0x8EC JUMPI DUP1 PUSH4 0xA6C3D165 EQ PUSH2 0x90C JUMPI DUP1 PUSH4 0xAB3FFB93 EQ PUSH2 0x92C JUMPI DUP1 PUSH4 0xAF3FB21C EQ PUSH2 0x93F JUMPI DUP1 PUSH4 0xB353AAA7 EQ PUSH2 0x967 JUMPI DUP1 PUSH4 0xB88D4FDE EQ PUSH2 0x99B JUMPI DUP1 PUSH4 0xBAF3292D EQ PUSH2 0x9BB JUMPI DUP1 PUSH4 0xBD075BE8 EQ PUSH2 0x9DB JUMPI DUP1 PUSH4 0xC4461834 EQ PUSH2 0x9FB JUMPI DUP1 PUSH4 0xC87B56DD EQ PUSH2 0xA11 JUMPI DUP1 PUSH4 0xCBED8B9C EQ PUSH2 0xA31 JUMPI DUP1 PUSH4 0xD12473A5 EQ PUSH2 0xA51 JUMPI DUP1 PUSH4 0xD1DEBA1F EQ PUSH2 0xA71 JUMPI DUP1 PUSH4 0xD547CFB7 EQ PUSH2 0xA84 JUMPI DUP1 PUSH4 0xDF2A5B3B EQ PUSH2 0xA99 JUMPI DUP1 PUSH4 0xE985E9C5 EQ PUSH2 0xAB9 JUMPI DUP1 PUSH4 0xEB8D72B7 EQ PUSH2 0xAD9 JUMPI DUP1 PUSH4 0xF2353641 EQ PUSH2 0xAF9 JUMPI DUP1 PUSH4 0xF2FDE38B EQ PUSH2 0xB19 JUMPI DUP1 PUSH4 0xF5ECBDBC EQ PUSH2 0xB39 JUMPI DUP1 PUSH4 0xF999E05D EQ PUSH2 0xB59 JUMPI DUP1 PUSH4 0xFA25F9B6 EQ PUSH2 0xB79 JUMPI PUSH1 0x0 DUP1 REVERT JUMPDEST DUP1 PUSH3 0x1D3567 EQ PUSH2 0x2DC JUMPI DUP1 PUSH4 0x1FFC9A7 EQ PUSH2 0x2FE JUMPI DUP1 PUSH4 0x6FDDE03 EQ PUSH2 0x333 JUMPI DUP1 PUSH4 0x7E0DB17 EQ PUSH2 0x355 JUMPI DUP1 PUSH4 0x81812FC EQ PUSH2 0x375 JUMPI DUP1 PUSH4 0x95EA7B3 EQ PUSH2 0x3A2 JUMPI DUP1 PUSH4 0xB4CAD4C EQ PUSH2 0x3C2 JUMPI DUP1 PUSH4 0xDF37483 EQ PUSH2 0x3E2 JUMPI DUP1 PUSH4 0x10DDB137 EQ PUSH2 0x402 JUMPI DUP1 PUSH4 0x22A3ECF9 EQ PUSH2 0x422 JUMPI DUP1 PUSH4 0x23B872DD EQ PUSH2 0x4A5 JUMPI DUP1 PUSH4 0x2A205E3D EQ PUSH2 0x4C5 JUMPI DUP1 PUSH4 0x2A55205A EQ PUSH2 0x4FA JUMPI DUP1 PUSH4 0x32CB6B0C EQ PUSH2 0x539 JUMPI DUP1 PUSH4 0x372C12B1 EQ PUSH2 0x55D JUMPI DUP1 PUSH4 0x39745791 EQ PUSH2 0x58D JUMPI DUP1 PUSH4 0x3D8B38F6 EQ PUSH2 0x5AD JUMPI DUP1 PUSH4 0x3F1F4FA4 EQ PUSH2 0x5CD JUMPI DUP1 PUSH4 0x42842E0E EQ PUSH2 0x5FA JUMPI DUP1 PUSH4 0x42D65A8D EQ PUSH2 0x61A JUMPI DUP1 PUSH4 0x48288190 EQ PUSH2 0x63A JUMPI DUP1 PUSH4 0x4AC3F4FF EQ PUSH2 0x650 JUMPI DUP1 PUSH4 0x51905636 EQ PUSH2 0x67D JUMPI DUP1 PUSH4 0x55F804B3 EQ PUSH2 0x690 JUMPI DUP1 PUSH4 0x5B8C41E6 EQ PUSH2 0x6B0 JUMPI DUP1 PUSH4 0x612DEBBD EQ PUSH2 0x6FF JUMPI DUP1 PUSH4 0x6352211E EQ PUSH2 0x71F JUMPI DUP1 PUSH4 0x66AD5C8A EQ PUSH2 0x73F JUMPI DUP1 PUSH4 0x6CEE6DA2 EQ PUSH2 0x75F JUMPI DUP1 PUSH4 0x70A08231 EQ PUSH2 0x775 JUMPI DUP1 PUSH4 0x715018A6 EQ PUSH2 0x795 JUMPI JUMPDEST PUSH1 0x0 DUP1 REVERT JUMPDEST CALLVALUE DUP1 ISZERO PUSH2 0x2E8 JUMPI PUSH1 0x0 DUP1 REVERT JUMPDEST POP PUSH2 0x2FC PUSH2 0x2F7 CALLDATASIZE PUSH1 0x4 PUSH2 0x3B60 JUMP JUMPDEST PUSH2 0xBA6 JUMP JUMPDEST STOP JUMPDEST CALLVALUE DUP1 ISZERO PUSH2 0x30A JUMPI PUSH1 0x0 DUP1 REVERT JUMPDEST POP PUSH2 0x31E PUSH2 0x319 CALLDATASIZE PUSH1 0x4 PUSH2 0x3C09 JUMP JUMPDEST PUSH2 0xDD7 JUMP JUMPDEST PUSH1 0x40 MLOAD SWAP1 ISZERO ISZERO DUP2 MSTORE PUSH1 0x20 ADD JUMPDEST PUSH1 0x40 MLOAD DUP1 SWAP2 SUB SWAP1 RETURN JUMPDEST CALLVALUE DUP1 ISZERO PUSH2 0x33F JUMPI PUSH1 0x0 DUP1 REVERT JUMPDEST POP PUSH2 0x348 PUSH2 0xE02 JUMP JUMPDEST PUSH1 0x40 MLOAD PUSH2 0x32A SWAP2 SWAP1 PUSH2 0x3C76 JUMP JUMPDEST CALLVALUE DUP1 ISZERO PUSH2 0x361 JUMPI PUSH1 0x0 DUP1 REVERT JUMPDEST POP PUSH2 0x2FC PUSH2 0x370 CALLDATASIZE PUSH1 0x4 PUSH2 0x3C89 JUMP JUMPDEST PUSH2 0xE94 JUMP JUMPDEST CALLVALUE DUP1 ISZERO PUSH2 0x381 JUMPI PUSH1 0x0 DUP1 REVERT JUMPDEST POP PUSH2 0x395 PUSH2 0x390 CALLDATASIZE PUSH1 0x4 PUSH2 0x3CA4 JUMP JUMPDEST PUSH2 0xF1D JUMP JUMPDEST PUSH1 0x40 MLOAD PUSH2 0x32A SWAP2 SWAP1 PUSH2 0x3CBD JUMP JUMPDEST CALLVALUE DUP1 ISZERO PUSH2 0x3AE JUMPI PUSH1 0x0 DUP1 REVERT JUMPDEST POP PUSH2 0x2FC PUSH2 0x3BD CALLDATASIZE PUSH1 0x4 PUSH2 0x3CF1 JUMP JUMPDEST PUSH2 0xF44 JUMP JUMPDEST CALLVALUE DUP1 ISZERO PUSH2 0x3CE JUMPI PUSH1 0x0 DUP1 REVERT JUMPDEST POP PUSH2 0x2FC PUSH2 0x3DD CALLDATASIZE PUSH1 0x4 PUSH2 0x3CA4 JUMP JUMPDEST PUSH2 0x1059 JUMP JUMPDEST CALLVALUE DUP1 ISZERO PUSH2 0x3EE JUMPI PUSH1 0x0 DUP1 REVERT JUMPDEST POP PUSH2 0x2FC PUSH2 0x3FD CALLDATASIZE PUSH1 0x4 PUSH2 0x3D1D JUMP JUMPDEST PUSH2 0x10F9 JUMP JUMPDEST CALLVALUE DUP1 ISZERO PUSH2 0x40E JUMPI PUSH1 0x0 DUP1 REVERT JUMPDEST POP PUSH2 0x2FC PUSH2 0x41D CALLDATASIZE PUSH1 0x4 PUSH2 0x3C89 JUMP JUMPDEST PUSH2 0x1118 JUMP JUMPDEST CALLVALUE DUP1 ISZERO PUSH2 0x42E JUMPI PUSH1 0x0 DUP1 REVERT JUMPDEST POP PUSH2 0x476 PUSH2 0x43D CALLDATASIZE PUSH1 0x4 PUSH2 0x3CA4 JUMP JUMPDEST PUSH1 0xA PUSH1 0x20 MSTORE PUSH1 0x0 SWAP1 DUP2 MSTORE PUSH1 0x40 SWAP1 KECCAK256 DUP1 SLOAD PUSH1 0x1 DUP3 ADD SLOAD PUSH1 0x2 SWAP1 SWAP3 ADD SLOAD PUSH2 0xFFFF DUP3 AND SWAP3 PUSH3 0x10000 SWAP1 SWAP3 DIV PUSH1 0x1 PUSH1 0x1 PUSH1 0xA0 SHL SUB AND SWAP2 SWAP1 PUSH1 0xFF AND DUP5 JUMP JUMPDEST PUSH1 0x40 DUP1 MLOAD PUSH2 0xFFFF SWAP1 SWAP6 AND DUP6 MSTORE PUSH1 0x1 PUSH1 0x1 PUSH1 0xA0 SHL SUB SWAP1 SWAP4 AND PUSH1 0x20 DUP6 ADD MSTORE SWAP2 DUP4 ADD MSTORE ISZERO ISZERO PUSH1 0x60 DUP3 ADD MSTORE PUSH1 0x80 ADD PUSH2 0x32A JUMP JUMPDEST CALLVALUE DUP1 ISZERO PUSH2 0x4B1 JUMPI PUSH1 0x0 DUP1 REVERT JUMPDEST POP PUSH2 0x2FC PUSH2 0x4C0 CALLDATASIZE PUSH1 0x4 PUSH2 0x3D39 JUMP JUMPDEST PUSH2 0x1170 JUMP JUMPDEST CALLVALUE DUP1 ISZERO PUSH2 0x4D1 JUMPI PUSH1 0x0 DUP1 REVERT JUMPDEST POP PUSH2 0x4E5 PUSH2 0x4E0 CALLDATASIZE PUSH1 0x4 PUSH2 0x3E55 JUMP JUMPDEST PUSH2 0x11A2 JUMP JUMPDEST PUSH1 0x40 DUP1 MLOAD SWAP3 DUP4 MSTORE PUSH1 0x20 DUP4 ADD SWAP2 SWAP1 SWAP2 MSTORE ADD PUSH2 0x32A JUMP JUMPDEST CALLVALUE DUP1 ISZERO PUSH2 0x506 JUMPI PUSH1 0x0 DUP1 REVERT JUMPDEST POP PUSH2 0x51A PUSH2 0x515 CALLDATASIZE PUSH1 0x4 PUSH2 0x3EE3 JUMP JUMPDEST PUSH2 0x11C8 JUMP JUMPDEST PUSH1 0x40 DUP1 MLOAD PUSH1 0x1 PUSH1 0x1 PUSH1 0xA0 SHL SUB SWAP1 SWAP4 AND DUP4 MSTORE PUSH1 0x20 DUP4 ADD SWAP2 SWAP1 SWAP2 MSTORE ADD PUSH2 0x32A JUMP JUMPDEST CALLVALUE DUP1 ISZERO PUSH2 0x545 JUMPI PUSH1 0x0 DUP1 REVERT JUMPDEST POP PUSH2 0x54F PUSH2 0x1388 DUP2 JUMP JUMPDEST PUSH1 0x40 MLOAD SWAP1 DUP2 MSTORE PUSH1 0x20 ADD PUSH2 0x32A JUMP JUMPDEST CALLVALUE DUP1 ISZERO PUSH2 0x569 JUMPI PUSH1 0x0 DUP1 REVERT JUMPDEST POP PUSH2 0x31E PUSH2 0x578 CALLDATASIZE PUSH1 0x4 PUSH2 0x3F05 JUMP JUMPDEST PUSH1 0x15 PUSH1 0x20 MSTORE PUSH1 0x0 SWAP1 DUP2 MSTORE PUSH1 0x40 SWAP1 KECCAK256 SLOAD PUSH1 0xFF AND DUP2 JUMP JUMPDEST CALLVALUE DUP1 ISZERO PUSH2 0x599 JUMPI PUSH1 0x0 DUP1 REVERT JUMPDEST POP PUSH2 0x2FC PUSH2 0x5A8 CALLDATASIZE PUSH1 0x4 PUSH2 0x3F45 JUMP JUMPDEST PUSH2 0x1276 JUMP JUMPDEST CALLVALUE DUP1 ISZERO PUSH2 0x5B9 JUMPI PUSH1 0x0 DUP1 REVERT JUMPDEST POP PUSH2 0x31E PUSH2 0x5C8 CALLDATASIZE PUSH1 0x4 PUSH2 0x3FDE JUMP JUMPDEST PUSH2 0x1356 JUMP JUMPDEST CALLVALUE DUP1 ISZERO PUSH2 0x5D9 JUMPI PUSH1 0x0 DUP1 REVERT JUMPDEST POP PUSH2 0x54F PUSH2 0x5E8 CALLDATASIZE PUSH1 0x4 PUSH2 0x3C89 JUMP JUMPDEST PUSH1 0x3 PUSH1 0x20 MSTORE PUSH1 0x0 SWAP1 DUP2 MSTORE PUSH1 0x40 SWAP1 KECCAK256 SLOAD DUP2 JUMP JUMPDEST CALLVALUE DUP1 ISZERO PUSH2 0x606 JUMPI PUSH1 0x0 DUP1 REVERT JUMPDEST POP PUSH2 0x2FC PUSH2 0x615 CALLDATASIZE PUSH1 0x4 PUSH2 0x3D39 JUMP JUMPDEST PUSH2 0x1422 JUMP JUMPDEST CALLVALUE DUP1 ISZERO PUSH2 0x626 JUMPI PUSH1 0x0 DUP1 REVERT JUMPDEST POP PUSH2 0x2FC PUSH2 0x635 CALLDATASIZE PUSH1 0x4 PUSH2 0x3FDE JUMP JUMPDEST PUSH2 0x143D JUMP JUMPDEST CALLVALUE DUP1 ISZERO PUSH2 0x646 JUMPI PUSH1 0x0 DUP1 REVERT JUMPDEST POP PUSH2 0x54F PUSH1 0x7 SLOAD DUP2 JUMP JUMPDEST CALLVALUE DUP1 ISZERO PUSH2 0x65C JUMPI PUSH1 0x0 DUP1 REVERT JUMPDEST POP PUSH2 0x54F PUSH2 0x66B CALLDATASIZE PUSH1 0x4 PUSH2 0x3C89 JUMP JUMPDEST PUSH1 0x8 PUSH1 0x20 MSTORE PUSH1 0x0 SWAP1 DUP2 MSTORE PUSH1 0x40 SWAP1 KECCAK256 SLOAD DUP2 JUMP JUMPDEST PUSH2 0x2FC PUSH2 0x68B CALLDATASIZE PUSH1 0x4 PUSH2 0x4030 JUMP JUMPDEST PUSH2 0x14C3 JUMP JUMPDEST CALLVALUE DUP1 ISZERO PUSH2 0x69C JUMPI PUSH1 0x0 DUP1 REVERT JUMPDEST POP PUSH2 0x2FC PUSH2 0x6AB CALLDATASIZE PUSH1 0x4 PUSH2 0x40E9 JUMP JUMPDEST PUSH2 0x14DA JUMP JUMPDEST CALLVALUE DUP1 ISZERO PUSH2 0x6BC JUMPI PUSH1 0x0 DUP1 REVERT JUMPDEST POP PUSH2 0x54F PUSH2 0x6CB CALLDATASIZE PUSH1 0x4 PUSH2 0x4131 JUMP JUMPDEST PUSH1 0x5 PUSH1 0x20 SWAP1 DUP2 MSTORE PUSH1 0x0 SWAP4 DUP5 MSTORE PUSH1 0x40 DUP1 DUP6 KECCAK256 DUP5 MLOAD DUP1 DUP7 ADD DUP5 ADD DUP1 MLOAD SWAP3 DUP2 MSTORE SWAP1 DUP5 ADD SWAP6 DUP5 ADD SWAP6 SWAP1 SWAP6 KECCAK256 SWAP5 MSTORE SWAP3 SWAP1 MSTORE DUP3 MSTORE SWAP1 KECCAK256 SLOAD DUP2 JUMP JUMPDEST CALLVALUE DUP1 ISZERO PUSH2 0x70B JUMPI PUSH1 0x0 DUP1 REVERT JUMPDEST POP PUSH2 0x2FC PUSH2 0x71A CALLDATASIZE PUSH1 0x4 PUSH2 0x3CA4 JUMP JUMPDEST PUSH2 0x14EE JUMP JUMPDEST CALLVALUE DUP1 ISZERO PUSH2 0x72B JUMPI PUSH1 0x0 DUP1 REVERT JUMPDEST POP PUSH2 0x395 PUSH2 0x73A CALLDATASIZE PUSH1 0x4 PUSH2 0x3CA4 JUMP JUMPDEST PUSH2 0x14FB JUMP JUMPDEST CALLVALUE DUP1 ISZERO PUSH2 0x74B JUMPI PUSH1 0x0 DUP1 REVERT JUMPDEST POP PUSH2 0x2FC PUSH2 0x75A CALLDATASIZE PUSH1 0x4 PUSH2 0x3B60 JUMP JUMPDEST PUSH2 0x152F JUMP JUMPDEST CALLVALUE DUP1 ISZERO PUSH2 0x76B JUMPI PUSH1 0x0 DUP1 REVERT JUMPDEST POP PUSH2 0x54F PUSH1 0x16 SLOAD DUP2 JUMP JUMPDEST CALLVALUE DUP1 ISZERO PUSH2 0x781 JUMPI PUSH1 0x0 DUP1 REVERT JUMPDEST POP PUSH2 0x54F PUSH2 0x790 CALLDATASIZE PUSH1 0x4 PUSH2 0x3F05 JUMP JUMPDEST PUSH2 0x160B JUMP JUMPDEST CALLVALUE DUP1 ISZERO PUSH2 0x7A1 JUMPI PUSH1 0x0 DUP1 REVERT JUMPDEST POP PUSH2 0x2FC PUSH2 0x1691 JUMP JUMPDEST CALLVALUE DUP1 ISZERO PUSH2 0x7B6 JUMPI PUSH1 0x0 DUP1 REVERT JUMPDEST POP PUSH2 0x348 PUSH2 0x7C5 CALLDATASIZE PUSH1 0x4 PUSH2 0x3C89 JUMP JUMPDEST PUSH2 0x16A5 JUMP JUMPDEST CALLVALUE DUP1 ISZERO PUSH2 0x7D6 JUMPI PUSH1 0x0 DUP1 REVERT JUMPDEST POP PUSH1 0x14 SLOAD PUSH2 0x395 SWAP1 PUSH1 0x1 PUSH1 0x1 PUSH1 0xA0 SHL SUB AND DUP2 JUMP JUMPDEST CALLVALUE DUP1 ISZERO PUSH2 0x7F6 JUMPI PUSH1 0x0 DUP1 REVERT JUMPDEST POP PUSH2 0x54F PUSH2 0x805 CALLDATASIZE PUSH1 0x4 PUSH2 0x418E JUMP JUMPDEST PUSH1 0x2 PUSH1 0x20 SWAP1 DUP2 MSTORE PUSH1 0x0 SWAP3 DUP4 MSTORE PUSH1 0x40 DUP1 DUP5 KECCAK256 SWAP1 SWAP2 MSTORE SWAP1 DUP3 MSTORE SWAP1 KECCAK256 SLOAD DUP2 JUMP JUMPDEST CALLVALUE DUP1 ISZERO PUSH2 0x82E JUMPI PUSH1 0x0 DUP1 REVERT JUMPDEST POP PUSH2 0x395 PUSH2 0x173F JUMP JUMPDEST CALLVALUE DUP1 ISZERO PUSH2 0x843 JUMPI PUSH1 0x0 DUP1 REVERT JUMPDEST POP PUSH2 0x2FC PUSH2 0x852 CALLDATASIZE PUSH1 0x4 PUSH2 0x41C1 JUMP JUMPDEST PUSH2 0x174E JUMP JUMPDEST CALLVALUE DUP1 ISZERO PUSH2 0x863 JUMPI PUSH1 0x0 DUP1 REVERT JUMPDEST POP PUSH1 0x4 SLOAD PUSH2 0x395 SWAP1 PUSH1 0x1 PUSH1 0x1 PUSH1 0xA0 SHL SUB AND DUP2 JUMP JUMPDEST CALLVALUE DUP1 ISZERO PUSH2 0x883 JUMPI PUSH1 0x0 DUP1 REVERT JUMPDEST POP PUSH2 0x348 PUSH2 0x1999 JUMP JUMPDEST CALLVALUE DUP1 ISZERO PUSH2 0x898 JUMPI PUSH1 0x0 DUP1 REVERT JUMPDEST POP PUSH2 0x2FC PUSH2 0x8A7 CALLDATASIZE PUSH1 0x4 PUSH2 0x3F05 JUMP JUMPDEST PUSH2 0x19A8 JUMP JUMPDEST CALLVALUE DUP1 ISZERO PUSH2 0x8B8 JUMPI PUSH1 0x0 DUP1 REVERT JUMPDEST POP PUSH2 0x2FC PUSH2 0x8C7 CALLDATASIZE PUSH1 0x4 PUSH2 0x3D1D JUMP JUMPDEST PUSH2 0x1A22 JUMP JUMPDEST CALLVALUE DUP1 ISZERO PUSH2 0x8D8 JUMPI PUSH1 0x0 DUP1 REVERT JUMPDEST POP PUSH2 0x348 PUSH2 0x8E7 CALLDATASIZE PUSH1 0x4 PUSH2 0x3C89 JUMP JUMPDEST PUSH2 0x1AD9 JUMP JUMPDEST CALLVALUE DUP1 ISZERO PUSH2 0x8F8 JUMPI PUSH1 0x0 DUP1 REVERT JUMPDEST POP PUSH2 0x2FC PUSH2 0x907 CALLDATASIZE PUSH1 0x4 PUSH2 0x41F5 JUMP JUMPDEST PUSH2 0x1BEF JUMP JUMPDEST CALLVALUE DUP1 ISZERO PUSH2 0x918 JUMPI PUSH1 0x0 DUP1 REVERT JUMPDEST POP PUSH2 0x2FC PUSH2 0x927 CALLDATASIZE PUSH1 0x4 PUSH2 0x3FDE JUMP JUMPDEST PUSH2 0x1BFA JUMP JUMPDEST PUSH2 0x2FC PUSH2 0x93A CALLDATASIZE PUSH1 0x4 PUSH2 0x4287 JUMP JUMPDEST PUSH2 0x1C83 JUMP JUMPDEST CALLVALUE DUP1 ISZERO PUSH2 0x94B JUMPI PUSH1 0x0 DUP1 REVERT JUMPDEST POP PUSH2 0x954 PUSH1 0x1 DUP2 JUMP JUMPDEST PUSH1 0x40 MLOAD PUSH2 0xFFFF SWAP1 SWAP2 AND DUP2 MSTORE PUSH1 0x20 ADD PUSH2 0x32A JUMP JUMPDEST CALLVALUE DUP1 ISZERO PUSH2 0x973 JUMPI PUSH1 0x0 DUP1 REVERT JUMPDEST POP PUSH2 0x395 PUSH32 0x0 DUP2 JUMP JUMPDEST CALLVALUE DUP1 ISZERO PUSH2 0x9A7 JUMPI PUSH1 0x0 DUP1 REVERT JUMPDEST POP PUSH2 0x2FC PUSH2 0x9B6 CALLDATASIZE PUSH1 0x4 PUSH2 0x433C JUMP JUMPDEST PUSH2 0x1C92 JUMP JUMPDEST CALLVALUE DUP1 ISZERO PUSH2 0x9C7 JUMPI PUSH1 0x0 DUP1 REVERT JUMPDEST POP PUSH2 0x2FC PUSH2 0x9D6 CALLDATASIZE PUSH1 0x4 PUSH2 0x3F05 JUMP JUMPDEST PUSH2 0x1CCA JUMP JUMPDEST CALLVALUE DUP1 ISZERO PUSH2 0x9E7 JUMPI PUSH1 0x0 DUP1 REVERT JUMPDEST POP PUSH2 0x2FC PUSH2 0x9F6 CALLDATASIZE PUSH1 0x4 PUSH2 0x43A7 JUMP JUMPDEST PUSH2 0x1D1D JUMP JUMPDEST CALLVALUE DUP1 ISZERO PUSH2 0xA07 JUMPI PUSH1 0x0 DUP1 REVERT JUMPDEST POP PUSH2 0x54F PUSH2 0x2710 DUP2 JUMP JUMPDEST CALLVALUE DUP1 ISZERO PUSH2 0xA1D JUMPI PUSH1 0x0 DUP1 REVERT JUMPDEST POP PUSH2 0x348 PUSH2 0xA2C CALLDATASIZE PUSH1 0x4 PUSH2 0x3CA4 JUMP JUMPDEST PUSH2 0x1E13 JUMP JUMPDEST CALLVALUE DUP1 ISZERO PUSH2 0xA3D JUMPI PUSH1 0x0 DUP1 REVERT JUMPDEST POP PUSH2 0x2FC PUSH2 0xA4C CALLDATASIZE PUSH1 0x4 PUSH2 0x43D0 JUMP JUMPDEST PUSH2 0x1E86 JUMP JUMPDEST CALLVALUE DUP1 ISZERO PUSH2 0xA5D JUMPI PUSH1 0x0 DUP1 REVERT JUMPDEST POP PUSH2 0x2FC PUSH2 0xA6C CALLDATASIZE PUSH1 0x4 PUSH2 0x3D1D JUMP JUMPDEST PUSH2 0x1F1B JUMP JUMPDEST PUSH2 0x2FC PUSH2 0xA7F CALLDATASIZE PUSH1 0x4 PUSH2 0x3B60 JUMP JUMPDEST PUSH2 0x1FCB JUMP JUMPDEST CALLVALUE DUP1 ISZERO PUSH2 0xA90 JUMPI PUSH1 0x0 DUP1 REVERT JUMPDEST POP PUSH2 0x348 PUSH2 0x21E1 JUMP JUMPDEST CALLVALUE DUP1 ISZERO PUSH2 0xAA5 JUMPI PUSH1 0x0 DUP1 REVERT JUMPDEST POP PUSH2 0x2FC PUSH2 0xAB4 CALLDATASIZE PUSH1 0x4 PUSH2 0x443E JUMP JUMPDEST PUSH2 0x21EE JUMP JUMPDEST CALLVALUE DUP1 ISZERO PUSH2 0xAC5 JUMPI PUSH1 0x0 DUP1 REVERT JUMPDEST POP PUSH2 0x31E PUSH2 0xAD4 CALLDATASIZE PUSH1 0x4 PUSH2 0x447A JUMP JUMPDEST PUSH2 0x2258 JUMP JUMPDEST CALLVALUE DUP1 ISZERO PUSH2 0xAE5 JUMPI PUSH1 0x0 DUP1 REVERT JUMPDEST POP PUSH2 0x2FC PUSH2 0xAF4 CALLDATASIZE PUSH1 0x4 PUSH2 0x3FDE JUMP JUMPDEST PUSH2 0x2286 JUMP JUMPDEST CALLVALUE DUP1 ISZERO PUSH2 0xB05 JUMPI PUSH1 0x0 DUP1 REVERT JUMPDEST POP PUSH2 0x4E5 PUSH2 0xB14 CALLDATASIZE PUSH1 0x4 PUSH2 0x44B3 JUMP JUMPDEST PUSH2 0x22E0 JUMP JUMPDEST CALLVALUE DUP1 ISZERO PUSH2 0xB25 JUMPI PUSH1 0x0 DUP1 REVERT JUMPDEST POP PUSH2 0x2FC PUSH2 0xB34 CALLDATASIZE PUSH1 0x4 PUSH2 0x3F05 JUMP JUMPDEST PUSH2 0x23AB JUMP JUMPDEST CALLVALUE DUP1 ISZERO PUSH2 0xB45 JUMPI PUSH1 0x0 DUP1 REVERT JUMPDEST POP PUSH2 0x348 PUSH2 0xB54 CALLDATASIZE PUSH1 0x4 PUSH2 0x452C JUMP JUMPDEST PUSH2 0x2421 JUMP JUMPDEST CALLVALUE DUP1 ISZERO PUSH2 0xB65 JUMPI PUSH1 0x0 DUP1 REVERT JUMPDEST POP PUSH2 0x2FC PUSH2 0xB74 CALLDATASIZE PUSH1 0x4 PUSH2 0x3F45 JUMP JUMPDEST PUSH2 0x24D4 JUMP JUMPDEST CALLVALUE DUP1 ISZERO PUSH2 0xB85 JUMPI PUSH1 0x0 DUP1 REVERT JUMPDEST POP PUSH2 0x54F PUSH2 0xB94 CALLDATASIZE PUSH1 0x4 PUSH2 0x3C89 JUMP JUMPDEST PUSH1 0x9 PUSH1 0x20 MSTORE PUSH1 0x0 SWAP1 DUP2 MSTORE PUSH1 0x40 SWAP1 KECCAK256 SLOAD DUP2 JUMP JUMPDEST CALLER PUSH32 0x0 PUSH1 0x1 PUSH1 0x1 PUSH1 0xA0 SHL SUB AND EQ PUSH2 0xC23 JUMPI PUSH1 0x40 MLOAD PUSH3 0x461BCD PUSH1 0xE5 SHL DUP2 MSTORE PUSH1 0x20 PUSH1 0x4 DUP3 ADD MSTORE PUSH1 0x1E PUSH1 0x24 DUP3 ADD MSTORE PUSH32 0x4C7A4170703A20696E76616C696420656E64706F696E742063616C6C65720000 PUSH1 0x44 DUP3 ADD MSTORE PUSH1 0x64 ADD JUMPDEST PUSH1 0x40 MLOAD DUP1 SWAP2 SUB SWAP1 REVERT JUMPDEST PUSH2 0xFFFF DUP7 AND PUSH1 0x0 SWAP1 DUP2 MSTORE PUSH1 0x1 PUSH1 0x20 MSTORE PUSH1 0x40 DUP2 KECCAK256 DUP1 SLOAD PUSH2 0xC41 SWAP1 PUSH2 0x4579 JUMP JUMPDEST DUP1 PUSH1 0x1F ADD PUSH1 0x20 DUP1 SWAP2 DIV MUL PUSH1 0x20 ADD PUSH1 0x40 MLOAD SWAP1 DUP2 ADD PUSH1 0x40 MSTORE DUP1 SWAP3 SWAP2 SWAP1 DUP2 DUP2 MSTORE PUSH1 0x20 ADD DUP3 DUP1 SLOAD PUSH2 0xC6D SWAP1 PUSH2 0x4579 JUMP JUMPDEST DUP1 ISZERO PUSH2 0xCBA JUMPI DUP1 PUSH1 0x1F LT PUSH2 0xC8F JUMPI PUSH2 0x100 DUP1 DUP4 SLOAD DIV MUL DUP4 MSTORE SWAP2 PUSH1 0x20 ADD SWAP2 PUSH2 0xCBA JUMP JUMPDEST DUP3 ADD SWAP2 SWAP1 PUSH1 0x0 MSTORE PUSH1 0x20 PUSH1 0x0 KECCAK256 SWAP1 JUMPDEST DUP2 SLOAD DUP2 MSTORE SWAP1 PUSH1 0x1 ADD SWAP1 PUSH1 0x20 ADD DUP1 DUP4 GT PUSH2 0xC9D JUMPI DUP3 SWAP1 SUB PUSH1 0x1F AND DUP3 ADD SWAP2 JUMPDEST POP POP POP POP POP SWAP1 POP DUP1 MLOAD DUP7 DUP7 SWAP1 POP EQ DUP1 ISZERO PUSH2 0xCD5 JUMPI POP PUSH1 0x0 DUP2 MLOAD GT JUMPDEST DUP1 ISZERO PUSH2 0xCFD JUMPI POP DUP1 MLOAD PUSH1 0x20 DUP3 ADD KECCAK256 PUSH1 0x40 MLOAD PUSH2 0xCF3 SWAP1 DUP9 SWAP1 DUP9 SWAP1 PUSH2 0x45B3 JUMP JUMPDEST PUSH1 0x40 MLOAD DUP1 SWAP2 SUB SWAP1 KECCAK256 EQ JUMPDEST PUSH2 0xD58 JUMPI PUSH1 0x40 MLOAD PUSH3 0x461BCD PUSH1 0xE5 SHL DUP2 MSTORE PUSH1 0x20 PUSH1 0x4 DUP3 ADD MSTORE PUSH1 0x26 PUSH1 0x24 DUP3 ADD MSTORE PUSH32 0x4C7A4170703A20696E76616C696420736F757263652073656E64696E6720636F PUSH1 0x44 DUP3 ADD MSTORE PUSH6 0x1B9D1C9858DD PUSH1 0xD2 SHL PUSH1 0x64 DUP3 ADD MSTORE PUSH1 0x84 ADD PUSH2 0xC1A JUMP JUMPDEST PUSH2 0xDCE DUP8 DUP8 DUP8 DUP1 DUP1 PUSH1 0x1F ADD PUSH1 0x20 DUP1 SWAP2 DIV MUL PUSH1 0x20 ADD PUSH1 0x40 MLOAD SWAP1 DUP2 ADD PUSH1 0x40 MSTORE DUP1 SWAP4 SWAP3 SWAP2 SWAP1 DUP2 DUP2 MSTORE PUSH1 0x20 ADD DUP4 DUP4 DUP1 DUP3 DUP5 CALLDATACOPY PUSH1 0x0 SWAP3 ADD SWAP2 SWAP1 SWAP2 MSTORE POP POP PUSH1 0x40 DUP1 MLOAD PUSH1 0x20 PUSH1 0x1F DUP11 ADD DUP2 SWAP1 DIV DUP2 MUL DUP3 ADD DUP2 ADD SWAP1 SWAP3 MSTORE DUP9 DUP2 MSTORE DUP11 SWAP4 POP SWAP2 POP DUP9 SWAP1 DUP9 SWAP1 DUP2 SWAP1 DUP5 ADD DUP4 DUP3 DUP1 DUP3 DUP5 CALLDATACOPY PUSH1 0x0 SWAP3 ADD SWAP2 SWAP1 SWAP2 MSTORE POP PUSH2 0x25B0 SWAP3 POP POP POP JUMP JUMPDEST POP POP POP POP POP POP POP JUMP JUMPDEST PUSH1 0x0 PUSH1 0x1 PUSH1 0x1 PUSH1 0xE0 SHL SUB NOT DUP3 AND PUSH4 0x69A61F99 PUSH1 0xE1 SHL EQ DUP1 PUSH2 0xDFC JUMPI POP PUSH2 0xDFC DUP3 PUSH2 0x2629 JUMP JUMPDEST SWAP3 SWAP2 POP POP JUMP JUMPDEST PUSH1 0x60 PUSH1 0xB DUP1 SLOAD PUSH2 0xE11 SWAP1 PUSH2 0x4579 JUMP JUMPDEST DUP1 PUSH1 0x1F ADD PUSH1 0x20 DUP1 SWAP2 DIV MUL PUSH1 0x20 ADD PUSH1 0x40 MLOAD SWAP1 DUP2 ADD PUSH1 0x40 MSTORE DUP1 SWAP3 SWAP2 SWAP1 DUP2 DUP2 MSTORE PUSH1 0x20 ADD DUP3 DUP1 SLOAD PUSH2 0xE3D SWAP1 PUSH2 0x4579 JUMP JUMPDEST DUP1 ISZERO PUSH2 0xE8A JUMPI DUP1 PUSH1 0x1F LT PUSH2 0xE5F JUMPI PUSH2 0x100 DUP1 DUP4 SLOAD DIV MUL DUP4 MSTORE SWAP2 PUSH1 0x20 ADD SWAP2 PUSH2 0xE8A JUMP JUMPDEST DUP3 ADD SWAP2 SWAP1 PUSH1 0x0 MSTORE PUSH1 0x20 PUSH1 0x0 KECCAK256 SWAP1 JUMPDEST DUP2 SLOAD DUP2 MSTORE SWAP1 PUSH1 0x1 ADD SWAP1 PUSH1 0x20 ADD DUP1 DUP4 GT PUSH2 0xE6D JUMPI DUP3 SWAP1 SUB PUSH1 0x1F AND DUP3 ADD SWAP2 JUMPDEST POP POP POP POP POP SWAP1 POP SWAP1 JUMP JUMPDEST PUSH2 0xE9C PUSH2 0x264E JUMP JUMPDEST PUSH1 0x40 MLOAD PUSH4 0x7E0DB17 PUSH1 0xE0 SHL DUP2 MSTORE PUSH2 0xFFFF DUP3 AND PUSH1 0x4 DUP3 ADD MSTORE PUSH32 0x0 PUSH1 0x1 PUSH1 0x1 PUSH1 0xA0 SHL SUB AND SWAP1 PUSH4 0x7E0DB17 SWAP1 PUSH1 0x24 ADD JUMPDEST PUSH1 0x0 PUSH1 0x40 MLOAD DUP1 DUP4 SUB DUP2 PUSH1 0x0 DUP8 DUP1 EXTCODESIZE ISZERO DUP1 ISZERO PUSH2 0xF02 JUMPI PUSH1 0x0 DUP1 REVERT JUMPDEST POP GAS CALL ISZERO DUP1 ISZERO PUSH2 0xF16 JUMPI RETURNDATASIZE PUSH1 0x0 DUP1 RETURNDATACOPY RETURNDATASIZE PUSH1 0x0 REVERT JUMPDEST POP POP POP POP POP JUMP JUMPDEST PUSH1 0x0 PUSH2 0xF28 DUP3 PUSH2 0x26AD JUMP JUMPDEST POP PUSH1 0x0 SWAP1 DUP2 MSTORE PUSH1 0xF PUSH1 0x20 MSTORE PUSH1 0x40 SWAP1 KECCAK256 SLOAD PUSH1 0x1 PUSH1 0x1 PUSH1 0xA0 SHL SUB AND SWAP1 JUMP JUMPDEST PUSH1 0x0 PUSH2 0xF4F DUP3 PUSH2 0x14FB JUMP JUMPDEST SWAP1 POP DUP1 PUSH1 0x1 PUSH1 0x1 PUSH1 0xA0 SHL SUB AND DUP4 PUSH1 0x1 PUSH1 0x1 PUSH1 0xA0 SHL SUB AND SUB PUSH2 0xFBC JUMPI PUSH1 0x40 MLOAD PUSH3 0x461BCD PUSH1 0xE5 SHL DUP2 MSTORE PUSH1 0x20 PUSH1 0x4 DUP3 ADD MSTORE PUSH1 0x21 PUSH1 0x24 DUP3 ADD MSTORE PUSH32 0x4552433732313A20617070726F76616C20746F2063757272656E74206F776E65 PUSH1 0x44 DUP3 ADD MSTORE PUSH1 0x39 PUSH1 0xF9 SHL PUSH1 0x64 DUP3 ADD MSTORE PUSH1 0x84 ADD PUSH2 0xC1A JUMP JUMPDEST CALLER PUSH1 0x1 PUSH1 0x1 PUSH1 0xA0 SHL SUB DUP3 AND EQ DUP1 PUSH2 0xFD8 JUMPI POP PUSH2 0xFD8 DUP2 CALLER PUSH2 0x2258 JUMP JUMPDEST PUSH2 0x104A JUMPI PUSH1 0x40 MLOAD PUSH3 0x461BCD PUSH1 0xE5 SHL DUP2 MSTORE PUSH1 0x20 PUSH1 0x4 DUP3 ADD MSTORE PUSH1 0x3D PUSH1 0x24 DUP3 ADD MSTORE PUSH32 0x4552433732313A20617070726F76652063616C6C6572206973206E6F7420746F PUSH1 0x44 DUP3 ADD MSTORE PUSH32 0x6B656E206F776E6572206F7220617070726F76656420666F7220616C6C000000 PUSH1 0x64 DUP3 ADD MSTORE PUSH1 0x84 ADD PUSH2 0xC1A JUMP JUMPDEST PUSH2 0x1054 DUP4 DUP4 PUSH2 0x26D2 JUMP JUMPDEST POP POP POP JUMP JUMPDEST PUSH2 0x1061 PUSH2 0x264E JUMP JUMPDEST PUSH1 0x0 DUP2 GT PUSH2 0x10BD JUMPI PUSH1 0x40 MLOAD PUSH3 0x461BCD PUSH1 0xE5 SHL DUP2 MSTORE PUSH1 0x20 PUSH1 0x4 DUP3 ADD MSTORE PUSH1 0x24 DUP1 DUP3 ADD MSTORE PUSH32 0x6D696E476173546F5472616E73666572416E6453746F7265206D757374206265 PUSH1 0x44 DUP3 ADD MSTORE PUSH4 0x203E203 PUSH1 0xE4 SHL PUSH1 0x64 DUP3 ADD MSTORE PUSH1 0x84 ADD PUSH2 0xC1A JUMP JUMPDEST PUSH1 0x7 DUP2 SWAP1 SSTORE PUSH1 0x40 MLOAD DUP2 DUP2 MSTORE PUSH32 0xFEBBC4F8BB9EC2313950C718D43123124B15778EFDA4C1F1D529DE2995B4F34D SWAP1 PUSH1 0x20 ADD JUMPDEST PUSH1 0x40 MLOAD DUP1 SWAP2 SUB SWAP1 LOG1 POP JUMP JUMPDEST PUSH2 0x1101 PUSH2 0x264E JUMP JUMPDEST PUSH2 0xFFFF SWAP1 SWAP2 AND PUSH1 0x0 SWAP1 DUP2 MSTORE PUSH1 0x3 PUSH1 0x20 MSTORE PUSH1 0x40 SWAP1 KECCAK256 SSTORE JUMP JUMPDEST PUSH2 0x1120 PUSH2 0x264E JUMP JUMPDEST PUSH1 0x40 MLOAD PUSH4 0x10DDB137 PUSH1 0xE0 SHL DUP2 MSTORE PUSH2 0xFFFF DUP3 AND PUSH1 0x4 DUP3 ADD MSTORE PUSH32 0x0 PUSH1 0x1 PUSH1 0x1 PUSH1 0xA0 SHL SUB AND SWAP1 PUSH4 0x10DDB137 SWAP1 PUSH1 0x24 ADD PUSH2 0xEE8 JUMP JUMPDEST PUSH2 0x117B CALLER JUMPDEST DUP3 PUSH2 0x2740 JUMP JUMPDEST PUSH2 0x1197 JUMPI PUSH1 0x40 MLOAD PUSH3 0x461BCD PUSH1 0xE5 SHL DUP2 MSTORE PUSH1 0x4 ADD PUSH2 0xC1A SWAP1 PUSH2 0x45C3 JUMP JUMPDEST PUSH2 0x1054 DUP4 DUP4 DUP4 PUSH2 0x279E JUMP JUMPDEST PUSH1 0x0 DUP1 PUSH2 0x11BA DUP8 DUP8 PUSH2 0x11B3 DUP9 PUSH2 0x28FD JUMP JUMPDEST DUP8 DUP8 PUSH2 0x22E0 JUMP JUMPDEST SWAP2 POP SWAP2 POP SWAP6 POP SWAP6 SWAP4 POP POP POP POP JUMP JUMPDEST PUSH1 0x0 DUP3 DUP2 MSTORE PUSH1 0x12 PUSH1 0x20 SWAP1 DUP2 MSTORE PUSH1 0x40 DUP1 DUP4 KECCAK256 DUP2 MLOAD DUP1 DUP4 ADD SWAP1 SWAP3 MSTORE SLOAD PUSH1 0x1 PUSH1 0x1 PUSH1 0xA0 SHL SUB DUP2 AND DUP1 DUP4 MSTORE PUSH1 0x1 PUSH1 0xA0 SHL SWAP1 SWAP2 DIV PUSH1 0x1 PUSH1 0x1 PUSH1 0x60 SHL SUB AND SWAP3 DUP3 ADD SWAP3 SWAP1 SWAP3 MSTORE DUP3 SWAP2 PUSH2 0x123D JUMPI POP PUSH1 0x40 DUP1 MLOAD DUP1 DUP3 ADD SWAP1 SWAP2 MSTORE PUSH1 0x11 SLOAD PUSH1 0x1 PUSH1 0x1 PUSH1 0xA0 SHL SUB DUP2 AND DUP3 MSTORE PUSH1 0x1 PUSH1 0xA0 SHL SWAP1 DIV PUSH1 0x1 PUSH1 0x1 PUSH1 0x60 SHL SUB AND PUSH1 0x20 DUP3 ADD MSTORE JUMPDEST PUSH1 0x20 DUP2 ADD MLOAD PUSH1 0x0 SWAP1 PUSH2 0x2710 SWAP1 PUSH2 0x125C SWAP1 PUSH1 0x1 PUSH1 0x1 PUSH1 0x60 SHL SUB AND DUP8 PUSH2 0x4626 JUMP JUMPDEST PUSH2 0x1266 SWAP2 SWAP1 PUSH2 0x463D JUMP JUMPDEST SWAP2 MLOAD SWAP4 POP SWAP1 SWAP2 POP POP JUMPDEST SWAP3 POP SWAP3 SWAP1 POP JUMP JUMPDEST PUSH2 0x127E PUSH2 0x264E JUMP JUMPDEST PUSH1 0x0 DUP2 MLOAD GT PUSH2 0x129F JUMPI PUSH1 0x40 MLOAD PUSH3 0x461BCD PUSH1 0xE5 SHL DUP2 MSTORE PUSH1 0x4 ADD PUSH2 0xC1A SWAP1 PUSH2 0x465F JUMP JUMPDEST PUSH1 0x0 JUMPDEST DUP2 MLOAD DUP2 LT ISZERO PUSH2 0x1352 JUMPI PUSH1 0x0 PUSH1 0x1 PUSH1 0x1 PUSH1 0xA0 SHL SUB AND DUP3 DUP3 DUP2 MLOAD DUP2 LT PUSH2 0x12C8 JUMPI PUSH2 0x12C8 PUSH2 0x4686 JUMP JUMPDEST PUSH1 0x20 MUL PUSH1 0x20 ADD ADD MLOAD PUSH1 0x1 PUSH1 0x1 PUSH1 0xA0 SHL SUB AND SUB PUSH2 0x12F6 JUMPI PUSH1 0x40 MLOAD PUSH3 0x461BCD PUSH1 0xE5 SHL DUP2 MSTORE PUSH1 0x4 ADD PUSH2 0xC1A SWAP1 PUSH2 0x469C JUMP JUMPDEST PUSH1 0x0 PUSH1 0x15 PUSH1 0x0 DUP5 DUP5 DUP2 MLOAD DUP2 LT PUSH2 0x130E JUMPI PUSH2 0x130E PUSH2 0x4686 JUMP JUMPDEST PUSH1 0x20 SWAP1 DUP2 MUL SWAP2 SWAP1 SWAP2 ADD DUP2 ADD MLOAD PUSH1 0x1 PUSH1 0x1 PUSH1 0xA0 SHL SUB AND DUP3 MSTORE DUP2 ADD SWAP2 SWAP1 SWAP2 MSTORE PUSH1 0x40 ADD PUSH1 0x0 KECCAK256 DUP1 SLOAD PUSH1 0xFF NOT AND SWAP2 ISZERO ISZERO SWAP2 SWAP1 SWAP2 OR SWAP1 SSTORE DUP1 PUSH2 0x134A DUP2 PUSH2 0x46C5 JUMP JUMPDEST SWAP2 POP POP PUSH2 0x12A2 JUMP JUMPDEST POP POP JUMP JUMPDEST PUSH2 0xFFFF DUP4 AND PUSH1 0x0 SWAP1 DUP2 MSTORE PUSH1 0x1 PUSH1 0x20 MSTORE PUSH1 0x40 DUP2 KECCAK256 DUP1 SLOAD DUP3 SWAP2 SWAP1 PUSH2 0x1377 SWAP1 PUSH2 0x4579 JUMP JUMPDEST DUP1 PUSH1 0x1F ADD PUSH1 0x20 DUP1 SWAP2 DIV MUL PUSH1 0x20 ADD PUSH1 0x40 MLOAD SWAP1 DUP2 ADD PUSH1 0x40 MSTORE DUP1 SWAP3 SWAP2 SWAP1 DUP2 DUP2 MSTORE PUSH1 0x20 ADD DUP3 DUP1 SLOAD PUSH2 0x13A3 SWAP1 PUSH2 0x4579 JUMP JUMPDEST DUP1 ISZERO PUSH2 0x13F0 JUMPI DUP1 PUSH1 0x1F LT PUSH2 0x13C5 JUMPI PUSH2 0x100 DUP1 DUP4 SLOAD DIV MUL DUP4 MSTORE SWAP2 PUSH1 0x20 ADD SWAP2 PUSH2 0x13F0 JUMP JUMPDEST DUP3 ADD SWAP2 SWAP1 PUSH1 0x0 MSTORE PUSH1 0x20 PUSH1 0x0 KECCAK256 SWAP1 JUMPDEST DUP2 SLOAD DUP2 MSTORE SWAP1 PUSH1 0x1 ADD SWAP1 PUSH1 0x20 ADD DUP1 DUP4 GT PUSH2 0x13D3 JUMPI DUP3 SWAP1 SUB PUSH1 0x1F AND DUP3 ADD SWAP2 JUMPDEST POP POP POP POP POP SWAP1 POP DUP4 DUP4 PUSH1 0x40 MLOAD PUSH2 0x1407 SWAP3 SWAP2 SWAP1 PUSH2 0x45B3 JUMP JUMPDEST PUSH1 0x40 MLOAD DUP1 SWAP2 SUB SWAP1 KECCAK256 DUP2 DUP1 MLOAD SWAP1 PUSH1 0x20 ADD KECCAK256 EQ SWAP2 POP POP SWAP4 SWAP3 POP POP POP JUMP JUMPDEST PUSH2 0x1054 DUP4 DUP4 DUP4 PUSH1 0x40 MLOAD DUP1 PUSH1 0x20 ADD PUSH1 0x40 MSTORE DUP1 PUSH1 0x0 DUP2 MSTORE POP PUSH2 0x1C92 JUMP JUMPDEST PUSH2 0x1445 PUSH2 0x264E JUMP JUMPDEST PUSH1 0x40 MLOAD PUSH4 0x42D65A8D PUSH1 0xE0 SHL DUP2 MSTORE PUSH1 0x1 PUSH1 0x1 PUSH1 0xA0 SHL SUB PUSH32 0x0 AND SWAP1 PUSH4 0x42D65A8D SWAP1 PUSH2 0x1495 SWAP1 DUP7 SWAP1 DUP7 SWAP1 DUP7 SWAP1 PUSH1 0x4 ADD PUSH2 0x4707 JUMP JUMPDEST PUSH1 0x0 PUSH1 0x40 MLOAD DUP1 DUP4 SUB DUP2 PUSH1 0x0 DUP8 DUP1 EXTCODESIZE ISZERO DUP1 ISZERO PUSH2 0x14AF JUMPI PUSH1 0x0 DUP1 REVERT JUMPDEST POP GAS CALL ISZERO DUP1 ISZERO PUSH2 0xDCE JUMPI RETURNDATASIZE PUSH1 0x0 DUP1 RETURNDATACOPY RETURNDATASIZE PUSH1 0x0 REVERT JUMPDEST PUSH2 0xDCE DUP8 DUP8 DUP8 PUSH2 0x14D2 DUP9 PUSH2 0x28FD JUMP JUMPDEST DUP8 DUP8 DUP8 PUSH2 0x2948 JUMP JUMPDEST PUSH2 0x14E2 PUSH2 0x264E JUMP JUMPDEST PUSH1 0x13 PUSH2 0x1352 DUP3 DUP3 PUSH2 0x4780 JUMP JUMPDEST PUSH2 0x14F6 PUSH2 0x264E JUMP JUMPDEST PUSH1 0x16 SSTORE JUMP JUMPDEST PUSH1 0x0 DUP1 PUSH2 0x1507 DUP4 PUSH2 0x2B1C JUMP JUMPDEST SWAP1 POP PUSH1 0x1 PUSH1 0x1 PUSH1 0xA0 SHL SUB DUP2 AND PUSH2 0xDFC JUMPI PUSH1 0x40 MLOAD PUSH3 0x461BCD PUSH1 0xE5 SHL DUP2 MSTORE PUSH1 0x4 ADD PUSH2 0xC1A SWAP1 PUSH2 0x4839 JUMP JUMPDEST CALLER ADDRESS EQ PUSH2 0x158D JUMPI PUSH1 0x40 MLOAD PUSH3 0x461BCD PUSH1 0xE5 SHL DUP2 MSTORE PUSH1 0x20 PUSH1 0x4 DUP3 ADD MSTORE PUSH1 0x26 PUSH1 0x24 DUP3 ADD MSTORE PUSH32 0x4E6F6E626C6F636B696E674C7A4170703A2063616C6C6572206D757374206265 PUSH1 0x44 DUP3 ADD MSTORE PUSH6 0x204C7A41707 PUSH1 0xD4 SHL PUSH1 0x64 DUP3 ADD MSTORE PUSH1 0x84 ADD PUSH2 0xC1A JUMP JUMPDEST PUSH2 0x1603 DUP7 DUP7 DUP7 DUP1 DUP1 PUSH1 0x1F ADD PUSH1 0x20 DUP1 SWAP2 DIV MUL PUSH1 0x20 ADD PUSH1 0x40 MLOAD SWAP1 DUP2 ADD PUSH1 0x40 MSTORE DUP1 SWAP4 SWAP3 SWAP2 SWAP1 DUP2 DUP2 MSTORE PUSH1 0x20 ADD DUP4 DUP4 DUP1 DUP3 DUP5 CALLDATACOPY PUSH1 0x0 SWAP3 ADD SWAP2 SWAP1 SWAP2 MSTORE POP POP PUSH1 0x40 DUP1 MLOAD PUSH1 0x20 PUSH1 0x1F DUP10 ADD DUP2 SWAP1 DIV DUP2 MUL DUP3 ADD DUP2 ADD SWAP1 SWAP3 MSTORE DUP8 DUP2 MSTORE DUP10 SWAP4 POP SWAP2 POP DUP8 SWAP1 DUP8 SWAP1 DUP2 SWAP1 DUP5 ADD DUP4 DUP3 DUP1 DUP3 DUP5 CALLDATACOPY PUSH1 0x0 SWAP3 ADD SWAP2 SWAP1 SWAP2 MSTORE POP PUSH2 0x2B37 SWAP3 POP POP POP JUMP JUMPDEST POP POP POP POP POP POP JUMP JUMPDEST PUSH1 0x0 PUSH1 0x1 PUSH1 0x1 PUSH1 0xA0 SHL SUB DUP3 AND PUSH2 0x1675 JUMPI PUSH1 0x40 MLOAD PUSH3 0x461BCD PUSH1 0xE5 SHL DUP2 MSTORE PUSH1 0x20 PUSH1 0x4 DUP3 ADD MSTORE PUSH1 0x29 PUSH1 0x24 DUP3 ADD MSTORE PUSH32 0x4552433732313A2061646472657373207A65726F206973206E6F742061207661 PUSH1 0x44 DUP3 ADD MSTORE PUSH9 0x3634B21037BBB732B9 PUSH1 0xB9 SHL PUSH1 0x64 DUP3 ADD MSTORE PUSH1 0x84 ADD PUSH2 0xC1A JUMP JUMPDEST POP PUSH1 0x1 PUSH1 0x1 PUSH1 0xA0 SHL SUB AND PUSH1 0x0 SWAP1 DUP2 MSTORE PUSH1 0xE PUSH1 0x20 MSTORE PUSH1 0x40 SWAP1 KECCAK256 SLOAD SWAP1 JUMP JUMPDEST PUSH2 0x1699 PUSH2 0x264E JUMP JUMPDEST PUSH2 0x16A3 PUSH1 0x0 PUSH2 0x2C8E JUMP JUMPDEST JUMP JUMPDEST PUSH1 0x1 PUSH1 0x20 MSTORE PUSH1 0x0 SWAP1 DUP2 MSTORE PUSH1 0x40 SWAP1 KECCAK256 DUP1 SLOAD PUSH2 0x16BE SWAP1 PUSH2 0x4579 JUMP JUMPDEST DUP1 PUSH1 0x1F ADD PUSH1 0x20 DUP1 SWAP2 DIV MUL PUSH1 0x20 ADD PUSH1 0x40 MLOAD SWAP1 DUP2 ADD PUSH1 0x40 MSTORE DUP1 SWAP3 SWAP2 SWAP1 DUP2 DUP2 MSTORE PUSH1 0x20 ADD DUP3 DUP1 SLOAD PUSH2 0x16EA SWAP1 PUSH2 0x4579 JUMP JUMPDEST DUP1 ISZERO PUSH2 0x1737 JUMPI DUP1 PUSH1 0x1F LT PUSH2 0x170C JUMPI PUSH2 0x100 DUP1 DUP4 SLOAD DIV MUL DUP4 MSTORE SWAP2 PUSH1 0x20 ADD SWAP2 PUSH2 0x1737 JUMP JUMPDEST DUP3 ADD SWAP2 SWAP1 PUSH1 0x0 MSTORE PUSH1 0x20 PUSH1 0x0 KECCAK256 SWAP1 JUMPDEST DUP2 SLOAD DUP2 MSTORE SWAP1 PUSH1 0x1 ADD SWAP1 PUSH1 0x20 ADD DUP1 DUP4 GT PUSH2 0x171A JUMPI DUP3 SWAP1 SUB PUSH1 0x1F AND DUP3 ADD SWAP2 JUMPDEST POP POP POP POP POP DUP2 JUMP JUMPDEST PUSH1 0x0 SLOAD PUSH1 0x1 PUSH1 0x1 PUSH1 0xA0 SHL SUB AND SWAP1 JUMP JUMPDEST PUSH2 0x1756 PUSH2 0x2CDE JUMP JUMPDEST DUP1 MLOAD PUSH1 0x20 DUP1 DUP4 ADD SWAP2 SWAP1 SWAP2 KECCAK256 PUSH1 0x0 DUP2 DUP2 MSTORE PUSH1 0xA SWAP1 SWAP3 MSTORE PUSH1 0x40 SWAP1 SWAP2 KECCAK256 PUSH1 0x2 ADD SLOAD PUSH1 0xFF AND PUSH2 0x17B7 JUMPI PUSH1 0x40 MLOAD PUSH3 0x461BCD PUSH1 0xE5 SHL DUP2 MSTORE PUSH1 0x20 PUSH1 0x4 DUP3 ADD MSTORE PUSH1 0x11 PUSH1 0x24 DUP3 ADD MSTORE PUSH17 0x1B9BC818DC99591A5D1CC81CDD1BDC9959 PUSH1 0x7A SHL PUSH1 0x44 DUP3 ADD MSTORE PUSH1 0x64 ADD PUSH2 0xC1A JUMP JUMPDEST PUSH1 0x0 DUP3 DUP1 PUSH1 0x20 ADD SWAP1 MLOAD DUP2 ADD SWAP1 PUSH2 0x17CD SWAP2 SWAP1 PUSH2 0x48B0 JUMP JUMPDEST PUSH1 0x0 DUP5 DUP2 MSTORE PUSH1 0xA PUSH1 0x20 MSTORE PUSH1 0x40 DUP2 KECCAK256 DUP1 SLOAD PUSH1 0x1 SWAP1 SWAP2 ADD SLOAD SWAP3 SWAP5 POP SWAP1 SWAP3 POP PUSH2 0x1809 SWAP2 PUSH2 0xFFFF DUP3 AND SWAP2 PUSH3 0x10000 SWAP1 DIV PUSH1 0x1 PUSH1 0x1 PUSH1 0xA0 SHL SUB AND SWAP1 DUP6 PUSH2 0x2D37 JUMP JUMPDEST PUSH1 0x0 DUP5 DUP2 MSTORE PUSH1 0xA PUSH1 0x20 MSTORE PUSH1 0x40 SWAP1 KECCAK256 PUSH1 0x1 ADD SLOAD SWAP1 SWAP2 POP DUP2 GT PUSH2 0x187E JUMPI PUSH1 0x40 MLOAD PUSH3 0x461BCD PUSH1 0xE5 SHL DUP2 MSTORE PUSH1 0x20 PUSH1 0x4 DUP3 ADD MSTORE PUSH1 0x29 PUSH1 0x24 DUP3 ADD MSTORE PUSH32 0x6E6F7420656E6F7567682067617320746F2070726F6365737320637265646974 PUSH1 0x44 DUP3 ADD MSTORE PUSH9 0x103A3930B739B332B9 PUSH1 0xB9 SHL PUSH1 0x64 DUP3 ADD MSTORE PUSH1 0x84 ADD PUSH2 0xC1A JUMP JUMPDEST DUP2 MLOAD DUP2 SUB PUSH2 0x18F5 JUMPI PUSH1 0x0 DUP4 DUP2 MSTORE PUSH1 0xA PUSH1 0x20 MSTORE PUSH1 0x40 DUP1 DUP3 KECCAK256 DUP1 SLOAD PUSH1 0x1 PUSH1 0x1 PUSH1 0xB0 SHL SUB NOT AND DUP2 SSTORE PUSH1 0x1 DUP2 ADD SWAP3 SWAP1 SWAP3 SSTORE PUSH1 0x2 SWAP1 SWAP2 ADD DUP1 SLOAD PUSH1 0xFF NOT AND SWAP1 SSTORE MLOAD PUSH32 0xD7BE02B8DD0D27BD0517A9CB4D7469CE27DF4313821AE5EC1FF69ACC594BA233 SWAP1 PUSH2 0x18E8 SWAP1 DUP6 DUP2 MSTORE PUSH1 0x20 ADD SWAP1 JUMP JUMPDEST PUSH1 0x40 MLOAD DUP1 SWAP2 SUB SWAP1 LOG1 PUSH2 0x1989 JUMP JUMPDEST PUSH1 0x40 DUP1 MLOAD PUSH1 0x80 DUP2 ADD DUP3 MSTORE PUSH1 0x0 DUP6 DUP2 MSTORE PUSH1 0xA PUSH1 0x20 DUP2 DUP2 MSTORE DUP5 DUP4 KECCAK256 DUP1 SLOAD PUSH2 0xFFFF DUP1 DUP3 AND DUP8 MSTORE PUSH1 0x1 PUSH1 0x1 PUSH1 0xA0 SHL SUB PUSH3 0x10000 DUP1 DUP5 DIV DUP3 AND DUP7 DUP11 ADD SWAP1 DUP2 MSTORE SWAP10 DUP10 ADD DUP12 DUP2 MSTORE PUSH1 0x1 PUSH1 0x60 DUP12 ADD DUP2 DUP2 MSTORE SWAP10 DUP16 SWAP1 MSTORE SWAP8 SWAP1 SWAP7 MSTORE SWAP8 MLOAD SWAP9 MLOAD AND SWAP1 SWAP7 MUL PUSH1 0x1 PUSH1 0x1 PUSH1 0xB0 SHL SUB NOT SWAP1 SWAP2 AND SWAP7 SWAP1 SWAP6 AND SWAP6 SWAP1 SWAP6 OR SWAP4 SWAP1 SWAP4 OR DUP5 SSTORE SWAP2 MLOAD SWAP2 DUP4 ADD SWAP2 SWAP1 SWAP2 SSTORE MLOAD PUSH1 0x2 SWAP1 SWAP2 ADD DUP1 SLOAD SWAP2 ISZERO ISZERO PUSH1 0xFF NOT SWAP1 SWAP3 AND SWAP2 SWAP1 SWAP2 OR SWAP1 SSTORE JUMPDEST POP POP POP PUSH2 0x1996 PUSH1 0x1 PUSH1 0x6 SSTORE JUMP JUMPDEST POP JUMP JUMPDEST PUSH1 0x60 PUSH1 0xC DUP1 SLOAD PUSH2 0xE11 SWAP1 PUSH2 0x4579 JUMP JUMPDEST PUSH2 0x19B0 PUSH2 0x264E JUMP JUMPDEST PUSH1 0x1 PUSH1 0x1 PUSH1 0xA0 SHL SUB DUP2 AND PUSH2 0x1A00 JUMPI PUSH1 0x40 MLOAD PUSH3 0x461BCD PUSH1 0xE5 SHL DUP2 MSTORE PUSH1 0x20 PUSH1 0x4 DUP3 ADD MSTORE PUSH1 0x17 PUSH1 0x24 DUP3 ADD MSTORE PUSH23 0x496E76616C69642068616E646C65722061646472657373 PUSH1 0x48 SHL PUSH1 0x44 DUP3 ADD MSTORE PUSH1 0x64 ADD PUSH2 0xC1A JUMP JUMPDEST PUSH1 0x14 DUP1 SLOAD PUSH1 0x1 PUSH1 0x1 PUSH1 0xA0 SHL SUB NOT AND PUSH1 0x1 PUSH1 0x1 PUSH1 0xA0 SHL SUB SWAP3 SWAP1 SWAP3 AND SWAP2 SWAP1 SWAP2 OR SWAP1 SSTORE JUMP JUMPDEST PUSH2 0x1A2A PUSH2 0x264E JUMP JUMPDEST PUSH1 0x0 DUP2 GT PUSH2 0x1A85 JUMPI PUSH1 0x40 MLOAD PUSH3 0x461BCD PUSH1 0xE5 SHL DUP2 MSTORE PUSH1 0x20 PUSH1 0x4 DUP3 ADD MSTORE PUSH1 0x22 PUSH1 0x24 DUP3 ADD MSTORE PUSH32 0x647374436861696E4964546F42617463684C696D6974206D757374206265203E PUSH1 0x44 DUP3 ADD MSTORE PUSH2 0x203 PUSH1 0xF4 SHL PUSH1 0x64 DUP3 ADD MSTORE PUSH1 0x84 ADD PUSH2 0xC1A JUMP JUMPDEST PUSH2 0xFFFF DUP3 AND PUSH1 0x0 DUP2 DUP2 MSTORE PUSH1 0x8 PUSH1 0x20 SWAP1 DUP2 MSTORE PUSH1 0x40 SWAP2 DUP3 SWAP1 KECCAK256 DUP5 SWAP1 SSTORE DUP2 MLOAD SWAP3 DUP4 MSTORE DUP3 ADD DUP4 SWAP1 MSTORE PUSH32 0x7315F7654D594EAD24A30160ED9BA2D23247F543016B918343591E93D7AFDB6D SWAP2 ADD JUMPDEST PUSH1 0x40 MLOAD DUP1 SWAP2 SUB SWAP1 LOG1 POP POP JUMP JUMPDEST PUSH2 0xFFFF DUP2 AND PUSH1 0x0 SWAP1 DUP2 MSTORE PUSH1 0x1 PUSH1 0x20 MSTORE PUSH1 0x40 DUP2 KECCAK256 DUP1 SLOAD PUSH1 0x60 SWAP3 SWAP2 SWAP1 PUSH2 0x1AFC SWAP1 PUSH2 0x4579 JUMP JUMPDEST DUP1 PUSH1 0x1F ADD PUSH1 0x20 DUP1 SWAP2 DIV MUL PUSH1 0x20 ADD PUSH1 0x40 MLOAD SWAP1 DUP2 ADD PUSH1 0x40 MSTORE DUP1 SWAP3 SWAP2 SWAP1 DUP2 DUP2 MSTORE PUSH1 0x20 ADD DUP3 DUP1 SLOAD PUSH2 0x1B28 SWAP1 PUSH2 0x4579 JUMP JUMPDEST DUP1 ISZERO PUSH2 0x1B75 JUMPI DUP1 PUSH1 0x1F LT PUSH2 0x1B4A JUMPI PUSH2 0x100 DUP1 DUP4 SLOAD DIV MUL DUP4 MSTORE SWAP2 PUSH1 0x20 ADD SWAP2 PUSH2 0x1B75 JUMP JUMPDEST DUP3 ADD SWAP2 SWAP1 PUSH1 0x0 MSTORE PUSH1 0x20 PUSH1 0x0 KECCAK256 SWAP1 JUMPDEST DUP2 SLOAD DUP2 MSTORE SWAP1 PUSH1 0x1 ADD SWAP1 PUSH1 0x20 ADD DUP1 DUP4 GT PUSH2 0x1B58 JUMPI DUP3 SWAP1 SUB PUSH1 0x1F AND DUP3 ADD SWAP2 JUMPDEST POP POP POP POP POP SWAP1 POP DUP1 MLOAD PUSH1 0x0 SUB PUSH2 0x1BCD JUMPI PUSH1 0x40 MLOAD PUSH3 0x461BCD PUSH1 0xE5 SHL DUP2 MSTORE PUSH1 0x20 PUSH1 0x4 DUP3 ADD MSTORE PUSH1 0x1D PUSH1 0x24 DUP3 ADD MSTORE PUSH32 0x4C7A4170703A206E6F20747275737465642070617468207265636F7264000000 PUSH1 0x44 DUP3 ADD MSTORE PUSH1 0x64 ADD PUSH2 0xC1A JUMP JUMPDEST PUSH2 0x1BE8 PUSH1 0x0 PUSH1 0x14 DUP4 MLOAD PUSH2 0x1BE0 SWAP2 SWAP1 PUSH2 0x496A JUMP JUMPDEST DUP4 SWAP2 SWAP1 PUSH2 0x2D83 JUMP JUMPDEST SWAP4 SWAP3 POP POP POP JUMP JUMPDEST PUSH2 0x1352 CALLER DUP4 DUP4 PUSH2 0x2E90 JUMP JUMPDEST PUSH2 0x1C02 PUSH2 0x264E JUMP JUMPDEST DUP2 DUP2 ADDRESS PUSH1 0x40 MLOAD PUSH1 0x20 ADD PUSH2 0x1C17 SWAP4 SWAP3 SWAP2 SWAP1 PUSH2 0x497D JUMP JUMPDEST PUSH1 0x40 DUP1 MLOAD PUSH1 0x1F NOT DUP2 DUP5 SUB ADD DUP2 MSTORE SWAP2 DUP2 MSTORE PUSH2 0xFFFF DUP6 AND PUSH1 0x0 SWAP1 DUP2 MSTORE PUSH1 0x1 PUSH1 0x20 MSTORE KECCAK256 SWAP1 PUSH2 0x1C42 SWAP1 DUP3 PUSH2 0x4780 JUMP JUMPDEST POP PUSH32 0x8C0400CFE2D1199B1A725C78960BCC2A344D869B80590D0F2BD005DB15A572CE DUP4 DUP4 DUP4 PUSH1 0x40 MLOAD PUSH2 0x1C76 SWAP4 SWAP3 SWAP2 SWAP1 PUSH2 0x4707 JUMP JUMPDEST PUSH1 0x40 MLOAD DUP1 SWAP2 SUB SWAP1 LOG1 POP POP POP JUMP JUMPDEST PUSH2 0xDCE DUP8 DUP8 DUP8 DUP8 DUP8 DUP8 DUP8 PUSH2 0x2948 JUMP JUMPDEST PUSH2 0x1C9C CALLER DUP4 PUSH2 0x2740 JUMP JUMPDEST PUSH2 0x1CB8 JUMPI PUSH1 0x40 MLOAD PUSH3 0x461BCD PUSH1 0xE5 SHL DUP2 MSTORE PUSH1 0x4 ADD PUSH2 0xC1A SWAP1 PUSH2 0x45C3 JUMP JUMPDEST PUSH2 0x1CC4 DUP5 DUP5 DUP5 DUP5 PUSH2 0x2F5A JUMP JUMPDEST POP POP POP POP JUMP JUMPDEST PUSH2 0x1CD2 PUSH2 0x264E JUMP JUMPDEST PUSH1 0x4 DUP1 SLOAD PUSH1 0x1 PUSH1 0x1 PUSH1 0xA0 SHL SUB NOT AND PUSH1 0x1 PUSH1 0x1 PUSH1 0xA0 SHL SUB DUP4 AND OR SWAP1 SSTORE PUSH1 0x40 MLOAD PUSH32 0x5DB758E995A17EC1AD84BDEF7E8C3293A0BD6179BCCE400DFF5D4C3D87DB726B SWAP1 PUSH2 0x10EE SWAP1 DUP4 SWAP1 PUSH2 0x3CBD JUMP JUMPDEST PUSH2 0x1D25 PUSH2 0x264E JUMP JUMPDEST PUSH2 0x3E8 DUP2 PUSH1 0x1 PUSH1 0x1 PUSH1 0x60 SHL SUB AND GT ISZERO PUSH2 0x1D73 JUMPI PUSH1 0x40 MLOAD PUSH3 0x461BCD PUSH1 0xE5 SHL DUP2 MSTORE PUSH1 0x20 PUSH1 0x4 DUP3 ADD MSTORE PUSH1 0x10 PUSH1 0x24 DUP3 ADD MSTORE PUSH16 0x546F6F206869676820726F79616C7479 PUSH1 0x80 SHL PUSH1 0x44 DUP3 ADD MSTORE PUSH1 0x64 ADD PUSH2 0xC1A JUMP JUMPDEST PUSH1 0x14 SLOAD PUSH1 0x1 PUSH1 0x1 PUSH1 0xA0 SHL SUB AND PUSH2 0x1DC4 JUMPI PUSH1 0x40 MLOAD PUSH3 0x461BCD PUSH1 0xE5 SHL DUP2 MSTORE PUSH1 0x20 PUSH1 0x4 DUP3 ADD MSTORE PUSH1 0x16 PUSH1 0x24 DUP3 ADD MSTORE PUSH22 0x29B2BA103A3432903937BCB0B63A3CA430B7323632B9 PUSH1 0x51 SHL PUSH1 0x44 DUP3 ADD MSTORE PUSH1 0x64 ADD PUSH2 0xC1A JUMP JUMPDEST PUSH1 0x14 SLOAD PUSH2 0x1DDA SWAP1 PUSH1 0x1 PUSH1 0x1 PUSH1 0xA0 SHL SUB AND DUP3 PUSH2 0x2F8D JUMP JUMPDEST PUSH1 0x40 MLOAD PUSH1 0x1 PUSH1 0x1 PUSH1 0x60 SHL SUB DUP3 AND DUP2 MSTORE PUSH32 0xF56C18F7A70485E938B87E3D7E58858E493A28163EB0EFB8F9B607F50D0A9127 SWAP1 PUSH1 0x20 ADD PUSH2 0x10EE JUMP JUMPDEST PUSH1 0x60 PUSH2 0x1E1E DUP3 PUSH2 0x26AD JUMP JUMPDEST PUSH1 0x0 PUSH2 0x1E35 PUSH1 0x40 DUP1 MLOAD PUSH1 0x20 DUP2 ADD SWAP1 SWAP2 MSTORE PUSH1 0x0 DUP2 MSTORE SWAP1 JUMP JUMPDEST SWAP1 POP PUSH1 0x0 DUP2 MLOAD GT PUSH2 0x1E55 JUMPI PUSH1 0x40 MLOAD DUP1 PUSH1 0x20 ADD PUSH1 0x40 MSTORE DUP1 PUSH1 0x0 DUP2 MSTORE POP PUSH2 0x1BE8 JUMP JUMPDEST DUP1 PUSH2 0x1E5F DUP5 PUSH2 0x3086 JUMP JUMPDEST PUSH1 0x40 MLOAD PUSH1 0x20 ADD PUSH2 0x1E70 SWAP3 SWAP2 SWAP1 PUSH2 0x499E JUMP JUMPDEST PUSH1 0x40 MLOAD PUSH1 0x20 DUP2 DUP4 SUB SUB DUP2 MSTORE SWAP1 PUSH1 0x40 MSTORE SWAP4 SWAP3 POP POP POP JUMP JUMPDEST PUSH2 0x1E8E PUSH2 0x264E JUMP JUMPDEST PUSH1 0x40 MLOAD PUSH4 0x32FB62E7 PUSH1 0xE2 SHL DUP2 MSTORE PUSH1 0x1 PUSH1 0x1 PUSH1 0xA0 SHL SUB PUSH32 0x0 AND SWAP1 PUSH4 0xCBED8B9C SWAP1 PUSH2 0x1EE2 SWAP1 DUP9 SWAP1 DUP9 SWAP1 DUP9 SWAP1 DUP9 SWAP1 DUP9 SWAP1 PUSH1 0x4 ADD PUSH2 0x49CD JUMP JUMPDEST PUSH1 0x0 PUSH1 0x40 MLOAD DUP1 DUP4 SUB DUP2 PUSH1 0x0 DUP8 DUP1 EXTCODESIZE ISZERO DUP1 ISZERO PUSH2 0x1EFC JUMPI PUSH1 0x0 DUP1 REVERT JUMPDEST POP GAS CALL ISZERO DUP1 ISZERO PUSH2 0x1F10 JUMPI RETURNDATASIZE PUSH1 0x0 DUP1 RETURNDATACOPY RETURNDATASIZE PUSH1 0x0 REVERT JUMPDEST POP POP POP POP POP POP POP POP POP JUMP JUMPDEST PUSH2 0x1F23 PUSH2 0x264E JUMP JUMPDEST PUSH1 0x0 DUP2 GT PUSH2 0x1F7F JUMPI PUSH1 0x40 MLOAD PUSH3 0x461BCD PUSH1 0xE5 SHL DUP2 MSTORE PUSH1 0x20 PUSH1 0x4 DUP3 ADD MSTORE PUSH1 0x23 PUSH1 0x24 DUP3 ADD MSTORE PUSH32 0x647374436861696E4964546F5472616E73666572476173206D75737420626520 PUSH1 0x44 DUP3 ADD MSTORE PUSH3 0x3E203 PUSH1 0xEC SHL PUSH1 0x64 DUP3 ADD MSTORE PUSH1 0x84 ADD PUSH2 0xC1A JUMP JUMPDEST PUSH2 0xFFFF DUP3 AND PUSH1 0x0 DUP2 DUP2 MSTORE PUSH1 0x9 PUSH1 0x20 SWAP1 DUP2 MSTORE PUSH1 0x40 SWAP2 DUP3 SWAP1 KECCAK256 DUP5 SWAP1 SSTORE DUP2 MLOAD SWAP3 DUP4 MSTORE DUP3 ADD DUP4 SWAP1 MSTORE PUSH32 0xC46DF2983228AC2D9754E94A0D565E6671665DC8AD38602BC8E544F0685A29FB SWAP2 ADD PUSH2 0x1ACD JUMP JUMPDEST PUSH2 0xFFFF DUP7 AND PUSH1 0x0 SWAP1 DUP2 MSTORE PUSH1 0x5 PUSH1 0x20 MSTORE PUSH1 0x40 DUP1 DUP3 KECCAK256 SWAP1 MLOAD PUSH2 0x1FEE SWAP1 DUP9 SWAP1 DUP9 SWAP1 PUSH2 0x45B3 JUMP JUMPDEST SWAP1 DUP2 MSTORE PUSH1 0x40 DUP1 MLOAD PUSH1 0x20 SWAP3 DUP2 SWAP1 SUB DUP4 ADD SWAP1 KECCAK256 PUSH1 0x1 PUSH1 0x1 PUSH1 0x40 SHL SUB DUP8 AND PUSH1 0x0 SWAP1 DUP2 MSTORE SWAP3 MSTORE SWAP1 KECCAK256 SLOAD SWAP1 POP DUP1 PUSH2 0x206E JUMPI PUSH1 0x40 MLOAD PUSH3 0x461BCD PUSH1 0xE5 SHL DUP2 MSTORE PUSH1 0x20 PUSH1 0x4 DUP3 ADD MSTORE PUSH1 0x23 PUSH1 0x24 DUP3 ADD MSTORE PUSH32 0x4E6F6E626C6F636B696E674C7A4170703A206E6F2073746F726564206D657373 PUSH1 0x44 DUP3 ADD MSTORE PUSH3 0x616765 PUSH1 0xE8 SHL PUSH1 0x64 DUP3 ADD MSTORE PUSH1 0x84 ADD PUSH2 0xC1A JUMP JUMPDEST DUP1 DUP4 DUP4 PUSH1 0x40 MLOAD PUSH2 0x207F SWAP3 SWAP2 SWAP1 PUSH2 0x45B3 JUMP JUMPDEST PUSH1 0x40 MLOAD DUP1 SWAP2 SUB SWAP1 KECCAK256 EQ PUSH2 0x20DE JUMPI PUSH1 0x40 MLOAD PUSH3 0x461BCD PUSH1 0xE5 SHL DUP2 MSTORE PUSH1 0x20 PUSH1 0x4 DUP3 ADD MSTORE PUSH1 0x21 PUSH1 0x24 DUP3 ADD MSTORE PUSH32 0x4E6F6E626C6F636B696E674C7A4170703A20696E76616C6964207061796C6F61 PUSH1 0x44 DUP3 ADD MSTORE PUSH1 0x19 PUSH1 0xFA SHL PUSH1 0x64 DUP3 ADD MSTORE PUSH1 0x84 ADD PUSH2 0xC1A JUMP JUMPDEST PUSH2 0xFFFF DUP8 AND PUSH1 0x0 SWAP1 DUP2 MSTORE PUSH1 0x5 PUSH1 0x20 MSTORE PUSH1 0x40 DUP1 DUP3 KECCAK256 SWAP1 MLOAD PUSH2 0x2101 SWAP1 DUP10 SWAP1 DUP10 SWAP1 PUSH2 0x45B3 JUMP JUMPDEST SWAP1 DUP2 MSTORE PUSH1 0x40 DUP1 MLOAD PUSH1 0x20 SWAP3 DUP2 SWAP1 SUB DUP4 ADD DUP2 KECCAK256 PUSH1 0x1 PUSH1 0x1 PUSH1 0x40 SHL SUB DUP10 AND PUSH1 0x0 SWAP1 DUP2 MSTORE SWAP1 DUP5 MSTORE DUP3 SWAP1 KECCAK256 SWAP4 SWAP1 SWAP4 SSTORE PUSH1 0x1F DUP9 ADD DUP3 SWAP1 DIV DUP3 MUL DUP4 ADD DUP3 ADD SWAP1 MSTORE DUP7 DUP3 MSTORE PUSH2 0x2199 SWAP2 DUP10 SWAP2 DUP10 SWAP1 DUP10 SWAP1 DUP2 SWAP1 DUP5 ADD DUP4 DUP3 DUP1 DUP3 DUP5 CALLDATACOPY PUSH1 0x0 SWAP3 ADD SWAP2 SWAP1 SWAP2 MSTORE POP POP PUSH1 0x40 DUP1 MLOAD PUSH1 0x20 PUSH1 0x1F DUP11 ADD DUP2 SWAP1 DIV DUP2 MUL DUP3 ADD DUP2 ADD SWAP1 SWAP3 MSTORE DUP9 DUP2 MSTORE DUP11 SWAP4 POP SWAP2 POP DUP9 SWAP1 DUP9 SWAP1 DUP2 SWAP1 DUP5 ADD DUP4 DUP3 DUP1 DUP3 DUP5 CALLDATACOPY PUSH1 0x0 SWAP3 ADD SWAP2 SWAP1 SWAP2 MSTORE POP PUSH2 0x2B37 SWAP3 POP POP POP JUMP JUMPDEST PUSH32 0xC264D91F3ADC5588250E1551F547752CA0CFA8F6B530D243B9F9F4CAB10EA8E5 DUP8 DUP8 DUP8 DUP8 DUP6 PUSH1 0x40 MLOAD PUSH2 0x21D0 SWAP6 SWAP5 SWAP4 SWAP3 SWAP2 SWAP1 PUSH2 0x49FB JUMP JUMPDEST PUSH1 0x40 MLOAD DUP1 SWAP2 SUB SWAP1 LOG1 POP POP POP POP POP POP POP JUMP JUMPDEST PUSH1 0x13 DUP1 SLOAD PUSH2 0x16BE SWAP1 PUSH2 0x4579 JUMP JUMPDEST PUSH2 0x21F6 PUSH2 0x264E JUMP JUMPDEST PUSH2 0xFFFF DUP4 DUP2 AND PUSH1 0x0 DUP2 DUP2 MSTORE PUSH1 0x2 PUSH1 0x20 SWAP1 DUP2 MSTORE PUSH1 0x40 DUP1 DUP4 KECCAK256 SWAP5 DUP8 AND DUP1 DUP5 MSTORE SWAP5 DUP3 MSTORE SWAP2 DUP3 SWAP1 KECCAK256 DUP6 SWAP1 SSTORE DUP2 MLOAD SWAP3 DUP4 MSTORE DUP3 ADD SWAP3 SWAP1 SWAP3 MSTORE SWAP1 DUP2 ADD DUP3 SWAP1 MSTORE PUSH32 0x9D5C7C0B934DA8FEFA9C7760C98383778A12DFBFC0C3B3106518F43FB9508AC0 SWAP1 PUSH1 0x60 ADD PUSH2 0x1C76 JUMP JUMPDEST PUSH1 0x1 PUSH1 0x1 PUSH1 0xA0 SHL SUB SWAP2 DUP3 AND PUSH1 0x0 SWAP1 DUP2 MSTORE PUSH1 0x10 PUSH1 0x20 SWAP1 DUP2 MSTORE PUSH1 0x40 DUP1 DUP4 KECCAK256 SWAP4 SWAP1 SWAP5 AND DUP3 MSTORE SWAP2 SWAP1 SWAP2 MSTORE KECCAK256 SLOAD PUSH1 0xFF AND SWAP1 JUMP JUMPDEST PUSH2 0x228E PUSH2 0x264E JUMP JUMPDEST PUSH2 0xFFFF DUP4 AND PUSH1 0x0 SWAP1 DUP2 MSTORE PUSH1 0x1 PUSH1 0x20 MSTORE PUSH1 0x40 SWAP1 KECCAK256 PUSH2 0x22AC DUP3 DUP5 DUP4 PUSH2 0x4A36 JUMP JUMPDEST POP PUSH32 0xFA41487AD5D6728F0B19276FA1EDDC16558578F5109FC39D2DC33C3230470DAB DUP4 DUP4 DUP4 PUSH1 0x40 MLOAD PUSH2 0x1C76 SWAP4 SWAP3 SWAP2 SWAP1 PUSH2 0x4707 JUMP JUMPDEST PUSH1 0x0 DUP1 PUSH1 0x0 DUP7 DUP7 PUSH1 0x40 MLOAD PUSH1 0x20 ADD PUSH2 0x22F8 SWAP3 SWAP2 SWAP1 PUSH2 0x4B2A JUMP JUMPDEST PUSH1 0x40 DUP1 MLOAD PUSH1 0x1F NOT DUP2 DUP5 SUB ADD DUP2 MSTORE SWAP1 DUP3 SWAP1 MSTORE PUSH4 0x40A7BB1 PUSH1 0xE4 SHL DUP3 MSTORE SWAP2 POP PUSH1 0x1 PUSH1 0x1 PUSH1 0xA0 SHL SUB PUSH32 0x0 AND SWAP1 PUSH4 0x40A7BB10 SWAP1 PUSH2 0x235C SWAP1 DUP12 SWAP1 ADDRESS SWAP1 DUP7 SWAP1 DUP12 SWAP1 DUP12 SWAP1 PUSH1 0x4 ADD PUSH2 0x4B58 JUMP JUMPDEST PUSH1 0x40 DUP1 MLOAD DUP1 DUP4 SUB DUP2 DUP7 GAS STATICCALL ISZERO DUP1 ISZERO PUSH2 0x2378 JUMPI RETURNDATASIZE PUSH1 0x0 DUP1 RETURNDATACOPY RETURNDATASIZE PUSH1 0x0 REVERT JUMPDEST POP POP POP POP PUSH1 0x40 MLOAD RETURNDATASIZE PUSH1 0x1F NOT PUSH1 0x1F DUP3 ADD AND DUP3 ADD DUP1 PUSH1 0x40 MSTORE POP DUP2 ADD SWAP1 PUSH2 0x239C SWAP2 SWAP1 PUSH2 0x4BAC JUMP JUMPDEST SWAP3 POP SWAP3 POP POP SWAP6 POP SWAP6 SWAP4 POP POP POP POP JUMP JUMPDEST PUSH2 0x23B3 PUSH2 0x264E JUMP JUMPDEST PUSH1 0x1 PUSH1 0x1 PUSH1 0xA0 SHL SUB DUP2 AND PUSH2 0x2418 JUMPI PUSH1 0x40 MLOAD PUSH3 0x461BCD PUSH1 0xE5 SHL DUP2 MSTORE PUSH1 0x20 PUSH1 0x4 DUP3 ADD MSTORE PUSH1 0x26 PUSH1 0x24 DUP3 ADD MSTORE PUSH32 0x4F776E61626C653A206E6577206F776E657220697320746865207A65726F2061 PUSH1 0x44 DUP3 ADD MSTORE PUSH6 0x646472657373 PUSH1 0xD0 SHL PUSH1 0x64 DUP3 ADD MSTORE PUSH1 0x84 ADD PUSH2 0xC1A JUMP JUMPDEST PUSH2 0x1996 DUP2 PUSH2 0x2C8E JUMP JUMPDEST PUSH1 0x40 MLOAD PUSH4 0x3D7B2F6F PUSH1 0xE2 SHL DUP2 MSTORE PUSH2 0xFFFF DUP1 DUP7 AND PUSH1 0x4 DUP4 ADD MSTORE DUP5 AND PUSH1 0x24 DUP3 ADD MSTORE ADDRESS PUSH1 0x44 DUP3 ADD MSTORE PUSH1 0x64 DUP2 ADD DUP3 SWAP1 MSTORE PUSH1 0x60 SWAP1 PUSH32 0x0 PUSH1 0x1 PUSH1 0x1 PUSH1 0xA0 SHL SUB AND SWAP1 PUSH4 0xF5ECBDBC SWAP1 PUSH1 0x84 ADD PUSH1 0x0 PUSH1 0x40 MLOAD DUP1 DUP4 SUB DUP2 DUP7 GAS STATICCALL ISZERO DUP1 ISZERO PUSH2 0x24A1 JUMPI RETURNDATASIZE PUSH1 0x0 DUP1 RETURNDATACOPY RETURNDATASIZE PUSH1 0x0 REVERT JUMPDEST POP POP POP POP PUSH1 0x40 MLOAD RETURNDATASIZE PUSH1 0x0 DUP3 RETURNDATACOPY PUSH1 0x1F RETURNDATASIZE SWAP1 DUP2 ADD PUSH1 0x1F NOT AND DUP3 ADD PUSH1 0x40 MSTORE PUSH2 0x24C9 SWAP2 SWAP1 DUP2 ADD SWAP1 PUSH2 0x4BD0 JUMP JUMPDEST SWAP1 POP JUMPDEST SWAP5 SWAP4 POP POP POP POP JUMP JUMPDEST PUSH2 0x24DC PUSH2 0x264E JUMP JUMPDEST PUSH1 0x0 DUP2 MLOAD GT PUSH2 0x24FD JUMPI PUSH1 0x40 MLOAD PUSH3 0x461BCD PUSH1 0xE5 SHL DUP2 MSTORE PUSH1 0x4 ADD PUSH2 0xC1A SWAP1 PUSH2 0x465F JUMP JUMPDEST PUSH1 0x0 JUMPDEST DUP2 MLOAD DUP2 LT ISZERO PUSH2 0x1352 JUMPI PUSH1 0x0 PUSH1 0x1 PUSH1 0x1 PUSH1 0xA0 SHL SUB AND DUP3 DUP3 DUP2 MLOAD DUP2 LT PUSH2 0x2526 JUMPI PUSH2 0x2526 PUSH2 0x4686 JUMP JUMPDEST PUSH1 0x20 MUL PUSH1 0x20 ADD ADD MLOAD PUSH1 0x1 PUSH1 0x1 PUSH1 0xA0 SHL SUB AND SUB PUSH2 0x2554 JUMPI PUSH1 0x40 MLOAD PUSH3 0x461BCD PUSH1 0xE5 SHL DUP2 MSTORE PUSH1 0x4 ADD PUSH2 0xC1A SWAP1 PUSH2 0x469C JUMP JUMPDEST PUSH1 0x1 PUSH1 0x15 PUSH1 0x0 DUP5 DUP5 DUP2 MLOAD DUP2 LT PUSH2 0x256C JUMPI PUSH2 0x256C PUSH2 0x4686 JUMP JUMPDEST PUSH1 0x20 SWAP1 DUP2 MUL SWAP2 SWAP1 SWAP2 ADD DUP2 ADD MLOAD PUSH1 0x1 PUSH1 0x1 PUSH1 0xA0 SHL SUB AND DUP3 MSTORE DUP2 ADD SWAP2 SWAP1 SWAP2 MSTORE PUSH1 0x40 ADD PUSH1 0x0 KECCAK256 DUP1 SLOAD PUSH1 0xFF NOT AND SWAP2 ISZERO ISZERO SWAP2 SWAP1 SWAP2 OR SWAP1 SSTORE DUP1 PUSH2 0x25A8 DUP2 PUSH2 0x46C5 JUMP JUMPDEST SWAP2 POP POP PUSH2 0x2500 JUMP JUMPDEST PUSH1 0x0 DUP1 PUSH2 0x2613 GAS PUSH1 0x96 PUSH4 0x66AD5C8A PUSH1 0xE0 SHL DUP10 DUP10 DUP10 DUP10 PUSH1 0x40 MLOAD PUSH1 0x24 ADD PUSH2 0x25D8 SWAP5 SWAP4 SWAP3 SWAP2 SWAP1 PUSH2 0x4C04 JUMP JUMPDEST PUSH1 0x40 DUP1 MLOAD PUSH1 0x1F NOT DUP2 DUP5 SUB ADD DUP2 MSTORE SWAP2 SWAP1 MSTORE PUSH1 0x20 DUP2 ADD DUP1 MLOAD PUSH1 0x1 PUSH1 0x1 PUSH1 0xE0 SHL SUB AND PUSH1 0x1 PUSH1 0x1 PUSH1 0xE0 SHL SUB NOT SWAP1 SWAP4 AND SWAP3 SWAP1 SWAP3 OR SWAP1 SWAP2 MSTORE ADDRESS SWAP3 SWAP2 SWAP1 PUSH2 0x3118 JUMP JUMPDEST SWAP2 POP SWAP2 POP DUP2 PUSH2 0x1603 JUMPI PUSH2 0x1603 DUP7 DUP7 DUP7 DUP7 DUP6 PUSH2 0x31A2 JUMP JUMPDEST PUSH1 0x0 PUSH1 0x1 PUSH1 0x1 PUSH1 0xE0 SHL SUB NOT DUP3 AND PUSH4 0x152A902D PUSH1 0xE1 SHL EQ DUP1 PUSH2 0xDFC JUMPI POP PUSH2 0xDFC DUP3 PUSH2 0x323F JUMP JUMPDEST CALLER PUSH2 0x2657 PUSH2 0x173F JUMP JUMPDEST PUSH1 0x1 PUSH1 0x1 PUSH1 0xA0 SHL SUB AND EQ PUSH2 0x16A3 JUMPI PUSH1 0x40 MLOAD PUSH3 0x461BCD PUSH1 0xE5 SHL DUP2 MSTORE PUSH1 0x20 PUSH1 0x4 DUP3 ADD DUP2 SWAP1 MSTORE PUSH1 0x24 DUP3 ADD MSTORE PUSH32 0x4F776E61626C653A2063616C6C6572206973206E6F7420746865206F776E6572 PUSH1 0x44 DUP3 ADD MSTORE PUSH1 0x64 ADD PUSH2 0xC1A JUMP JUMPDEST PUSH2 0x26B6 DUP2 PUSH2 0x325C JUMP JUMPDEST PUSH2 0x1996 JUMPI PUSH1 0x40 MLOAD PUSH3 0x461BCD PUSH1 0xE5 SHL DUP2 MSTORE PUSH1 0x4 ADD PUSH2 0xC1A SWAP1 PUSH2 0x4839 JUMP JUMPDEST PUSH1 0x0 DUP2 DUP2 MSTORE PUSH1 0xF PUSH1 0x20 MSTORE PUSH1 0x40 SWAP1 KECCAK256 DUP1 SLOAD PUSH1 0x1 PUSH1 0x1 PUSH1 0xA0 SHL SUB NOT AND PUSH1 0x1 PUSH1 0x1 PUSH1 0xA0 SHL SUB DUP5 AND SWAP1 DUP2 OR SWAP1 SWAP2 SSTORE DUP2 SWAP1 PUSH2 0x2707 DUP3 PUSH2 0x14FB JUMP JUMPDEST PUSH1 0x1 PUSH1 0x1 PUSH1 0xA0 SHL SUB AND PUSH32 0x8C5BE1E5EBEC7D5BD14F71427D1E84F3DD0314C0F7B2291E5B200AC8C7C3B925 PUSH1 0x40 MLOAD PUSH1 0x40 MLOAD DUP1 SWAP2 SUB SWAP1 LOG4 POP POP JUMP JUMPDEST PUSH1 0x0 DUP1 PUSH2 0x274C DUP4 PUSH2 0x14FB JUMP JUMPDEST SWAP1 POP DUP1 PUSH1 0x1 PUSH1 0x1 PUSH1 0xA0 SHL SUB AND DUP5 PUSH1 0x1 PUSH1 0x1 PUSH1 0xA0 SHL SUB AND EQ DUP1 PUSH2 0x2773 JUMPI POP PUSH2 0x2773 DUP2 DUP6 PUSH2 0x2258 JUMP JUMPDEST DUP1 PUSH2 0x24CC JUMPI POP DUP4 PUSH1 0x1 PUSH1 0x1 PUSH1 0xA0 SHL SUB AND PUSH2 0x278C DUP5 PUSH2 0xF1D JUMP JUMPDEST PUSH1 0x1 PUSH1 0x1 PUSH1 0xA0 SHL SUB AND EQ SWAP5 SWAP4 POP POP POP POP JUMP JUMPDEST DUP3 PUSH1 0x1 PUSH1 0x1 PUSH1 0xA0 SHL SUB AND PUSH2 0x27B1 DUP3 PUSH2 0x14FB JUMP JUMPDEST PUSH1 0x1 PUSH1 0x1 PUSH1 0xA0 SHL SUB AND EQ PUSH2 0x27D7 JUMPI PUSH1 0x40 MLOAD PUSH3 0x461BCD PUSH1 0xE5 SHL DUP2 MSTORE PUSH1 0x4 ADD PUSH2 0xC1A SWAP1 PUSH2 0x4C42 JUMP JUMPDEST PUSH1 0x1 PUSH1 0x1 PUSH1 0xA0 SHL SUB DUP3 AND PUSH2 0x2839 JUMPI PUSH1 0x40 MLOAD PUSH3 0x461BCD PUSH1 0xE5 SHL DUP2 MSTORE PUSH1 0x20 PUSH1 0x4 DUP3 ADD MSTORE PUSH1 0x24 DUP1 DUP3 ADD MSTORE PUSH32 0x4552433732313A207472616E7366657220746F20746865207A65726F20616464 PUSH1 0x44 DUP3 ADD MSTORE PUSH4 0x72657373 PUSH1 0xE0 SHL PUSH1 0x64 DUP3 ADD MSTORE PUSH1 0x84 ADD PUSH2 0xC1A JUMP JUMPDEST PUSH2 0x2846 DUP4 DUP4 DUP4 PUSH1 0x1 PUSH2 0x3279 JUMP JUMPDEST DUP3 PUSH1 0x1 PUSH1 0x1 PUSH1 0xA0 SHL SUB AND PUSH2 0x2859 DUP3 PUSH2 0x14FB JUMP JUMPDEST PUSH1 0x1 PUSH1 0x1 PUSH1 0xA0 SHL SUB AND EQ PUSH2 0x287F JUMPI PUSH1 0x40 MLOAD PUSH3 0x461BCD PUSH1 0xE5 SHL DUP2 MSTORE PUSH1 0x4 ADD PUSH2 0xC1A SWAP1 PUSH2 0x4C42 JUMP JUMPDEST PUSH1 0x0 DUP2 DUP2 MSTORE PUSH1 0xF PUSH1 0x20 SWAP1 DUP2 MSTORE PUSH1 0x40 DUP1 DUP4 KECCAK256 DUP1 SLOAD PUSH1 0x1 PUSH1 0x1 PUSH1 0xA0 SHL SUB NOT SWAP1 DUP2 AND SWAP1 SWAP2 SSTORE PUSH1 0x1 PUSH1 0x1 PUSH1 0xA0 SHL SUB DUP8 DUP2 AND DUP1 DUP7 MSTORE PUSH1 0xE DUP6 MSTORE DUP4 DUP7 KECCAK256 DUP1 SLOAD PUSH1 0x0 NOT ADD SWAP1 SSTORE SWAP1 DUP8 AND DUP1 DUP7 MSTORE DUP4 DUP7 KECCAK256 DUP1 SLOAD PUSH1 0x1 ADD SWAP1 SSTORE DUP7 DUP7 MSTORE PUSH1 0xD SWAP1 SWAP5 MSTORE DUP3 DUP6 KECCAK256 DUP1 SLOAD SWAP1 SWAP3 AND DUP5 OR SWAP1 SWAP2 SSTORE SWAP1 MLOAD DUP5 SWAP4 PUSH1 0x0 DUP1 MLOAD PUSH1 0x20 PUSH2 0x4E7E DUP4 CODECOPY DUP2 MLOAD SWAP2 MSTORE SWAP2 LOG4 POP POP POP JUMP JUMPDEST PUSH1 0x40 DUP1 MLOAD PUSH1 0x1 DUP1 DUP3 MSTORE DUP2 DUP4 ADD SWAP1 SWAP3 MSTORE PUSH1 0x60 SWAP2 PUSH1 0x0 SWAP2 SWAP1 PUSH1 0x20 DUP1 DUP4 ADD SWAP1 DUP1 CALLDATASIZE DUP4 CALLDATACOPY ADD SWAP1 POP POP SWAP1 POP DUP3 DUP2 PUSH1 0x0 DUP2 MLOAD DUP2 LT PUSH2 0x2937 JUMPI PUSH2 0x2937 PUSH2 0x4686 JUMP JUMPDEST PUSH1 0x20 SWAP1 DUP2 MUL SWAP2 SWAP1 SWAP2 ADD ADD MSTORE SWAP3 SWAP2 POP POP JUMP JUMPDEST PUSH1 0x0 DUP5 MLOAD GT PUSH2 0x298F JUMPI PUSH1 0x40 MLOAD PUSH3 0x461BCD PUSH1 0xE5 SHL DUP2 MSTORE PUSH1 0x20 PUSH1 0x4 DUP3 ADD MSTORE PUSH1 0x13 PUSH1 0x24 DUP3 ADD MSTORE PUSH19 0x746F6B656E4964735B5D20697320656D707479 PUSH1 0x68 SHL PUSH1 0x44 DUP3 ADD MSTORE PUSH1 0x64 ADD PUSH2 0xC1A JUMP JUMPDEST DUP4 MLOAD PUSH1 0x1 EQ DUP1 PUSH2 0x29B3 JUMPI POP PUSH2 0xFFFF DUP7 AND PUSH1 0x0 SWAP1 DUP2 MSTORE PUSH1 0x8 PUSH1 0x20 MSTORE PUSH1 0x40 SWAP1 KECCAK256 SLOAD DUP5 MLOAD GT ISZERO JUMPDEST PUSH2 0x2A0A JUMPI PUSH1 0x40 MLOAD PUSH3 0x461BCD PUSH1 0xE5 SHL DUP2 MSTORE PUSH1 0x20 PUSH1 0x4 DUP3 ADD MSTORE PUSH1 0x22 PUSH1 0x24 DUP3 ADD MSTORE PUSH32 0x62617463682073697A65206578636565647320647374206261746368206C696D PUSH1 0x44 DUP3 ADD MSTORE PUSH2 0x1A5D PUSH1 0xF2 SHL PUSH1 0x64 DUP3 ADD MSTORE PUSH1 0x84 ADD PUSH2 0xC1A JUMP JUMPDEST PUSH1 0x0 JUMPDEST DUP5 MLOAD DUP2 LT ISZERO PUSH2 0x2A4D JUMPI PUSH2 0x2A3B DUP9 DUP9 DUP9 DUP9 DUP6 DUP2 MLOAD DUP2 LT PUSH2 0x2A2E JUMPI PUSH2 0x2A2E PUSH2 0x4686 JUMP JUMPDEST PUSH1 0x20 MUL PUSH1 0x20 ADD ADD MLOAD PUSH2 0x32C6 JUMP JUMPDEST DUP1 PUSH2 0x2A45 DUP2 PUSH2 0x46C5 JUMP JUMPDEST SWAP2 POP POP PUSH2 0x2A0D JUMP JUMPDEST POP PUSH1 0x0 DUP6 DUP6 PUSH1 0x40 MLOAD PUSH1 0x20 ADD PUSH2 0x2A63 SWAP3 SWAP2 SWAP1 PUSH2 0x4B2A JUMP JUMPDEST PUSH1 0x40 MLOAD PUSH1 0x20 DUP2 DUP4 SUB SUB DUP2 MSTORE SWAP1 PUSH1 0x40 MSTORE SWAP1 POP PUSH2 0x2AA8 DUP8 PUSH1 0x1 DUP5 DUP9 MLOAD PUSH1 0x9 PUSH1 0x0 DUP14 PUSH2 0xFFFF AND PUSH2 0xFFFF AND DUP2 MSTORE PUSH1 0x20 ADD SWAP1 DUP2 MSTORE PUSH1 0x20 ADD PUSH1 0x0 KECCAK256 SLOAD PUSH2 0x2AA3 SWAP2 SWAP1 PUSH2 0x4626 JUMP JUMPDEST PUSH2 0x33B1 JUMP JUMPDEST PUSH2 0x2AB6 DUP8 DUP3 DUP7 DUP7 DUP7 CALLVALUE PUSH2 0x3481 JUMP JUMPDEST DUP6 PUSH1 0x40 MLOAD PUSH2 0x2AC4 SWAP2 SWAP1 PUSH2 0x4C87 JUMP JUMPDEST PUSH1 0x40 MLOAD DUP1 SWAP2 SUB SWAP1 KECCAK256 DUP9 PUSH1 0x1 PUSH1 0x1 PUSH1 0xA0 SHL SUB AND DUP9 PUSH2 0xFFFF AND PUSH32 0xE1B87C47FDEB4F9CBADBCA9DF3AF7ABA453BB6E501075D0440D88125B711522A DUP9 PUSH1 0x40 MLOAD PUSH2 0x2B0A SWAP2 SWAP1 PUSH2 0x4CA3 JUMP JUMPDEST PUSH1 0x40 MLOAD DUP1 SWAP2 SUB SWAP1 LOG4 POP POP POP POP POP POP POP POP JUMP JUMPDEST PUSH1 0x0 SWAP1 DUP2 MSTORE PUSH1 0xD PUSH1 0x20 MSTORE PUSH1 0x40 SWAP1 KECCAK256 SLOAD PUSH1 0x1 PUSH1 0x1 PUSH1 0xA0 SHL SUB AND SWAP1 JUMP JUMPDEST PUSH1 0x0 DUP1 DUP3 DUP1 PUSH1 0x20 ADD SWAP1 MLOAD DUP2 ADD SWAP1 PUSH2 0x2B4E SWAP2 SWAP1 PUSH2 0x48B0 JUMP JUMPDEST PUSH1 0x14 DUP3 ADD MLOAD SWAP2 SWAP4 POP SWAP2 POP PUSH1 0x0 PUSH2 0x2B66 DUP9 DUP4 DUP4 DUP7 PUSH2 0x2D37 JUMP JUMPDEST SWAP1 POP DUP3 MLOAD DUP2 LT ISZERO PUSH2 0x2C3A JUMPI DUP5 MLOAD PUSH1 0x20 DUP1 DUP8 ADD SWAP2 SWAP1 SWAP2 KECCAK256 PUSH1 0x40 DUP1 MLOAD PUSH1 0x80 DUP2 ADD DUP3 MSTORE PUSH2 0xFFFF DUP1 DUP14 AND DUP3 MSTORE PUSH1 0x1 PUSH1 0x1 PUSH1 0xA0 SHL SUB DUP1 DUP9 AND DUP4 DUP8 ADD SWAP1 DUP2 MSTORE DUP4 DUP6 ADD DUP9 DUP2 MSTORE PUSH1 0x1 PUSH1 0x60 DUP7 ADD DUP2 DUP2 MSTORE PUSH1 0x0 DUP10 DUP2 MSTORE PUSH1 0xA SWAP1 SWAP11 MSTORE SWAP9 DUP8 SWAP1 KECCAK256 SWAP6 MLOAD DUP7 SLOAD SWAP4 MLOAD SWAP1 SWAP5 AND PUSH3 0x10000 MUL PUSH1 0x1 PUSH1 0x1 PUSH1 0xB0 SHL SUB NOT SWAP1 SWAP4 AND SWAP4 SWAP1 SWAP5 AND SWAP3 SWAP1 SWAP3 OR OR DUP4 SSTORE MLOAD SWAP1 DUP3 ADD SSTORE SWAP3 MLOAD PUSH1 0x2 SWAP1 SWAP4 ADD DUP1 SLOAD SWAP4 ISZERO ISZERO PUSH1 0xFF NOT SWAP1 SWAP5 AND SWAP4 SWAP1 SWAP4 OR SWAP1 SWAP3 SSTORE SWAP1 MLOAD PUSH32 0x10E0B70D256BCCC84B7027506978BD8B68984A870788B93B479DEF144C839AD7 SWAP1 PUSH2 0x2C30 SWAP1 DUP4 SWAP1 DUP10 SWAP1 PUSH2 0x4CB6 JUMP JUMPDEST PUSH1 0x40 MLOAD DUP1 SWAP2 SUB SWAP1 LOG1 POP JUMPDEST DUP2 PUSH1 0x1 PUSH1 0x1 PUSH1 0xA0 SHL SUB AND DUP8 PUSH1 0x40 MLOAD PUSH2 0x2C52 SWAP2 SWAP1 PUSH2 0x4C87 JUMP JUMPDEST PUSH1 0x40 MLOAD DUP1 SWAP2 SUB SWAP1 KECCAK256 DUP10 PUSH2 0xFFFF AND PUSH32 0x5B821DB8A46F8ECBE1941BA2F51CFEEA9643268B56631F70D45E2A745D990265 DUP7 PUSH1 0x40 MLOAD PUSH2 0x2B0A SWAP2 SWAP1 PUSH2 0x4CA3 JUMP JUMPDEST PUSH1 0x0 DUP1 SLOAD PUSH1 0x1 PUSH1 0x1 PUSH1 0xA0 SHL SUB DUP4 DUP2 AND PUSH1 0x1 PUSH1 0x1 PUSH1 0xA0 SHL SUB NOT DUP4 AND DUP2 OR DUP5 SSTORE PUSH1 0x40 MLOAD SWAP2 SWAP1 SWAP3 AND SWAP3 DUP4 SWAP2 PUSH32 0x8BE0079C531659141344CD1FD0A4F28419497F9722A3DAAFE3B4186F6B6457E0 SWAP2 SWAP1 LOG3 POP POP JUMP JUMPDEST PUSH1 0x2 PUSH1 0x6 SLOAD SUB PUSH2 0x2D30 JUMPI PUSH1 0x40 MLOAD PUSH3 0x461BCD PUSH1 0xE5 SHL DUP2 MSTORE PUSH1 0x20 PUSH1 0x4 DUP3 ADD MSTORE PUSH1 0x1F PUSH1 0x24 DUP3 ADD MSTORE PUSH32 0x5265656E7472616E637947756172643A207265656E7472616E742063616C6C00 PUSH1 0x44 DUP3 ADD MSTORE PUSH1 0x64 ADD PUSH2 0xC1A JUMP JUMPDEST PUSH1 0x2 PUSH1 0x6 SSTORE JUMP JUMPDEST PUSH1 0x0 DUP3 JUMPDEST DUP3 MLOAD DUP2 LT ISZERO PUSH2 0x24C9 JUMPI PUSH1 0x7 SLOAD GAS LT PUSH2 0x24C9 JUMPI PUSH2 0x2D71 DUP7 DUP7 DUP6 DUP5 DUP2 MLOAD DUP2 LT PUSH2 0x2D64 JUMPI PUSH2 0x2D64 PUSH2 0x4686 JUMP JUMPDEST PUSH1 0x20 MUL PUSH1 0x20 ADD ADD MLOAD PUSH2 0x3626 JUMP JUMPDEST DUP1 PUSH2 0x2D7B DUP2 PUSH2 0x46C5 JUMP JUMPDEST SWAP2 POP POP PUSH2 0x2D3B JUMP JUMPDEST PUSH1 0x60 DUP2 PUSH2 0x2D91 DUP2 PUSH1 0x1F PUSH2 0x4CCF JUMP JUMPDEST LT ISZERO PUSH2 0x2DD0 JUMPI PUSH1 0x40 MLOAD PUSH3 0x461BCD PUSH1 0xE5 SHL DUP2 MSTORE PUSH1 0x20 PUSH1 0x4 DUP3 ADD MSTORE PUSH1 0xE PUSH1 0x24 DUP3 ADD MSTORE PUSH14 0x736C6963655F6F766572666C6F77 PUSH1 0x90 SHL PUSH1 0x44 DUP3 ADD MSTORE PUSH1 0x64 ADD PUSH2 0xC1A JUMP JUMPDEST PUSH2 0x2DDA DUP3 DUP5 PUSH2 0x4CCF JUMP JUMPDEST DUP5 MLOAD LT ISZERO PUSH2 0x2E1E JUMPI PUSH1 0x40 MLOAD PUSH3 0x461BCD PUSH1 0xE5 SHL DUP2 MSTORE PUSH1 0x20 PUSH1 0x4 DUP3 ADD MSTORE PUSH1 0x11 PUSH1 0x24 DUP3 ADD MSTORE PUSH17 0x736C6963655F6F75744F66426F756E6473 PUSH1 0x78 SHL PUSH1 0x44 DUP3 ADD MSTORE PUSH1 0x64 ADD PUSH2 0xC1A JUMP JUMPDEST PUSH1 0x60 DUP3 ISZERO DUP1 ISZERO PUSH2 0x2E3D JUMPI PUSH1 0x40 MLOAD SWAP2 POP PUSH1 0x0 DUP3 MSTORE PUSH1 0x20 DUP3 ADD PUSH1 0x40 MSTORE PUSH2 0x2E87 JUMP JUMPDEST PUSH1 0x40 MLOAD SWAP2 POP PUSH1 0x1F DUP5 AND DUP1 ISZERO PUSH1 0x20 MUL DUP2 DUP5 ADD ADD DUP6 DUP2 ADD DUP8 DUP4 ISZERO PUSH1 0x20 MUL DUP5 DUP12 ADD ADD ADD JUMPDEST DUP2 DUP4 LT ISZERO PUSH2 0x2E76 JUMPI DUP1 MLOAD DUP4 MSTORE PUSH1 0x20 SWAP3 DUP4 ADD SWAP3 ADD PUSH2 0x2E5E JUMP JUMPDEST POP POP DUP6 DUP5 MSTORE PUSH1 0x1F ADD PUSH1 0x1F NOT AND PUSH1 0x40 MSTORE POP JUMPDEST POP SWAP5 SWAP4 POP POP POP POP JUMP JUMPDEST DUP2 PUSH1 0x1 PUSH1 0x1 PUSH1 0xA0 SHL SUB AND DUP4 PUSH1 0x1 PUSH1 0x1 PUSH1 0xA0 SHL SUB AND SUB PUSH2 0x2EED JUMPI PUSH1 0x40 MLOAD PUSH3 0x461BCD PUSH1 0xE5 SHL DUP2 MSTORE PUSH1 0x20 PUSH1 0x4 DUP3 ADD MSTORE PUSH1 0x19 PUSH1 0x24 DUP3 ADD MSTORE PUSH25 0x22A9219B99189D1030B8383937BB32903A379031B0B63632B9 PUSH1 0x39 SHL PUSH1 0x44 DUP3 ADD MSTORE PUSH1 0x64 ADD PUSH2 0xC1A JUMP JUMPDEST PUSH1 0x1 PUSH1 0x1 PUSH1 0xA0 SHL SUB DUP4 DUP2 AND PUSH1 0x0 DUP2 DUP2 MSTORE PUSH1 0x10 PUSH1 0x20 SWAP1 DUP2 MSTORE PUSH1 0x40 DUP1 DUP4 KECCAK256 SWAP5 DUP8 AND DUP1 DUP5 MSTORE SWAP5 DUP3 MSTORE SWAP2 DUP3 SWAP1 KECCAK256 DUP1 SLOAD PUSH1 0xFF NOT AND DUP7 ISZERO ISZERO SWAP1 DUP2 OR SWAP1 SWAP2 SSTORE SWAP2 MLOAD SWAP2 DUP3 MSTORE PUSH32 0x17307EAB39AB6107E8899845AD3D59BD9653F200F220920489CA2B5937696C31 SWAP2 ADD PUSH1 0x40 MLOAD DUP1 SWAP2 SUB SWAP1 LOG3 POP POP POP JUMP JUMPDEST PUSH2 0x2F65 DUP5 DUP5 DUP5 PUSH2 0x279E JUMP JUMPDEST PUSH2 0x2F71 DUP5 DUP5 DUP5 DUP5 PUSH2 0x3686 JUMP JUMPDEST PUSH2 0x1CC4 JUMPI PUSH1 0x40 MLOAD PUSH3 0x461BCD PUSH1 0xE5 SHL DUP2 MSTORE PUSH1 0x4 ADD PUSH2 0xC1A SWAP1 PUSH2 0x4CE2 JUMP JUMPDEST PUSH2 0x2710 PUSH1 0x1 PUSH1 0x1 PUSH1 0x60 SHL SUB DUP3 AND GT ISZERO PUSH2 0x2FFB JUMPI PUSH1 0x40 MLOAD PUSH3 0x461BCD PUSH1 0xE5 SHL DUP2 MSTORE PUSH1 0x20 PUSH1 0x4 DUP3 ADD MSTORE PUSH1 0x2A PUSH1 0x24 DUP3 ADD MSTORE PUSH32 0x455243323938313A20726F79616C7479206665652077696C6C20657863656564 PUSH1 0x44 DUP3 ADD MSTORE PUSH10 0x2073616C655072696365 PUSH1 0xB0 SHL PUSH1 0x64 DUP3 ADD MSTORE PUSH1 0x84 ADD PUSH2 0xC1A JUMP JUMPDEST PUSH1 0x1 PUSH1 0x1 PUSH1 0xA0 SHL SUB DUP3 AND PUSH2 0x304D JUMPI PUSH1 0x40 MLOAD PUSH3 0x461BCD PUSH1 0xE5 SHL DUP2 MSTORE PUSH1 0x20 PUSH1 0x4 DUP3 ADD MSTORE PUSH1 0x19 PUSH1 0x24 DUP3 ADD MSTORE PUSH25 0x22A921991C9C189D1034B73B30B634B2103932B1B2B4BB32B9 PUSH1 0x39 SHL PUSH1 0x44 DUP3 ADD MSTORE PUSH1 0x64 ADD PUSH2 0xC1A JUMP JUMPDEST PUSH1 0x40 DUP1 MLOAD DUP1 DUP3 ADD SWAP1 SWAP2 MSTORE PUSH1 0x1 PUSH1 0x1 PUSH1 0xA0 SHL SUB SWAP1 SWAP3 AND DUP1 DUP4 MSTORE PUSH1 0x1 PUSH1 0x1 PUSH1 0x60 SHL SUB SWAP1 SWAP2 AND PUSH1 0x20 SWAP1 SWAP3 ADD DUP3 SWAP1 MSTORE PUSH1 0x1 PUSH1 0xA0 SHL SWAP1 SWAP2 MUL OR PUSH1 0x11 SSTORE JUMP JUMPDEST PUSH1 0x60 PUSH1 0x0 PUSH2 0x3093 DUP4 PUSH2 0x3784 JUMP JUMPDEST PUSH1 0x1 ADD SWAP1 POP PUSH1 0x0 DUP2 PUSH1 0x1 PUSH1 0x1 PUSH1 0x40 SHL SUB DUP2 GT ISZERO PUSH2 0x30B2 JUMPI PUSH2 0x30B2 PUSH2 0x3D7A JUMP JUMPDEST PUSH1 0x40 MLOAD SWAP1 DUP1 DUP3 MSTORE DUP1 PUSH1 0x1F ADD PUSH1 0x1F NOT AND PUSH1 0x20 ADD DUP3 ADD PUSH1 0x40 MSTORE DUP1 ISZERO PUSH2 0x30DC JUMPI PUSH1 0x20 DUP3 ADD DUP2 DUP1 CALLDATASIZE DUP4 CALLDATACOPY ADD SWAP1 POP JUMPDEST POP SWAP1 POP DUP2 DUP2 ADD PUSH1 0x20 ADD JUMPDEST PUSH1 0x0 NOT ADD PUSH16 0x181899199A1A9B1B9C1CB0B131B232B3 PUSH1 0x81 SHL PUSH1 0xA DUP7 MOD BYTE DUP2 MSTORE8 PUSH1 0xA DUP6 DIV SWAP5 POP DUP5 PUSH2 0x30E6 JUMPI POP SWAP4 SWAP3 POP POP POP JUMP JUMPDEST PUSH1 0x0 PUSH1 0x60 PUSH1 0x0 DUP1 PUSH1 0x0 DUP7 PUSH2 0xFFFF AND PUSH1 0x1 PUSH1 0x1 PUSH1 0x40 SHL SUB DUP2 GT ISZERO PUSH2 0x313D JUMPI PUSH2 0x313D PUSH2 0x3D7A JUMP JUMPDEST PUSH1 0x40 MLOAD SWAP1 DUP1 DUP3 MSTORE DUP1 PUSH1 0x1F ADD PUSH1 0x1F NOT AND PUSH1 0x20 ADD DUP3 ADD PUSH1 0x40 MSTORE DUP1 ISZERO PUSH2 0x3167 JUMPI PUSH1 0x20 DUP3 ADD DUP2 DUP1 CALLDATASIZE DUP4 CALLDATACOPY ADD SWAP1 POP JUMPDEST POP SWAP1 POP PUSH1 0x0 DUP1 DUP8 MLOAD PUSH1 0x20 DUP10 ADD PUSH1 0x0 DUP14 DUP14 CALL SWAP2 POP RETURNDATASIZE SWAP3 POP DUP7 DUP4 GT ISZERO PUSH2 0x3189 JUMPI DUP7 SWAP3 POP JUMPDEST DUP3 DUP2 MSTORE DUP3 PUSH1 0x0 PUSH1 0x20 DUP4 ADD RETURNDATACOPY SWAP1 SWAP9 SWAP1 SWAP8 POP SWAP6 POP POP POP POP POP POP JUMP JUMPDEST DUP2 DUP1 MLOAD SWAP1 PUSH1 0x20 ADD KECCAK256 PUSH1 0x5 PUSH1 0x0 DUP8 PUSH2 0xFFFF AND PUSH2 0xFFFF AND DUP2 MSTORE PUSH1 0x20 ADD SWAP1 DUP2 MSTORE PUSH1 0x20 ADD PUSH1 0x0 KECCAK256 DUP6 PUSH1 0x40 MLOAD PUSH2 0x31D3 SWAP2 SWAP1 PUSH2 0x4C87 JUMP JUMPDEST SWAP1 DUP2 MSTORE PUSH1 0x40 DUP1 MLOAD SWAP2 DUP3 SWAP1 SUB PUSH1 0x20 SWAP1 DUP2 ADD DUP4 KECCAK256 PUSH1 0x1 PUSH1 0x1 PUSH1 0x40 SHL SUB DUP9 AND PUSH1 0x0 SWAP1 DUP2 MSTORE SWAP2 MSTORE KECCAK256 SWAP2 SWAP1 SWAP2 SSTORE PUSH32 0xE183F33DE2837795525B4792CA4CD60535BD77C53B7E7030060BFCF5734D6B0C SWAP1 PUSH2 0x3230 SWAP1 DUP8 SWAP1 DUP8 SWAP1 DUP8 SWAP1 DUP8 SWAP1 DUP8 SWAP1 PUSH2 0x4D34 JUMP JUMPDEST PUSH1 0x40 MLOAD DUP1 SWAP2 SUB SWAP1 LOG1 POP POP POP POP POP JUMP JUMPDEST PUSH1 0x0 PUSH1 0x1 PUSH1 0x1 PUSH1 0xE0 SHL SUB NOT DUP3 AND ISZERO DUP1 PUSH2 0xDFC JUMPI POP PUSH2 0xDFC DUP3 PUSH2 0x385A JUMP JUMPDEST PUSH1 0x0 DUP1 PUSH2 0x3268 DUP4 PUSH2 0x2B1C JUMP JUMPDEST PUSH1 0x1 PUSH1 0x1 PUSH1 0xA0 SHL SUB AND EQ ISZERO SWAP3 SWAP2 POP POP JUMP JUMPDEST PUSH1 0x16 SLOAD TIMESTAMP LT DUP1 ISZERO PUSH2 0x32A3 JUMPI POP PUSH1 0x1 PUSH1 0x1 PUSH1 0xA0 SHL SUB DUP4 AND PUSH1 0x0 SWAP1 DUP2 MSTORE PUSH1 0x15 PUSH1 0x20 MSTORE PUSH1 0x40 SWAP1 KECCAK256 SLOAD PUSH1 0xFF AND ISZERO JUMPDEST ISZERO PUSH2 0x32C1 JUMPI PUSH1 0x40 MLOAD PUSH4 0x7AA6656D PUSH1 0xE1 SHL DUP2 MSTORE PUSH1 0x4 ADD PUSH1 0x40 MLOAD DUP1 SWAP2 SUB SWAP1 REVERT JUMPDEST PUSH2 0x1CC4 JUMP JUMPDEST PUSH2 0x32CF CALLER PUSH2 0x1175 JUMP JUMPDEST PUSH2 0x3332 JUMPI PUSH1 0x40 MLOAD PUSH3 0x461BCD PUSH1 0xE5 SHL DUP2 MSTORE PUSH1 0x20 PUSH1 0x4 DUP3 ADD MSTORE PUSH1 0x2E PUSH1 0x24 DUP3 ADD MSTORE PUSH32 0x4F4E46543732313A2073656E642063616C6C6572206973206E6F74206F776E65 PUSH1 0x44 DUP3 ADD MSTORE PUSH14 0x1C881B9BDC88185C1C1C9BDD9959 PUSH1 0x92 SHL PUSH1 0x64 DUP3 ADD MSTORE PUSH1 0x84 ADD PUSH2 0xC1A JUMP JUMPDEST DUP4 PUSH1 0x1 PUSH1 0x1 PUSH1 0xA0 SHL SUB AND PUSH2 0x3345 DUP3 PUSH2 0x14FB JUMP JUMPDEST PUSH1 0x1 PUSH1 0x1 PUSH1 0xA0 SHL SUB AND EQ PUSH2 0x33A6 JUMPI PUSH1 0x40 MLOAD PUSH3 0x461BCD PUSH1 0xE5 SHL DUP2 MSTORE PUSH1 0x20 PUSH1 0x4 DUP3 ADD MSTORE PUSH1 0x22 PUSH1 0x24 DUP3 ADD MSTORE PUSH32 0x4F4E46543732313A2073656E642066726F6D20696E636F7272656374206F776E PUSH1 0x44 DUP3 ADD MSTORE PUSH2 0x32B9 PUSH1 0xF1 SHL PUSH1 0x64 DUP3 ADD MSTORE PUSH1 0x84 ADD PUSH2 0xC1A JUMP JUMPDEST PUSH2 0x1CC4 DUP5 ADDRESS DUP4 PUSH2 0x279E JUMP JUMPDEST PUSH1 0x0 PUSH2 0x33BC DUP4 PUSH2 0x389A JUMP JUMPDEST PUSH2 0xFFFF DUP1 DUP8 AND PUSH1 0x0 SWAP1 DUP2 MSTORE PUSH1 0x2 PUSH1 0x20 SWAP1 DUP2 MSTORE PUSH1 0x40 DUP1 DUP4 KECCAK256 SWAP4 DUP10 AND DUP4 MSTORE SWAP3 SWAP1 MSTORE KECCAK256 SLOAD SWAP1 SWAP2 POP DUP1 PUSH2 0x342A JUMPI PUSH1 0x40 MLOAD PUSH3 0x461BCD PUSH1 0xE5 SHL DUP2 MSTORE PUSH1 0x20 PUSH1 0x4 DUP3 ADD MSTORE PUSH1 0x1A PUSH1 0x24 DUP3 ADD MSTORE PUSH26 0x131E905C1C0E881B5A5B91D85CD31A5B5A5D081B9BDD081CD95D PUSH1 0x32 SHL PUSH1 0x44 DUP3 ADD MSTORE PUSH1 0x64 ADD PUSH2 0xC1A JUMP JUMPDEST PUSH2 0x3434 DUP4 DUP3 PUSH2 0x4CCF JUMP JUMPDEST DUP3 LT ISZERO PUSH2 0x1603 JUMPI PUSH1 0x40 MLOAD PUSH3 0x461BCD PUSH1 0xE5 SHL DUP2 MSTORE PUSH1 0x20 PUSH1 0x4 DUP3 ADD MSTORE PUSH1 0x1B PUSH1 0x24 DUP3 ADD MSTORE PUSH27 0x4C7A4170703A20676173206C696D697420697320746F6F206C6F77 PUSH1 0x28 SHL PUSH1 0x44 DUP3 ADD MSTORE PUSH1 0x64 ADD PUSH2 0xC1A JUMP JUMPDEST PUSH2 0xFFFF DUP7 AND PUSH1 0x0 SWAP1 DUP2 MSTORE PUSH1 0x1 PUSH1 0x20 MSTORE PUSH1 0x40 DUP2 KECCAK256 DUP1 SLOAD PUSH2 0x349F SWAP1 PUSH2 0x4579 JUMP JUMPDEST DUP1 PUSH1 0x1F ADD PUSH1 0x20 DUP1 SWAP2 DIV MUL PUSH1 0x20 ADD PUSH1 0x40 MLOAD SWAP1 DUP2 ADD PUSH1 0x40 MSTORE DUP1 SWAP3 SWAP2 SWAP1 DUP2 DUP2 MSTORE PUSH1 0x20 ADD DUP3 DUP1 SLOAD PUSH2 0x34CB SWAP1 PUSH2 0x4579 JUMP JUMPDEST DUP1 ISZERO PUSH2 0x3518 JUMPI DUP1 PUSH1 0x1F LT PUSH2 0x34ED JUMPI PUSH2 0x100 DUP1 DUP4 SLOAD DIV MUL DUP4 MSTORE SWAP2 PUSH1 0x20 ADD SWAP2 PUSH2 0x3518 JUMP JUMPDEST DUP3 ADD SWAP2 SWAP1 PUSH1 0x0 MSTORE PUSH1 0x20 PUSH1 0x0 KECCAK256 SWAP1 JUMPDEST DUP2 SLOAD DUP2 MSTORE SWAP1 PUSH1 0x1 ADD SWAP1 PUSH1 0x20 ADD DUP1 DUP4 GT PUSH2 0x34FB JUMPI DUP3 SWAP1 SUB PUSH1 0x1F AND DUP3 ADD SWAP2 JUMPDEST POP POP POP POP POP SWAP1 POP DUP1 MLOAD PUSH1 0x0 SUB PUSH2 0x3589 JUMPI PUSH1 0x40 MLOAD PUSH3 0x461BCD PUSH1 0xE5 SHL DUP2 MSTORE PUSH1 0x20 PUSH1 0x4 DUP3 ADD MSTORE PUSH1 0x30 PUSH1 0x24 DUP3 ADD MSTORE PUSH32 0x4C7A4170703A2064657374696E6174696F6E20636861696E206973206E6F7420 PUSH1 0x44 DUP3 ADD MSTORE PUSH16 0x61207472757374656420736F75726365 PUSH1 0x80 SHL PUSH1 0x64 DUP3 ADD MSTORE PUSH1 0x84 ADD PUSH2 0xC1A JUMP JUMPDEST PUSH2 0x3594 DUP8 DUP8 MLOAD PUSH2 0x38F5 JUMP JUMPDEST PUSH1 0x40 MLOAD PUSH3 0xC58031 PUSH1 0xE8 SHL DUP2 MSTORE PUSH1 0x1 PUSH1 0x1 PUSH1 0xA0 SHL SUB PUSH32 0x0 AND SWAP1 PUSH4 0xC5803100 SWAP1 DUP5 SWAP1 PUSH2 0x35EB SWAP1 DUP12 SWAP1 DUP7 SWAP1 DUP13 SWAP1 DUP13 SWAP1 DUP13 SWAP1 DUP13 SWAP1 PUSH1 0x4 ADD PUSH2 0x4D86 JUMP JUMPDEST PUSH1 0x0 PUSH1 0x40 MLOAD DUP1 DUP4 SUB DUP2 DUP6 DUP9 DUP1 EXTCODESIZE ISZERO DUP1 ISZERO PUSH2 0x3604 JUMPI PUSH1 0x0 DUP1 REVERT JUMPDEST POP GAS CALL ISZERO DUP1 ISZERO PUSH2 0x3618 JUMPI RETURNDATASIZE PUSH1 0x0 DUP1 RETURNDATACOPY RETURNDATASIZE PUSH1 0x0 REVERT JUMPDEST POP POP POP POP POP POP POP POP POP POP POP POP JUMP JUMPDEST PUSH2 0x362F DUP2 PUSH2 0x325C JUMP JUMPDEST ISZERO DUP1 PUSH2 0x365B JUMPI POP PUSH2 0x363F DUP2 PUSH2 0x325C JUMP JUMPDEST DUP1 ISZERO PUSH2 0x365B JUMPI POP ADDRESS PUSH2 0x3650 DUP3 PUSH2 0x14FB JUMP JUMPDEST PUSH1 0x1 PUSH1 0x1 PUSH1 0xA0 SHL SUB AND EQ JUMPDEST PUSH2 0x3664 JUMPI PUSH1 0x0 DUP1 REVERT JUMPDEST PUSH2 0x366D DUP2 PUSH2 0x325C JUMP JUMPDEST PUSH2 0x367B JUMPI PUSH2 0x1054 DUP3 DUP3 PUSH2 0x3966 JUMP JUMPDEST PUSH2 0x1054 ADDRESS DUP4 DUP4 PUSH2 0x279E JUMP JUMPDEST PUSH1 0x0 PUSH1 0x1 PUSH1 0x1 PUSH1 0xA0 SHL SUB DUP5 AND EXTCODESIZE ISZERO PUSH2 0x377C JUMPI PUSH1 0x40 MLOAD PUSH4 0xA85BD01 PUSH1 0xE1 SHL DUP2 MSTORE PUSH1 0x1 PUSH1 0x1 PUSH1 0xA0 SHL SUB DUP6 AND SWAP1 PUSH4 0x150B7A02 SWAP1 PUSH2 0x36CA SWAP1 CALLER SWAP1 DUP10 SWAP1 DUP9 SWAP1 DUP9 SWAP1 PUSH1 0x4 ADD PUSH2 0x4DED JUMP JUMPDEST PUSH1 0x20 PUSH1 0x40 MLOAD DUP1 DUP4 SUB DUP2 PUSH1 0x0 DUP8 GAS CALL SWAP3 POP POP POP DUP1 ISZERO PUSH2 0x3705 JUMPI POP PUSH1 0x40 DUP1 MLOAD PUSH1 0x1F RETURNDATASIZE SWAP1 DUP2 ADD PUSH1 0x1F NOT AND DUP3 ADD SWAP1 SWAP3 MSTORE PUSH2 0x3702 SWAP2 DUP2 ADD SWAP1 PUSH2 0x4E2A JUMP JUMPDEST PUSH1 0x1 JUMPDEST PUSH2 0x3762 JUMPI RETURNDATASIZE DUP1 DUP1 ISZERO PUSH2 0x3733 JUMPI PUSH1 0x40 MLOAD SWAP2 POP PUSH1 0x1F NOT PUSH1 0x3F RETURNDATASIZE ADD AND DUP3 ADD PUSH1 0x40 MSTORE RETURNDATASIZE DUP3 MSTORE RETURNDATASIZE PUSH1 0x0 PUSH1 0x20 DUP5 ADD RETURNDATACOPY PUSH2 0x3738 JUMP JUMPDEST PUSH1 0x60 SWAP2 POP JUMPDEST POP DUP1 MLOAD PUSH1 0x0 SUB PUSH2 0x375A JUMPI PUSH1 0x40 MLOAD PUSH3 0x461BCD PUSH1 0xE5 SHL DUP2 MSTORE PUSH1 0x4 ADD PUSH2 0xC1A SWAP1 PUSH2 0x4CE2 JUMP JUMPDEST DUP1 MLOAD DUP2 PUSH1 0x20 ADD REVERT JUMPDEST PUSH1 0x1 PUSH1 0x1 PUSH1 0xE0 SHL SUB NOT AND PUSH4 0xA85BD01 PUSH1 0xE1 SHL EQ SWAP1 POP PUSH2 0x24CC JUMP JUMPDEST POP PUSH1 0x1 PUSH2 0x24CC JUMP JUMPDEST PUSH1 0x0 DUP1 PUSH19 0x184F03E93FF9F4DAA797ED6E38ED64BF6A1F01 PUSH1 0x40 SHL DUP4 LT PUSH2 0x37C3 JUMPI PUSH19 0x184F03E93FF9F4DAA797ED6E38ED64BF6A1F01 PUSH1 0x40 SHL DUP4 DIV SWAP3 POP PUSH1 0x40 ADD JUMPDEST PUSH10 0x4EE2D6D415B85ACEF81 PUSH1 0x20 SHL DUP4 LT PUSH2 0x37ED JUMPI PUSH10 0x4EE2D6D415B85ACEF81 PUSH1 0x20 SHL DUP4 DIV SWAP3 POP PUSH1 0x20 ADD JUMPDEST PUSH7 0x2386F26FC10000 DUP4 LT PUSH2 0x380B JUMPI PUSH7 0x2386F26FC10000 DUP4 DIV SWAP3 POP PUSH1 0x10 ADD JUMPDEST PUSH4 0x5F5E100 DUP4 LT PUSH2 0x3823 JUMPI PUSH4 0x5F5E100 DUP4 DIV SWAP3 POP PUSH1 0x8 ADD JUMPDEST PUSH2 0x2710 DUP4 LT PUSH2 0x3837 JUMPI PUSH2 0x2710 DUP4 DIV SWAP3 POP PUSH1 0x4 ADD JUMPDEST PUSH1 0x64 DUP4 LT PUSH2 0x3849 JUMPI PUSH1 0x64 DUP4 DIV SWAP3 POP PUSH1 0x2 ADD JUMPDEST PUSH1 0xA DUP4 LT PUSH2 0xDFC JUMPI PUSH1 0x1 ADD SWAP3 SWAP2 POP POP JUMP JUMPDEST PUSH1 0x0 PUSH1 0x1 PUSH1 0x1 PUSH1 0xE0 SHL SUB NOT DUP3 AND PUSH4 0x80AC58CD PUSH1 0xE0 SHL EQ DUP1 PUSH2 0x388B JUMPI POP PUSH1 0x1 PUSH1 0x1 PUSH1 0xE0 SHL SUB NOT DUP3 AND PUSH4 0x5B5E139F PUSH1 0xE0 SHL EQ JUMPDEST DUP1 PUSH2 0xDFC JUMPI POP PUSH2 0xDFC DUP3 PUSH2 0x3980 JUMP JUMPDEST PUSH1 0x0 PUSH1 0x22 DUP3 MLOAD LT ISZERO PUSH2 0x38ED JUMPI PUSH1 0x40 MLOAD PUSH3 0x461BCD PUSH1 0xE5 SHL DUP2 MSTORE PUSH1 0x20 PUSH1 0x4 DUP3 ADD MSTORE PUSH1 0x1C PUSH1 0x24 DUP3 ADD MSTORE PUSH28 0x4C7A4170703A20696E76616C69642061646170746572506172616D73 PUSH1 0x20 SHL PUSH1 0x44 DUP3 ADD MSTORE PUSH1 0x64 ADD PUSH2 0xC1A JUMP JUMPDEST POP PUSH1 0x22 ADD MLOAD SWAP1 JUMP JUMPDEST PUSH2 0xFFFF DUP3 AND PUSH1 0x0 SWAP1 DUP2 MSTORE PUSH1 0x3 PUSH1 0x20 MSTORE PUSH1 0x40 DUP2 KECCAK256 SLOAD SWAP1 DUP2 SWAP1 SUB PUSH2 0x3916 JUMPI POP PUSH2 0x2710 JUMPDEST DUP1 DUP3 GT ISZERO PUSH2 0x1054 JUMPI PUSH1 0x40 MLOAD PUSH3 0x461BCD PUSH1 0xE5 SHL DUP2 MSTORE PUSH1 0x20 PUSH1 0x4 DUP3 ADD DUP2 SWAP1 MSTORE PUSH1 0x24 DUP3 ADD MSTORE PUSH32 0x4C7A4170703A207061796C6F61642073697A6520697320746F6F206C61726765 PUSH1 0x44 DUP3 ADD MSTORE PUSH1 0x64 ADD PUSH2 0xC1A JUMP JUMPDEST PUSH2 0x1352 DUP3 DUP3 PUSH1 0x40 MLOAD DUP1 PUSH1 0x20 ADD PUSH1 0x40 MSTORE DUP1 PUSH1 0x0 DUP2 MSTORE POP PUSH2 0x39B5 JUMP JUMPDEST PUSH1 0x0 PUSH1 0x1 PUSH1 0x1 PUSH1 0xE0 SHL SUB NOT DUP3 AND PUSH4 0x22BAC5D9 PUSH1 0xE0 SHL EQ DUP1 PUSH2 0xDFC JUMPI POP PUSH4 0x1FFC9A7 PUSH1 0xE0 SHL PUSH1 0x1 PUSH1 0x1 PUSH1 0xE0 SHL SUB NOT DUP4 AND EQ PUSH2 0xDFC JUMP JUMPDEST PUSH2 0x39BF DUP4 DUP4 PUSH2 0x39E8 JUMP JUMPDEST PUSH2 0x39CC PUSH1 0x0 DUP5 DUP5 DUP5 PUSH2 0x3686 JUMP JUMPDEST PUSH2 0x1054 JUMPI PUSH1 0x40 MLOAD PUSH3 0x461BCD PUSH1 0xE5 SHL DUP2 MSTORE PUSH1 0x4 ADD PUSH2 0xC1A SWAP1 PUSH2 0x4CE2 JUMP JUMPDEST PUSH1 0x1 PUSH1 0x1 PUSH1 0xA0 SHL SUB DUP3 AND PUSH2 0x3A3E JUMPI PUSH1 0x40 MLOAD PUSH3 0x461BCD PUSH1 0xE5 SHL DUP2 MSTORE PUSH1 0x20 PUSH1 0x4 DUP3 ADD DUP2 SWAP1 MSTORE PUSH1 0x24 DUP3 ADD MSTORE PUSH32 0x4552433732313A206D696E7420746F20746865207A65726F2061646472657373 PUSH1 0x44 DUP3 ADD MSTORE PUSH1 0x64 ADD PUSH2 0xC1A JUMP JUMPDEST PUSH2 0x3A47 DUP2 PUSH2 0x325C JUMP JUMPDEST ISZERO PUSH2 0x3A64 JUMPI PUSH1 0x40 MLOAD PUSH3 0x461BCD PUSH1 0xE5 SHL DUP2 MSTORE PUSH1 0x4 ADD PUSH2 0xC1A SWAP1 PUSH2 0x4E47 JUMP JUMPDEST PUSH2 0x3A72 PUSH1 0x0 DUP4 DUP4 PUSH1 0x1 PUSH2 0x3279 JUMP JUMPDEST PUSH2 0x3A7B DUP2 PUSH2 0x325C JUMP JUMPDEST ISZERO PUSH2 0x3A98 JUMPI PUSH1 0x40 MLOAD PUSH3 0x461BCD PUSH1 0xE5 SHL DUP2 MSTORE PUSH1 0x4 ADD PUSH2 0xC1A SWAP1 PUSH2 0x4E47 JUMP JUMPDEST PUSH1 0x1 PUSH1 0x1 PUSH1 0xA0 SHL SUB DUP3 AND PUSH1 0x0 DUP2 DUP2 MSTORE PUSH1 0xE PUSH1 0x20 SWAP1 DUP2 MSTORE PUSH1 0x40 DUP1 DUP4 KECCAK256 DUP1 SLOAD PUSH1 0x1 ADD SWAP1 SSTORE DUP5 DUP4 MSTORE PUSH1 0xD SWAP1 SWAP2 MSTORE DUP1 DUP3 KECCAK256 DUP1 SLOAD PUSH1 0x1 PUSH1 0x1 PUSH1 0xA0 SHL SUB NOT AND DUP5 OR SWAP1 SSTORE MLOAD DUP4 SWAP3 SWAP2 SWAP1 PUSH1 0x0 DUP1 MLOAD PUSH1 0x20 PUSH2 0x4E7E DUP4 CODECOPY DUP2 MLOAD SWAP2 MSTORE SWAP1 DUP3 SWAP1 LOG4 POP POP JUMP JUMPDEST DUP1 CALLDATALOAD PUSH2 0xFFFF DUP2 AND DUP2 EQ PUSH2 0x3B03 JUMPI PUSH1 0x0 DUP1 REVERT JUMPDEST SWAP2 SWAP1 POP JUMP JUMPDEST PUSH1 0x0 DUP1 DUP4 PUSH1 0x1F DUP5 ADD SLT PUSH2 0x3B1A JUMPI PUSH1 0x0 DUP1 REVERT JUMPDEST POP DUP2 CALLDATALOAD PUSH1 0x1 PUSH1 0x1 PUSH1 0x40 SHL SUB DUP2 GT ISZERO PUSH2 0x3B31 JUMPI PUSH1 0x0 DUP1 REVERT JUMPDEST PUSH1 0x20 DUP4 ADD SWAP2 POP DUP4 PUSH1 0x20 DUP3 DUP6 ADD ADD GT ISZERO PUSH2 0x126F JUMPI PUSH1 0x0 DUP1 REVERT JUMPDEST DUP1 CALLDATALOAD PUSH1 0x1 PUSH1 0x1 PUSH1 0x40 SHL SUB DUP2 AND DUP2 EQ PUSH2 0x3B03 JUMPI PUSH1 0x0 DUP1 REVERT JUMPDEST PUSH1 0x0 DUP1 PUSH1 0x0 DUP1 PUSH1 0x0 DUP1 PUSH1 0x80 DUP8 DUP10 SUB SLT ISZERO PUSH2 0x3B79 JUMPI PUSH1 0x0 DUP1 REVERT JUMPDEST PUSH2 0x3B82 DUP8 PUSH2 0x3AF1 JUMP JUMPDEST SWAP6 POP PUSH1 0x20 DUP8 ADD CALLDATALOAD PUSH1 0x1 PUSH1 0x1 PUSH1 0x40 SHL SUB DUP1 DUP3 GT ISZERO PUSH2 0x3B9E JUMPI PUSH1 0x0 DUP1 REVERT JUMPDEST PUSH2 0x3BAA DUP11 DUP4 DUP12 ADD PUSH2 0x3B08 JUMP JUMPDEST SWAP1 SWAP8 POP SWAP6 POP DUP6 SWAP2 POP PUSH2 0x3BBE PUSH1 0x40 DUP11 ADD PUSH2 0x3B49 JUMP JUMPDEST SWAP5 POP PUSH1 0x60 DUP10 ADD CALLDATALOAD SWAP2 POP DUP1 DUP3 GT ISZERO PUSH2 0x3BD4 JUMPI PUSH1 0x0 DUP1 REVERT JUMPDEST POP PUSH2 0x3BE1 DUP10 DUP3 DUP11 ADD PUSH2 0x3B08 JUMP JUMPDEST SWAP8 SWAP11 SWAP7 SWAP10 POP SWAP5 SWAP8 POP SWAP3 SWAP6 SWAP4 SWAP5 SWAP3 POP POP POP JUMP JUMPDEST PUSH1 0x1 PUSH1 0x1 PUSH1 0xE0 SHL SUB NOT DUP2 AND DUP2 EQ PUSH2 0x1996 JUMPI PUSH1 0x0 DUP1 REVERT JUMPDEST PUSH1 0x0 PUSH1 0x20 DUP3 DUP5 SUB SLT ISZERO PUSH2 0x3C1B JUMPI PUSH1 0x0 DUP1 REVERT JUMPDEST DUP2 CALLDATALOAD PUSH2 0x1BE8 DUP2 PUSH2 0x3BF3 JUMP JUMPDEST PUSH1 0x0 JUMPDEST DUP4 DUP2 LT ISZERO PUSH2 0x3C41 JUMPI DUP2 DUP2 ADD MLOAD DUP4 DUP3 ADD MSTORE PUSH1 0x20 ADD PUSH2 0x3C29 JUMP JUMPDEST POP POP PUSH1 0x0 SWAP2 ADD MSTORE JUMP JUMPDEST PUSH1 0x0 DUP2 MLOAD DUP1 DUP5 MSTORE PUSH2 0x3C62 DUP2 PUSH1 0x20 DUP7 ADD PUSH1 0x20 DUP7 ADD PUSH2 0x3C26 JUMP JUMPDEST PUSH1 0x1F ADD PUSH1 0x1F NOT AND SWAP3 SWAP1 SWAP3 ADD PUSH1 0x20 ADD SWAP3 SWAP2 POP POP JUMP JUMPDEST PUSH1 0x20 DUP2 MSTORE PUSH1 0x0 PUSH2 0x1BE8 PUSH1 0x20 DUP4 ADD DUP5 PUSH2 0x3C4A JUMP JUMPDEST PUSH1 0x0 PUSH1 0x20 DUP3 DUP5 SUB SLT ISZERO PUSH2 0x3C9B JUMPI PUSH1 0x0 DUP1 REVERT JUMPDEST PUSH2 0x1BE8 DUP3 PUSH2 0x3AF1 JUMP JUMPDEST PUSH1 0x0 PUSH1 0x20 DUP3 DUP5 SUB SLT ISZERO PUSH2 0x3CB6 JUMPI PUSH1 0x0 DUP1 REVERT JUMPDEST POP CALLDATALOAD SWAP2 SWAP1 POP JUMP JUMPDEST PUSH1 0x1 PUSH1 0x1 PUSH1 0xA0 SHL SUB SWAP2 SWAP1 SWAP2 AND DUP2 MSTORE PUSH1 0x20 ADD SWAP1 JUMP JUMPDEST PUSH1 0x1 PUSH1 0x1 PUSH1 0xA0 SHL SUB DUP2 AND DUP2 EQ PUSH2 0x1996 JUMPI PUSH1 0x0 DUP1 REVERT JUMPDEST DUP1 CALLDATALOAD PUSH2 0x3B03 DUP2 PUSH2 0x3CD1 JUMP JUMPDEST PUSH1 0x0 DUP1 PUSH1 0x40 DUP4 DUP6 SUB SLT ISZERO PUSH2 0x3D04 JUMPI PUSH1 0x0 DUP1 REVERT JUMPDEST DUP3 CALLDATALOAD PUSH2 0x3D0F DUP2 PUSH2 0x3CD1 JUMP JUMPDEST SWAP5 PUSH1 0x20 SWAP4 SWAP1 SWAP4 ADD CALLDATALOAD SWAP4 POP POP POP JUMP JUMPDEST PUSH1 0x0 DUP1 PUSH1 0x40 DUP4 DUP6 SUB SLT ISZERO PUSH2 0x3D30 JUMPI PUSH1 0x0 DUP1 REVERT JUMPDEST PUSH2 0x3D0F DUP4 PUSH2 0x3AF1 JUMP JUMPDEST PUSH1 0x0 DUP1 PUSH1 0x0 PUSH1 0x60 DUP5 DUP7 SUB SLT ISZERO PUSH2 0x3D4E JUMPI PUSH1 0x0 DUP1 REVERT JUMPDEST DUP4 CALLDATALOAD PUSH2 0x3D59 DUP2 PUSH2 0x3CD1 JUMP JUMPDEST SWAP3 POP PUSH1 0x20 DUP5 ADD CALLDATALOAD PUSH2 0x3D69 DUP2 PUSH2 0x3CD1 JUMP JUMPDEST SWAP3 SWAP6 SWAP3 SWAP5 POP POP POP PUSH1 0x40 SWAP2 SWAP1 SWAP2 ADD CALLDATALOAD SWAP1 JUMP JUMPDEST PUSH4 0x4E487B71 PUSH1 0xE0 SHL PUSH1 0x0 MSTORE PUSH1 0x41 PUSH1 0x4 MSTORE PUSH1 0x24 PUSH1 0x0 REVERT JUMPDEST PUSH1 0x40 MLOAD PUSH1 0x1F DUP3 ADD PUSH1 0x1F NOT AND DUP2 ADD PUSH1 0x1 PUSH1 0x1 PUSH1 0x40 SHL SUB DUP2 GT DUP3 DUP3 LT OR ISZERO PUSH2 0x3DB8 JUMPI PUSH2 0x3DB8 PUSH2 0x3D7A JUMP JUMPDEST PUSH1 0x40 MSTORE SWAP2 SWAP1 POP JUMP JUMPDEST PUSH1 0x0 PUSH1 0x1 PUSH1 0x1 PUSH1 0x40 SHL SUB DUP3 GT ISZERO PUSH2 0x3DD9 JUMPI PUSH2 0x3DD9 PUSH2 0x3D7A JUMP JUMPDEST POP PUSH1 0x1F ADD PUSH1 0x1F NOT AND PUSH1 0x20 ADD SWAP1 JUMP JUMPDEST PUSH1 0x0 PUSH2 0x3DFA PUSH2 0x3DF5 DUP5 PUSH2 0x3DC0 JUMP JUMPDEST PUSH2 0x3D90 JUMP JUMPDEST SWAP1 POP DUP3 DUP2 MSTORE DUP4 DUP4 DUP4 ADD GT ISZERO PUSH2 0x3E0E JUMPI PUSH1 0x0 DUP1 REVERT JUMPDEST DUP3 DUP3 PUSH1 0x20 DUP4 ADD CALLDATACOPY PUSH1 0x0 PUSH1 0x20 DUP5 DUP4 ADD ADD MSTORE SWAP4 SWAP3 POP POP POP JUMP JUMPDEST PUSH1 0x0 DUP3 PUSH1 0x1F DUP4 ADD SLT PUSH2 0x3E36 JUMPI PUSH1 0x0 DUP1 REVERT JUMPDEST PUSH2 0x1BE8 DUP4 DUP4 CALLDATALOAD PUSH1 0x20 DUP6 ADD PUSH2 0x3DE7 JUMP JUMPDEST DUP1 CALLDATALOAD DUP1 ISZERO ISZERO DUP2 EQ PUSH2 0x3B03 JUMPI PUSH1 0x0 DUP1 REVERT JUMPDEST PUSH1 0x0 DUP1 PUSH1 0x0 DUP1 PUSH1 0x0 PUSH1 0xA0 DUP7 DUP9 SUB SLT ISZERO PUSH2 0x3E6D JUMPI PUSH1 0x0 DUP1 REVERT JUMPDEST PUSH2 0x3E76 DUP7 PUSH2 0x3AF1 JUMP JUMPDEST SWAP5 POP PUSH1 0x20 DUP7 ADD CALLDATALOAD PUSH1 0x1 PUSH1 0x1 PUSH1 0x40 SHL SUB DUP1 DUP3 GT ISZERO PUSH2 0x3E92 JUMPI PUSH1 0x0 DUP1 REVERT JUMPDEST PUSH2 0x3E9E DUP10 DUP4 DUP11 ADD PUSH2 0x3E25 JUMP JUMPDEST SWAP6 POP PUSH1 0x40 DUP9 ADD CALLDATALOAD SWAP5 POP PUSH2 0x3EB3 PUSH1 0x60 DUP10 ADD PUSH2 0x3E45 JUMP JUMPDEST SWAP4 POP PUSH1 0x80 DUP9 ADD CALLDATALOAD SWAP2 POP DUP1 DUP3 GT ISZERO PUSH2 0x3EC9 JUMPI PUSH1 0x0 DUP1 REVERT JUMPDEST POP PUSH2 0x3ED6 DUP9 DUP3 DUP10 ADD PUSH2 0x3E25 JUMP JUMPDEST SWAP2 POP POP SWAP3 SWAP6 POP SWAP3 SWAP6 SWAP1 SWAP4 POP JUMP JUMPDEST PUSH1 0x0 DUP1 PUSH1 0x40 DUP4 DUP6 SUB SLT ISZERO PUSH2 0x3EF6 JUMPI PUSH1 0x0 DUP1 REVERT JUMPDEST POP POP DUP1 CALLDATALOAD SWAP3 PUSH1 0x20 SWAP1 SWAP2 ADD CALLDATALOAD SWAP2 POP JUMP JUMPDEST PUSH1 0x0 PUSH1 0x20 DUP3 DUP5 SUB SLT ISZERO PUSH2 0x3F17 JUMPI PUSH1 0x0 DUP1 REVERT JUMPDEST DUP2 CALLDATALOAD PUSH2 0x1BE8 DUP2 PUSH2 0x3CD1 JUMP JUMPDEST PUSH1 0x0 PUSH1 0x1 PUSH1 0x1 PUSH1 0x40 SHL SUB DUP3 GT ISZERO PUSH2 0x3F3B JUMPI PUSH2 0x3F3B PUSH2 0x3D7A JUMP JUMPDEST POP PUSH1 0x5 SHL PUSH1 0x20 ADD SWAP1 JUMP JUMPDEST PUSH1 0x0 PUSH1 0x20 DUP1 DUP4 DUP6 SUB SLT ISZERO PUSH2 0x3F58 JUMPI PUSH1 0x0 DUP1 REVERT JUMPDEST DUP3 CALLDATALOAD PUSH1 0x1 PUSH1 0x1 PUSH1 0x40 SHL SUB DUP2 GT ISZERO PUSH2 0x3F6E JUMPI PUSH1 0x0 DUP1 REVERT JUMPDEST DUP4 ADD PUSH1 0x1F DUP2 ADD DUP6 SGT PUSH2 0x3F7F JUMPI PUSH1 0x0 DUP1 REVERT JUMPDEST DUP1 CALLDATALOAD PUSH2 0x3F8D PUSH2 0x3DF5 DUP3 PUSH2 0x3F22 JUMP JUMPDEST DUP2 DUP2 MSTORE PUSH1 0x5 SWAP2 SWAP1 SWAP2 SHL DUP3 ADD DUP4 ADD SWAP1 DUP4 DUP2 ADD SWAP1 DUP8 DUP4 GT ISZERO PUSH2 0x3FAC JUMPI PUSH1 0x0 DUP1 REVERT JUMPDEST SWAP3 DUP5 ADD SWAP3 JUMPDEST DUP3 DUP5 LT ISZERO PUSH2 0x3FD3 JUMPI DUP4 CALLDATALOAD PUSH2 0x3FC4 DUP2 PUSH2 0x3CD1 JUMP JUMPDEST DUP3 MSTORE SWAP3 DUP5 ADD SWAP3 SWAP1 DUP5 ADD SWAP1 PUSH2 0x3FB1 JUMP JUMPDEST SWAP8 SWAP7 POP POP POP POP POP POP POP JUMP JUMPDEST PUSH1 0x0 DUP1 PUSH1 0x0 PUSH1 0x40 DUP5 DUP7 SUB SLT ISZERO PUSH2 0x3FF3 JUMPI PUSH1 0x0 DUP1 REVERT JUMPDEST PUSH2 0x3FFC DUP5 PUSH2 0x3AF1 JUMP JUMPDEST SWAP3 POP PUSH1 0x20 DUP5 ADD CALLDATALOAD PUSH1 0x1 PUSH1 0x1 PUSH1 0x40 SHL SUB DUP2 GT ISZERO PUSH2 0x4017 JUMPI PUSH1 0x0 DUP1 REVERT JUMPDEST PUSH2 0x4023 DUP7 DUP3 DUP8 ADD PUSH2 0x3B08 JUMP JUMPDEST SWAP5 SWAP8 SWAP1 SWAP7 POP SWAP4 SWAP5 POP POP POP POP JUMP JUMPDEST PUSH1 0x0 DUP1 PUSH1 0x0 DUP1 PUSH1 0x0 DUP1 PUSH1 0x0 PUSH1 0xE0 DUP9 DUP11 SUB SLT ISZERO PUSH2 0x404B JUMPI PUSH1 0x0 DUP1 REVERT JUMPDEST DUP8 CALLDATALOAD PUSH2 0x4056 DUP2 PUSH2 0x3CD1 JUMP JUMPDEST SWAP7 POP PUSH2 0x4064 PUSH1 0x20 DUP10 ADD PUSH2 0x3AF1 JUMP JUMPDEST SWAP6 POP PUSH1 0x40 DUP9 ADD CALLDATALOAD PUSH1 0x1 PUSH1 0x1 PUSH1 0x40 SHL SUB DUP1 DUP3 GT ISZERO PUSH2 0x4080 JUMPI PUSH1 0x0 DUP1 REVERT JUMPDEST PUSH2 0x408C DUP12 DUP4 DUP13 ADD PUSH2 0x3E25 JUMP JUMPDEST SWAP7 POP PUSH1 0x60 DUP11 ADD CALLDATALOAD SWAP6 POP PUSH1 0x80 DUP11 ADD CALLDATALOAD SWAP2 POP PUSH2 0x40A5 DUP3 PUSH2 0x3CD1 JUMP JUMPDEST SWAP1 SWAP4 POP PUSH1 0xA0 DUP10 ADD CALLDATALOAD SWAP1 PUSH2 0x40B7 DUP3 PUSH2 0x3CD1 JUMP JUMPDEST SWAP1 SWAP3 POP PUSH1 0xC0 DUP10 ADD CALLDATALOAD SWAP1 DUP1 DUP3 GT ISZERO PUSH2 0x40CD JUMPI PUSH1 0x0 DUP1 REVERT JUMPDEST POP PUSH2 0x40DA DUP11 DUP3 DUP12 ADD PUSH2 0x3E25 JUMP JUMPDEST SWAP2 POP POP SWAP3 SWAP6 SWAP9 SWAP2 SWAP5 SWAP8 POP SWAP3 SWAP6 POP JUMP JUMPDEST PUSH1 0x0 PUSH1 0x20 DUP3 DUP5 SUB SLT ISZERO PUSH2 0x40FB JUMPI PUSH1 0x0 DUP1 REVERT JUMPDEST DUP2 CALLDATALOAD PUSH1 0x1 PUSH1 0x1 PUSH1 0x40 SHL SUB DUP2 GT ISZERO PUSH2 0x4111 JUMPI PUSH1 0x0 DUP1 REVERT JUMPDEST DUP3 ADD PUSH1 0x1F DUP2 ADD DUP5 SGT PUSH2 0x4122 JUMPI PUSH1 0x0 DUP1 REVERT JUMPDEST PUSH2 0x24CC DUP5 DUP3 CALLDATALOAD PUSH1 0x20 DUP5 ADD PUSH2 0x3DE7 JUMP JUMPDEST PUSH1 0x0 DUP1 PUSH1 0x0 PUSH1 0x60 DUP5 DUP7 SUB SLT ISZERO PUSH2 0x4146 JUMPI PUSH1 0x0 DUP1 REVERT JUMPDEST PUSH2 0x414F DUP5 PUSH2 0x3AF1 JUMP JUMPDEST SWAP3 POP PUSH1 0x20 DUP5 ADD CALLDATALOAD PUSH1 0x1 PUSH1 0x1 PUSH1 0x40 SHL SUB DUP2 GT ISZERO PUSH2 0x416A JUMPI PUSH1 0x0 DUP1 REVERT JUMPDEST PUSH2 0x4176 DUP7 DUP3 DUP8 ADD PUSH2 0x3E25 JUMP JUMPDEST SWAP3 POP POP PUSH2 0x4185 PUSH1 0x40 DUP6 ADD PUSH2 0x3B49 JUMP JUMPDEST SWAP1 POP SWAP3 POP SWAP3 POP SWAP3 JUMP JUMPDEST PUSH1 0x0 DUP1 PUSH1 0x40 DUP4 DUP6 SUB SLT ISZERO PUSH2 0x41A1 JUMPI PUSH1 0x0 DUP1 REVERT JUMPDEST PUSH2 0x41AA DUP4 PUSH2 0x3AF1 JUMP JUMPDEST SWAP2 POP PUSH2 0x41B8 PUSH1 0x20 DUP5 ADD PUSH2 0x3AF1 JUMP JUMPDEST SWAP1 POP SWAP3 POP SWAP3 SWAP1 POP JUMP JUMPDEST PUSH1 0x0 PUSH1 0x20 DUP3 DUP5 SUB SLT ISZERO PUSH2 0x41D3 JUMPI PUSH1 0x0 DUP1 REVERT JUMPDEST DUP2 CALLDATALOAD PUSH1 0x1 PUSH1 0x1 PUSH1 0x40 SHL SUB DUP2 GT ISZERO PUSH2 0x41E9 JUMPI PUSH1 0x0 DUP1 REVERT JUMPDEST PUSH2 0x24CC DUP5 DUP3 DUP6 ADD PUSH2 0x3E25 JUMP JUMPDEST PUSH1 0x0 DUP1 PUSH1 0x40 DUP4 DUP6 SUB SLT ISZERO PUSH2 0x4208 JUMPI PUSH1 0x0 DUP1 REVERT JUMPDEST DUP3 CALLDATALOAD PUSH2 0x4213 DUP2 PUSH2 0x3CD1 JUMP JUMPDEST SWAP2 POP PUSH2 0x41B8 PUSH1 0x20 DUP5 ADD PUSH2 0x3E45 JUMP JUMPDEST PUSH1 0x0 DUP3 PUSH1 0x1F DUP4 ADD SLT PUSH2 0x4232 JUMPI PUSH1 0x0 DUP1 REVERT JUMPDEST DUP2 CALLDATALOAD PUSH1 0x20 PUSH2 0x4242 PUSH2 0x3DF5 DUP4 PUSH2 0x3F22 JUMP JUMPDEST DUP3 DUP2 MSTORE PUSH1 0x5 SWAP3 SWAP1 SWAP3 SHL DUP5 ADD DUP2 ADD SWAP2 DUP2 DUP2 ADD SWAP1 DUP7 DUP5 GT ISZERO PUSH2 0x4261 JUMPI PUSH1 0x0 DUP1 REVERT JUMPDEST DUP3 DUP7 ADD JUMPDEST DUP5 DUP2 LT ISZERO PUSH2 0x427C JUMPI DUP1 CALLDATALOAD DUP4 MSTORE SWAP2 DUP4 ADD SWAP2 DUP4 ADD PUSH2 0x4265 JUMP JUMPDEST POP SWAP7 SWAP6 POP POP POP POP POP POP JUMP JUMPDEST PUSH1 0x0 DUP1 PUSH1 0x0 DUP1 PUSH1 0x0 DUP1 PUSH1 0x0 PUSH1 0xE0 DUP9 DUP11 SUB SLT ISZERO PUSH2 0x42A2 JUMPI PUSH1 0x0 DUP1 REVERT JUMPDEST DUP8 CALLDATALOAD PUSH2 0x42AD DUP2 PUSH2 0x3CD1 JUMP JUMPDEST SWAP7 POP PUSH2 0x42BB PUSH1 0x20 DUP10 ADD PUSH2 0x3AF1 JUMP JUMPDEST SWAP6 POP PUSH1 0x40 DUP9 ADD CALLDATALOAD PUSH1 0x1 PUSH1 0x1 PUSH1 0x40 SHL SUB DUP1 DUP3 GT ISZERO PUSH2 0x42D7 JUMPI PUSH1 0x0 DUP1 REVERT JUMPDEST PUSH2 0x42E3 DUP12 DUP4 DUP13 ADD PUSH2 0x3E25 JUMP JUMPDEST SWAP7 POP PUSH1 0x60 DUP11 ADD CALLDATALOAD SWAP2 POP DUP1 DUP3 GT ISZERO PUSH2 0x42F9 JUMPI PUSH1 0x0 DUP1 REVERT JUMPDEST PUSH2 0x4305 DUP12 DUP4 DUP13 ADD PUSH2 0x4221 JUMP JUMPDEST SWAP6 POP PUSH1 0x80 DUP11 ADD CALLDATALOAD SWAP2 POP PUSH2 0x4317 DUP3 PUSH2 0x3CD1 JUMP JUMPDEST DUP2 SWAP5 POP PUSH2 0x4326 PUSH1 0xA0 DUP12 ADD PUSH2 0x3CE6 JUMP JUMPDEST SWAP4 POP PUSH1 0xC0 DUP11 ADD CALLDATALOAD SWAP2 POP DUP1 DUP3 GT ISZERO PUSH2 0x40CD JUMPI PUSH1 0x0 DUP1 REVERT JUMPDEST PUSH1 0x0 DUP1 PUSH1 0x0 DUP1 PUSH1 0x80 DUP6 DUP8 SUB SLT ISZERO PUSH2 0x4352 JUMPI PUSH1 0x0 DUP1 REVERT JUMPDEST DUP5 CALLDATALOAD PUSH2 0x435D DUP2 PUSH2 0x3CD1 JUMP JUMPDEST SWAP4 POP PUSH1 0x20 DUP6 ADD CALLDATALOAD PUSH2 0x436D DUP2 PUSH2 0x3CD1 JUMP JUMPDEST SWAP3 POP PUSH1 0x40 DUP6 ADD CALLDATALOAD SWAP2 POP PUSH1 0x60 DUP6 ADD CALLDATALOAD PUSH1 0x1 PUSH1 0x1 PUSH1 0x40 SHL SUB DUP2 GT ISZERO PUSH2 0x438F JUMPI PUSH1 0x0 DUP1 REVERT JUMPDEST PUSH2 0x439B DUP8 DUP3 DUP9 ADD PUSH2 0x3E25 JUMP JUMPDEST SWAP2 POP POP SWAP3 SWAP6 SWAP2 SWAP5 POP SWAP3 POP JUMP JUMPDEST PUSH1 0x0 PUSH1 0x20 DUP3 DUP5 SUB SLT ISZERO PUSH2 0x43B9 JUMPI PUSH1 0x0 DUP1 REVERT JUMPDEST DUP2 CALLDATALOAD PUSH1 0x1 PUSH1 0x1 PUSH1 0x60 SHL SUB DUP2 AND DUP2 EQ PUSH2 0x1BE8 JUMPI PUSH1 0x0 DUP1 REVERT JUMPDEST PUSH1 0x0 DUP1 PUSH1 0x0 DUP1 PUSH1 0x0 PUSH1 0x80 DUP7 DUP9 SUB SLT ISZERO PUSH2 0x43E8 JUMPI PUSH1 0x0 DUP1 REVERT JUMPDEST PUSH2 0x43F1 DUP7 PUSH2 0x3AF1 JUMP JUMPDEST SWAP5 POP PUSH2 0x43FF PUSH1 0x20 DUP8 ADD PUSH2 0x3AF1 JUMP JUMPDEST SWAP4 POP PUSH1 0x40 DUP7 ADD CALLDATALOAD SWAP3 POP PUSH1 0x60 DUP7 ADD CALLDATALOAD PUSH1 0x1 PUSH1 0x1 PUSH1 0x40 SHL SUB DUP2 GT ISZERO PUSH2 0x4421 JUMPI PUSH1 0x0 DUP1 REVERT JUMPDEST PUSH2 0x442D DUP9 DUP3 DUP10 ADD PUSH2 0x3B08 JUMP JUMPDEST SWAP7 SWAP10 SWAP6 SWAP9 POP SWAP4 SWAP7 POP SWAP3 SWAP5 SWAP4 SWAP3 POP POP POP JUMP JUMPDEST PUSH1 0x0 DUP1 PUSH1 0x0 PUSH1 0x60 DUP5 DUP7 SUB SLT ISZERO PUSH2 0x4453 JUMPI PUSH1 0x0 DUP1 REVERT JUMPDEST PUSH2 0x445C DUP5 PUSH2 0x3AF1 JUMP JUMPDEST SWAP3 POP PUSH2 0x446A PUSH1 0x20 DUP6 ADD PUSH2 0x3AF1 JUMP JUMPDEST SWAP2 POP PUSH1 0x40 DUP5 ADD CALLDATALOAD SWAP1 POP SWAP3 POP SWAP3 POP SWAP3 JUMP JUMPDEST PUSH1 0x0 DUP1 PUSH1 0x40 DUP4 DUP6 SUB SLT ISZERO PUSH2 0x448D JUMPI PUSH1 0x0 DUP1 REVERT JUMPDEST DUP3 CALLDATALOAD PUSH2 0x4498 DUP2 PUSH2 0x3CD1 JUMP JUMPDEST SWAP2 POP PUSH1 0x20 DUP4 ADD CALLDATALOAD PUSH2 0x44A8 DUP2 PUSH2 0x3CD1 JUMP JUMPDEST DUP1 SWAP2 POP POP SWAP3 POP SWAP3 SWAP1 POP JUMP JUMPDEST PUSH1 0x0 DUP1 PUSH1 0x0 DUP1 PUSH1 0x0 PUSH1 0xA0 DUP7 DUP9 SUB SLT ISZERO PUSH2 0x44CB JUMPI PUSH1 0x0 DUP1 REVERT JUMPDEST PUSH2 0x44D4 DUP7 PUSH2 0x3AF1 JUMP JUMPDEST SWAP5 POP PUSH1 0x20 DUP7 ADD CALLDATALOAD PUSH1 0x1 PUSH1 0x1 PUSH1 0x40 SHL SUB DUP1 DUP3 GT ISZERO PUSH2 0x44F0 JUMPI PUSH1 0x0 DUP1 REVERT JUMPDEST PUSH2 0x44FC DUP10 DUP4 DUP11 ADD PUSH2 0x3E25 JUMP JUMPDEST SWAP6 POP PUSH1 0x40 DUP9 ADD CALLDATALOAD SWAP2 POP DUP1 DUP3 GT ISZERO PUSH2 0x4512 JUMPI PUSH1 0x0 DUP1 REVERT JUMPDEST PUSH2 0x451E DUP10 DUP4 DUP11 ADD PUSH2 0x4221 JUMP JUMPDEST SWAP5 POP PUSH2 0x3EB3 PUSH1 0x60 DUP10 ADD PUSH2 0x3E45 JUMP JUMPDEST PUSH1 0x0 DUP1 PUSH1 0x0 DUP1 PUSH1 0x80 DUP6 DUP8 SUB SLT ISZERO PUSH2 0x4542 JUMPI PUSH1 0x0 DUP1 REVERT JUMPDEST PUSH2 0x454B DUP6 PUSH2 0x3AF1 JUMP JUMPDEST SWAP4 POP PUSH2 0x4559 PUSH1 0x20 DUP7 ADD PUSH2 0x3AF1 JUMP JUMPDEST SWAP3 POP PUSH1 0x40 DUP6 ADD CALLDATALOAD PUSH2 0x4569 DUP2 PUSH2 0x3CD1 JUMP JUMPDEST SWAP4 SWAP7 SWAP3 SWAP6 POP SWAP3 SWAP4 PUSH1 0x60 ADD CALLDATALOAD SWAP3 POP POP JUMP JUMPDEST PUSH1 0x1 DUP2 DUP2 SHR SWAP1 DUP3 AND DUP1 PUSH2 0x458D JUMPI PUSH1 0x7F DUP3 AND SWAP2 POP JUMPDEST PUSH1 0x20 DUP3 LT DUP2 SUB PUSH2 0x45AD JUMPI PUSH4 0x4E487B71 PUSH1 0xE0 SHL PUSH1 0x0 MSTORE PUSH1 0x22 PUSH1 0x4 MSTORE PUSH1 0x24 PUSH1 0x0 REVERT JUMPDEST POP SWAP2 SWAP1 POP JUMP JUMPDEST DUP2 DUP4 DUP3 CALLDATACOPY PUSH1 0x0 SWAP2 ADD SWAP1 DUP2 MSTORE SWAP2 SWAP1 POP JUMP JUMPDEST PUSH1 0x20 DUP1 DUP3 MSTORE PUSH1 0x2D SWAP1 DUP3 ADD MSTORE PUSH32 0x4552433732313A2063616C6C6572206973206E6F7420746F6B656E206F776E65 PUSH1 0x40 DUP3 ADD MSTORE PUSH13 0x1C881BDC88185C1C1C9BDD9959 PUSH1 0x9A SHL PUSH1 0x60 DUP3 ADD MSTORE PUSH1 0x80 ADD SWAP1 JUMP JUMPDEST PUSH4 0x4E487B71 PUSH1 0xE0 SHL PUSH1 0x0 MSTORE PUSH1 0x11 PUSH1 0x4 MSTORE PUSH1 0x24 PUSH1 0x0 REVERT JUMPDEST DUP1 DUP3 MUL DUP2 ISZERO DUP3 DUP3 DIV DUP5 EQ OR PUSH2 0xDFC JUMPI PUSH2 0xDFC PUSH2 0x4610 JUMP JUMPDEST PUSH1 0x0 DUP3 PUSH2 0x465A JUMPI PUSH4 0x4E487B71 PUSH1 0xE0 SHL PUSH1 0x0 MSTORE PUSH1 0x12 PUSH1 0x4 MSTORE PUSH1 0x24 PUSH1 0x0 REVERT JUMPDEST POP DIV SWAP1 JUMP JUMPDEST PUSH1 0x20 DUP1 DUP3 MSTORE PUSH1 0xD SWAP1 DUP3 ADD MSTORE PUSH13 0x496E76616C696420506172616D PUSH1 0x98 SHL PUSH1 0x40 DUP3 ADD MSTORE PUSH1 0x60 ADD SWAP1 JUMP JUMPDEST PUSH4 0x4E487B71 PUSH1 0xE0 SHL PUSH1 0x0 MSTORE PUSH1 0x32 PUSH1 0x4 MSTORE PUSH1 0x24 PUSH1 0x0 REVERT JUMPDEST PUSH1 0x20 DUP1 DUP3 MSTORE PUSH1 0xF SWAP1 DUP3 ADD MSTORE PUSH15 0x496E76616C69642041646472657373 PUSH1 0x88 SHL PUSH1 0x40 DUP3 ADD MSTORE PUSH1 0x60 ADD SWAP1 JUMP JUMPDEST PUSH1 0x0 PUSH1 0x1 DUP3 ADD PUSH2 0x46D7 JUMPI PUSH2 0x46D7 PUSH2 0x4610 JUMP JUMPDEST POP PUSH1 0x1 ADD SWAP1 JUMP JUMPDEST DUP2 DUP4 MSTORE DUP2 DUP2 PUSH1 0x20 DUP6 ADD CALLDATACOPY POP PUSH1 0x0 DUP3 DUP3 ADD PUSH1 0x20 SWAP1 DUP2 ADD SWAP2 SWAP1 SWAP2 MSTORE PUSH1 0x1F SWAP1 SWAP2 ADD PUSH1 0x1F NOT AND SWAP1 SWAP2 ADD ADD SWAP1 JUMP JUMPDEST PUSH2 0xFFFF DUP5 AND DUP2 MSTORE PUSH1 0x40 PUSH1 0x20 DUP3 ADD MSTORE PUSH1 0x0 PUSH2 0x24C9 PUSH1 0x40 DUP4 ADD DUP5 DUP7 PUSH2 0x46DE JUMP JUMPDEST PUSH1 0x1F DUP3 GT ISZERO PUSH2 0x1054 JUMPI PUSH1 0x0 DUP2 DUP2 MSTORE PUSH1 0x20 DUP2 KECCAK256 PUSH1 0x1F DUP6 ADD PUSH1 0x5 SHR DUP2 ADD PUSH1 0x20 DUP7 LT ISZERO PUSH2 0x474C JUMPI POP DUP1 JUMPDEST PUSH1 0x1F DUP6 ADD PUSH1 0x5 SHR DUP3 ADD SWAP2 POP JUMPDEST DUP2 DUP2 LT ISZERO PUSH2 0x1603 JUMPI DUP3 DUP2 SSTORE PUSH1 0x1 ADD PUSH2 0x4758 JUMP JUMPDEST PUSH1 0x0 NOT PUSH1 0x3 DUP4 SWAP1 SHL SHR NOT AND PUSH1 0x1 SWAP2 SWAP1 SWAP2 SHL OR SWAP1 JUMP JUMPDEST DUP2 MLOAD PUSH1 0x1 PUSH1 0x1 PUSH1 0x40 SHL SUB DUP2 GT ISZERO PUSH2 0x4799 JUMPI PUSH2 0x4799 PUSH2 0x3D7A JUMP JUMPDEST PUSH2 0x47AD DUP2 PUSH2 0x47A7 DUP5 SLOAD PUSH2 0x4579 JUMP JUMPDEST DUP5 PUSH2 0x4725 JUMP JUMPDEST PUSH1 0x20 DUP1 PUSH1 0x1F DUP4 GT PUSH1 0x1 DUP2 EQ PUSH2 0x47DC JUMPI PUSH1 0x0 DUP5 ISZERO PUSH2 0x47CA JUMPI POP DUP6 DUP4 ADD MLOAD JUMPDEST PUSH2 0x47D4 DUP6 DUP3 PUSH2 0x476B JUMP JUMPDEST DUP7 SSTORE POP PUSH2 0x1603 JUMP JUMPDEST PUSH1 0x0 DUP6 DUP2 MSTORE PUSH1 0x20 DUP2 KECCAK256 PUSH1 0x1F NOT DUP7 AND SWAP2 JUMPDEST DUP3 DUP2 LT ISZERO PUSH2 0x480B JUMPI DUP9 DUP7 ADD MLOAD DUP3 SSTORE SWAP5 DUP5 ADD SWAP5 PUSH1 0x1 SWAP1 SWAP2 ADD SWAP1 DUP5 ADD PUSH2 0x47EC JUMP JUMPDEST POP DUP6 DUP3 LT ISZERO PUSH2 0x4829 JUMPI DUP8 DUP6 ADD MLOAD PUSH1 0x0 NOT PUSH1 0x3 DUP9 SWAP1 SHL PUSH1 0xF8 AND SHR NOT AND DUP2 SSTORE JUMPDEST POP POP POP POP POP PUSH1 0x1 SWAP1 DUP2 SHL ADD SWAP1 SSTORE POP JUMP JUMPDEST PUSH1 0x20 DUP1 DUP3 MSTORE PUSH1 0x18 SWAP1 DUP3 ADD MSTORE PUSH24 0x115490CDCC8C4E881A5B9D985B1A59081D1BDAD95B881251 PUSH1 0x42 SHL PUSH1 0x40 DUP3 ADD MSTORE PUSH1 0x60 ADD SWAP1 JUMP JUMPDEST PUSH1 0x0 DUP3 PUSH1 0x1F DUP4 ADD SLT PUSH2 0x487C JUMPI PUSH1 0x0 DUP1 REVERT JUMPDEST DUP2 MLOAD PUSH2 0x488A PUSH2 0x3DF5 DUP3 PUSH2 0x3DC0 JUMP JUMPDEST DUP2 DUP2 MSTORE DUP5 PUSH1 0x20 DUP4 DUP7 ADD ADD GT ISZERO PUSH2 0x489F JUMPI PUSH1 0x0 DUP1 REVERT JUMPDEST PUSH2 0x24CC DUP3 PUSH1 0x20 DUP4 ADD PUSH1 0x20 DUP8 ADD PUSH2 0x3C26 JUMP JUMPDEST PUSH1 0x0 DUP1 PUSH1 0x40 DUP4 DUP6 SUB SLT ISZERO PUSH2 0x48C3 JUMPI PUSH1 0x0 DUP1 REVERT JUMPDEST DUP3 MLOAD PUSH1 0x1 PUSH1 0x1 PUSH1 0x40 SHL SUB DUP1 DUP3 GT ISZERO PUSH2 0x48DA JUMPI PUSH1 0x0 DUP1 REVERT JUMPDEST PUSH2 0x48E6 DUP7 DUP4 DUP8 ADD PUSH2 0x486B JUMP JUMPDEST SWAP4 POP PUSH1 0x20 SWAP2 POP DUP2 DUP6 ADD MLOAD DUP2 DUP2 GT ISZERO PUSH2 0x48FD JUMPI PUSH1 0x0 DUP1 REVERT JUMPDEST DUP6 ADD SWAP1 POP PUSH1 0x1F DUP2 ADD DUP7 SGT PUSH2 0x4910 JUMPI PUSH1 0x0 DUP1 REVERT JUMPDEST DUP1 MLOAD PUSH2 0x491E PUSH2 0x3DF5 DUP3 PUSH2 0x3F22 JUMP JUMPDEST DUP2 DUP2 MSTORE PUSH1 0x5 SWAP2 SWAP1 SWAP2 SHL DUP3 ADD DUP4 ADD SWAP1 DUP4 DUP2 ADD SWAP1 DUP9 DUP4 GT ISZERO PUSH2 0x493D JUMPI PUSH1 0x0 DUP1 REVERT JUMPDEST SWAP3 DUP5 ADD SWAP3 JUMPDEST DUP3 DUP5 LT ISZERO PUSH2 0x495B JUMPI DUP4 MLOAD DUP3 MSTORE SWAP3 DUP5 ADD SWAP3 SWAP1 DUP5 ADD SWAP1 PUSH2 0x4942 JUMP JUMPDEST DUP1 SWAP6 POP POP POP POP POP POP SWAP3 POP SWAP3 SWAP1 POP JUMP JUMPDEST DUP2 DUP2 SUB DUP2 DUP2 GT ISZERO PUSH2 0xDFC JUMPI PUSH2 0xDFC PUSH2 0x4610 JUMP JUMPDEST DUP3 DUP5 DUP3 CALLDATACOPY PUSH1 0x60 SWAP2 SWAP1 SWAP2 SHL PUSH1 0x1 PUSH1 0x1 PUSH1 0x60 SHL SUB NOT AND SWAP2 ADD SWAP1 DUP2 MSTORE PUSH1 0x14 ADD SWAP2 SWAP1 POP JUMP JUMPDEST PUSH1 0x0 DUP4 MLOAD PUSH2 0x49B0 DUP2 DUP5 PUSH1 0x20 DUP9 ADD PUSH2 0x3C26 JUMP JUMPDEST DUP4 MLOAD SWAP1 DUP4 ADD SWAP1 PUSH2 0x49C4 DUP2 DUP4 PUSH1 0x20 DUP9 ADD PUSH2 0x3C26 JUMP JUMPDEST ADD SWAP5 SWAP4 POP POP POP POP JUMP JUMPDEST PUSH1 0x0 PUSH2 0xFFFF DUP1 DUP9 AND DUP4 MSTORE DUP1 DUP8 AND PUSH1 0x20 DUP5 ADD MSTORE POP DUP5 PUSH1 0x40 DUP4 ADD MSTORE PUSH1 0x80 PUSH1 0x60 DUP4 ADD MSTORE PUSH2 0x3FD3 PUSH1 0x80 DUP4 ADD DUP5 DUP7 PUSH2 0x46DE JUMP JUMPDEST PUSH2 0xFFFF DUP7 AND DUP2 MSTORE PUSH1 0x80 PUSH1 0x20 DUP3 ADD MSTORE PUSH1 0x0 PUSH2 0x4A19 PUSH1 0x80 DUP4 ADD DUP7 DUP9 PUSH2 0x46DE JUMP JUMPDEST PUSH1 0x1 PUSH1 0x1 PUSH1 0x40 SHL SUB SWAP5 SWAP1 SWAP5 AND PUSH1 0x40 DUP4 ADD MSTORE POP PUSH1 0x60 ADD MSTORE SWAP4 SWAP3 POP POP POP JUMP JUMPDEST PUSH1 0x1 PUSH1 0x1 PUSH1 0x40 SHL SUB DUP4 GT ISZERO PUSH2 0x4A4D JUMPI PUSH2 0x4A4D PUSH2 0x3D7A JUMP JUMPDEST PUSH2 0x4A61 DUP4 PUSH2 0x4A5B DUP4 SLOAD PUSH2 0x4579 JUMP JUMPDEST DUP4 PUSH2 0x4725 JUMP JUMPDEST PUSH1 0x0 PUSH1 0x1F DUP5 GT PUSH1 0x1 DUP2 EQ PUSH2 0x4A8F JUMPI PUSH1 0x0 DUP6 ISZERO PUSH2 0x4A7D JUMPI POP DUP4 DUP3 ADD CALLDATALOAD JUMPDEST PUSH2 0x4A87 DUP7 DUP3 PUSH2 0x476B JUMP JUMPDEST DUP5 SSTORE POP PUSH2 0xF16 JUMP JUMPDEST PUSH1 0x0 DUP4 DUP2 MSTORE PUSH1 0x20 SWAP1 KECCAK256 PUSH1 0x1F NOT DUP7 AND SWAP1 DUP4 JUMPDEST DUP3 DUP2 LT ISZERO PUSH2 0x4AC0 JUMPI DUP7 DUP6 ADD CALLDATALOAD DUP3 SSTORE PUSH1 0x20 SWAP5 DUP6 ADD SWAP5 PUSH1 0x1 SWAP1 SWAP3 ADD SWAP2 ADD PUSH2 0x4AA0 JUMP JUMPDEST POP DUP7 DUP3 LT ISZERO PUSH2 0x4ADD JUMPI PUSH1 0x0 NOT PUSH1 0xF8 DUP9 PUSH1 0x3 SHL AND SHR NOT DUP5 DUP8 ADD CALLDATALOAD AND DUP2 SSTORE JUMPDEST POP POP PUSH1 0x1 DUP6 PUSH1 0x1 SHL ADD DUP4 SSTORE POP POP POP POP POP JUMP JUMPDEST PUSH1 0x0 DUP2 MLOAD DUP1 DUP5 MSTORE PUSH1 0x20 DUP1 DUP6 ADD SWAP5 POP DUP1 DUP5 ADD PUSH1 0x0 JUMPDEST DUP4 DUP2 LT ISZERO PUSH2 0x4B1F JUMPI DUP2 MLOAD DUP8 MSTORE SWAP6 DUP3 ADD SWAP6 SWAP1 DUP3 ADD SWAP1 PUSH1 0x1 ADD PUSH2 0x4B03 JUMP JUMPDEST POP SWAP5 SWAP6 SWAP5 POP POP POP POP POP JUMP JUMPDEST PUSH1 0x40 DUP2 MSTORE PUSH1 0x0 PUSH2 0x4B3D PUSH1 0x40 DUP4 ADD DUP6 PUSH2 0x3C4A JUMP JUMPDEST DUP3 DUP2 SUB PUSH1 0x20 DUP5 ADD MSTORE PUSH2 0x4B4F DUP2 DUP6 PUSH2 0x4AEF JUMP JUMPDEST SWAP6 SWAP5 POP POP POP POP POP JUMP JUMPDEST PUSH2 0xFFFF DUP7 AND DUP2 MSTORE PUSH1 0x1 PUSH1 0x1 PUSH1 0xA0 SHL SUB DUP6 AND PUSH1 0x20 DUP3 ADD MSTORE PUSH1 0xA0 PUSH1 0x40 DUP3 ADD DUP2 SWAP1 MSTORE PUSH1 0x0 SWAP1 PUSH2 0x4B86 SWAP1 DUP4 ADD DUP7 PUSH2 0x3C4A JUMP JUMPDEST DUP5 ISZERO ISZERO PUSH1 0x60 DUP5 ADD MSTORE DUP3 DUP2 SUB PUSH1 0x80 DUP5 ADD MSTORE PUSH2 0x4BA0 DUP2 DUP6 PUSH2 0x3C4A JUMP JUMPDEST SWAP9 SWAP8 POP POP POP POP POP POP POP POP JUMP JUMPDEST PUSH1 0x0 DUP1 PUSH1 0x40 DUP4 DUP6 SUB SLT ISZERO PUSH2 0x4BBF JUMPI PUSH1 0x0 DUP1 REVERT JUMPDEST POP POP DUP1 MLOAD PUSH1 0x20 SWAP1 SWAP2 ADD MLOAD SWAP1 SWAP3 SWAP1 SWAP2 POP JUMP JUMPDEST PUSH1 0x0 PUSH1 0x20 DUP3 DUP5 SUB SLT ISZERO PUSH2 0x4BE2 JUMPI PUSH1 0x0 DUP1 REVERT JUMPDEST DUP2 MLOAD PUSH1 0x1 PUSH1 0x1 PUSH1 0x40 SHL SUB DUP2 GT ISZERO PUSH2 0x4BF8 JUMPI PUSH1 0x0 DUP1 REVERT JUMPDEST PUSH2 0x24CC DUP5 DUP3 DUP6 ADD PUSH2 0x486B JUMP JUMPDEST PUSH2 0xFFFF DUP6 AND DUP2 MSTORE PUSH1 0x80 PUSH1 0x20 DUP3 ADD MSTORE PUSH1 0x0 PUSH2 0x4C21 PUSH1 0x80 DUP4 ADD DUP7 PUSH2 0x3C4A JUMP JUMPDEST PUSH1 0x1 PUSH1 0x1 PUSH1 0x40 SHL SUB DUP6 AND PUSH1 0x40 DUP5 ADD MSTORE DUP3 DUP2 SUB PUSH1 0x60 DUP5 ADD MSTORE PUSH2 0x3FD3 DUP2 DUP6 PUSH2 0x3C4A JUMP JUMPDEST PUSH1 0x20 DUP1 DUP3 MSTORE PUSH1 0x25 SWAP1 DUP3 ADD MSTORE PUSH32 0x4552433732313A207472616E736665722066726F6D20696E636F727265637420 PUSH1 0x40 DUP3 ADD MSTORE PUSH5 0x37BBB732B9 PUSH1 0xD9 SHL PUSH1 0x60 DUP3 ADD MSTORE PUSH1 0x80 ADD SWAP1 JUMP JUMPDEST PUSH1 0x0 DUP3 MLOAD PUSH2 0x4C99 DUP2 DUP5 PUSH1 0x20 DUP8 ADD PUSH2 0x3C26 JUMP JUMPDEST SWAP2 SWAP1 SWAP2 ADD SWAP3 SWAP2 POP POP JUMP JUMPDEST PUSH1 0x20 DUP2 MSTORE PUSH1 0x0 PUSH2 0x1BE8 PUSH1 0x20 DUP4 ADD DUP5 PUSH2 0x4AEF JUMP JUMPDEST DUP3 DUP2 MSTORE PUSH1 0x40 PUSH1 0x20 DUP3 ADD MSTORE PUSH1 0x0 PUSH2 0x24CC PUSH1 0x40 DUP4 ADD DUP5 PUSH2 0x3C4A JUMP JUMPDEST DUP1 DUP3 ADD DUP1 DUP3 GT ISZERO PUSH2 0xDFC JUMPI PUSH2 0xDFC PUSH2 0x4610 JUMP JUMPDEST PUSH1 0x20 DUP1 DUP3 MSTORE PUSH1 0x32 SWAP1 DUP3 ADD MSTORE PUSH32 0x4552433732313A207472616E7366657220746F206E6F6E204552433732315265 PUSH1 0x40 DUP3 ADD MSTORE PUSH18 0x31B2B4BB32B91034B6B83632B6B2B73A32B9 PUSH1 0x71 SHL PUSH1 0x60 DUP3 ADD MSTORE PUSH1 0x80 ADD SWAP1 JUMP JUMPDEST PUSH2 0xFFFF DUP7 AND DUP2 MSTORE PUSH1 0xA0 PUSH1 0x20 DUP3 ADD MSTORE PUSH1 0x0 PUSH2 0x4D51 PUSH1 0xA0 DUP4 ADD DUP8 PUSH2 0x3C4A JUMP JUMPDEST PUSH1 0x1 PUSH1 0x1 PUSH1 0x40 SHL SUB DUP7 AND PUSH1 0x40 DUP5 ADD MSTORE DUP3 DUP2 SUB PUSH1 0x60 DUP5 ADD MSTORE PUSH2 0x4D72 DUP2 DUP7 PUSH2 0x3C4A JUMP JUMPDEST SWAP1 POP DUP3 DUP2 SUB PUSH1 0x80 DUP5 ADD MSTORE PUSH2 0x4BA0 DUP2 DUP6 PUSH2 0x3C4A JUMP JUMPDEST PUSH2 0xFFFF DUP8 AND DUP2 MSTORE PUSH1 0xC0 PUSH1 0x20 DUP3 ADD MSTORE PUSH1 0x0 PUSH2 0x4DA3 PUSH1 0xC0 DUP4 ADD DUP9 PUSH2 0x3C4A JUMP JUMPDEST DUP3 DUP2 SUB PUSH1 0x40 DUP5 ADD MSTORE PUSH2 0x4DB5 DUP2 DUP9 PUSH2 0x3C4A JUMP JUMPDEST PUSH1 0x1 PUSH1 0x1 PUSH1 0xA0 SHL SUB DUP8 DUP2 AND PUSH1 0x60 DUP7 ADD MSTORE DUP7 AND PUSH1 0x80 DUP6 ADD MSTORE DUP4 DUP2 SUB PUSH1 0xA0 DUP6 ADD MSTORE SWAP1 POP PUSH2 0x4DE0 DUP2 DUP6 PUSH2 0x3C4A JUMP JUMPDEST SWAP10 SWAP9 POP POP POP POP POP POP POP POP POP JUMP JUMPDEST PUSH1 0x1 PUSH1 0x1 PUSH1 0xA0 SHL SUB DUP6 DUP2 AND DUP3 MSTORE DUP5 AND PUSH1 0x20 DUP3 ADD MSTORE PUSH1 0x40 DUP2 ADD DUP4 SWAP1 MSTORE PUSH1 0x80 PUSH1 0x60 DUP3 ADD DUP2 SWAP1 MSTORE PUSH1 0x0 SWAP1 PUSH2 0x4E20 SWAP1 DUP4 ADD DUP5 PUSH2 0x3C4A JUMP JUMPDEST SWAP7 SWAP6 POP POP POP POP POP POP JUMP JUMPDEST PUSH1 0x0 PUSH1 0x20 DUP3 DUP5 SUB SLT ISZERO PUSH2 0x4E3C JUMPI PUSH1 0x0 DUP1 REVERT JUMPDEST DUP2 MLOAD PUSH2 0x1BE8 DUP2 PUSH2 0x3BF3 JUMP JUMPDEST PUSH1 0x20 DUP1 DUP3 MSTORE PUSH1 0x1C SWAP1 DUP3 ADD MSTORE PUSH28 0x115490CDCC8C4E881D1BDAD95B88185B1C9958591E481B5A5B9D1959 PUSH1 0x22 SHL PUSH1 0x40 DUP3 ADD MSTORE PUSH1 0x60 ADD SWAP1 JUMP INVALID 0xDD CALLCODE MSTORE 0xAD SHL 0xE2 0xC8 SWAP12 PUSH10 0xC2B068FC378DAA952BA7 CALL PUSH4 0xC4A11628 CREATE2 GAS 0x4D CREATE2 0x23 0xB3 0xEF LOG2 PUSH5 0x6970667358 0x22 SLT KECCAK256 PUSH21 0x94E5C35F0B8C4986508032FC983918AB718C839C87 0xDD 0xBB 0xB4 0xFC CALLER SELFBALANCE DUP7 PUSH16 0x1C1F64736F6C63430008120033000000 "},"methodIdentifiers":{"DEFAULT_PAYLOAD_SIZE_LIMIT()":"c4461834","FUNCTION_TYPE_SEND()":"af3fb21c","MAX_SUPPLY()":"32cb6b0c","adjustRoyalty(uint96)":"bd075be8","approve(address,uint256)":"095ea7b3","balanceOf(address)":"70a08231","baseTokenURI()":"d547cfb7","clearCredits(bytes)":"8ffa1f2a","dstChainIdToBatchLimit(uint16)":"4ac3f4ff","dstChainIdToTransferGas(uint16)":"fa25f9b6","estimateSendBatchFee(uint16,bytes,uint256[],bool,bytes)":"f2353641","estimateSendFee(uint16,bytes,uint256,bool,bytes)":"2a205e3d","failedMessages(uint16,bytes,uint64)":"5b8c41e6","forceResumeReceive(uint16,bytes)":"42d65a8d","getApproved(uint256)":"081812fc","getConfig(uint16,uint16,address,uint256)":"f5ecbdbc","getTrustedRemoteAddress(uint16)":"9f38369a","goLiveDate()":"6cee6da2","isApprovedForAll(address,address)":"e985e9c5","isTrustedRemote(uint16,bytes)":"3d8b38f6","lzEndpoint()":"b353aaa7","lzReceive(uint16,bytes,uint64,bytes)":"001d3567","minDstGasLookup(uint16,uint16)":"8cfd8f5c","minGasToTransferAndStore()":"48288190","name()":"06fdde03","nonblockingLzReceive(uint16,bytes,uint64,bytes)":"66ad5c8a","owner()":"8da5cb5b","ownerOf(uint256)":"6352211e","payloadSizeLimitLookup(uint16)":"3f1f4fa4","precrime()":"950c8a74","removeWhiteList(address[])":"39745791","renounceOwnership()":"715018a6","retryMessage(uint16,bytes,uint64,bytes)":"d1deba1f","royaltyHandler()":"7ac8fd87","royaltyInfo(uint256,uint256)":"2a55205a","safeTransferFrom(address,address,uint256)":"42842e0e","safeTransferFrom(address,address,uint256,bytes)":"b88d4fde","sendBatchFrom(address,uint16,bytes,uint256[],address,address,bytes)":"ab3ffb93","sendFrom(address,uint16,bytes,uint256,address,address,bytes)":"51905636","setApprovalForAll(address,bool)":"a22cb465","setBaseURI(string)":"55f804b3","setConfig(uint16,uint16,uint256,bytes)":"cbed8b9c","setDstChainIdToBatchLimit(uint16,uint256)":"9ea5d6b1","setDstChainIdToTransferGas(uint16,uint256)":"d12473a5","setMinDstGas(uint16,uint16,uint256)":"df2a5b3b","setMinGasToTransferAndStore(uint256)":"0b4cad4c","setPayloadSizeLimit(uint16,uint256)":"0df37483","setPrecrime(address)":"baf3292d","setReceiveVersion(uint16)":"10ddb137","setRoyaltyHandler(address)":"9a733c18","setSendVersion(uint16)":"07e0db17","setTrustedRemote(uint16,bytes)":"eb8d72b7","setTrustedRemoteAddress(uint16,bytes)":"a6c3d165","storedCredits(bytes32)":"22a3ecf9","supportsInterface(bytes4)":"01ffc9a7","symbol()":"95d89b41","tokenURI(uint256)":"c87b56dd","transferFrom(address,address,uint256)":"23b872dd","transferOwnership(address)":"f2fde38b","trustedRemoteLookup(uint16)":"7533d788","updateGoLiveDate(uint256)":"612debbd","updateWhiteList(address[])":"f999e05d","whiteList(address)":"372c12b1"}}}}}