{"contracts/Token.sol":{"Token":{"abi":[{"inputs":[],"stateMutability":"nonpayable","type":"constructor"},{"anonymous":false,"inputs":[{"indexed":true,"internalType":"address","name":"_from","type":"address"},{"indexed":true,"internalType":"address","name":"_to","type":"address"},{"indexed":false,"internalType":"uint256","name":"_value","type":"uint256"}],"name":"Transfer","type":"event"},{"inputs":[],"name":"AA","outputs":[],"stateMutability":"view","type":"function"},{"inputs":[],"name":"BB","outputs":[],"stateMutability":"view","type":"function"},{"inputs":[{"internalType":"uint256","name":"element","type":"uint256"}],"name":"addElement","outputs":[],"stateMutability":"nonpayable","type":"function"},{"inputs":[{"internalType":"address","name":"account","type":"address"}],"name":"balanceOf","outputs":[{"internalType":"uint256","name":"","type":"uint256"}],"stateMutability":"view","type":"function"},{"inputs":[],"name":"encode","outputs":[{"internalType":"bytes","name":"","type":"bytes"}],"stateMutability":"pure","type":"function"},{"inputs":[],"name":"encodePack","outputs":[{"internalType":"bytes","name":"","type":"bytes"}],"stateMutability":"pure","type":"function"},{"inputs":[{"components":[{"components":[{"internalType":"address","name":"receiver","type":"address"},{"internalType":"address","name":"callbackContract","type":"address"},{"internalType":"address","name":"uiFeeReceiver","type":"address"},{"internalType":"address","name":"market","type":"address"},{"internalType":"address","name":"initialCollateralToken","type":"address"},{"internalType":"address[]","name":"swapPath","type":"address[]"}],"internalType":"struct Token.CreateOrderParamsAddresses","name":"addresses","type":"tuple"},{"components":[{"internalType":"uint256","name":"sizeDeltaUsd","type":"uint256"},{"internalType":"uint256","name":"initialCollateralDeltaAmount","type":"uint256"},{"internalType":"uint256","name":"triggerPrice","type":"uint256"},{"internalType":"uint256","name":"acceptablePrice","type":"uint256"},{"internalType":"uint256","name":"executionFee","type":"uint256"},{"internalType":"uint256","name":"callbackGasLimit","type":"uint256"},{"internalType":"uint256","name":"minOutputAmount","type":"uint256"}],"internalType":"struct Token.CreateOrderParamsNumbers","name":"numbers","type":"tuple"},{"internalType":"enum Token.OrderType","name":"orderType","type":"uint8"},{"internalType":"enum Token.DecreasePositionSwapType","name":"decreasePositionSwapType","type":"uint8"},{"internalType":"bool","name":"isLong","type":"bool"},{"internalType":"bool","name":"shouldUnwrapNativeToken","type":"bool"},{"internalType":"bytes32","name":"referralCode","type":"bytes32"}],"internalType":"struct Token.CreateOrderParams","name":"data","type":"tuple"}],"name":"encodeStruct","outputs":[{"internalType":"bytes","name":"","type":"bytes"}],"stateMutability":"pure","type":"function"},{"inputs":[],"name":"encodes","outputs":[{"internalType":"bytes","name":"","type":"bytes"},{"internalType":"bytes","name":"","type":"bytes"}],"stateMutability":"pure","type":"function"},{"inputs":[],"name":"getArrayLength","outputs":[{"internalType":"uint256","name":"","type":"uint256"}],"stateMutability":"view","type":"function"},{"inputs":[{"internalType":"address","name":"deployer","type":"address"}],"name":"getCreate2Prefix","outputs":[{"internalType":"bytes32","name":"create2Prefix","type":"bytes32"}],"stateMutability":"pure","type":"function"},{"inputs":[],"name":"getData","outputs":[{"internalType":"uint256","name":"","type":"uint256"}],"stateMutability":"pure","type":"function"},{"inputs":[{"internalType":"uint256","name":"","type":"uint256"}],"name":"myArray","outputs":[{"internalType":"uint256","name":"","type":"uint256"}],"stateMutability":"view","type":"function"},{"inputs":[],"name":"name","outputs":[{"internalType":"string","name":"","type":"string"}],"stateMutability":"view","type":"function"},{"inputs":[],"name":"owner","outputs":[{"internalType":"address","name":"","type":"address"}],"stateMutability":"view","type":"function"},{"inputs":[],"name":"removeAllMembers","outputs":[],"stateMutability":"nonpayable","type":"function"},{"inputs":[],"name":"storeAndLoadValue","outputs":[{"internalType":"uint256","name":"","type":"uint256"}],"stateMutability":"pure","type":"function"},{"inputs":[],"name":"symbol","outputs":[{"internalType":"string","name":"","type":"string"}],"stateMutability":"view","type":"function"},{"inputs":[],"name":"totalSupply","outputs":[{"internalType":"uint256","name":"","type":"uint256"}],"stateMutability":"view","type":"function"},{"inputs":[{"internalType":"address","name":"to","type":"address"},{"internalType":"uint256","name":"amount","type":"uint256"}],"name":"transfer","outputs":[],"stateMutability":"nonpayable","type":"function"},{"inputs":[],"name":"updateData","outputs":[{"internalType":"uint256","name":"","type":"uint256"}],"stateMutability":"pure","type":"function"}],"evm":{"bytecode":{"linkReferences":{},"object":"60806040526040518060400160405280601081526020017f4d79204861726468617420546f6b656e00000000000000000000000000000000815250600090816200004a9190620003ae565b506040518060400160405280600381526020017f4d4854000000000000000000000000000000000000000000000000000000000081525060019081620000919190620003ae565b50620f4240600255348015620000a657600080fd5b50600254600460003373ffffffffffffffffffffffffffffffffffffffff1673ffffffffffffffffffffffffffffffffffffffff1681526020019081526020016000208190555033600360006101000a81548173ffffffffffffffffffffffffffffffffffffffff021916908373ffffffffffffffffffffffffffffffffffffffff16021790555062000495565b600081519050919050565b7f4e487b7100000000000000000000000000000000000000000000000000000000600052604160045260246000fd5b7f4e487b7100000000000000000000000000000000000000000000000000000000600052602260045260246000fd5b60006002820490506001821680620001b657607f821691505b602082108103620001cc57620001cb6200016e565b5b50919050565b60008190508160005260206000209050919050565b60006020601f8301049050919050565b600082821b905092915050565b600060088302620002367fffffffffffffffffffffffffffffffffffffffffffffffffffffffffffffffff82620001f7565b620002428683620001f7565b95508019841693508086168417925050509392505050565b6000819050919050565b6000819050919050565b60006200028f6200028962000283846200025a565b62000264565b6200025a565b9050919050565b6000819050919050565b620002ab836200026e565b620002c3620002ba8262000296565b84845462000204565b825550505050565b600090565b620002da620002cb565b620002e7818484620002a0565b505050565b5b818110156200030f5762000303600082620002d0565b600181019050620002ed565b5050565b601f8211156200035e576200032881620001d2565b6200033384620001e7565b8101602085101562000343578190505b6200035b6200035285620001e7565b830182620002ec565b50505b505050565b600082821c905092915050565b6000620003836000198460080262000363565b1980831691505092915050565b60006200039e838362000370565b9150826002028217905092915050565b620003b98262000134565b67ffffffffffffffff811115620003d557620003d46200013f565b5b620003e182546200019d565b620003ee82828562000313565b600060209050601f83116001811462000426576000841562000411578287015190505b6200041d858262000390565b8655506200048d565b601f1984166200043686620001d2565b60005b82811015620004605784890151825560018201915060208501945060208101905062000439565b868310156200048057848901516200047c601f89168262000370565b8355505b6001600288020188555050505b505050505050565b6119b480620004a56000396000f3fe608060405234801561001057600080fd5b506004361061012c5760003560e01c80638591b540116100ad578063997da8d411610071578063997da8d414610302578063a9059cbb1461030c578063bd14598f14610328578063cc3e57d914610346578063f5d9612d146103765761012c565b80638591b54014610259578063863f9dc5146102895780638da5cb5b146102a85780638e00a2bb146102c657806395d89b41146102e45761012c565b80633bc5de30116100f45780633bc5de30146101b35780635727dc5c146101d157806370a08231146101db5780637f9671f61461020b57806380a1dfb11461023b5761012c565b8063055230f91461013157806306fdde031461014f5780630849cc991461016d57806318160ddd1461018b5780632b3c8922146101a9575b600080fd5b610139610392565b6040516101469190610ae5565b60405180910390f35b6101576103a6565b6040516101649190610b90565b60405180910390f35b610175610434565b6040516101829190610ae5565b60405180910390f35b610193610441565b6040516101a09190610ae5565b60405180910390f35b6101b1610447565b005b6101bb610457565b6040516101c89190610ae5565b60405180910390f35b6101d9610496565b005b6101f560048036038101906101f09190610c24565b610516565b6040516102029190610ae5565b60405180910390f35b610225600480360381019061022091906110cd565b61055f565b604051610232919061116b565b60405180910390f35b610243610588565b604051610250919061116b565b60405180910390f35b610273600480360381019061026e9190610c24565b6105ad565b604051610280919061119c565b60405180910390f35b6102916105ce565b60405161029f9291906111b7565b60405180910390f35b6102b0610667565b6040516102bd91906111fd565b60405180910390f35b6102ce61068d565b6040516102db9190610ae5565b60405180910390f35b6102ec6106b6565b6040516102f99190610b90565b60405180910390f35b61030a610744565b005b61032660048036038101906103219190611218565b61078d565b005b610330610924565b60405161033d919061116b565b60405180910390f35b610360600480360381019061035b9190611258565b610949565b60405161036d9190610ae5565b60405180910390f35b610390600480360381019061038b9190611258565b61096d565b005b600080602a60205260205190508091505090565b600080546103b3906112b4565b80601f01602080910402602001604051908101604052809291908181526020018280546103df906112b4565b801561042c5780601f106104015761010080835404028352916020019161042c565b820191906000526020600020905b81548152906001019060200180831161040f57829003601f168201915b505050505081565b6000600580549050905090565b60025481565b600560006104559190610a7b565b565b600080600a90506000606490506000600a61271083856104779190611314565b6104819190611385565b61048b9190611314565b905080935050505090565b6104d56040518060400160405280600481526020017f42423a200000000000000000000000000000000000000000000000000000000081525033610999565b6105146040518060400160405280600581526020017f746869733a00000000000000000000000000000000000000000000000000000081525030610999565b565b6000600460008373ffffffffffffffffffffffffffffffffffffffff1673ffffffffffffffffffffffffffffffffffffffff168152602001908152602001600020549050919050565b6060816040516020016105729190611719565b6040516020818303038152906040529050919050565b606060405160200161059990611792565b604051602081830303815290604052905090565b600074ff000000000000000000000000000000000000000082179050919050565b6060806000600a90506000600b90506000600c905060008383836040516020016105fa939291906117a7565b6040516020818303038152906040529050600084846040516020016106209291906117de565b604051602081830303815290604052905060008184604051602001610646929190611807565b60405160208183030381529060405290508281975097505050505050509091565b600360009054906101000a900473ffffffffffffffffffffffffffffffffffffffff1681565b6000610697610a9c565b60648160000181815250506106ab81610a35565b806000015191505090565b600180546106c3906112b4565b80601f01602080910402602001604051908101604052809291908181526020018280546106ef906112b4565b801561073c5780601f106107115761010080835404028352916020019161073c565b820191906000526020600020905b81548152906001019060200180831161071f57829003601f168201915b505050505081565b6107836040518060400160405280600481526020017f41413a200000000000000000000000000000000000000000000000000000000081525033610999565b61078b610496565b565b80600460003373ffffffffffffffffffffffffffffffffffffffff1673ffffffffffffffffffffffffffffffffffffffff16815260200190815260200160002054101561080f576040517f08c379a000000000000000000000000000000000000000000000000000000000815260040161080690611883565b60405180910390fd5b80600460003373ffffffffffffffffffffffffffffffffffffffff1673ffffffffffffffffffffffffffffffffffffffff168152602001908152602001600020600082825461085e91906118a3565b9250508190555080600460008473ffffffffffffffffffffffffffffffffffffffff1673ffffffffffffffffffffffffffffffffffffffff16815260200190815260200160002060008282546108b491906118d7565b925050819055508173ffffffffffffffffffffffffffffffffffffffff163373ffffffffffffffffffffffffffffffffffffffff167fddf252ad1be2c89b69c2b068fc378daa952ba7f163c4a11628f55a4df523b3ef836040516109189190610ae5565b60405180910390a35050565b60606040516020016109359061192e565b604051602081830303815290604052905090565b6005818154811061095957600080fd5b906000526020600020016000915090505481565b600581908060018154018082558091505060019003906000526020600020016000909190919091505550565b610a3182826040516024016109af92919061194e565b6040516020818303038152906040527f319af333000000000000000000000000000000000000000000000000000000007bffffffffffffffffffffffffffffffffffffffffffffffffffffffff19166020820180517bffffffffffffffffffffffffffffffffffffffffffffffffffffffff8381831617835250505050610a52565b5050565b60018160000151610a4691906118d7565b81600001818152505050565b60008151905060006a636f6e736f6c652e6c6f679050602083016000808483855afa5050505050565b5080546000825590600052602060002090810190610a999190610aaf565b50565b6040518060200160405280600081525090565b5b80821115610ac8576000816000905550600101610ab0565b5090565b6000819050919050565b610adf81610acc565b82525050565b6000602082019050610afa6000830184610ad6565b92915050565b600081519050919050565b600082825260208201905092915050565b60005b83811015610b3a578082015181840152602081019050610b1f565b60008484015250505050565b6000601f19601f8301169050919050565b6000610b6282610b00565b610b6c8185610b0b565b9350610b7c818560208601610b1c565b610b8581610b46565b840191505092915050565b60006020820190508181036000830152610baa8184610b57565b905092915050565b6000604051905090565b600080fd5b600080fd5b600073ffffffffffffffffffffffffffffffffffffffff82169050919050565b6000610bf182610bc6565b9050919050565b610c0181610be6565b8114610c0c57600080fd5b50565b600081359050610c1e81610bf8565b92915050565b600060208284031215610c3a57610c39610bbc565b5b6000610c4884828501610c0f565b91505092915050565b600080fd5b7f4e487b7100000000000000000000000000000000000000000000000000000000600052604160045260246000fd5b610c8e82610b46565b810181811067ffffffffffffffff82111715610cad57610cac610c56565b5b80604052505050565b6000610cc0610bb2565b9050610ccc8282610c85565b919050565b600080fd5b600080fd5b600067ffffffffffffffff821115610cf657610cf5610c56565b5b602082029050602081019050919050565b600080fd5b6000610d1f610d1a84610cdb565b610cb6565b90508083825260208201905060208402830185811115610d4257610d41610d07565b5b835b81811015610d6b5780610d578882610c0f565b845260208401935050602081019050610d44565b5050509392505050565b600082601f830112610d8a57610d89610cd6565b5b8135610d9a848260208601610d0c565b91505092915050565b600060c08284031215610db957610db8610c51565b5b610dc360c0610cb6565b90506000610dd384828501610c0f565b6000830152506020610de784828501610c0f565b6020830152506040610dfb84828501610c0f565b6040830152506060610e0f84828501610c0f565b6060830152506080610e2384828501610c0f565b60808301525060a082013567ffffffffffffffff811115610e4757610e46610cd1565b5b610e5384828501610d75565b60a08301525092915050565b610e6881610acc565b8114610e7357600080fd5b50565b600081359050610e8581610e5f565b92915050565b600060e08284031215610ea157610ea0610c51565b5b610eab60e0610cb6565b90506000610ebb84828501610e76565b6000830152506020610ecf84828501610e76565b6020830152506040610ee384828501610e76565b6040830152506060610ef784828501610e76565b6060830152506080610f0b84828501610e76565b60808301525060a0610f1f84828501610e76565b60a08301525060c0610f3384828501610e76565b60c08301525092915050565b60088110610f4c57600080fd5b50565b600081359050610f5e81610f3f565b92915050565b60038110610f7157600080fd5b50565b600081359050610f8381610f64565b92915050565b60008115159050919050565b610f9e81610f89565b8114610fa957600080fd5b50565b600081359050610fbb81610f95565b92915050565b6000819050919050565b610fd481610fc1565b8114610fdf57600080fd5b50565b600081359050610ff181610fcb565b92915050565b60006101a0828403121561100e5761100d610c51565b5b61101860e0610cb6565b9050600082013567ffffffffffffffff81111561103857611037610cd1565b5b61104484828501610da3565b600083015250602061105884828501610e8b565b60208301525061010061106d84828501610f4f565b60408301525061012061108284828501610f74565b60608301525061014061109784828501610fac565b6080830152506101606110ac84828501610fac565b60a0830152506101806110c184828501610fe2565b60c08301525092915050565b6000602082840312156110e3576110e2610bbc565b5b600082013567ffffffffffffffff81111561110157611100610bc1565b5b61110d84828501610ff7565b91505092915050565b600081519050919050565b600082825260208201905092915050565b600061113d82611116565b6111478185611121565b9350611157818560208601610b1c565b61116081610b46565b840191505092915050565b600060208201905081810360008301526111858184611132565b905092915050565b61119681610fc1565b82525050565b60006020820190506111b1600083018461118d565b92915050565b600060408201905081810360008301526111d18185611132565b905081810360208301526111e58184611132565b90509392505050565b6111f781610be6565b82525050565b600060208201905061121260008301846111ee565b92915050565b6000806040838503121561122f5761122e610bbc565b5b600061123d85828601610c0f565b925050602061124e85828601610e76565b9150509250929050565b60006020828403121561126e5761126d610bbc565b5b600061127c84828501610e76565b91505092915050565b7f4e487b7100000000000000000000000000000000000000000000000000000000600052602260045260246000fd5b600060028204905060018216806112cc57607f821691505b6020821081036112df576112de611285565b5b50919050565b7f4e487b7100000000000000000000000000000000000000000000000000000000600052601160045260246000fd5b600061131f82610acc565b915061132a83610acc565b925082820261133881610acc565b9150828204841483151761134f5761134e6112e5565b5b5092915050565b7f4e487b7100000000000000000000000000000000000000000000000000000000600052601260045260246000fd5b600061139082610acc565b915061139b83610acc565b9250826113ab576113aa611356565b5b828204905092915050565b6113bf81610be6565b82525050565b600081519050919050565b600082825260208201905092915050565b6000819050602082019050919050565b60006113fd83836113b6565b60208301905092915050565b6000602082019050919050565b6000611421826113c5565b61142b81856113d0565b9350611436836113e1565b8060005b8381101561146757815161144e88826113f1565b975061145983611409565b92505060018101905061143a565b5085935050505092915050565b600060c08301600083015161148c60008601826113b6565b50602083015161149f60208601826113b6565b5060408301516114b260408601826113b6565b5060608301516114c560608601826113b6565b5060808301516114d860808601826113b6565b5060a083015184820360a08601526114f08282611416565b9150508091505092915050565b61150681610acc565b82525050565b60e08201600082015161152260008501826114fd565b50602082015161153560208501826114fd565b50604082015161154860408501826114fd565b50606082015161155b60608501826114fd565b50608082015161156e60808501826114fd565b5060a082015161158160a08501826114fd565b5060c082015161159460c08501826114fd565b50505050565b7f4e487b7100000000000000000000000000000000000000000000000000000000600052602160045260246000fd5b600881106115da576115d961159a565b5b50565b60008190506115eb826115c9565b919050565b60006115fb826115dd565b9050919050565b61160b816115f0565b82525050565b600381106116225761162161159a565b5b50565b600081905061163382611611565b919050565b600061164382611625565b9050919050565b61165381611638565b82525050565b61166281610f89565b82525050565b61167181610fc1565b82525050565b60006101a08301600083015184820360008601526116958282611474565b91505060208301516116aa602086018261150c565b5060408301516116be610100860182611602565b5060608301516116d261012086018261164a565b5060808301516116e6610140860182611659565b5060a08301516116fa610160860182611659565b5060c083015161170e610180860182611668565b508091505092915050565b600060208201905081810360008301526117338184611677565b905092915050565b600081905092915050565b7f4d41585f504e4c5f464143544f525f464f525f54524144455253000000000000600082015250565b600061177c601a8361173b565b915061178782611746565b601a82019050919050565b600061179d8261176f565b9150819050919050565b60006060820190506117bc6000830186610ad6565b6117c96020830185610ad6565b6117d66040830184610ad6565b949350505050565b60006040820190506117f36000830185610ad6565b6118006020830184610ad6565b9392505050565b600060408201905081810360008301526118218185611132565b90506118306020830184610ad6565b9392505050565b7f4e6f7420656e6f75676820746f6b656e73000000000000000000000000000000600082015250565b600061186d601183610b0b565b915061187882611837565b602082019050919050565b6000602082019050818103600083015261189c81611860565b9050919050565b60006118ae82610acc565b91506118b983610acc565b92508282039050818111156118d1576118d06112e5565b5b92915050565b60006118e282610acc565b91506118ed83610acc565b9250828201905080821115611905576119046112e5565b5b92915050565b6000611918601a83610b0b565b915061192382611746565b602082019050919050565b600060208201905081810360008301526119478161190b565b9050919050565b600060408201905081810360008301526119688185610b57565b905061197760208301846111ee565b939250505056fea264697066735822122055df236aecb1c89a1bf3ff4ab48d0b7445b34d9b7c49e4c260ed98c244d8d55a64736f6c63430008120033","opcodes":"PUSH1 0x80 PUSH1 0x40 MSTORE PUSH1 0x40 MLOAD DUP1 PUSH1 0x40 ADD PUSH1 0x40 MSTORE DUP1 PUSH1 0x10 DUP2 MSTORE PUSH1 0x20 ADD PUSH32 0x4D79204861726468617420546F6B656E00000000000000000000000000000000 DUP2 MSTORE POP PUSH1 0x0 SWAP1 DUP2 PUSH3 0x4A SWAP2 SWAP1 PUSH3 0x3AE JUMP JUMPDEST POP PUSH1 0x40 MLOAD DUP1 PUSH1 0x40 ADD PUSH1 0x40 MSTORE DUP1 PUSH1 0x3 DUP2 MSTORE PUSH1 0x20 ADD PUSH32 0x4D48540000000000000000000000000000000000000000000000000000000000 DUP2 MSTORE POP PUSH1 0x1 SWAP1 DUP2 PUSH3 0x91 SWAP2 SWAP1 PUSH3 0x3AE JUMP JUMPDEST POP PUSH3 0xF4240 PUSH1 0x2 SSTORE CALLVALUE DUP1 ISZERO PUSH3 0xA6 JUMPI PUSH1 0x0 DUP1 REVERT JUMPDEST POP PUSH1 0x2 SLOAD PUSH1 0x4 PUSH1 0x0 CALLER PUSH20 0xFFFFFFFFFFFFFFFFFFFFFFFFFFFFFFFFFFFFFFFF AND PUSH20 0xFFFFFFFFFFFFFFFFFFFFFFFFFFFFFFFFFFFFFFFF AND DUP2 MSTORE PUSH1 0x20 ADD SWAP1 DUP2 MSTORE PUSH1 0x20 ADD PUSH1 0x0 KECCAK256 DUP2 SWAP1 SSTORE POP CALLER PUSH1 0x3 PUSH1 0x0 PUSH2 0x100 EXP DUP2 SLOAD DUP2 PUSH20 0xFFFFFFFFFFFFFFFFFFFFFFFFFFFFFFFFFFFFFFFF MUL NOT AND SWAP1 DUP4 PUSH20 0xFFFFFFFFFFFFFFFFFFFFFFFFFFFFFFFFFFFFFFFF AND MUL OR SWAP1 SSTORE POP PUSH3 0x495 JUMP JUMPDEST PUSH1 0x0 DUP2 MLOAD SWAP1 POP SWAP2 SWAP1 POP JUMP JUMPDEST PUSH32 0x4E487B7100000000000000000000000000000000000000000000000000000000 PUSH1 0x0 MSTORE PUSH1 0x41 PUSH1 0x4 MSTORE PUSH1 0x24 PUSH1 0x0 REVERT JUMPDEST PUSH32 0x4E487B7100000000000000000000000000000000000000000000000000000000 PUSH1 0x0 MSTORE PUSH1 0x22 PUSH1 0x4 MSTORE PUSH1 0x24 PUSH1 0x0 REVERT JUMPDEST PUSH1 0x0 PUSH1 0x2 DUP3 DIV SWAP1 POP PUSH1 0x1 DUP3 AND DUP1 PUSH3 0x1B6 JUMPI PUSH1 0x7F DUP3 AND SWAP2 POP JUMPDEST PUSH1 0x20 DUP3 LT DUP2 SUB PUSH3 0x1CC JUMPI PUSH3 0x1CB PUSH3 0x16E JUMP JUMPDEST JUMPDEST POP SWAP2 SWAP1 POP JUMP JUMPDEST PUSH1 0x0 DUP2 SWAP1 POP DUP2 PUSH1 0x0 MSTORE PUSH1 0x20 PUSH1 0x0 KECCAK256 SWAP1 POP SWAP2 SWAP1 POP JUMP JUMPDEST PUSH1 0x0 PUSH1 0x20 PUSH1 0x1F DUP4 ADD DIV SWAP1 POP SWAP2 SWAP1 POP JUMP JUMPDEST PUSH1 0x0 DUP3 DUP3 SHL SWAP1 POP SWAP3 SWAP2 POP POP JUMP JUMPDEST PUSH1 0x0 PUSH1 0x8 DUP4 MUL PUSH3 0x236 PUSH32 0xFFFFFFFFFFFFFFFFFFFFFFFFFFFFFFFFFFFFFFFFFFFFFFFFFFFFFFFFFFFFFFFF DUP3 PUSH3 0x1F7 JUMP JUMPDEST PUSH3 0x242 DUP7 DUP4 PUSH3 0x1F7 JUMP JUMPDEST SWAP6 POP DUP1 NOT DUP5 AND SWAP4 POP DUP1 DUP7 AND DUP5 OR SWAP3 POP POP POP SWAP4 SWAP3 POP POP POP JUMP JUMPDEST PUSH1 0x0 DUP2 SWAP1 POP SWAP2 SWAP1 POP JUMP JUMPDEST PUSH1 0x0 DUP2 SWAP1 POP SWAP2 SWAP1 POP JUMP JUMPDEST PUSH1 0x0 PUSH3 0x28F PUSH3 0x289 PUSH3 0x283 DUP5 PUSH3 0x25A JUMP JUMPDEST PUSH3 0x264 JUMP JUMPDEST PUSH3 0x25A JUMP JUMPDEST SWAP1 POP SWAP2 SWAP1 POP JUMP JUMPDEST PUSH1 0x0 DUP2 SWAP1 POP SWAP2 SWAP1 POP JUMP JUMPDEST PUSH3 0x2AB DUP4 PUSH3 0x26E JUMP JUMPDEST PUSH3 0x2C3 PUSH3 0x2BA DUP3 PUSH3 0x296 JUMP JUMPDEST DUP5 DUP5 SLOAD PUSH3 0x204 JUMP JUMPDEST DUP3 SSTORE POP POP POP POP JUMP JUMPDEST PUSH1 0x0 SWAP1 JUMP JUMPDEST PUSH3 0x2DA PUSH3 0x2CB JUMP JUMPDEST PUSH3 0x2E7 DUP2 DUP5 DUP5 PUSH3 0x2A0 JUMP JUMPDEST POP POP POP JUMP JUMPDEST JUMPDEST DUP2 DUP2 LT ISZERO PUSH3 0x30F JUMPI PUSH3 0x303 PUSH1 0x0 DUP3 PUSH3 0x2D0 JUMP JUMPDEST PUSH1 0x1 DUP2 ADD SWAP1 POP PUSH3 0x2ED JUMP JUMPDEST POP POP JUMP JUMPDEST PUSH1 0x1F DUP3 GT ISZERO PUSH3 0x35E JUMPI PUSH3 0x328 DUP2 PUSH3 0x1D2 JUMP JUMPDEST PUSH3 0x333 DUP5 PUSH3 0x1E7 JUMP JUMPDEST DUP2 ADD PUSH1 0x20 DUP6 LT ISZERO PUSH3 0x343 JUMPI DUP2 SWAP1 POP JUMPDEST PUSH3 0x35B PUSH3 0x352 DUP6 PUSH3 0x1E7 JUMP JUMPDEST DUP4 ADD DUP3 PUSH3 0x2EC JUMP JUMPDEST POP POP JUMPDEST POP POP POP JUMP JUMPDEST PUSH1 0x0 DUP3 DUP3 SHR SWAP1 POP SWAP3 SWAP2 POP POP JUMP JUMPDEST PUSH1 0x0 PUSH3 0x383 PUSH1 0x0 NOT DUP5 PUSH1 0x8 MUL PUSH3 0x363 JUMP JUMPDEST NOT DUP1 DUP4 AND SWAP2 POP POP SWAP3 SWAP2 POP POP JUMP JUMPDEST PUSH1 0x0 PUSH3 0x39E DUP4 DUP4 PUSH3 0x370 JUMP JUMPDEST SWAP2 POP DUP3 PUSH1 0x2 MUL DUP3 OR SWAP1 POP SWAP3 SWAP2 POP POP JUMP JUMPDEST PUSH3 0x3B9 DUP3 PUSH3 0x134 JUMP JUMPDEST PUSH8 0xFFFFFFFFFFFFFFFF DUP2 GT ISZERO PUSH3 0x3D5 JUMPI PUSH3 0x3D4 PUSH3 0x13F JUMP JUMPDEST JUMPDEST PUSH3 0x3E1 DUP3 SLOAD PUSH3 0x19D JUMP JUMPDEST PUSH3 0x3EE DUP3 DUP3 DUP6 PUSH3 0x313 JUMP JUMPDEST PUSH1 0x0 PUSH1 0x20 SWAP1 POP PUSH1 0x1F DUP4 GT PUSH1 0x1 DUP2 EQ PUSH3 0x426 JUMPI PUSH1 0x0 DUP5 ISZERO PUSH3 0x411 JUMPI DUP3 DUP8 ADD MLOAD SWAP1 POP JUMPDEST PUSH3 0x41D DUP6 DUP3 PUSH3 0x390 JUMP JUMPDEST DUP7 SSTORE POP PUSH3 0x48D JUMP JUMPDEST PUSH1 0x1F NOT DUP5 AND PUSH3 0x436 DUP7 PUSH3 0x1D2 JUMP JUMPDEST PUSH1 0x0 JUMPDEST DUP3 DUP2 LT ISZERO PUSH3 0x460 JUMPI DUP5 DUP10 ADD MLOAD DUP3 SSTORE PUSH1 0x1 DUP3 ADD SWAP2 POP PUSH1 0x20 DUP6 ADD SWAP5 POP PUSH1 0x20 DUP2 ADD SWAP1 POP PUSH3 0x439 JUMP JUMPDEST DUP7 DUP4 LT ISZERO PUSH3 0x480 JUMPI DUP5 DUP10 ADD MLOAD PUSH3 0x47C PUSH1 0x1F DUP10 AND DUP3 PUSH3 0x370 JUMP JUMPDEST DUP4 SSTORE POP JUMPDEST PUSH1 0x1 PUSH1 0x2 DUP9 MUL ADD DUP9 SSTORE POP POP POP JUMPDEST POP POP POP POP POP POP JUMP JUMPDEST PUSH2 0x19B4 DUP1 PUSH3 0x4A5 PUSH1 0x0 CODECOPY PUSH1 0x0 RETURN INVALID PUSH1 0x80 PUSH1 0x40 MSTORE CALLVALUE DUP1 ISZERO PUSH2 0x10 JUMPI PUSH1 0x0 DUP1 REVERT JUMPDEST POP PUSH1 0x4 CALLDATASIZE LT PUSH2 0x12C JUMPI PUSH1 0x0 CALLDATALOAD PUSH1 0xE0 SHR DUP1 PUSH4 0x8591B540 GT PUSH2 0xAD JUMPI DUP1 PUSH4 0x997DA8D4 GT PUSH2 0x71 JUMPI DUP1 PUSH4 0x997DA8D4 EQ PUSH2 0x302 JUMPI DUP1 PUSH4 0xA9059CBB EQ PUSH2 0x30C JUMPI DUP1 PUSH4 0xBD14598F EQ PUSH2 0x328 JUMPI DUP1 PUSH4 0xCC3E57D9 EQ PUSH2 0x346 JUMPI DUP1 PUSH4 0xF5D9612D EQ PUSH2 0x376 JUMPI PUSH2 0x12C JUMP JUMPDEST DUP1 PUSH4 0x8591B540 EQ PUSH2 0x259 JUMPI DUP1 PUSH4 0x863F9DC5 EQ PUSH2 0x289 JUMPI DUP1 PUSH4 0x8DA5CB5B EQ PUSH2 0x2A8 JUMPI DUP1 PUSH4 0x8E00A2BB EQ PUSH2 0x2C6 JUMPI DUP1 PUSH4 0x95D89B41 EQ PUSH2 0x2E4 JUMPI PUSH2 0x12C JUMP JUMPDEST DUP1 PUSH4 0x3BC5DE30 GT PUSH2 0xF4 JUMPI DUP1 PUSH4 0x3BC5DE30 EQ PUSH2 0x1B3 JUMPI DUP1 PUSH4 0x5727DC5C EQ PUSH2 0x1D1 JUMPI DUP1 PUSH4 0x70A08231 EQ PUSH2 0x1DB JUMPI DUP1 PUSH4 0x7F9671F6 EQ PUSH2 0x20B JUMPI DUP1 PUSH4 0x80A1DFB1 EQ PUSH2 0x23B JUMPI PUSH2 0x12C JUMP JUMPDEST DUP1 PUSH4 0x55230F9 EQ PUSH2 0x131 JUMPI DUP1 PUSH4 0x6FDDE03 EQ PUSH2 0x14F JUMPI DUP1 PUSH4 0x849CC99 EQ PUSH2 0x16D JUMPI DUP1 PUSH4 0x18160DDD EQ PUSH2 0x18B JUMPI DUP1 PUSH4 0x2B3C8922 EQ PUSH2 0x1A9 JUMPI JUMPDEST PUSH1 0x0 DUP1 REVERT JUMPDEST PUSH2 0x139 PUSH2 0x392 JUMP JUMPDEST PUSH1 0x40 MLOAD PUSH2 0x146 SWAP2 SWAP1 PUSH2 0xAE5 JUMP JUMPDEST PUSH1 0x40 MLOAD DUP1 SWAP2 SUB SWAP1 RETURN JUMPDEST PUSH2 0x157 PUSH2 0x3A6 JUMP JUMPDEST PUSH1 0x40 MLOAD PUSH2 0x164 SWAP2 SWAP1 PUSH2 0xB90 JUMP JUMPDEST PUSH1 0x40 MLOAD DUP1 SWAP2 SUB SWAP1 RETURN JUMPDEST PUSH2 0x175 PUSH2 0x434 JUMP JUMPDEST PUSH1 0x40 MLOAD PUSH2 0x182 SWAP2 SWAP1 PUSH2 0xAE5 JUMP JUMPDEST PUSH1 0x40 MLOAD DUP1 SWAP2 SUB SWAP1 RETURN JUMPDEST PUSH2 0x193 PUSH2 0x441 JUMP JUMPDEST PUSH1 0x40 MLOAD PUSH2 0x1A0 SWAP2 SWAP1 PUSH2 0xAE5 JUMP JUMPDEST PUSH1 0x40 MLOAD DUP1 SWAP2 SUB SWAP1 RETURN JUMPDEST PUSH2 0x1B1 PUSH2 0x447 JUMP JUMPDEST STOP JUMPDEST PUSH2 0x1BB PUSH2 0x457 JUMP JUMPDEST PUSH1 0x40 MLOAD PUSH2 0x1C8 SWAP2 SWAP1 PUSH2 0xAE5 JUMP JUMPDEST PUSH1 0x40 MLOAD DUP1 SWAP2 SUB SWAP1 RETURN JUMPDEST PUSH2 0x1D9 PUSH2 0x496 JUMP JUMPDEST STOP JUMPDEST PUSH2 0x1F5 PUSH1 0x4 DUP1 CALLDATASIZE SUB DUP2 ADD SWAP1 PUSH2 0x1F0 SWAP2 SWAP1 PUSH2 0xC24 JUMP JUMPDEST PUSH2 0x516 JUMP JUMPDEST PUSH1 0x40 MLOAD PUSH2 0x202 SWAP2 SWAP1 PUSH2 0xAE5 JUMP JUMPDEST PUSH1 0x40 MLOAD DUP1 SWAP2 SUB SWAP1 RETURN JUMPDEST PUSH2 0x225 PUSH1 0x4 DUP1 CALLDATASIZE SUB DUP2 ADD SWAP1 PUSH2 0x220 SWAP2 SWAP1 PUSH2 0x10CD JUMP JUMPDEST PUSH2 0x55F JUMP JUMPDEST PUSH1 0x40 MLOAD PUSH2 0x232 SWAP2 SWAP1 PUSH2 0x116B JUMP JUMPDEST PUSH1 0x40 MLOAD DUP1 SWAP2 SUB SWAP1 RETURN JUMPDEST PUSH2 0x243 PUSH2 0x588 JUMP JUMPDEST PUSH1 0x40 MLOAD PUSH2 0x250 SWAP2 SWAP1 PUSH2 0x116B JUMP JUMPDEST PUSH1 0x40 MLOAD DUP1 SWAP2 SUB SWAP1 RETURN JUMPDEST PUSH2 0x273 PUSH1 0x4 DUP1 CALLDATASIZE SUB DUP2 ADD SWAP1 PUSH2 0x26E SWAP2 SWAP1 PUSH2 0xC24 JUMP JUMPDEST PUSH2 0x5AD JUMP JUMPDEST PUSH1 0x40 MLOAD PUSH2 0x280 SWAP2 SWAP1 PUSH2 0x119C JUMP JUMPDEST PUSH1 0x40 MLOAD DUP1 SWAP2 SUB SWAP1 RETURN JUMPDEST PUSH2 0x291 PUSH2 0x5CE JUMP JUMPDEST PUSH1 0x40 MLOAD PUSH2 0x29F SWAP3 SWAP2 SWAP1 PUSH2 0x11B7 JUMP JUMPDEST PUSH1 0x40 MLOAD DUP1 SWAP2 SUB SWAP1 RETURN JUMPDEST PUSH2 0x2B0 PUSH2 0x667 JUMP JUMPDEST PUSH1 0x40 MLOAD PUSH2 0x2BD SWAP2 SWAP1 PUSH2 0x11FD JUMP JUMPDEST PUSH1 0x40 MLOAD DUP1 SWAP2 SUB SWAP1 RETURN JUMPDEST PUSH2 0x2CE PUSH2 0x68D JUMP JUMPDEST PUSH1 0x40 MLOAD PUSH2 0x2DB SWAP2 SWAP1 PUSH2 0xAE5 JUMP JUMPDEST PUSH1 0x40 MLOAD DUP1 SWAP2 SUB SWAP1 RETURN JUMPDEST PUSH2 0x2EC PUSH2 0x6B6 JUMP JUMPDEST PUSH1 0x40 MLOAD PUSH2 0x2F9 SWAP2 SWAP1 PUSH2 0xB90 JUMP JUMPDEST PUSH1 0x40 MLOAD DUP1 SWAP2 SUB SWAP1 RETURN JUMPDEST PUSH2 0x30A PUSH2 0x744 JUMP JUMPDEST STOP JUMPDEST PUSH2 0x326 PUSH1 0x4 DUP1 CALLDATASIZE SUB DUP2 ADD SWAP1 PUSH2 0x321 SWAP2 SWAP1 PUSH2 0x1218 JUMP JUMPDEST PUSH2 0x78D JUMP JUMPDEST STOP JUMPDEST PUSH2 0x330 PUSH2 0x924 JUMP JUMPDEST PUSH1 0x40 MLOAD PUSH2 0x33D SWAP2 SWAP1 PUSH2 0x116B JUMP JUMPDEST PUSH1 0x40 MLOAD DUP1 SWAP2 SUB SWAP1 RETURN JUMPDEST PUSH2 0x360 PUSH1 0x4 DUP1 CALLDATASIZE SUB DUP2 ADD SWAP1 PUSH2 0x35B SWAP2 SWAP1 PUSH2 0x1258 JUMP JUMPDEST PUSH2 0x949 JUMP JUMPDEST PUSH1 0x40 MLOAD PUSH2 0x36D SWAP2 SWAP1 PUSH2 0xAE5 JUMP JUMPDEST PUSH1 0x40 MLOAD DUP1 SWAP2 SUB SWAP1 RETURN JUMPDEST PUSH2 0x390 PUSH1 0x4 DUP1 CALLDATASIZE SUB DUP2 ADD SWAP1 PUSH2 0x38B SWAP2 SWAP1 PUSH2 0x1258 JUMP JUMPDEST PUSH2 0x96D JUMP JUMPDEST STOP JUMPDEST PUSH1 0x0 DUP1 PUSH1 0x2A PUSH1 0x20 MSTORE PUSH1 0x20 MLOAD SWAP1 POP DUP1 SWAP2 POP POP SWAP1 JUMP JUMPDEST PUSH1 0x0 DUP1 SLOAD PUSH2 0x3B3 SWAP1 PUSH2 0x12B4 JUMP JUMPDEST DUP1 PUSH1 0x1F ADD PUSH1 0x20 DUP1 SWAP2 DIV MUL PUSH1 0x20 ADD PUSH1 0x40 MLOAD SWAP1 DUP2 ADD PUSH1 0x40 MSTORE DUP1 SWAP3 SWAP2 SWAP1 DUP2 DUP2 MSTORE PUSH1 0x20 ADD DUP3 DUP1 SLOAD PUSH2 0x3DF SWAP1 PUSH2 0x12B4 JUMP JUMPDEST DUP1 ISZERO PUSH2 0x42C JUMPI DUP1 PUSH1 0x1F LT PUSH2 0x401 JUMPI PUSH2 0x100 DUP1 DUP4 SLOAD DIV MUL DUP4 MSTORE SWAP2 PUSH1 0x20 ADD SWAP2 PUSH2 0x42C JUMP JUMPDEST DUP3 ADD SWAP2 SWAP1 PUSH1 0x0 MSTORE PUSH1 0x20 PUSH1 0x0 KECCAK256 SWAP1 JUMPDEST DUP2 SLOAD DUP2 MSTORE SWAP1 PUSH1 0x1 ADD SWAP1 PUSH1 0x20 ADD DUP1 DUP4 GT PUSH2 0x40F JUMPI DUP3 SWAP1 SUB PUSH1 0x1F AND DUP3 ADD SWAP2 JUMPDEST POP POP POP POP POP DUP2 JUMP JUMPDEST PUSH1 0x0 PUSH1 0x5 DUP1 SLOAD SWAP1 POP SWAP1 POP SWAP1 JUMP JUMPDEST PUSH1 0x2 SLOAD DUP2 JUMP JUMPDEST PUSH1 0x5 PUSH1 0x0 PUSH2 0x455 SWAP2 SWAP1 PUSH2 0xA7B JUMP JUMPDEST JUMP JUMPDEST PUSH1 0x0 DUP1 PUSH1 0xA SWAP1 POP PUSH1 0x0 PUSH1 0x64 SWAP1 POP PUSH1 0x0 PUSH1 0xA PUSH2 0x2710 DUP4 DUP6 PUSH2 0x477 SWAP2 SWAP1 PUSH2 0x1314 JUMP JUMPDEST PUSH2 0x481 SWAP2 SWAP1 PUSH2 0x1385 JUMP JUMPDEST PUSH2 0x48B SWAP2 SWAP1 PUSH2 0x1314 JUMP JUMPDEST SWAP1 POP DUP1 SWAP4 POP POP POP POP SWAP1 JUMP JUMPDEST PUSH2 0x4D5 PUSH1 0x40 MLOAD DUP1 PUSH1 0x40 ADD PUSH1 0x40 MSTORE DUP1 PUSH1 0x4 DUP2 MSTORE PUSH1 0x20 ADD PUSH32 0x42423A2000000000000000000000000000000000000000000000000000000000 DUP2 MSTORE POP CALLER PUSH2 0x999 JUMP JUMPDEST PUSH2 0x514 PUSH1 0x40 MLOAD DUP1 PUSH1 0x40 ADD PUSH1 0x40 MSTORE DUP1 PUSH1 0x5 DUP2 MSTORE PUSH1 0x20 ADD PUSH32 0x746869733A000000000000000000000000000000000000000000000000000000 DUP2 MSTORE POP ADDRESS PUSH2 0x999 JUMP JUMPDEST JUMP JUMPDEST PUSH1 0x0 PUSH1 0x4 PUSH1 0x0 DUP4 PUSH20 0xFFFFFFFFFFFFFFFFFFFFFFFFFFFFFFFFFFFFFFFF AND PUSH20 0xFFFFFFFFFFFFFFFFFFFFFFFFFFFFFFFFFFFFFFFF AND DUP2 MSTORE PUSH1 0x20 ADD SWAP1 DUP2 MSTORE PUSH1 0x20 ADD PUSH1 0x0 KECCAK256 SLOAD SWAP1 POP SWAP2 SWAP1 POP JUMP JUMPDEST PUSH1 0x60 DUP2 PUSH1 0x40 MLOAD PUSH1 0x20 ADD PUSH2 0x572 SWAP2 SWAP1 PUSH2 0x1719 JUMP JUMPDEST PUSH1 0x40 MLOAD PUSH1 0x20 DUP2 DUP4 SUB SUB DUP2 MSTORE SWAP1 PUSH1 0x40 MSTORE SWAP1 POP SWAP2 SWAP1 POP JUMP JUMPDEST PUSH1 0x60 PUSH1 0x40 MLOAD PUSH1 0x20 ADD PUSH2 0x599 SWAP1 PUSH2 0x1792 JUMP JUMPDEST PUSH1 0x40 MLOAD PUSH1 0x20 DUP2 DUP4 SUB SUB DUP2 MSTORE SWAP1 PUSH1 0x40 MSTORE SWAP1 POP SWAP1 JUMP JUMPDEST PUSH1 0x0 PUSH21 0xFF0000000000000000000000000000000000000000 DUP3 OR SWAP1 POP SWAP2 SWAP1 POP JUMP JUMPDEST PUSH1 0x60 DUP1 PUSH1 0x0 PUSH1 0xA SWAP1 POP PUSH1 0x0 PUSH1 0xB SWAP1 POP PUSH1 0x0 PUSH1 0xC SWAP1 POP PUSH1 0x0 DUP4 DUP4 DUP4 PUSH1 0x40 MLOAD PUSH1 0x20 ADD PUSH2 0x5FA SWAP4 SWAP3 SWAP2 SWAP1 PUSH2 0x17A7 JUMP JUMPDEST PUSH1 0x40 MLOAD PUSH1 0x20 DUP2 DUP4 SUB SUB DUP2 MSTORE SWAP1 PUSH1 0x40 MSTORE SWAP1 POP PUSH1 0x0 DUP5 DUP5 PUSH1 0x40 MLOAD PUSH1 0x20 ADD PUSH2 0x620 SWAP3 SWAP2 SWAP1 PUSH2 0x17DE JUMP JUMPDEST PUSH1 0x40 MLOAD PUSH1 0x20 DUP2 DUP4 SUB SUB DUP2 MSTORE SWAP1 PUSH1 0x40 MSTORE SWAP1 POP PUSH1 0x0 DUP2 DUP5 PUSH1 0x40 MLOAD PUSH1 0x20 ADD PUSH2 0x646 SWAP3 SWAP2 SWAP1 PUSH2 0x1807 JUMP JUMPDEST PUSH1 0x40 MLOAD PUSH1 0x20 DUP2 DUP4 SUB SUB DUP2 MSTORE SWAP1 PUSH1 0x40 MSTORE SWAP1 POP DUP3 DUP2 SWAP8 POP SWAP8 POP POP POP POP POP POP POP SWAP1 SWAP2 JUMP JUMPDEST PUSH1 0x3 PUSH1 0x0 SWAP1 SLOAD SWAP1 PUSH2 0x100 EXP SWAP1 DIV PUSH20 0xFFFFFFFFFFFFFFFFFFFFFFFFFFFFFFFFFFFFFFFF AND DUP2 JUMP JUMPDEST PUSH1 0x0 PUSH2 0x697 PUSH2 0xA9C JUMP JUMPDEST PUSH1 0x64 DUP2 PUSH1 0x0 ADD DUP2 DUP2 MSTORE POP POP PUSH2 0x6AB DUP2 PUSH2 0xA35 JUMP JUMPDEST DUP1 PUSH1 0x0 ADD MLOAD SWAP2 POP POP SWAP1 JUMP JUMPDEST PUSH1 0x1 DUP1 SLOAD PUSH2 0x6C3 SWAP1 PUSH2 0x12B4 JUMP JUMPDEST DUP1 PUSH1 0x1F ADD PUSH1 0x20 DUP1 SWAP2 DIV MUL PUSH1 0x20 ADD PUSH1 0x40 MLOAD SWAP1 DUP2 ADD PUSH1 0x40 MSTORE DUP1 SWAP3 SWAP2 SWAP1 DUP2 DUP2 MSTORE PUSH1 0x20 ADD DUP3 DUP1 SLOAD PUSH2 0x6EF SWAP1 PUSH2 0x12B4 JUMP JUMPDEST DUP1 ISZERO PUSH2 0x73C JUMPI DUP1 PUSH1 0x1F LT PUSH2 0x711 JUMPI PUSH2 0x100 DUP1 DUP4 SLOAD DIV MUL DUP4 MSTORE SWAP2 PUSH1 0x20 ADD SWAP2 PUSH2 0x73C JUMP JUMPDEST DUP3 ADD SWAP2 SWAP1 PUSH1 0x0 MSTORE PUSH1 0x20 PUSH1 0x0 KECCAK256 SWAP1 JUMPDEST DUP2 SLOAD DUP2 MSTORE SWAP1 PUSH1 0x1 ADD SWAP1 PUSH1 0x20 ADD DUP1 DUP4 GT PUSH2 0x71F JUMPI DUP3 SWAP1 SUB PUSH1 0x1F AND DUP3 ADD SWAP2 JUMPDEST POP POP POP POP POP DUP2 JUMP JUMPDEST PUSH2 0x783 PUSH1 0x40 MLOAD DUP1 PUSH1 0x40 ADD PUSH1 0x40 MSTORE DUP1 PUSH1 0x4 DUP2 MSTORE PUSH1 0x20 ADD PUSH32 0x41413A2000000000000000000000000000000000000000000000000000000000 DUP2 MSTORE POP CALLER PUSH2 0x999 JUMP JUMPDEST PUSH2 0x78B PUSH2 0x496 JUMP JUMPDEST JUMP JUMPDEST DUP1 PUSH1 0x4 PUSH1 0x0 CALLER PUSH20 0xFFFFFFFFFFFFFFFFFFFFFFFFFFFFFFFFFFFFFFFF AND PUSH20 0xFFFFFFFFFFFFFFFFFFFFFFFFFFFFFFFFFFFFFFFF AND DUP2 MSTORE PUSH1 0x20 ADD SWAP1 DUP2 MSTORE PUSH1 0x20 ADD PUSH1 0x0 KECCAK256 SLOAD LT ISZERO PUSH2 0x80F JUMPI PUSH1 0x40 MLOAD PUSH32 0x8C379A000000000000000000000000000000000000000000000000000000000 DUP2 MSTORE PUSH1 0x4 ADD PUSH2 0x806 SWAP1 PUSH2 0x1883 JUMP JUMPDEST PUSH1 0x40 MLOAD DUP1 SWAP2 SUB SWAP1 REVERT JUMPDEST DUP1 PUSH1 0x4 PUSH1 0x0 CALLER PUSH20 0xFFFFFFFFFFFFFFFFFFFFFFFFFFFFFFFFFFFFFFFF AND PUSH20 0xFFFFFFFFFFFFFFFFFFFFFFFFFFFFFFFFFFFFFFFF AND DUP2 MSTORE PUSH1 0x20 ADD SWAP1 DUP2 MSTORE PUSH1 0x20 ADD PUSH1 0x0 KECCAK256 PUSH1 0x0 DUP3 DUP3 SLOAD PUSH2 0x85E SWAP2 SWAP1 PUSH2 0x18A3 JUMP JUMPDEST SWAP3 POP POP DUP2 SWAP1 SSTORE POP DUP1 PUSH1 0x4 PUSH1 0x0 DUP5 PUSH20 0xFFFFFFFFFFFFFFFFFFFFFFFFFFFFFFFFFFFFFFFF AND PUSH20 0xFFFFFFFFFFFFFFFFFFFFFFFFFFFFFFFFFFFFFFFF AND DUP2 MSTORE PUSH1 0x20 ADD SWAP1 DUP2 MSTORE PUSH1 0x20 ADD PUSH1 0x0 KECCAK256 PUSH1 0x0 DUP3 DUP3 SLOAD PUSH2 0x8B4 SWAP2 SWAP1 PUSH2 0x18D7 JUMP JUMPDEST SWAP3 POP POP DUP2 SWAP1 SSTORE POP DUP2 PUSH20 0xFFFFFFFFFFFFFFFFFFFFFFFFFFFFFFFFFFFFFFFF AND CALLER PUSH20 0xFFFFFFFFFFFFFFFFFFFFFFFFFFFFFFFFFFFFFFFF AND PUSH32 0xDDF252AD1BE2C89B69C2B068FC378DAA952BA7F163C4A11628F55A4DF523B3EF DUP4 PUSH1 0x40 MLOAD PUSH2 0x918 SWAP2 SWAP1 PUSH2 0xAE5 JUMP JUMPDEST PUSH1 0x40 MLOAD DUP1 SWAP2 SUB SWAP1 LOG3 POP POP JUMP JUMPDEST PUSH1 0x60 PUSH1 0x40 MLOAD PUSH1 0x20 ADD PUSH2 0x935 SWAP1 PUSH2 0x192E JUMP JUMPDEST PUSH1 0x40 MLOAD PUSH1 0x20 DUP2 DUP4 SUB SUB DUP2 MSTORE SWAP1 PUSH1 0x40 MSTORE SWAP1 POP SWAP1 JUMP JUMPDEST PUSH1 0x5 DUP2 DUP2 SLOAD DUP2 LT PUSH2 0x959 JUMPI PUSH1 0x0 DUP1 REVERT JUMPDEST SWAP1 PUSH1 0x0 MSTORE PUSH1 0x20 PUSH1 0x0 KECCAK256 ADD PUSH1 0x0 SWAP2 POP SWAP1 POP SLOAD DUP2 JUMP JUMPDEST PUSH1 0x5 DUP2 SWAP1 DUP1 PUSH1 0x1 DUP2 SLOAD ADD DUP1 DUP3 SSTORE DUP1 SWAP2 POP POP PUSH1 0x1 SWAP1 SUB SWAP1 PUSH1 0x0 MSTORE PUSH1 0x20 PUSH1 0x0 KECCAK256 ADD PUSH1 0x0 SWAP1 SWAP2 SWAP1 SWAP2 SWAP1 SWAP2 POP SSTORE POP JUMP JUMPDEST PUSH2 0xA31 DUP3 DUP3 PUSH1 0x40 MLOAD PUSH1 0x24 ADD PUSH2 0x9AF SWAP3 SWAP2 SWAP1 PUSH2 0x194E JUMP JUMPDEST PUSH1 0x40 MLOAD PUSH1 0x20 DUP2 DUP4 SUB SUB DUP2 MSTORE SWAP1 PUSH1 0x40 MSTORE PUSH32 0x319AF33300000000000000000000000000000000000000000000000000000000 PUSH28 0xFFFFFFFFFFFFFFFFFFFFFFFFFFFFFFFFFFFFFFFFFFFFFFFFFFFFFFFF NOT AND PUSH1 0x20 DUP3 ADD DUP1 MLOAD PUSH28 0xFFFFFFFFFFFFFFFFFFFFFFFFFFFFFFFFFFFFFFFFFFFFFFFFFFFFFFFF DUP4 DUP2 DUP4 AND OR DUP4 MSTORE POP POP POP POP PUSH2 0xA52 JUMP JUMPDEST POP POP JUMP JUMPDEST PUSH1 0x1 DUP2 PUSH1 0x0 ADD MLOAD PUSH2 0xA46 SWAP2 SWAP1 PUSH2 0x18D7 JUMP JUMPDEST DUP2 PUSH1 0x0 ADD DUP2 DUP2 MSTORE POP POP POP JUMP JUMPDEST PUSH1 0x0 DUP2 MLOAD SWAP1 POP PUSH1 0x0 PUSH11 0x636F6E736F6C652E6C6F67 SWAP1 POP PUSH1 0x20 DUP4 ADD PUSH1 0x0 DUP1 DUP5 DUP4 DUP6 GAS STATICCALL POP POP POP POP POP JUMP JUMPDEST POP DUP1 SLOAD PUSH1 0x0 DUP3 SSTORE SWAP1 PUSH1 0x0 MSTORE PUSH1 0x20 PUSH1 0x0 KECCAK256 SWAP1 DUP2 ADD SWAP1 PUSH2 0xA99 SWAP2 SWAP1 PUSH2 0xAAF JUMP JUMPDEST POP JUMP JUMPDEST PUSH1 0x40 MLOAD DUP1 PUSH1 0x20 ADD PUSH1 0x40 MSTORE DUP1 PUSH1 0x0 DUP2 MSTORE POP SWAP1 JUMP JUMPDEST JUMPDEST DUP1 DUP3 GT ISZERO PUSH2 0xAC8 JUMPI PUSH1 0x0 DUP2 PUSH1 0x0 SWAP1 SSTORE POP PUSH1 0x1 ADD PUSH2 0xAB0 JUMP JUMPDEST POP SWAP1 JUMP JUMPDEST PUSH1 0x0 DUP2 SWAP1 POP SWAP2 SWAP1 POP JUMP JUMPDEST PUSH2 0xADF DUP2 PUSH2 0xACC JUMP JUMPDEST DUP3 MSTORE POP POP JUMP JUMPDEST PUSH1 0x0 PUSH1 0x20 DUP3 ADD SWAP1 POP PUSH2 0xAFA PUSH1 0x0 DUP4 ADD DUP5 PUSH2 0xAD6 JUMP JUMPDEST SWAP3 SWAP2 POP POP JUMP JUMPDEST PUSH1 0x0 DUP2 MLOAD SWAP1 POP SWAP2 SWAP1 POP JUMP JUMPDEST PUSH1 0x0 DUP3 DUP3 MSTORE PUSH1 0x20 DUP3 ADD SWAP1 POP SWAP3 SWAP2 POP POP JUMP JUMPDEST PUSH1 0x0 JUMPDEST DUP4 DUP2 LT ISZERO PUSH2 0xB3A JUMPI DUP1 DUP3 ADD MLOAD DUP2 DUP5 ADD MSTORE PUSH1 0x20 DUP2 ADD SWAP1 POP PUSH2 0xB1F JUMP JUMPDEST PUSH1 0x0 DUP5 DUP5 ADD MSTORE POP POP POP POP JUMP JUMPDEST PUSH1 0x0 PUSH1 0x1F NOT PUSH1 0x1F DUP4 ADD AND SWAP1 POP SWAP2 SWAP1 POP JUMP JUMPDEST PUSH1 0x0 PUSH2 0xB62 DUP3 PUSH2 0xB00 JUMP JUMPDEST PUSH2 0xB6C DUP2 DUP6 PUSH2 0xB0B JUMP JUMPDEST SWAP4 POP PUSH2 0xB7C DUP2 DUP6 PUSH1 0x20 DUP7 ADD PUSH2 0xB1C JUMP JUMPDEST PUSH2 0xB85 DUP2 PUSH2 0xB46 JUMP JUMPDEST DUP5 ADD SWAP2 POP POP SWAP3 SWAP2 POP POP JUMP JUMPDEST PUSH1 0x0 PUSH1 0x20 DUP3 ADD SWAP1 POP DUP2 DUP2 SUB PUSH1 0x0 DUP4 ADD MSTORE PUSH2 0xBAA DUP2 DUP5 PUSH2 0xB57 JUMP JUMPDEST SWAP1 POP SWAP3 SWAP2 POP POP JUMP JUMPDEST PUSH1 0x0 PUSH1 0x40 MLOAD SWAP1 POP SWAP1 JUMP JUMPDEST PUSH1 0x0 DUP1 REVERT JUMPDEST PUSH1 0x0 DUP1 REVERT JUMPDEST PUSH1 0x0 PUSH20 0xFFFFFFFFFFFFFFFFFFFFFFFFFFFFFFFFFFFFFFFF DUP3 AND SWAP1 POP SWAP2 SWAP1 POP JUMP JUMPDEST PUSH1 0x0 PUSH2 0xBF1 DUP3 PUSH2 0xBC6 JUMP JUMPDEST SWAP1 POP SWAP2 SWAP1 POP JUMP JUMPDEST PUSH2 0xC01 DUP2 PUSH2 0xBE6 JUMP JUMPDEST DUP2 EQ PUSH2 0xC0C JUMPI PUSH1 0x0 DUP1 REVERT JUMPDEST POP JUMP JUMPDEST PUSH1 0x0 DUP2 CALLDATALOAD SWAP1 POP PUSH2 0xC1E DUP2 PUSH2 0xBF8 JUMP JUMPDEST SWAP3 SWAP2 POP POP JUMP JUMPDEST PUSH1 0x0 PUSH1 0x20 DUP3 DUP5 SUB SLT ISZERO PUSH2 0xC3A JUMPI PUSH2 0xC39 PUSH2 0xBBC JUMP JUMPDEST JUMPDEST PUSH1 0x0 PUSH2 0xC48 DUP5 DUP3 DUP6 ADD PUSH2 0xC0F JUMP JUMPDEST SWAP2 POP POP SWAP3 SWAP2 POP POP JUMP JUMPDEST PUSH1 0x0 DUP1 REVERT JUMPDEST PUSH32 0x4E487B7100000000000000000000000000000000000000000000000000000000 PUSH1 0x0 MSTORE PUSH1 0x41 PUSH1 0x4 MSTORE PUSH1 0x24 PUSH1 0x0 REVERT JUMPDEST PUSH2 0xC8E DUP3 PUSH2 0xB46 JUMP JUMPDEST DUP2 ADD DUP2 DUP2 LT PUSH8 0xFFFFFFFFFFFFFFFF DUP3 GT OR ISZERO PUSH2 0xCAD JUMPI PUSH2 0xCAC PUSH2 0xC56 JUMP JUMPDEST JUMPDEST DUP1 PUSH1 0x40 MSTORE POP POP POP JUMP JUMPDEST PUSH1 0x0 PUSH2 0xCC0 PUSH2 0xBB2 JUMP JUMPDEST SWAP1 POP PUSH2 0xCCC DUP3 DUP3 PUSH2 0xC85 JUMP JUMPDEST SWAP2 SWAP1 POP JUMP JUMPDEST PUSH1 0x0 DUP1 REVERT JUMPDEST PUSH1 0x0 DUP1 REVERT JUMPDEST PUSH1 0x0 PUSH8 0xFFFFFFFFFFFFFFFF DUP3 GT ISZERO PUSH2 0xCF6 JUMPI PUSH2 0xCF5 PUSH2 0xC56 JUMP JUMPDEST JUMPDEST PUSH1 0x20 DUP3 MUL SWAP1 POP PUSH1 0x20 DUP2 ADD SWAP1 POP SWAP2 SWAP1 POP JUMP JUMPDEST PUSH1 0x0 DUP1 REVERT JUMPDEST PUSH1 0x0 PUSH2 0xD1F PUSH2 0xD1A DUP5 PUSH2 0xCDB JUMP JUMPDEST PUSH2 0xCB6 JUMP JUMPDEST SWAP1 POP DUP1 DUP4 DUP3 MSTORE PUSH1 0x20 DUP3 ADD SWAP1 POP PUSH1 0x20 DUP5 MUL DUP4 ADD DUP6 DUP2 GT ISZERO PUSH2 0xD42 JUMPI PUSH2 0xD41 PUSH2 0xD07 JUMP JUMPDEST JUMPDEST DUP4 JUMPDEST DUP2 DUP2 LT ISZERO PUSH2 0xD6B JUMPI DUP1 PUSH2 0xD57 DUP9 DUP3 PUSH2 0xC0F JUMP JUMPDEST DUP5 MSTORE PUSH1 0x20 DUP5 ADD SWAP4 POP POP PUSH1 0x20 DUP2 ADD SWAP1 POP PUSH2 0xD44 JUMP JUMPDEST POP POP POP SWAP4 SWAP3 POP POP POP JUMP JUMPDEST PUSH1 0x0 DUP3 PUSH1 0x1F DUP4 ADD SLT PUSH2 0xD8A JUMPI PUSH2 0xD89 PUSH2 0xCD6 JUMP JUMPDEST JUMPDEST DUP2 CALLDATALOAD PUSH2 0xD9A DUP5 DUP3 PUSH1 0x20 DUP7 ADD PUSH2 0xD0C JUMP JUMPDEST SWAP2 POP POP SWAP3 SWAP2 POP POP JUMP JUMPDEST PUSH1 0x0 PUSH1 0xC0 DUP3 DUP5 SUB SLT ISZERO PUSH2 0xDB9 JUMPI PUSH2 0xDB8 PUSH2 0xC51 JUMP JUMPDEST JUMPDEST PUSH2 0xDC3 PUSH1 0xC0 PUSH2 0xCB6 JUMP JUMPDEST SWAP1 POP PUSH1 0x0 PUSH2 0xDD3 DUP5 DUP3 DUP6 ADD PUSH2 0xC0F JUMP JUMPDEST PUSH1 0x0 DUP4 ADD MSTORE POP PUSH1 0x20 PUSH2 0xDE7 DUP5 DUP3 DUP6 ADD PUSH2 0xC0F JUMP JUMPDEST PUSH1 0x20 DUP4 ADD MSTORE POP PUSH1 0x40 PUSH2 0xDFB DUP5 DUP3 DUP6 ADD PUSH2 0xC0F JUMP JUMPDEST PUSH1 0x40 DUP4 ADD MSTORE POP PUSH1 0x60 PUSH2 0xE0F DUP5 DUP3 DUP6 ADD PUSH2 0xC0F JUMP JUMPDEST PUSH1 0x60 DUP4 ADD MSTORE POP PUSH1 0x80 PUSH2 0xE23 DUP5 DUP3 DUP6 ADD PUSH2 0xC0F JUMP JUMPDEST PUSH1 0x80 DUP4 ADD MSTORE POP PUSH1 0xA0 DUP3 ADD CALLDATALOAD PUSH8 0xFFFFFFFFFFFFFFFF DUP2 GT ISZERO PUSH2 0xE47 JUMPI PUSH2 0xE46 PUSH2 0xCD1 JUMP JUMPDEST JUMPDEST PUSH2 0xE53 DUP5 DUP3 DUP6 ADD PUSH2 0xD75 JUMP JUMPDEST PUSH1 0xA0 DUP4 ADD MSTORE POP SWAP3 SWAP2 POP POP JUMP JUMPDEST PUSH2 0xE68 DUP2 PUSH2 0xACC JUMP JUMPDEST DUP2 EQ PUSH2 0xE73 JUMPI PUSH1 0x0 DUP1 REVERT JUMPDEST POP JUMP JUMPDEST PUSH1 0x0 DUP2 CALLDATALOAD SWAP1 POP PUSH2 0xE85 DUP2 PUSH2 0xE5F JUMP JUMPDEST SWAP3 SWAP2 POP POP JUMP JUMPDEST PUSH1 0x0 PUSH1 0xE0 DUP3 DUP5 SUB SLT ISZERO PUSH2 0xEA1 JUMPI PUSH2 0xEA0 PUSH2 0xC51 JUMP JUMPDEST JUMPDEST PUSH2 0xEAB PUSH1 0xE0 PUSH2 0xCB6 JUMP JUMPDEST SWAP1 POP PUSH1 0x0 PUSH2 0xEBB DUP5 DUP3 DUP6 ADD PUSH2 0xE76 JUMP JUMPDEST PUSH1 0x0 DUP4 ADD MSTORE POP PUSH1 0x20 PUSH2 0xECF DUP5 DUP3 DUP6 ADD PUSH2 0xE76 JUMP JUMPDEST PUSH1 0x20 DUP4 ADD MSTORE POP PUSH1 0x40 PUSH2 0xEE3 DUP5 DUP3 DUP6 ADD PUSH2 0xE76 JUMP JUMPDEST PUSH1 0x40 DUP4 ADD MSTORE POP PUSH1 0x60 PUSH2 0xEF7 DUP5 DUP3 DUP6 ADD PUSH2 0xE76 JUMP JUMPDEST PUSH1 0x60 DUP4 ADD MSTORE POP PUSH1 0x80 PUSH2 0xF0B DUP5 DUP3 DUP6 ADD PUSH2 0xE76 JUMP JUMPDEST PUSH1 0x80 DUP4 ADD MSTORE POP PUSH1 0xA0 PUSH2 0xF1F DUP5 DUP3 DUP6 ADD PUSH2 0xE76 JUMP JUMPDEST PUSH1 0xA0 DUP4 ADD MSTORE POP PUSH1 0xC0 PUSH2 0xF33 DUP5 DUP3 DUP6 ADD PUSH2 0xE76 JUMP JUMPDEST PUSH1 0xC0 DUP4 ADD MSTORE POP SWAP3 SWAP2 POP POP JUMP JUMPDEST PUSH1 0x8 DUP2 LT PUSH2 0xF4C JUMPI PUSH1 0x0 DUP1 REVERT JUMPDEST POP JUMP JUMPDEST PUSH1 0x0 DUP2 CALLDATALOAD SWAP1 POP PUSH2 0xF5E DUP2 PUSH2 0xF3F JUMP JUMPDEST SWAP3 SWAP2 POP POP JUMP JUMPDEST PUSH1 0x3 DUP2 LT PUSH2 0xF71 JUMPI PUSH1 0x0 DUP1 REVERT JUMPDEST POP JUMP JUMPDEST PUSH1 0x0 DUP2 CALLDATALOAD SWAP1 POP PUSH2 0xF83 DUP2 PUSH2 0xF64 JUMP JUMPDEST SWAP3 SWAP2 POP POP JUMP JUMPDEST PUSH1 0x0 DUP2 ISZERO ISZERO SWAP1 POP SWAP2 SWAP1 POP JUMP JUMPDEST PUSH2 0xF9E DUP2 PUSH2 0xF89 JUMP JUMPDEST DUP2 EQ PUSH2 0xFA9 JUMPI PUSH1 0x0 DUP1 REVERT JUMPDEST POP JUMP JUMPDEST PUSH1 0x0 DUP2 CALLDATALOAD SWAP1 POP PUSH2 0xFBB DUP2 PUSH2 0xF95 JUMP JUMPDEST SWAP3 SWAP2 POP POP JUMP JUMPDEST PUSH1 0x0 DUP2 SWAP1 POP SWAP2 SWAP1 POP JUMP JUMPDEST PUSH2 0xFD4 DUP2 PUSH2 0xFC1 JUMP JUMPDEST DUP2 EQ PUSH2 0xFDF JUMPI PUSH1 0x0 DUP1 REVERT JUMPDEST POP JUMP JUMPDEST PUSH1 0x0 DUP2 CALLDATALOAD SWAP1 POP PUSH2 0xFF1 DUP2 PUSH2 0xFCB JUMP JUMPDEST SWAP3 SWAP2 POP POP JUMP JUMPDEST PUSH1 0x0 PUSH2 0x1A0 DUP3 DUP5 SUB SLT ISZERO PUSH2 0x100E JUMPI PUSH2 0x100D PUSH2 0xC51 JUMP JUMPDEST JUMPDEST PUSH2 0x1018 PUSH1 0xE0 PUSH2 0xCB6 JUMP JUMPDEST SWAP1 POP PUSH1 0x0 DUP3 ADD CALLDATALOAD PUSH8 0xFFFFFFFFFFFFFFFF DUP2 GT ISZERO PUSH2 0x1038 JUMPI PUSH2 0x1037 PUSH2 0xCD1 JUMP JUMPDEST JUMPDEST PUSH2 0x1044 DUP5 DUP3 DUP6 ADD PUSH2 0xDA3 JUMP JUMPDEST PUSH1 0x0 DUP4 ADD MSTORE POP PUSH1 0x20 PUSH2 0x1058 DUP5 DUP3 DUP6 ADD PUSH2 0xE8B JUMP JUMPDEST PUSH1 0x20 DUP4 ADD MSTORE POP PUSH2 0x100 PUSH2 0x106D DUP5 DUP3 DUP6 ADD PUSH2 0xF4F JUMP JUMPDEST PUSH1 0x40 DUP4 ADD MSTORE POP PUSH2 0x120 PUSH2 0x1082 DUP5 DUP3 DUP6 ADD PUSH2 0xF74 JUMP JUMPDEST PUSH1 0x60 DUP4 ADD MSTORE POP PUSH2 0x140 PUSH2 0x1097 DUP5 DUP3 DUP6 ADD PUSH2 0xFAC JUMP JUMPDEST PUSH1 0x80 DUP4 ADD MSTORE POP PUSH2 0x160 PUSH2 0x10AC DUP5 DUP3 DUP6 ADD PUSH2 0xFAC JUMP JUMPDEST PUSH1 0xA0 DUP4 ADD MSTORE POP PUSH2 0x180 PUSH2 0x10C1 DUP5 DUP3 DUP6 ADD PUSH2 0xFE2 JUMP JUMPDEST PUSH1 0xC0 DUP4 ADD MSTORE POP SWAP3 SWAP2 POP POP JUMP JUMPDEST PUSH1 0x0 PUSH1 0x20 DUP3 DUP5 SUB SLT ISZERO PUSH2 0x10E3 JUMPI PUSH2 0x10E2 PUSH2 0xBBC JUMP JUMPDEST JUMPDEST PUSH1 0x0 DUP3 ADD CALLDATALOAD PUSH8 0xFFFFFFFFFFFFFFFF DUP2 GT ISZERO PUSH2 0x1101 JUMPI PUSH2 0x1100 PUSH2 0xBC1 JUMP JUMPDEST JUMPDEST PUSH2 0x110D DUP5 DUP3 DUP6 ADD PUSH2 0xFF7 JUMP JUMPDEST SWAP2 POP POP SWAP3 SWAP2 POP POP JUMP JUMPDEST PUSH1 0x0 DUP2 MLOAD SWAP1 POP SWAP2 SWAP1 POP JUMP JUMPDEST PUSH1 0x0 DUP3 DUP3 MSTORE PUSH1 0x20 DUP3 ADD SWAP1 POP SWAP3 SWAP2 POP POP JUMP JUMPDEST PUSH1 0x0 PUSH2 0x113D DUP3 PUSH2 0x1116 JUMP JUMPDEST PUSH2 0x1147 DUP2 DUP6 PUSH2 0x1121 JUMP JUMPDEST SWAP4 POP PUSH2 0x1157 DUP2 DUP6 PUSH1 0x20 DUP7 ADD PUSH2 0xB1C JUMP JUMPDEST PUSH2 0x1160 DUP2 PUSH2 0xB46 JUMP JUMPDEST DUP5 ADD SWAP2 POP POP SWAP3 SWAP2 POP POP JUMP JUMPDEST PUSH1 0x0 PUSH1 0x20 DUP3 ADD SWAP1 POP DUP2 DUP2 SUB PUSH1 0x0 DUP4 ADD MSTORE PUSH2 0x1185 DUP2 DUP5 PUSH2 0x1132 JUMP JUMPDEST SWAP1 POP SWAP3 SWAP2 POP POP JUMP JUMPDEST PUSH2 0x1196 DUP2 PUSH2 0xFC1 JUMP JUMPDEST DUP3 MSTORE POP POP JUMP JUMPDEST PUSH1 0x0 PUSH1 0x20 DUP3 ADD SWAP1 POP PUSH2 0x11B1 PUSH1 0x0 DUP4 ADD DUP5 PUSH2 0x118D JUMP JUMPDEST SWAP3 SWAP2 POP POP JUMP JUMPDEST PUSH1 0x0 PUSH1 0x40 DUP3 ADD SWAP1 POP DUP2 DUP2 SUB PUSH1 0x0 DUP4 ADD MSTORE PUSH2 0x11D1 DUP2 DUP6 PUSH2 0x1132 JUMP JUMPDEST SWAP1 POP DUP2 DUP2 SUB PUSH1 0x20 DUP4 ADD MSTORE PUSH2 0x11E5 DUP2 DUP5 PUSH2 0x1132 JUMP JUMPDEST SWAP1 POP SWAP4 SWAP3 POP POP POP JUMP JUMPDEST PUSH2 0x11F7 DUP2 PUSH2 0xBE6 JUMP JUMPDEST DUP3 MSTORE POP POP JUMP JUMPDEST PUSH1 0x0 PUSH1 0x20 DUP3 ADD SWAP1 POP PUSH2 0x1212 PUSH1 0x0 DUP4 ADD DUP5 PUSH2 0x11EE JUMP JUMPDEST SWAP3 SWAP2 POP POP JUMP JUMPDEST PUSH1 0x0 DUP1 PUSH1 0x40 DUP4 DUP6 SUB SLT ISZERO PUSH2 0x122F JUMPI PUSH2 0x122E PUSH2 0xBBC JUMP JUMPDEST JUMPDEST PUSH1 0x0 PUSH2 0x123D DUP6 DUP3 DUP7 ADD PUSH2 0xC0F JUMP JUMPDEST SWAP3 POP POP PUSH1 0x20 PUSH2 0x124E DUP6 DUP3 DUP7 ADD PUSH2 0xE76 JUMP JUMPDEST SWAP2 POP POP SWAP3 POP SWAP3 SWAP1 POP JUMP JUMPDEST PUSH1 0x0 PUSH1 0x20 DUP3 DUP5 SUB SLT ISZERO PUSH2 0x126E JUMPI PUSH2 0x126D PUSH2 0xBBC JUMP JUMPDEST JUMPDEST PUSH1 0x0 PUSH2 0x127C DUP5 DUP3 DUP6 ADD PUSH2 0xE76 JUMP JUMPDEST SWAP2 POP POP SWAP3 SWAP2 POP POP JUMP JUMPDEST PUSH32 0x4E487B7100000000000000000000000000000000000000000000000000000000 PUSH1 0x0 MSTORE PUSH1 0x22 PUSH1 0x4 MSTORE PUSH1 0x24 PUSH1 0x0 REVERT JUMPDEST PUSH1 0x0 PUSH1 0x2 DUP3 DIV SWAP1 POP PUSH1 0x1 DUP3 AND DUP1 PUSH2 0x12CC JUMPI PUSH1 0x7F DUP3 AND SWAP2 POP JUMPDEST PUSH1 0x20 DUP3 LT DUP2 SUB PUSH2 0x12DF JUMPI PUSH2 0x12DE PUSH2 0x1285 JUMP JUMPDEST JUMPDEST POP SWAP2 SWAP1 POP JUMP JUMPDEST PUSH32 0x4E487B7100000000000000000000000000000000000000000000000000000000 PUSH1 0x0 MSTORE PUSH1 0x11 PUSH1 0x4 MSTORE PUSH1 0x24 PUSH1 0x0 REVERT JUMPDEST PUSH1 0x0 PUSH2 0x131F DUP3 PUSH2 0xACC JUMP JUMPDEST SWAP2 POP PUSH2 0x132A DUP4 PUSH2 0xACC JUMP JUMPDEST SWAP3 POP DUP3 DUP3 MUL PUSH2 0x1338 DUP2 PUSH2 0xACC JUMP JUMPDEST SWAP2 POP DUP3 DUP3 DIV DUP5 EQ DUP4 ISZERO OR PUSH2 0x134F JUMPI PUSH2 0x134E PUSH2 0x12E5 JUMP JUMPDEST JUMPDEST POP SWAP3 SWAP2 POP POP JUMP JUMPDEST PUSH32 0x4E487B7100000000000000000000000000000000000000000000000000000000 PUSH1 0x0 MSTORE PUSH1 0x12 PUSH1 0x4 MSTORE PUSH1 0x24 PUSH1 0x0 REVERT JUMPDEST PUSH1 0x0 PUSH2 0x1390 DUP3 PUSH2 0xACC JUMP JUMPDEST SWAP2 POP PUSH2 0x139B DUP4 PUSH2 0xACC JUMP JUMPDEST SWAP3 POP DUP3 PUSH2 0x13AB JUMPI PUSH2 0x13AA PUSH2 0x1356 JUMP JUMPDEST JUMPDEST DUP3 DUP3 DIV SWAP1 POP SWAP3 SWAP2 POP POP JUMP JUMPDEST PUSH2 0x13BF DUP2 PUSH2 0xBE6 JUMP JUMPDEST DUP3 MSTORE POP POP JUMP JUMPDEST PUSH1 0x0 DUP2 MLOAD SWAP1 POP SWAP2 SWAP1 POP JUMP JUMPDEST PUSH1 0x0 DUP3 DUP3 MSTORE PUSH1 0x20 DUP3 ADD SWAP1 POP SWAP3 SWAP2 POP POP JUMP JUMPDEST PUSH1 0x0 DUP2 SWAP1 POP PUSH1 0x20 DUP3 ADD SWAP1 POP SWAP2 SWAP1 POP JUMP JUMPDEST PUSH1 0x0 PUSH2 0x13FD DUP4 DUP4 PUSH2 0x13B6 JUMP JUMPDEST PUSH1 0x20 DUP4 ADD SWAP1 POP SWAP3 SWAP2 POP POP JUMP JUMPDEST PUSH1 0x0 PUSH1 0x20 DUP3 ADD SWAP1 POP SWAP2 SWAP1 POP JUMP JUMPDEST PUSH1 0x0 PUSH2 0x1421 DUP3 PUSH2 0x13C5 JUMP JUMPDEST PUSH2 0x142B DUP2 DUP6 PUSH2 0x13D0 JUMP JUMPDEST SWAP4 POP PUSH2 0x1436 DUP4 PUSH2 0x13E1 JUMP JUMPDEST DUP1 PUSH1 0x0 JUMPDEST DUP4 DUP2 LT ISZERO PUSH2 0x1467 JUMPI DUP2 MLOAD PUSH2 0x144E DUP9 DUP3 PUSH2 0x13F1 JUMP JUMPDEST SWAP8 POP PUSH2 0x1459 DUP4 PUSH2 0x1409 JUMP JUMPDEST SWAP3 POP POP PUSH1 0x1 DUP2 ADD SWAP1 POP PUSH2 0x143A JUMP JUMPDEST POP DUP6 SWAP4 POP POP POP POP SWAP3 SWAP2 POP POP JUMP JUMPDEST PUSH1 0x0 PUSH1 0xC0 DUP4 ADD PUSH1 0x0 DUP4 ADD MLOAD PUSH2 0x148C PUSH1 0x0 DUP7 ADD DUP3 PUSH2 0x13B6 JUMP JUMPDEST POP PUSH1 0x20 DUP4 ADD MLOAD PUSH2 0x149F PUSH1 0x20 DUP7 ADD DUP3 PUSH2 0x13B6 JUMP JUMPDEST POP PUSH1 0x40 DUP4 ADD MLOAD PUSH2 0x14B2 PUSH1 0x40 DUP7 ADD DUP3 PUSH2 0x13B6 JUMP JUMPDEST POP PUSH1 0x60 DUP4 ADD MLOAD PUSH2 0x14C5 PUSH1 0x60 DUP7 ADD DUP3 PUSH2 0x13B6 JUMP JUMPDEST POP PUSH1 0x80 DUP4 ADD MLOAD PUSH2 0x14D8 PUSH1 0x80 DUP7 ADD DUP3 PUSH2 0x13B6 JUMP JUMPDEST POP PUSH1 0xA0 DUP4 ADD MLOAD DUP5 DUP3 SUB PUSH1 0xA0 DUP7 ADD MSTORE PUSH2 0x14F0 DUP3 DUP3 PUSH2 0x1416 JUMP JUMPDEST SWAP2 POP POP DUP1 SWAP2 POP POP SWAP3 SWAP2 POP POP JUMP JUMPDEST PUSH2 0x1506 DUP2 PUSH2 0xACC JUMP JUMPDEST DUP3 MSTORE POP POP JUMP JUMPDEST PUSH1 0xE0 DUP3 ADD PUSH1 0x0 DUP3 ADD MLOAD PUSH2 0x1522 PUSH1 0x0 DUP6 ADD DUP3 PUSH2 0x14FD JUMP JUMPDEST POP PUSH1 0x20 DUP3 ADD MLOAD PUSH2 0x1535 PUSH1 0x20 DUP6 ADD DUP3 PUSH2 0x14FD JUMP JUMPDEST POP PUSH1 0x40 DUP3 ADD MLOAD PUSH2 0x1548 PUSH1 0x40 DUP6 ADD DUP3 PUSH2 0x14FD JUMP JUMPDEST POP PUSH1 0x60 DUP3 ADD MLOAD PUSH2 0x155B PUSH1 0x60 DUP6 ADD DUP3 PUSH2 0x14FD JUMP JUMPDEST POP PUSH1 0x80 DUP3 ADD MLOAD PUSH2 0x156E PUSH1 0x80 DUP6 ADD DUP3 PUSH2 0x14FD JUMP JUMPDEST POP PUSH1 0xA0 DUP3 ADD MLOAD PUSH2 0x1581 PUSH1 0xA0 DUP6 ADD DUP3 PUSH2 0x14FD JUMP JUMPDEST POP PUSH1 0xC0 DUP3 ADD MLOAD PUSH2 0x1594 PUSH1 0xC0 DUP6 ADD DUP3 PUSH2 0x14FD JUMP JUMPDEST POP POP POP POP JUMP JUMPDEST PUSH32 0x4E487B7100000000000000000000000000000000000000000000000000000000 PUSH1 0x0 MSTORE PUSH1 0x21 PUSH1 0x4 MSTORE PUSH1 0x24 PUSH1 0x0 REVERT JUMPDEST PUSH1 0x8 DUP2 LT PUSH2 0x15DA JUMPI PUSH2 0x15D9 PUSH2 0x159A JUMP JUMPDEST JUMPDEST POP JUMP JUMPDEST PUSH1 0x0 DUP2 SWAP1 POP PUSH2 0x15EB DUP3 PUSH2 0x15C9 JUMP JUMPDEST SWAP2 SWAP1 POP JUMP JUMPDEST PUSH1 0x0 PUSH2 0x15FB DUP3 PUSH2 0x15DD JUMP JUMPDEST SWAP1 POP SWAP2 SWAP1 POP JUMP JUMPDEST PUSH2 0x160B DUP2 PUSH2 0x15F0 JUMP JUMPDEST DUP3 MSTORE POP POP JUMP JUMPDEST PUSH1 0x3 DUP2 LT PUSH2 0x1622 JUMPI PUSH2 0x1621 PUSH2 0x159A JUMP JUMPDEST JUMPDEST POP JUMP JUMPDEST PUSH1 0x0 DUP2 SWAP1 POP PUSH2 0x1633 DUP3 PUSH2 0x1611 JUMP JUMPDEST SWAP2 SWAP1 POP JUMP JUMPDEST PUSH1 0x0 PUSH2 0x1643 DUP3 PUSH2 0x1625 JUMP JUMPDEST SWAP1 POP SWAP2 SWAP1 POP JUMP JUMPDEST PUSH2 0x1653 DUP2 PUSH2 0x1638 JUMP JUMPDEST DUP3 MSTORE POP POP JUMP JUMPDEST PUSH2 0x1662 DUP2 PUSH2 0xF89 JUMP JUMPDEST DUP3 MSTORE POP POP JUMP JUMPDEST PUSH2 0x1671 DUP2 PUSH2 0xFC1 JUMP JUMPDEST DUP3 MSTORE POP POP JUMP JUMPDEST PUSH1 0x0 PUSH2 0x1A0 DUP4 ADD PUSH1 0x0 DUP4 ADD MLOAD DUP5 DUP3 SUB PUSH1 0x0 DUP7 ADD MSTORE PUSH2 0x1695 DUP3 DUP3 PUSH2 0x1474 JUMP JUMPDEST SWAP2 POP POP PUSH1 0x20 DUP4 ADD MLOAD PUSH2 0x16AA PUSH1 0x20 DUP7 ADD DUP3 PUSH2 0x150C JUMP JUMPDEST POP PUSH1 0x40 DUP4 ADD MLOAD PUSH2 0x16BE PUSH2 0x100 DUP7 ADD DUP3 PUSH2 0x1602 JUMP JUMPDEST POP PUSH1 0x60 DUP4 ADD MLOAD PUSH2 0x16D2 PUSH2 0x120 DUP7 ADD DUP3 PUSH2 0x164A JUMP JUMPDEST POP PUSH1 0x80 DUP4 ADD MLOAD PUSH2 0x16E6 PUSH2 0x140 DUP7 ADD DUP3 PUSH2 0x1659 JUMP JUMPDEST POP PUSH1 0xA0 DUP4 ADD MLOAD PUSH2 0x16FA PUSH2 0x160 DUP7 ADD DUP3 PUSH2 0x1659 JUMP JUMPDEST POP PUSH1 0xC0 DUP4 ADD MLOAD PUSH2 0x170E PUSH2 0x180 DUP7 ADD DUP3 PUSH2 0x1668 JUMP JUMPDEST POP DUP1 SWAP2 POP POP SWAP3 SWAP2 POP POP JUMP JUMPDEST PUSH1 0x0 PUSH1 0x20 DUP3 ADD SWAP1 POP DUP2 DUP2 SUB PUSH1 0x0 DUP4 ADD MSTORE PUSH2 0x1733 DUP2 DUP5 PUSH2 0x1677 JUMP JUMPDEST SWAP1 POP SWAP3 SWAP2 POP POP JUMP JUMPDEST PUSH1 0x0 DUP2 SWAP1 POP SWAP3 SWAP2 POP POP JUMP JUMPDEST PUSH32 0x4D41585F504E4C5F464143544F525F464F525F54524144455253000000000000 PUSH1 0x0 DUP3 ADD MSTORE POP JUMP JUMPDEST PUSH1 0x0 PUSH2 0x177C PUSH1 0x1A DUP4 PUSH2 0x173B JUMP JUMPDEST SWAP2 POP PUSH2 0x1787 DUP3 PUSH2 0x1746 JUMP JUMPDEST PUSH1 0x1A DUP3 ADD SWAP1 POP SWAP2 SWAP1 POP JUMP JUMPDEST PUSH1 0x0 PUSH2 0x179D DUP3 PUSH2 0x176F JUMP JUMPDEST SWAP2 POP DUP2 SWAP1 POP SWAP2 SWAP1 POP JUMP JUMPDEST PUSH1 0x0 PUSH1 0x60 DUP3 ADD SWAP1 POP PUSH2 0x17BC PUSH1 0x0 DUP4 ADD DUP7 PUSH2 0xAD6 JUMP JUMPDEST PUSH2 0x17C9 PUSH1 0x20 DUP4 ADD DUP6 PUSH2 0xAD6 JUMP JUMPDEST PUSH2 0x17D6 PUSH1 0x40 DUP4 ADD DUP5 PUSH2 0xAD6 JUMP JUMPDEST SWAP5 SWAP4 POP POP POP POP JUMP JUMPDEST PUSH1 0x0 PUSH1 0x40 DUP3 ADD SWAP1 POP PUSH2 0x17F3 PUSH1 0x0 DUP4 ADD DUP6 PUSH2 0xAD6 JUMP JUMPDEST PUSH2 0x1800 PUSH1 0x20 DUP4 ADD DUP5 PUSH2 0xAD6 JUMP JUMPDEST SWAP4 SWAP3 POP POP POP JUMP JUMPDEST PUSH1 0x0 PUSH1 0x40 DUP3 ADD SWAP1 POP DUP2 DUP2 SUB PUSH1 0x0 DUP4 ADD MSTORE PUSH2 0x1821 DUP2 DUP6 PUSH2 0x1132 JUMP JUMPDEST SWAP1 POP PUSH2 0x1830 PUSH1 0x20 DUP4 ADD DUP5 PUSH2 0xAD6 JUMP JUMPDEST SWAP4 SWAP3 POP POP POP JUMP JUMPDEST PUSH32 0x4E6F7420656E6F75676820746F6B656E73000000000000000000000000000000 PUSH1 0x0 DUP3 ADD MSTORE POP JUMP JUMPDEST PUSH1 0x0 PUSH2 0x186D PUSH1 0x11 DUP4 PUSH2 0xB0B JUMP JUMPDEST SWAP2 POP PUSH2 0x1878 DUP3 PUSH2 0x1837 JUMP JUMPDEST PUSH1 0x20 DUP3 ADD SWAP1 POP SWAP2 SWAP1 POP JUMP JUMPDEST PUSH1 0x0 PUSH1 0x20 DUP3 ADD SWAP1 POP DUP2 DUP2 SUB PUSH1 0x0 DUP4 ADD MSTORE PUSH2 0x189C DUP2 PUSH2 0x1860 JUMP JUMPDEST SWAP1 POP SWAP2 SWAP1 POP JUMP JUMPDEST PUSH1 0x0 PUSH2 0x18AE DUP3 PUSH2 0xACC JUMP JUMPDEST SWAP2 POP PUSH2 0x18B9 DUP4 PUSH2 0xACC JUMP JUMPDEST SWAP3 POP DUP3 DUP3 SUB SWAP1 POP DUP2 DUP2 GT ISZERO PUSH2 0x18D1 JUMPI PUSH2 0x18D0 PUSH2 0x12E5 JUMP JUMPDEST JUMPDEST SWAP3 SWAP2 POP POP JUMP JUMPDEST PUSH1 0x0 PUSH2 0x18E2 DUP3 PUSH2 0xACC JUMP JUMPDEST SWAP2 POP PUSH2 0x18ED DUP4 PUSH2 0xACC JUMP JUMPDEST SWAP3 POP DUP3 DUP3 ADD SWAP1 POP DUP1 DUP3 GT ISZERO PUSH2 0x1905 JUMPI PUSH2 0x1904 PUSH2 0x12E5 JUMP JUMPDEST JUMPDEST SWAP3 SWAP2 POP POP JUMP JUMPDEST PUSH1 0x0 PUSH2 0x1918 PUSH1 0x1A DUP4 PUSH2 0xB0B JUMP JUMPDEST SWAP2 POP PUSH2 0x1923 DUP3 PUSH2 0x1746 JUMP JUMPDEST PUSH1 0x20 DUP3 ADD SWAP1 POP SWAP2 SWAP1 POP JUMP JUMPDEST PUSH1 0x0 PUSH1 0x20 DUP3 ADD SWAP1 POP DUP2 DUP2 SUB PUSH1 0x0 DUP4 ADD MSTORE PUSH2 0x1947 DUP2 PUSH2 0x190B JUMP JUMPDEST SWAP1 POP SWAP2 SWAP1 POP JUMP JUMPDEST PUSH1 0x0 PUSH1 0x40 DUP3 ADD SWAP1 POP DUP2 DUP2 SUB PUSH1 0x0 DUP4 ADD MSTORE PUSH2 0x1968 DUP2 DUP6 PUSH2 0xB57 JUMP JUMPDEST SWAP1 POP PUSH2 0x1977 PUSH1 0x20 DUP4 ADD DUP5 PUSH2 0x11EE JUMP JUMPDEST SWAP4 SWAP3 POP POP POP JUMP INVALID LOG2 PUSH5 0x6970667358 0x22 SLT KECCAK256 SSTORE 0xDF 0x23 PUSH11 0xECB1C89A1BF3FF4AB48D0B PUSH21 0x45B34D9B7C49E4C260ED98C244D8D55A64736F6C63 NUMBER STOP ADDMOD SLT STOP CALLER "},"methodIdentifiers":{"AA()":"997da8d4","BB()":"5727dc5c","addElement(uint256)":"f5d9612d","balanceOf(address)":"70a08231","encode()":"bd14598f","encodePack()":"80a1dfb1","encodeStruct(((address,address,address,address,address,address[]),(uint256,uint256,uint256,uint256,uint256,uint256,uint256),uint8,uint8,bool,bool,bytes32))":"7f9671f6","encodes()":"863f9dc5","getArrayLength()":"0849cc99","getCreate2Prefix(address)":"8591b540","getData()":"3bc5de30","myArray(uint256)":"cc3e57d9","name()":"06fdde03","owner()":"8da5cb5b","removeAllMembers()":"2b3c8922","storeAndLoadValue()":"055230f9","symbol()":"95d89b41","totalSupply()":"18160ddd","transfer(address,uint256)":"a9059cbb","updateData()":"8e00a2bb"}}}}}