{
  "_format": "hh-sol-artifact-1",
  "contractName": "ONFT721",
  "sourceName": "@layerzerolabs/solidity-examples/contracts/token/onft721/ONFT721.sol",
  "abi": [
    {
      "inputs": [
        {
          "internalType": "string",
          "name": "_name",
          "type": "string"
        },
        {
          "internalType": "string",
          "name": "_symbol",
          "type": "string"
        },
        {
          "internalType": "uint256",
          "name": "_minGasToTransfer",
          "type": "uint256"
        },
        {
          "internalType": "address",
          "name": "_lzEndpoint",
          "type": "address"
        }
      ],
      "stateMutability": "nonpayable",
      "type": "constructor"
    },
    {
      "anonymous": false,
      "inputs": [
        {
          "indexed": true,
          "internalType": "address",
          "name": "owner",
          "type": "address"
        },
        {
          "indexed": true,
          "internalType": "address",
          "name": "approved",
          "type": "address"
        },
        {
          "indexed": true,
          "internalType": "uint256",
          "name": "tokenId",
          "type": "uint256"
        }
      ],
      "name": "Approval",
      "type": "event"
    },
    {
      "anonymous": false,
      "inputs": [
        {
          "indexed": true,
          "internalType": "address",
          "name": "owner",
          "type": "address"
        },
        {
          "indexed": true,
          "internalType": "address",
          "name": "operator",
          "type": "address"
        },
        {
          "indexed": false,
          "internalType": "bool",
          "name": "approved",
          "type": "bool"
        }
      ],
      "name": "ApprovalForAll",
      "type": "event"
    },
    {
      "anonymous": false,
      "inputs": [
        {
          "indexed": false,
          "internalType": "bytes32",
          "name": "_hashedPayload",
          "type": "bytes32"
        }
      ],
      "name": "CreditCleared",
      "type": "event"
    },
    {
      "anonymous": false,
      "inputs": [
        {
          "indexed": false,
          "internalType": "bytes32",
          "name": "_hashedPayload",
          "type": "bytes32"
        },
        {
          "indexed": false,
          "internalType": "bytes",
          "name": "_payload",
          "type": "bytes"
        }
      ],
      "name": "CreditStored",
      "type": "event"
    },
    {
      "anonymous": false,
      "inputs": [
        {
          "indexed": false,
          "internalType": "uint16",
          "name": "_srcChainId",
          "type": "uint16"
        },
        {
          "indexed": false,
          "internalType": "bytes",
          "name": "_srcAddress",
          "type": "bytes"
        },
        {
          "indexed": false,
          "internalType": "uint64",
          "name": "_nonce",
          "type": "uint64"
        },
        {
          "indexed": false,
          "internalType": "bytes",
          "name": "_payload",
          "type": "bytes"
        },
        {
          "indexed": false,
          "internalType": "bytes",
          "name": "_reason",
          "type": "bytes"
        }
      ],
      "name": "MessageFailed",
      "type": "event"
    },
    {
      "anonymous": false,
      "inputs": [
        {
          "indexed": true,
          "internalType": "address",
          "name": "previousOwner",
          "type": "address"
        },
        {
          "indexed": true,
          "internalType": "address",
          "name": "newOwner",
          "type": "address"
        }
      ],
      "name": "OwnershipTransferred",
      "type": "event"
    },
    {
      "anonymous": false,
      "inputs": [
        {
          "indexed": true,
          "internalType": "uint16",
          "name": "_srcChainId",
          "type": "uint16"
        },
        {
          "indexed": true,
          "internalType": "bytes",
          "name": "_srcAddress",
          "type": "bytes"
        },
        {
          "indexed": true,
          "internalType": "address",
          "name": "_toAddress",
          "type": "address"
        },
        {
          "indexed": false,
          "internalType": "uint256[]",
          "name": "_tokenIds",
          "type": "uint256[]"
        }
      ],
      "name": "ReceiveFromChain",
      "type": "event"
    },
    {
      "anonymous": false,
      "inputs": [
        {
          "indexed": false,
          "internalType": "uint16",
          "name": "_srcChainId",
          "type": "uint16"
        },
        {
          "indexed": false,
          "internalType": "bytes",
          "name": "_srcAddress",
          "type": "bytes"
        },
        {
          "indexed": false,
          "internalType": "uint64",
          "name": "_nonce",
          "type": "uint64"
        },
        {
          "indexed": false,
          "internalType": "bytes32",
          "name": "_payloadHash",
          "type": "bytes32"
        }
      ],
      "name": "RetryMessageSuccess",
      "type": "event"
    },
    {
      "anonymous": false,
      "inputs": [
        {
          "indexed": true,
          "internalType": "uint16",
          "name": "_dstChainId",
          "type": "uint16"
        },
        {
          "indexed": true,
          "internalType": "address",
          "name": "_from",
          "type": "address"
        },
        {
          "indexed": true,
          "internalType": "bytes",
          "name": "_toAddress",
          "type": "bytes"
        },
        {
          "indexed": false,
          "internalType": "uint256[]",
          "name": "_tokenIds",
          "type": "uint256[]"
        }
      ],
      "name": "SendToChain",
      "type": "event"
    },
    {
      "anonymous": false,
      "inputs": [
        {
          "indexed": false,
          "internalType": "uint16",
          "name": "_dstChainId",
          "type": "uint16"
        },
        {
          "indexed": false,
          "internalType": "uint256",
          "name": "_dstChainIdToBatchLimit",
          "type": "uint256"
        }
      ],
      "name": "SetDstChainIdToBatchLimit",
      "type": "event"
    },
    {
      "anonymous": false,
      "inputs": [
        {
          "indexed": false,
          "internalType": "uint16",
          "name": "_dstChainId",
          "type": "uint16"
        },
        {
          "indexed": false,
          "internalType": "uint256",
          "name": "_dstChainIdToTransferGas",
          "type": "uint256"
        }
      ],
      "name": "SetDstChainIdToTransferGas",
      "type": "event"
    },
    {
      "anonymous": false,
      "inputs": [
        {
          "indexed": false,
          "internalType": "uint16",
          "name": "_dstChainId",
          "type": "uint16"
        },
        {
          "indexed": false,
          "internalType": "uint16",
          "name": "_type",
          "type": "uint16"
        },
        {
          "indexed": false,
          "internalType": "uint256",
          "name": "_minDstGas",
          "type": "uint256"
        }
      ],
      "name": "SetMinDstGas",
      "type": "event"
    },
    {
      "anonymous": false,
      "inputs": [
        {
          "indexed": false,
          "internalType": "uint256",
          "name": "_minGasToTransferAndStore",
          "type": "uint256"
        }
      ],
      "name": "SetMinGasToTransferAndStore",
      "type": "event"
    },
    {
      "anonymous": false,
      "inputs": [
        {
          "indexed": false,
          "internalType": "address",
          "name": "precrime",
          "type": "address"
        }
      ],
      "name": "SetPrecrime",
      "type": "event"
    },
    {
      "anonymous": false,
      "inputs": [
        {
          "indexed": false,
          "internalType": "uint16",
          "name": "_remoteChainId",
          "type": "uint16"
        },
        {
          "indexed": false,
          "internalType": "bytes",
          "name": "_path",
          "type": "bytes"
        }
      ],
      "name": "SetTrustedRemote",
      "type": "event"
    },
    {
      "anonymous": false,
      "inputs": [
        {
          "indexed": false,
          "internalType": "uint16",
          "name": "_remoteChainId",
          "type": "uint16"
        },
        {
          "indexed": false,
          "internalType": "bytes",
          "name": "_remoteAddress",
          "type": "bytes"
        }
      ],
      "name": "SetTrustedRemoteAddress",
      "type": "event"
    },
    {
      "anonymous": false,
      "inputs": [
        {
          "indexed": true,
          "internalType": "address",
          "name": "from",
          "type": "address"
        },
        {
          "indexed": true,
          "internalType": "address",
          "name": "to",
          "type": "address"
        },
        {
          "indexed": true,
          "internalType": "uint256",
          "name": "tokenId",
          "type": "uint256"
        }
      ],
      "name": "Transfer",
      "type": "event"
    },
    {
      "inputs": [],
      "name": "DEFAULT_PAYLOAD_SIZE_LIMIT",
      "outputs": [
        {
          "internalType": "uint256",
          "name": "",
          "type": "uint256"
        }
      ],
      "stateMutability": "view",
      "type": "function"
    },
    {
      "inputs": [],
      "name": "FUNCTION_TYPE_SEND",
      "outputs": [
        {
          "internalType": "uint16",
          "name": "",
          "type": "uint16"
        }
      ],
      "stateMutability": "view",
      "type": "function"
    },
    {
      "inputs": [
        {
          "internalType": "address",
          "name": "to",
          "type": "address"
        },
        {
          "internalType": "uint256",
          "name": "tokenId",
          "type": "uint256"
        }
      ],
      "name": "approve",
      "outputs": [],
      "stateMutability": "nonpayable",
      "type": "function"
    },
    {
      "inputs": [
        {
          "internalType": "address",
          "name": "owner",
          "type": "address"
        }
      ],
      "name": "balanceOf",
      "outputs": [
        {
          "internalType": "uint256",
          "name": "",
          "type": "uint256"
        }
      ],
      "stateMutability": "view",
      "type": "function"
    },
    {
      "inputs": [
        {
          "internalType": "bytes",
          "name": "_payload",
          "type": "bytes"
        }
      ],
      "name": "clearCredits",
      "outputs": [],
      "stateMutability": "nonpayable",
      "type": "function"
    },
    {
      "inputs": [
        {
          "internalType": "uint16",
          "name": "",
          "type": "uint16"
        }
      ],
      "name": "dstChainIdToBatchLimit",
      "outputs": [
        {
          "internalType": "uint256",
          "name": "",
          "type": "uint256"
        }
      ],
      "stateMutability": "view",
      "type": "function"
    },
    {
      "inputs": [
        {
          "internalType": "uint16",
          "name": "",
          "type": "uint16"
        }
      ],
      "name": "dstChainIdToTransferGas",
      "outputs": [
        {
          "internalType": "uint256",
          "name": "",
          "type": "uint256"
        }
      ],
      "stateMutability": "view",
      "type": "function"
    },
    {
      "inputs": [
        {
          "internalType": "uint16",
          "name": "_dstChainId",
          "type": "uint16"
        },
        {
          "internalType": "bytes",
          "name": "_toAddress",
          "type": "bytes"
        },
        {
          "internalType": "uint256[]",
          "name": "_tokenIds",
          "type": "uint256[]"
        },
        {
          "internalType": "bool",
          "name": "_useZro",
          "type": "bool"
        },
        {
          "internalType": "bytes",
          "name": "_adapterParams",
          "type": "bytes"
        }
      ],
      "name": "estimateSendBatchFee",
      "outputs": [
        {
          "internalType": "uint256",
          "name": "nativeFee",
          "type": "uint256"
        },
        {
          "internalType": "uint256",
          "name": "zroFee",
          "type": "uint256"
        }
      ],
      "stateMutability": "view",
      "type": "function"
    },
    {
      "inputs": [
        {
          "internalType": "uint16",
          "name": "_dstChainId",
          "type": "uint16"
        },
        {
          "internalType": "bytes",
          "name": "_toAddress",
          "type": "bytes"
        },
        {
          "internalType": "uint256",
          "name": "_tokenId",
          "type": "uint256"
        },
        {
          "internalType": "bool",
          "name": "_useZro",
          "type": "bool"
        },
        {
          "internalType": "bytes",
          "name": "_adapterParams",
          "type": "bytes"
        }
      ],
      "name": "estimateSendFee",
      "outputs": [
        {
          "internalType": "uint256",
          "name": "nativeFee",
          "type": "uint256"
        },
        {
          "internalType": "uint256",
          "name": "zroFee",
          "type": "uint256"
        }
      ],
      "stateMutability": "view",
      "type": "function"
    },
    {
      "inputs": [
        {
          "internalType": "uint16",
          "name": "",
          "type": "uint16"
        },
        {
          "internalType": "bytes",
          "name": "",
          "type": "bytes"
        },
        {
          "internalType": "uint64",
          "name": "",
          "type": "uint64"
        }
      ],
      "name": "failedMessages",
      "outputs": [
        {
          "internalType": "bytes32",
          "name": "",
          "type": "bytes32"
        }
      ],
      "stateMutability": "view",
      "type": "function"
    },
    {
      "inputs": [
        {
          "internalType": "uint16",
          "name": "_srcChainId",
          "type": "uint16"
        },
        {
          "internalType": "bytes",
          "name": "_srcAddress",
          "type": "bytes"
        }
      ],
      "name": "forceResumeReceive",
      "outputs": [],
      "stateMutability": "nonpayable",
      "type": "function"
    },
    {
      "inputs": [
        {
          "internalType": "uint256",
          "name": "tokenId",
          "type": "uint256"
        }
      ],
      "name": "getApproved",
      "outputs": [
        {
          "internalType": "address",
          "name": "",
          "type": "address"
        }
      ],
      "stateMutability": "view",
      "type": "function"
    },
    {
      "inputs": [
        {
          "internalType": "uint16",
          "name": "_version",
          "type": "uint16"
        },
        {
          "internalType": "uint16",
          "name": "_chainId",
          "type": "uint16"
        },
        {
          "internalType": "address",
          "name": "",
          "type": "address"
        },
        {
          "internalType": "uint256",
          "name": "_configType",
          "type": "uint256"
        }
      ],
      "name": "getConfig",
      "outputs": [
        {
          "internalType": "bytes",
          "name": "",
          "type": "bytes"
        }
      ],
      "stateMutability": "view",
      "type": "function"
    },
    {
      "inputs": [
        {
          "internalType": "uint16",
          "name": "_remoteChainId",
          "type": "uint16"
        }
      ],
      "name": "getTrustedRemoteAddress",
      "outputs": [
        {
          "internalType": "bytes",
          "name": "",
          "type": "bytes"
        }
      ],
      "stateMutability": "view",
      "type": "function"
    },
    {
      "inputs": [
        {
          "internalType": "address",
          "name": "owner",
          "type": "address"
        },
        {
          "internalType": "address",
          "name": "operator",
          "type": "address"
        }
      ],
      "name": "isApprovedForAll",
      "outputs": [
        {
          "internalType": "bool",
          "name": "",
          "type": "bool"
        }
      ],
      "stateMutability": "view",
      "type": "function"
    },
    {
      "inputs": [
        {
          "internalType": "uint16",
          "name": "_srcChainId",
          "type": "uint16"
        },
        {
          "internalType": "bytes",
          "name": "_srcAddress",
          "type": "bytes"
        }
      ],
      "name": "isTrustedRemote",
      "outputs": [
        {
          "internalType": "bool",
          "name": "",
          "type": "bool"
        }
      ],
      "stateMutability": "view",
      "type": "function"
    },
    {
      "inputs": [],
      "name": "lzEndpoint",
      "outputs": [
        {
          "internalType": "contract ILayerZeroEndpoint",
          "name": "",
          "type": "address"
        }
      ],
      "stateMutability": "view",
      "type": "function"
    },
    {
      "inputs": [
        {
          "internalType": "uint16",
          "name": "_srcChainId",
          "type": "uint16"
        },
        {
          "internalType": "bytes",
          "name": "_srcAddress",
          "type": "bytes"
        },
        {
          "internalType": "uint64",
          "name": "_nonce",
          "type": "uint64"
        },
        {
          "internalType": "bytes",
          "name": "_payload",
          "type": "bytes"
        }
      ],
      "name": "lzReceive",
      "outputs": [],
      "stateMutability": "nonpayable",
      "type": "function"
    },
    {
      "inputs": [
        {
          "internalType": "uint16",
          "name": "",
          "type": "uint16"
        },
        {
          "internalType": "uint16",
          "name": "",
          "type": "uint16"
        }
      ],
      "name": "minDstGasLookup",
      "outputs": [
        {
          "internalType": "uint256",
          "name": "",
          "type": "uint256"
        }
      ],
      "stateMutability": "view",
      "type": "function"
    },
    {
      "inputs": [],
      "name": "minGasToTransferAndStore",
      "outputs": [
        {
          "internalType": "uint256",
          "name": "",
          "type": "uint256"
        }
      ],
      "stateMutability": "view",
      "type": "function"
    },
    {
      "inputs": [],
      "name": "name",
      "outputs": [
        {
          "internalType": "string",
          "name": "",
          "type": "string"
        }
      ],
      "stateMutability": "view",
      "type": "function"
    },
    {
      "inputs": [
        {
          "internalType": "uint16",
          "name": "_srcChainId",
          "type": "uint16"
        },
        {
          "internalType": "bytes",
          "name": "_srcAddress",
          "type": "bytes"
        },
        {
          "internalType": "uint64",
          "name": "_nonce",
          "type": "uint64"
        },
        {
          "internalType": "bytes",
          "name": "_payload",
          "type": "bytes"
        }
      ],
      "name": "nonblockingLzReceive",
      "outputs": [],
      "stateMutability": "nonpayable",
      "type": "function"
    },
    {
      "inputs": [],
      "name": "owner",
      "outputs": [
        {
          "internalType": "address",
          "name": "",
          "type": "address"
        }
      ],
      "stateMutability": "view",
      "type": "function"
    },
    {
      "inputs": [
        {
          "internalType": "uint256",
          "name": "tokenId",
          "type": "uint256"
        }
      ],
      "name": "ownerOf",
      "outputs": [
        {
          "internalType": "address",
          "name": "",
          "type": "address"
        }
      ],
      "stateMutability": "view",
      "type": "function"
    },
    {
      "inputs": [
        {
          "internalType": "uint16",
          "name": "",
          "type": "uint16"
        }
      ],
      "name": "payloadSizeLimitLookup",
      "outputs": [
        {
          "internalType": "uint256",
          "name": "",
          "type": "uint256"
        }
      ],
      "stateMutability": "view",
      "type": "function"
    },
    {
      "inputs": [],
      "name": "precrime",
      "outputs": [
        {
          "internalType": "address",
          "name": "",
          "type": "address"
        }
      ],
      "stateMutability": "view",
      "type": "function"
    },
    {
      "inputs": [],
      "name": "renounceOwnership",
      "outputs": [],
      "stateMutability": "nonpayable",
      "type": "function"
    },
    {
      "inputs": [
        {
          "internalType": "uint16",
          "name": "_srcChainId",
          "type": "uint16"
        },
        {
          "internalType": "bytes",
          "name": "_srcAddress",
          "type": "bytes"
        },
        {
          "internalType": "uint64",
          "name": "_nonce",
          "type": "uint64"
        },
        {
          "internalType": "bytes",
          "name": "_payload",
          "type": "bytes"
        }
      ],
      "name": "retryMessage",
      "outputs": [],
      "stateMutability": "payable",
      "type": "function"
    },
    {
      "inputs": [
        {
          "internalType": "address",
          "name": "from",
          "type": "address"
        },
        {
          "internalType": "address",
          "name": "to",
          "type": "address"
        },
        {
          "internalType": "uint256",
          "name": "tokenId",
          "type": "uint256"
        }
      ],
      "name": "safeTransferFrom",
      "outputs": [],
      "stateMutability": "nonpayable",
      "type": "function"
    },
    {
      "inputs": [
        {
          "internalType": "address",
          "name": "from",
          "type": "address"
        },
        {
          "internalType": "address",
          "name": "to",
          "type": "address"
        },
        {
          "internalType": "uint256",
          "name": "tokenId",
          "type": "uint256"
        },
        {
          "internalType": "bytes",
          "name": "data",
          "type": "bytes"
        }
      ],
      "name": "safeTransferFrom",
      "outputs": [],
      "stateMutability": "nonpayable",
      "type": "function"
    },
    {
      "inputs": [
        {
          "internalType": "address",
          "name": "_from",
          "type": "address"
        },
        {
          "internalType": "uint16",
          "name": "_dstChainId",
          "type": "uint16"
        },
        {
          "internalType": "bytes",
          "name": "_toAddress",
          "type": "bytes"
        },
        {
          "internalType": "uint256[]",
          "name": "_tokenIds",
          "type": "uint256[]"
        },
        {
          "internalType": "address payable",
          "name": "_refundAddress",
          "type": "address"
        },
        {
          "internalType": "address",
          "name": "_zroPaymentAddress",
          "type": "address"
        },
        {
          "internalType": "bytes",
          "name": "_adapterParams",
          "type": "bytes"
        }
      ],
      "name": "sendBatchFrom",
      "outputs": [],
      "stateMutability": "payable",
      "type": "function"
    },
    {
      "inputs": [
        {
          "internalType": "address",
          "name": "_from",
          "type": "address"
        },
        {
          "internalType": "uint16",
          "name": "_dstChainId",
          "type": "uint16"
        },
        {
          "internalType": "bytes",
          "name": "_toAddress",
          "type": "bytes"
        },
        {
          "internalType": "uint256",
          "name": "_tokenId",
          "type": "uint256"
        },
        {
          "internalType": "address payable",
          "name": "_refundAddress",
          "type": "address"
        },
        {
          "internalType": "address",
          "name": "_zroPaymentAddress",
          "type": "address"
        },
        {
          "internalType": "bytes",
          "name": "_adapterParams",
          "type": "bytes"
        }
      ],
      "name": "sendFrom",
      "outputs": [],
      "stateMutability": "payable",
      "type": "function"
    },
    {
      "inputs": [
        {
          "internalType": "address",
          "name": "operator",
          "type": "address"
        },
        {
          "internalType": "bool",
          "name": "approved",
          "type": "bool"
        }
      ],
      "name": "setApprovalForAll",
      "outputs": [],
      "stateMutability": "nonpayable",
      "type": "function"
    },
    {
      "inputs": [
        {
          "internalType": "uint16",
          "name": "_version",
          "type": "uint16"
        },
        {
          "internalType": "uint16",
          "name": "_chainId",
          "type": "uint16"
        },
        {
          "internalType": "uint256",
          "name": "_configType",
          "type": "uint256"
        },
        {
          "internalType": "bytes",
          "name": "_config",
          "type": "bytes"
        }
      ],
      "name": "setConfig",
      "outputs": [],
      "stateMutability": "nonpayable",
      "type": "function"
    },
    {
      "inputs": [
        {
          "internalType": "uint16",
          "name": "_dstChainId",
          "type": "uint16"
        },
        {
          "internalType": "uint256",
          "name": "_dstChainIdToBatchLimit",
          "type": "uint256"
        }
      ],
      "name": "setDstChainIdToBatchLimit",
      "outputs": [],
      "stateMutability": "nonpayable",
      "type": "function"
    },
    {
      "inputs": [
        {
          "internalType": "uint16",
          "name": "_dstChainId",
          "type": "uint16"
        },
        {
          "internalType": "uint256",
          "name": "_dstChainIdToTransferGas",
          "type": "uint256"
        }
      ],
      "name": "setDstChainIdToTransferGas",
      "outputs": [],
      "stateMutability": "nonpayable",
      "type": "function"
    },
    {
      "inputs": [
        {
          "internalType": "uint16",
          "name": "_dstChainId",
          "type": "uint16"
        },
        {
          "internalType": "uint16",
          "name": "_packetType",
          "type": "uint16"
        },
        {
          "internalType": "uint256",
          "name": "_minGas",
          "type": "uint256"
        }
      ],
      "name": "setMinDstGas",
      "outputs": [],
      "stateMutability": "nonpayable",
      "type": "function"
    },
    {
      "inputs": [
        {
          "internalType": "uint256",
          "name": "_minGasToTransferAndStore",
          "type": "uint256"
        }
      ],
      "name": "setMinGasToTransferAndStore",
      "outputs": [],
      "stateMutability": "nonpayable",
      "type": "function"
    },
    {
      "inputs": [
        {
          "internalType": "uint16",
          "name": "_dstChainId",
          "type": "uint16"
        },
        {
          "internalType": "uint256",
          "name": "_size",
          "type": "uint256"
        }
      ],
      "name": "setPayloadSizeLimit",
      "outputs": [],
      "stateMutability": "nonpayable",
      "type": "function"
    },
    {
      "inputs": [
        {
          "internalType": "address",
          "name": "_precrime",
          "type": "address"
        }
      ],
      "name": "setPrecrime",
      "outputs": [],
      "stateMutability": "nonpayable",
      "type": "function"
    },
    {
      "inputs": [
        {
          "internalType": "uint16",
          "name": "_version",
          "type": "uint16"
        }
      ],
      "name": "setReceiveVersion",
      "outputs": [],
      "stateMutability": "nonpayable",
      "type": "function"
    },
    {
      "inputs": [
        {
          "internalType": "uint16",
          "name": "_version",
          "type": "uint16"
        }
      ],
      "name": "setSendVersion",
      "outputs": [],
      "stateMutability": "nonpayable",
      "type": "function"
    },
    {
      "inputs": [
        {
          "internalType": "uint16",
          "name": "_remoteChainId",
          "type": "uint16"
        },
        {
          "internalType": "bytes",
          "name": "_path",
          "type": "bytes"
        }
      ],
      "name": "setTrustedRemote",
      "outputs": [],
      "stateMutability": "nonpayable",
      "type": "function"
    },
    {
      "inputs": [
        {
          "internalType": "uint16",
          "name": "_remoteChainId",
          "type": "uint16"
        },
        {
          "internalType": "bytes",
          "name": "_remoteAddress",
          "type": "bytes"
        }
      ],
      "name": "setTrustedRemoteAddress",
      "outputs": [],
      "stateMutability": "nonpayable",
      "type": "function"
    },
    {
      "inputs": [
        {
          "internalType": "bytes32",
          "name": "",
          "type": "bytes32"
        }
      ],
      "name": "storedCredits",
      "outputs": [
        {
          "internalType": "uint16",
          "name": "srcChainId",
          "type": "uint16"
        },
        {
          "internalType": "address",
          "name": "toAddress",
          "type": "address"
        },
        {
          "internalType": "uint256",
          "name": "index",
          "type": "uint256"
        },
        {
          "internalType": "bool",
          "name": "creditsRemain",
          "type": "bool"
        }
      ],
      "stateMutability": "view",
      "type": "function"
    },
    {
      "inputs": [
        {
          "internalType": "bytes4",
          "name": "interfaceId",
          "type": "bytes4"
        }
      ],
      "name": "supportsInterface",
      "outputs": [
        {
          "internalType": "bool",
          "name": "",
          "type": "bool"
        }
      ],
      "stateMutability": "view",
      "type": "function"
    },
    {
      "inputs": [],
      "name": "symbol",
      "outputs": [
        {
          "internalType": "string",
          "name": "",
          "type": "string"
        }
      ],
      "stateMutability": "view",
      "type": "function"
    },
    {
      "inputs": [
        {
          "internalType": "uint256",
          "name": "tokenId",
          "type": "uint256"
        }
      ],
      "name": "tokenURI",
      "outputs": [
        {
          "internalType": "string",
          "name": "",
          "type": "string"
        }
      ],
      "stateMutability": "view",
      "type": "function"
    },
    {
      "inputs": [
        {
          "internalType": "address",
          "name": "from",
          "type": "address"
        },
        {
          "internalType": "address",
          "name": "to",
          "type": "address"
        },
        {
          "internalType": "uint256",
          "name": "tokenId",
          "type": "uint256"
        }
      ],
      "name": "transferFrom",
      "outputs": [],
      "stateMutability": "nonpayable",
      "type": "function"
    },
    {
      "inputs": [
        {
          "internalType": "address",
          "name": "newOwner",
          "type": "address"
        }
      ],
      "name": "transferOwnership",
      "outputs": [],
      "stateMutability": "nonpayable",
      "type": "function"
    },
    {
      "inputs": [
        {
          "internalType": "uint16",
          "name": "",
          "type": "uint16"
        }
      ],
      "name": "trustedRemoteLookup",
      "outputs": [
        {
          "internalType": "bytes",
          "name": "",
          "type": "bytes"
        }
      ],
      "stateMutability": "view",
      "type": "function"
    }
  ],
  "bytecode": "0x60a06040523480156200001157600080fd5b50604051620049a3380380620049a38339810160408190526200003491620001f8565b8383838380806200004533620000e3565b6001600160a01b031660805250600160065581620000b55760405162461bcd60e51b8152602060048201526024808201527f6d696e476173546f5472616e73666572416e6453746f7265206d7573742062656044820152630203e20360e41b606482015260840160405180910390fd5b50600755600b620000c783826200031c565b50600c620000d682826200031c565b50505050505050620003e8565b600080546001600160a01b038381166001600160a01b0319831681178455604051919092169283917f8be0079c531659141344cd1fd0a4f28419497f9722a3daafe3b4186f6b6457e09190a35050565b634e487b7160e01b600052604160045260246000fd5b600082601f8301126200015b57600080fd5b81516001600160401b038082111562000178576200017862000133565b604051601f8301601f19908116603f01168101908282118183101715620001a357620001a362000133565b81604052838152602092508683858801011115620001c057600080fd5b600091505b83821015620001e45785820183015181830184015290820190620001c5565b600093810190920192909252949350505050565b600080600080608085870312156200020f57600080fd5b84516001600160401b03808211156200022757600080fd5b620002358883890162000149565b955060208701519150808211156200024c57600080fd5b506200025b8782880162000149565b60408701516060880151919550935090506001600160a01b03811681146200028257600080fd5b939692955090935050565b600181811c90821680620002a257607f821691505b602082108103620002c357634e487b7160e01b600052602260045260246000fd5b50919050565b601f8211156200031757600081815260208120601f850160051c81016020861015620002f25750805b601f850160051c820191505b818110156200031357828155600101620002fe565b5050505b505050565b81516001600160401b0381111562000338576200033862000133565b62000350816200034984546200028d565b84620002c9565b602080601f8311600181146200038857600084156200036f5750858301515b600019600386901b1c1916600185901b17855562000313565b600085815260208120601f198616915b82811015620003b95788860151825594840194600190910190840162000398565b5085821015620003d85787850151600019600388901b60f8161c191681555b5050505050600190811b01905550565b6080516145676200043c600039600081816107aa0152818161098501528181610c8901528181610f0d015281816110a20152818161195e01528181611dcb01528181611efe0152612e5a01526145676000f3fe6080604052600436106102435760003560e01c80621d35671461024857806301ffc9a71461026a57806306fdde031461029f57806307e0db17146102c1578063081812fc146102e1578063095ea7b31461030e5780630b4cad4c1461032e5780630df374831461034e57806310ddb1371461036e57806322a3ecf91461038e57806323b872dd146104115780632a205e3d146104315780633d8b38f6146104665780633f1f4fa41461048657806342842e0e146104c157806342d65a8d146104e157806348288190146105015780634ac3f4ff1461051757806351905636146105445780635b8c41e6146105575780636352211e146105a657806366ad5c8a146105c657806370a08231146105e6578063715018a6146106065780637533d7881461061b5780638cfd8f5c1461063b5780638da5cb5b146106735780638ffa1f2a14610688578063950c8a74146106a857806395d89b41146106c85780639ea5d6b1146106dd5780639f38369a146106fd578063a22cb4651461071d578063a6c3d1651461073d578063ab3ffb931461075d578063af3fb21c14610770578063b353aaa714610798578063b88d4fde146107cc578063baf3292d146107ec578063c44618341461080c578063c87b56dd14610822578063cbed8b9c14610842578063d12473a514610862578063d1deba1f14610882578063df2a5b3b14610895578063e985e9c5146108b5578063eb8d72b7146108d5578063f2353641146108f5578063f2fde38b14610915578063f5ecbdbc14610935578063fa25f9b614610955575b600080fd5b34801561025457600080fd5b5061026861026336600461338f565b610982565b005b34801561027657600080fd5b5061028a610285366004613438565b610bb3565b60405190151581526020015b60405180910390f35b3480156102ab57600080fd5b506102b4610bd6565b60405161029691906134a5565b3480156102cd57600080fd5b506102686102dc3660046134b8565b610c68565b3480156102ed57600080fd5b506103016102fc3660046134d3565b610cf1565b60405161029691906134ec565b34801561031a57600080fd5b50610268610329366004613520565b610d18565b34801561033a57600080fd5b506102686103493660046134d3565b610e2d565b34801561035a57600080fd5b5061026861036936600461354c565b610ecd565b34801561037a57600080fd5b506102686103893660046134b8565b610eec565b34801561039a57600080fd5b506103e26103a93660046134d3565b600a6020526000908152604090208054600182015460029092015461ffff821692620100009092046001600160a01b0316919060ff1684565b6040805161ffff90951685526001600160a01b0390931660208501529183015215156060820152608001610296565b34801561041d57600080fd5b5061026861042c366004613568565b610f44565b34801561043d57600080fd5b5061045161044c36600461367c565b610f76565b60408051928352602083019190915201610296565b34801561047257600080fd5b5061028a61048136600461370a565b610f9c565b34801561049257600080fd5b506104b36104a13660046134b8565b60036020526000908152604090205481565b604051908152602001610296565b3480156104cd57600080fd5b506102686104dc366004613568565b611068565b3480156104ed57600080fd5b506102686104fc36600461370a565b611083565b34801561050d57600080fd5b506104b360075481565b34801561052357600080fd5b506104b36105323660046134b8565b60086020526000908152604090205481565b61026861055236600461375c565b611109565b34801561056357600080fd5b506104b3610572366004613815565b6005602090815260009384526040808520845180860184018051928152908401958401959095209452929052825290205481565b3480156105b257600080fd5b506103016105c13660046134d3565b611120565b3480156105d257600080fd5b506102686105e136600461338f565b611154565b3480156105f257600080fd5b506104b3610601366004613872565b611230565b34801561061257600080fd5b506102686112b6565b34801561062757600080fd5b506102b46106363660046134b8565b6112ca565b34801561064757600080fd5b506104b361065636600461388f565b600260209081526000928352604080842090915290825290205481565b34801561067f57600080fd5b50610301611364565b34801561069457600080fd5b506102686106a33660046138c2565b611373565b3480156106b457600080fd5b50600454610301906001600160a01b031681565b3480156106d457600080fd5b506102b46115be565b3480156106e957600080fd5b506102686106f836600461354c565b6115cd565b34801561070957600080fd5b506102b46107183660046134b8565b611684565b34801561072957600080fd5b506102686107383660046138f6565b61179a565b34801561074957600080fd5b5061026861075836600461370a565b6117a9565b61026861076b3660046139ab565b611832565b34801561077c57600080fd5b50610785600181565b60405161ffff9091168152602001610296565b3480156107a457600080fd5b506103017f000000000000000000000000000000000000000000000000000000000000000081565b3480156107d857600080fd5b506102686107e7366004613a60565b611841565b3480156107f857600080fd5b50610268610807366004613872565b611879565b34801561081857600080fd5b506104b361271081565b34801561082e57600080fd5b506102b461083d3660046134d3565b6118cc565b34801561084e57600080fd5b5061026861085d366004613acb565b61193f565b34801561086e57600080fd5b5061026861087d36600461354c565b6119d4565b61026861089036600461338f565b611a84565b3480156108a157600080fd5b506102686108b0366004613b39565b611c9a565b3480156108c157600080fd5b5061028a6108d0366004613b75565b611d04565b3480156108e157600080fd5b506102686108f036600461370a565b611d32565b34801561090157600080fd5b50610451610910366004613bae565b611d8c565b34801561092157600080fd5b50610268610930366004613872565b611e57565b34801561094157600080fd5b506102b4610950366004613c27565b611ecd565b34801561096157600080fd5b506104b36109703660046134b8565b60096020526000908152604090205481565b337f00000000000000000000000000000000000000000000000000000000000000006001600160a01b0316146109ff5760405162461bcd60e51b815260206004820152601e60248201527f4c7a4170703a20696e76616c696420656e64706f696e742063616c6c6572000060448201526064015b60405180910390fd5b61ffff861660009081526001602052604081208054610a1d90613c74565b80601f0160208091040260200160405190810160405280929190818152602001828054610a4990613c74565b8015610a965780601f10610a6b57610100808354040283529160200191610a96565b820191906000526020600020905b815481529060010190602001808311610a7957829003601f168201915b50505050509050805186869050148015610ab1575060008151115b8015610ad9575080516020820120604051610acf9088908890613cae565b6040518091039020145b610b345760405162461bcd60e51b815260206004820152602660248201527f4c7a4170703a20696e76616c696420736f757263652073656e64696e6720636f6044820152651b9d1c9858dd60d21b60648201526084016109f6565b610baa8787878080601f01602080910402602001604051908101604052809392919081815260200183838082843760009201919091525050604080516020601f8a018190048102820181019092528881528a935091508890889081908401838280828437600092019190915250611f8092505050565b50505050505050565b60006001600160e01b031982161580610bd05750610bd082611ff9565b92915050565b6060600b8054610be590613c74565b80601f0160208091040260200160405190810160405280929190818152602001828054610c1190613c74565b8015610c5e5780601f10610c3357610100808354040283529160200191610c5e565b820191906000526020600020905b815481529060010190602001808311610c4157829003601f168201915b5050505050905090565b610c70612039565b6040516307e0db1760e01b815261ffff821660048201527f00000000000000000000000000000000000000000000000000000000000000006001600160a01b0316906307e0db17906024015b600060405180830381600087803b158015610cd657600080fd5b505af1158015610cea573d6000803e3d6000fd5b5050505050565b6000610cfc82612098565b506000908152600f60205260409020546001600160a01b031690565b6000610d2382611120565b9050806001600160a01b0316836001600160a01b031603610d905760405162461bcd60e51b815260206004820152602160248201527f4552433732313a20617070726f76616c20746f2063757272656e74206f776e656044820152603960f91b60648201526084016109f6565b336001600160a01b0382161480610dac5750610dac8133611d04565b610e1e5760405162461bcd60e51b815260206004820152603d60248201527f4552433732313a20617070726f76652063616c6c6572206973206e6f7420746f60448201527f6b656e206f776e6572206f7220617070726f76656420666f7220616c6c00000060648201526084016109f6565b610e2883836120bd565b505050565b610e35612039565b60008111610e915760405162461bcd60e51b8152602060048201526024808201527f6d696e476173546f5472616e73666572416e6453746f7265206d7573742062656044820152630203e20360e41b60648201526084016109f6565b60078190556040518181527ffebbc4f8bb9ec2313950c718d43123124b15778efda4c1f1d529de2995b4f34d906020015b60405180910390a150565b610ed5612039565b61ffff909116600090815260036020526040902055565b610ef4612039565b6040516310ddb13760e01b815261ffff821660048201527f00000000000000000000000000000000000000000000000000000000000000006001600160a01b0316906310ddb13790602401610cbc565b610f4f335b8261212b565b610f6b5760405162461bcd60e51b81526004016109f690613cbe565b610e28838383612189565b600080610f8e8787610f87886122db565b8787611d8c565b915091509550959350505050565b61ffff831660009081526001602052604081208054829190610fbd90613c74565b80601f0160208091040260200160405190810160405280929190818152602001828054610fe990613c74565b80156110365780601f1061100b57610100808354040283529160200191611036565b820191906000526020600020905b81548152906001019060200180831161101957829003601f168201915b50505050509050838360405161104d929190613cae565b60405180910390208180519060200120149150509392505050565b610e2883838360405180602001604052806000815250611841565b61108b612039565b6040516342d65a8d60e01b81526001600160a01b037f000000000000000000000000000000000000000000000000000000000000000016906342d65a8d906110db90869086908690600401613d34565b600060405180830381600087803b1580156110f557600080fd5b505af1158015610baa573d6000803e3d6000fd5b610baa878787611118886122db565b878787612326565b60008061112c836124fa565b90506001600160a01b038116610bd05760405162461bcd60e51b81526004016109f690613d52565b3330146111b25760405162461bcd60e51b815260206004820152602660248201527f4e6f6e626c6f636b696e674c7a4170703a2063616c6c6572206d7573742062656044820152650204c7a4170760d41b60648201526084016109f6565b6112288686868080601f01602080910402602001604051908101604052809392919081815260200183838082843760009201919091525050604080516020601f89018190048102820181019092528781528993509150879087908190840183828082843760009201919091525061251592505050565b505050505050565b60006001600160a01b03821661129a5760405162461bcd60e51b815260206004820152602960248201527f4552433732313a2061646472657373207a65726f206973206e6f7420612076616044820152683634b21037bbb732b960b91b60648201526084016109f6565b506001600160a01b03166000908152600e602052604090205490565b6112be612039565b6112c8600061266c565b565b600160205260009081526040902080546112e390613c74565b80601f016020809104026020016040519081016040528092919081815260200182805461130f90613c74565b801561135c5780601f106113315761010080835404028352916020019161135c565b820191906000526020600020905b81548152906001019060200180831161133f57829003601f168201915b505050505081565b6000546001600160a01b031690565b61137b6126bc565b80516020808301919091206000818152600a90925260409091206002015460ff166113dc5760405162461bcd60e51b81526020600482015260116024820152701b9bc818dc99591a5d1cc81cdd1bdc9959607a1b60448201526064016109f6565b6000828060200190518101906113f29190613dc9565b6000848152600a60205260408120805460019091015492945090925061142e9161ffff8216916201000090046001600160a01b03169085612715565b6000848152600a602052604090206001015490915081116114a35760405162461bcd60e51b815260206004820152602960248201527f6e6f7420656e6f7567682067617320746f2070726f6365737320637265646974604482015268103a3930b739b332b960b91b60648201526084016109f6565b8151810361151a576000838152600a602052604080822080546001600160b01b031916815560018101929092556002909101805460ff19169055517fd7be02b8dd0d27bd0517a9cb4d7469ce27df4313821ae5ec1ff69acc594ba2339061150d9085815260200190565b60405180910390a16115ae565b604080516080810182526000858152600a6020818152848320805461ffff80821687526001600160a01b03620100008084048216868a019081529989018b8152600160608b01818152998f90529790965297519851169096026001600160b01b03199091169690951695909517939093178455915191830191909155516002909101805491151560ff199092169190911790555b5050506115bb6001600655565b50565b6060600c8054610be590613c74565b6115d5612039565b600081116116305760405162461bcd60e51b815260206004820152602260248201527f647374436861696e4964546f42617463684c696d6974206d757374206265203e604482015261020360f41b60648201526084016109f6565b61ffff8216600081815260086020908152604091829020849055815192835282018390527f7315f7654d594ead24a30160ed9ba2d23247f543016b918343591e93d7afdb6d91015b60405180910390a15050565b61ffff81166000908152600160205260408120805460609291906116a790613c74565b80601f01602080910402602001604051908101604052809291908181526020018280546116d390613c74565b80156117205780601f106116f557610100808354040283529160200191611720565b820191906000526020600020905b81548152906001019060200180831161170357829003601f168201915b5050505050905080516000036117785760405162461bcd60e51b815260206004820152601d60248201527f4c7a4170703a206e6f20747275737465642070617468207265636f726400000060448201526064016109f6565b61179360006014835161178b9190613e99565b839190612761565b9392505050565b6117a533838361286e565b5050565b6117b1612039565b8181306040516020016117c693929190613eac565b60408051601f1981840301815291815261ffff85166000908152600160205220906117f19082613f28565b507f8c0400cfe2d1199b1a725c78960bcc2a344d869b80590d0f2bd005db15a572ce83838360405161182593929190613d34565b60405180910390a1505050565b610baa87878787878787612326565b61184b338361212b565b6118675760405162461bcd60e51b81526004016109f690613cbe565b61187384848484612938565b50505050565b611881612039565b600480546001600160a01b0319166001600160a01b0383161790556040517f5db758e995a17ec1ad84bdef7e8c3293a0bd6179bcce400dff5d4c3d87db726b90610ec29083906134ec565b60606118d782612098565b60006118ee60408051602081019091526000815290565b9050600081511161190e5760405180602001604052806000815250611793565b806119188461296b565b604051602001611929929190613fe1565b6040516020818303038152906040529392505050565b611947612039565b6040516332fb62e760e21b81526001600160a01b037f0000000000000000000000000000000000000000000000000000000000000000169063cbed8b9c9061199b9088908890889088908890600401614010565b600060405180830381600087803b1580156119b557600080fd5b505af11580156119c9573d6000803e3d6000fd5b505050505050505050565b6119dc612039565b60008111611a385760405162461bcd60e51b815260206004820152602360248201527f647374436861696e4964546f5472616e73666572476173206d7573742062652060448201526203e20360ec1b60648201526084016109f6565b61ffff8216600081815260096020908152604091829020849055815192835282018390527fc46df2983228ac2d9754e94a0d565e6671665dc8ad38602bc8e544f0685a29fb9101611678565b61ffff86166000908152600560205260408082209051611aa79088908890613cae565b90815260408051602092819003830190206001600160401b03871660009081529252902054905080611b275760405162461bcd60e51b815260206004820152602360248201527f4e6f6e626c6f636b696e674c7a4170703a206e6f2073746f726564206d65737360448201526261676560e81b60648201526084016109f6565b808383604051611b38929190613cae565b604051809103902014611b975760405162461bcd60e51b815260206004820152602160248201527f4e6f6e626c6f636b696e674c7a4170703a20696e76616c6964207061796c6f616044820152601960fa1b60648201526084016109f6565b61ffff87166000908152600560205260408082209051611bba9089908990613cae565b90815260408051602092819003830181206001600160401b038916600090815290845282902093909355601f88018290048202830182019052868252611c52918991899089908190840183828082843760009201919091525050604080516020601f8a018190048102820181019092528881528a93509150889088908190840183828082843760009201919091525061251592505050565b7fc264d91f3adc5588250e1551f547752ca0cfa8f6b530d243b9f9f4cab10ea8e58787878785604051611c89959493929190614049565b60405180910390a150505050505050565b611ca2612039565b61ffff83811660008181526002602090815260408083209487168084529482529182902085905581519283528201929092529081018290527f9d5c7c0b934da8fefa9c7760c98383778a12dfbfc0c3b3106518f43fb9508ac090606001611825565b6001600160a01b03918216600090815260106020908152604080832093909416825291909152205460ff1690565b611d3a612039565b61ffff83166000908152600160205260409020611d58828483614084565b507ffa41487ad5d6728f0b19276fa1eddc16558578f5109fc39d2dc33c3230470dab83838360405161182593929190613d34565b60008060008686604051602001611da4929190614178565b60408051601f198184030181529082905263040a7bb160e41b825291506001600160a01b037f000000000000000000000000000000000000000000000000000000000000000016906340a7bb1090611e08908b90309086908b908b906004016141a6565b6040805180830381865afa158015611e24573d6000803e3d6000fd5b505050506040513d601f19601f82011682018060405250810190611e4891906141fa565b92509250509550959350505050565b611e5f612039565b6001600160a01b038116611ec45760405162461bcd60e51b815260206004820152602660248201527f4f776e61626c653a206e6577206f776e657220697320746865207a65726f206160448201526564647265737360d01b60648201526084016109f6565b6115bb8161266c565b604051633d7b2f6f60e21b815261ffff808616600483015284166024820152306044820152606481018290526060907f00000000000000000000000000000000000000000000000000000000000000006001600160a01b03169063f5ecbdbc90608401600060405180830381865afa158015611f4d573d6000803e3d6000fd5b505050506040513d6000823e601f3d908101601f19168201604052611f75919081019061421e565b90505b949350505050565b600080611fe35a60966366ad5c8a60e01b89898989604051602401611fa89493929190614252565b60408051601f198184030181529190526020810180516001600160e01b03166001600160e01b031990931692909217909152309291906129fd565b9150915081611228576112288686868685612a87565b60006001600160e01b031982166380ac58cd60e01b148061202a57506001600160e01b03198216635b5e139f60e01b145b80610bd05750610bd082612b24565b33612042611364565b6001600160a01b0316146112c85760405162461bcd60e51b815260206004820181905260248201527f4f776e61626c653a2063616c6c6572206973206e6f7420746865206f776e657260448201526064016109f6565b6120a181612b59565b6115bb5760405162461bcd60e51b81526004016109f690613d52565b6000818152600f6020526040902080546001600160a01b0319166001600160a01b03841690811790915581906120f282611120565b6001600160a01b03167f8c5be1e5ebec7d5bd14f71427d1e84f3dd0314c0f7b2291e5b200ac8c7c3b92560405160405180910390a45050565b60008061213783611120565b9050806001600160a01b0316846001600160a01b0316148061215e575061215e8185611d04565b80611f785750836001600160a01b031661217784610cf1565b6001600160a01b031614949350505050565b826001600160a01b031661219c82611120565b6001600160a01b0316146121c25760405162461bcd60e51b81526004016109f690614290565b6001600160a01b0382166122245760405162461bcd60e51b8152602060048201526024808201527f4552433732313a207472616e7366657220746f20746865207a65726f206164646044820152637265737360e01b60648201526084016109f6565b826001600160a01b031661223782611120565b6001600160a01b03161461225d5760405162461bcd60e51b81526004016109f690614290565b6000818152600f6020908152604080832080546001600160a01b03199081169091556001600160a01b03878116808652600e8552838620805460001901905590871680865283862080546001019055868652600d909452828520805490921684179091559051849360008051602061451283398151915291a4505050565b60408051600180825281830190925260609160009190602080830190803683370190505090508281600081518110612315576123156142d5565b602090810291909101015292915050565b600084511161236d5760405162461bcd60e51b8152602060048201526013602482015272746f6b656e4964735b5d20697320656d70747960681b60448201526064016109f6565b835160011480612391575061ffff8616600090815260086020526040902054845111155b6123e85760405162461bcd60e51b815260206004820152602260248201527f62617463682073697a65206578636565647320647374206261746368206c696d6044820152611a5d60f21b60648201526084016109f6565b60005b845181101561242b5761241988888888858151811061240c5761240c6142d5565b6020026020010151612b76565b80612423816142eb565b9150506123eb565b5060008585604051602001612441929190614178565b6040516020818303038152906040529050612486876001848851600960008d61ffff1661ffff168152602001908152602001600020546124819190614304565b612c61565b612494878286868634612d31565b856040516124a2919061431b565b6040518091039020886001600160a01b03168861ffff167fe1b87c47fdeb4f9cbadbca9df3af7aba453bb6e501075d0440d88125b711522a886040516124e89190614337565b60405180910390a45050505050505050565b6000908152600d60205260409020546001600160a01b031690565b6000808280602001905181019061252c9190613dc9565b60148201519193509150600061254488838386612715565b905082518110156126185784516020808701919091206040805160808101825261ffff808d1682526001600160a01b038088168387019081528385018881526001606086018181526000898152600a909a529887902095518654935190941662010000026001600160b01b03199093169390941692909217178355519082015592516002909301805493151560ff199094169390931790925590517f10e0b70d256bccc84b7027506978bd8b68984a870788b93b479def144c839ad79061260e908390899061434a565b60405180910390a1505b816001600160a01b031687604051612630919061431b565b60405180910390208961ffff167f5b821db8a46f8ecbe1941ba2f51cfeea9643268b56631f70d45e2a745d990265866040516124e89190614337565b600080546001600160a01b038381166001600160a01b0319831681178455604051919092169283917f8be0079c531659141344cd1fd0a4f28419497f9722a3daafe3b4186f6b6457e09190a35050565b60026006540361270e5760405162461bcd60e51b815260206004820152601f60248201527f5265656e7472616e637947756172643a207265656e7472616e742063616c6c0060448201526064016109f6565b6002600655565b6000825b8251811015611f75576007545a10611f755761274f8686858481518110612742576127426142d5565b6020026020010151612ed6565b80612759816142eb565b915050612719565b60608161276f81601f614363565b10156127ae5760405162461bcd60e51b815260206004820152600e60248201526d736c6963655f6f766572666c6f7760901b60448201526064016109f6565b6127b88284614363565b845110156127fc5760405162461bcd60e51b8152602060048201526011602482015270736c6963655f6f75744f66426f756e647360781b60448201526064016109f6565b60608215801561281b5760405191506000825260208201604052612865565b6040519150601f8416801560200281840101858101878315602002848b0101015b8183101561285457805183526020928301920161283c565b5050858452601f01601f1916604052505b50949350505050565b816001600160a01b0316836001600160a01b0316036128cb5760405162461bcd60e51b815260206004820152601960248201527822a9219b99189d1030b8383937bb32903a379031b0b63632b960391b60448201526064016109f6565b6001600160a01b03838116600081815260106020908152604080832094871680845294825291829020805460ff191686151590811790915591519182527f17307eab39ab6107e8899845ad3d59bd9653f200f220920489ca2b5937696c31910160405180910390a3505050565b612943848484612189565b61294f84848484612f36565b6118735760405162461bcd60e51b81526004016109f690614376565b6060600061297883613034565b60010190506000816001600160401b03811115612997576129976135a9565b6040519080825280601f01601f1916602001820160405280156129c1576020820181803683370190505b5090508181016020015b600019016f181899199a1a9b1b9c1cb0b131b232b360811b600a86061a8153600a85049450846129cb57509392505050565b6000606060008060008661ffff166001600160401b03811115612a2257612a226135a9565b6040519080825280601f01601f191660200182016040528015612a4c576020820181803683370190505b50905060008087516020890160008d8df191503d925086831115612a6e578692505b828152826000602083013e909890975095505050505050565b8180519060200120600560008761ffff1661ffff16815260200190815260200160002085604051612ab8919061431b565b9081526040805191829003602090810183206001600160401b0388166000908152915220919091557fe183f33de2837795525b4792ca4cd60535bd77c53b7e7030060bfcf5734d6b0c90612b1590879087908790879087906143c8565b60405180910390a15050505050565b60006001600160e01b031982166322bac5d960e01b1480610bd057506301ffc9a760e01b6001600160e01b0319831614610bd0565b600080612b65836124fa565b6001600160a01b0316141592915050565b612b7f33610f49565b612be25760405162461bcd60e51b815260206004820152602e60248201527f4f4e46543732313a2073656e642063616c6c6572206973206e6f74206f776e6560448201526d1c881b9bdc88185c1c1c9bdd995960921b60648201526084016109f6565b836001600160a01b0316612bf582611120565b6001600160a01b031614612c565760405162461bcd60e51b815260206004820152602260248201527f4f4e46543732313a2073656e642066726f6d20696e636f7272656374206f776e60448201526132b960f11b60648201526084016109f6565b611873843083612189565b6000612c6c8361310a565b61ffff80871660009081526002602090815260408083209389168352929052205490915080612cda5760405162461bcd60e51b815260206004820152601a602482015279131e905c1c0e881b5a5b91d85cd31a5b5a5d081b9bdd081cd95d60321b60448201526064016109f6565b612ce48382614363565b8210156112285760405162461bcd60e51b815260206004820152601b60248201527a4c7a4170703a20676173206c696d697420697320746f6f206c6f7760281b60448201526064016109f6565b61ffff861660009081526001602052604081208054612d4f90613c74565b80601f0160208091040260200160405190810160405280929190818152602001828054612d7b90613c74565b8015612dc85780601f10612d9d57610100808354040283529160200191612dc8565b820191906000526020600020905b815481529060010190602001808311612dab57829003601f168201915b505050505090508051600003612e395760405162461bcd60e51b815260206004820152603060248201527f4c7a4170703a2064657374696e6174696f6e20636861696e206973206e6f742060448201526f61207472757374656420736f7572636560801b60648201526084016109f6565b612e44878751613165565b60405162c5803160e81b81526001600160a01b037f0000000000000000000000000000000000000000000000000000000000000000169063c5803100908490612e9b908b9086908c908c908c908c9060040161441a565b6000604051808303818588803b158015612eb457600080fd5b505af1158015612ec8573d6000803e3d6000fd5b505050505050505050505050565b612edf81612b59565b1580612f0b5750612eef81612b59565b8015612f0b575030612f0082611120565b6001600160a01b0316145b612f1457600080fd5b612f1d81612b59565b612f2b57610e2882826131d6565b610e28308383612189565b60006001600160a01b0384163b1561302c57604051630a85bd0160e11b81526001600160a01b0385169063150b7a0290612f7a903390899088908890600401614481565b6020604051808303816000875af1925050508015612fb5575060408051601f3d908101601f19168201909252612fb2918101906144be565b60015b613012573d808015612fe3576040519150601f19603f3d011682016040523d82523d6000602084013e612fe8565b606091505b50805160000361300a5760405162461bcd60e51b81526004016109f690614376565b805181602001fd5b6001600160e01b031916630a85bd0160e11b149050611f78565b506001611f78565b60008072184f03e93ff9f4daa797ed6e38ed64bf6a1f0160401b83106130735772184f03e93ff9f4daa797ed6e38ed64bf6a1f0160401b830492506040015b6904ee2d6d415b85acef8160201b831061309d576904ee2d6d415b85acef8160201b830492506020015b662386f26fc1000083106130bb57662386f26fc10000830492506010015b6305f5e10083106130d3576305f5e100830492506008015b61271083106130e757612710830492506004015b606483106130f9576064830492506002015b600a8310610bd05760010192915050565b600060228251101561315d5760405162461bcd60e51b815260206004820152601c60248201527b4c7a4170703a20696e76616c69642061646170746572506172616d7360201b60448201526064016109f6565b506022015190565b61ffff82166000908152600360205260408120549081900361318657506127105b80821115610e285760405162461bcd60e51b815260206004820181905260248201527f4c7a4170703a207061796c6f61642073697a6520697320746f6f206c6172676560448201526064016109f6565b6117a58282604051806020016040528060008152506131f5838361321e565b6132026000848484612f36565b610e285760405162461bcd60e51b81526004016109f690614376565b6001600160a01b0382166132745760405162461bcd60e51b815260206004820181905260248201527f4552433732313a206d696e7420746f20746865207a65726f206164647265737360448201526064016109f6565b61327d81612b59565b1561329a5760405162461bcd60e51b81526004016109f6906144db565b6132a381612b59565b156132c05760405162461bcd60e51b81526004016109f6906144db565b6001600160a01b0382166000818152600e6020908152604080832080546001019055848352600d90915280822080546001600160a01b031916841790555183929190600080516020614512833981519152908290a45050565b803561ffff8116811461332b57600080fd5b919050565b60008083601f84011261334257600080fd5b5081356001600160401b0381111561335957600080fd5b60208301915083602082850101111561337157600080fd5b9250929050565b80356001600160401b038116811461332b57600080fd5b600080600080600080608087890312156133a857600080fd5b6133b187613319565b955060208701356001600160401b03808211156133cd57600080fd5b6133d98a838b01613330565b90975095508591506133ed60408a01613378565b9450606089013591508082111561340357600080fd5b5061341089828a01613330565b979a9699509497509295939492505050565b6001600160e01b0319811681146115bb57600080fd5b60006020828403121561344a57600080fd5b813561179381613422565b60005b83811015613470578181015183820152602001613458565b50506000910152565b60008151808452613491816020860160208601613455565b601f01601f19169290920160200192915050565b6020815260006117936020830184613479565b6000602082840312156134ca57600080fd5b61179382613319565b6000602082840312156134e557600080fd5b5035919050565b6001600160a01b0391909116815260200190565b6001600160a01b03811681146115bb57600080fd5b803561332b81613500565b6000806040838503121561353357600080fd5b823561353e81613500565b946020939093013593505050565b6000806040838503121561355f57600080fd5b61353e83613319565b60008060006060848603121561357d57600080fd5b833561358881613500565b9250602084013561359881613500565b929592945050506040919091013590565b634e487b7160e01b600052604160045260246000fd5b604051601f8201601f191681016001600160401b03811182821017156135e7576135e76135a9565b604052919050565b60006001600160401b03821115613608576136086135a9565b50601f01601f191660200190565b600082601f83011261362757600080fd5b813561363a613635826135ef565b6135bf565b81815284602083860101111561364f57600080fd5b816020850160208301376000918101602001919091529392505050565b8035801515811461332b57600080fd5b600080600080600060a0868803121561369457600080fd5b61369d86613319565b945060208601356001600160401b03808211156136b957600080fd5b6136c589838a01613616565b9550604088013594506136da6060890161366c565b935060808801359150808211156136f057600080fd5b506136fd88828901613616565b9150509295509295909350565b60008060006040848603121561371f57600080fd5b61372884613319565b925060208401356001600160401b0381111561374357600080fd5b61374f86828701613330565b9497909650939450505050565b600080600080600080600060e0888a03121561377757600080fd5b873561378281613500565b965061379060208901613319565b955060408801356001600160401b03808211156137ac57600080fd5b6137b88b838c01613616565b965060608a0135955060808a013591506137d182613500565b90935060a0890135906137e382613500565b90925060c089013590808211156137f957600080fd5b506138068a828b01613616565b91505092959891949750929550565b60008060006060848603121561382a57600080fd5b61383384613319565b925060208401356001600160401b0381111561384e57600080fd5b61385a86828701613616565b92505061386960408501613378565b90509250925092565b60006020828403121561388457600080fd5b813561179381613500565b600080604083850312156138a257600080fd5b6138ab83613319565b91506138b960208401613319565b90509250929050565b6000602082840312156138d457600080fd5b81356001600160401b038111156138ea57600080fd5b611f7884828501613616565b6000806040838503121561390957600080fd5b823561391481613500565b91506138b96020840161366c565b60006001600160401b0382111561393b5761393b6135a9565b5060051b60200190565b600082601f83011261395657600080fd5b8135602061396661363583613922565b82815260059290921b8401810191818101908684111561398557600080fd5b8286015b848110156139a05780358352918301918301613989565b509695505050505050565b600080600080600080600060e0888a0312156139c657600080fd5b87356139d181613500565b96506139df60208901613319565b955060408801356001600160401b03808211156139fb57600080fd5b613a078b838c01613616565b965060608a0135915080821115613a1d57600080fd5b613a298b838c01613945565b955060808a01359150613a3b82613500565b819450613a4a60a08b01613515565b935060c08a01359150808211156137f957600080fd5b60008060008060808587031215613a7657600080fd5b8435613a8181613500565b93506020850135613a9181613500565b92506040850135915060608501356001600160401b03811115613ab357600080fd5b613abf87828801613616565b91505092959194509250565b600080600080600060808688031215613ae357600080fd5b613aec86613319565b9450613afa60208701613319565b93506040860135925060608601356001600160401b03811115613b1c57600080fd5b613b2888828901613330565b969995985093965092949392505050565b600080600060608486031215613b4e57600080fd5b613b5784613319565b9250613b6560208501613319565b9150604084013590509250925092565b60008060408385031215613b8857600080fd5b8235613b9381613500565b91506020830135613ba381613500565b809150509250929050565b600080600080600060a08688031215613bc657600080fd5b613bcf86613319565b945060208601356001600160401b0380821115613beb57600080fd5b613bf789838a01613616565b95506040880135915080821115613c0d57600080fd5b613c1989838a01613945565b94506136da6060890161366c565b60008060008060808587031215613c3d57600080fd5b613c4685613319565b9350613c5460208601613319565b92506040850135613c6481613500565b9396929550929360600135925050565b600181811c90821680613c8857607f821691505b602082108103613ca857634e487b7160e01b600052602260045260246000fd5b50919050565b8183823760009101908152919050565b6020808252602d908201527f4552433732313a2063616c6c6572206973206e6f7420746f6b656e206f776e6560408201526c1c881bdc88185c1c1c9bdd9959609a1b606082015260800190565b81835281816020850137506000828201602090810191909152601f909101601f19169091010190565b61ffff84168152604060208201526000611f75604083018486613d0b565b602080825260189082015277115490cdcc8c4e881a5b9d985b1a59081d1bdad95b88125160421b604082015260600190565b600082601f830112613d9557600080fd5b8151613da3613635826135ef565b818152846020838601011115613db857600080fd5b611f78826020830160208701613455565b60008060408385031215613ddc57600080fd5b82516001600160401b0380821115613df357600080fd5b613dff86838701613d84565b9350602091508185015181811115613e1657600080fd5b85019050601f81018613613e2957600080fd5b8051613e3761363582613922565b81815260059190911b82018301908381019088831115613e5657600080fd5b928401925b82841015613e7457835182529284019290840190613e5b565b80955050505050509250929050565b634e487b7160e01b600052601160045260246000fd5b81810381811115610bd057610bd0613e83565b8284823760609190911b6001600160601b0319169101908152601401919050565b601f821115610e2857600081815260208120601f850160051c81016020861015613ef45750805b601f850160051c820191505b8181101561122857828155600101613f00565b600019600383901b1c191660019190911b1790565b81516001600160401b03811115613f4157613f416135a9565b613f5581613f4f8454613c74565b84613ecd565b602080601f831160018114613f845760008415613f725750858301515b613f7c8582613f13565b865550611228565b600085815260208120601f198616915b82811015613fb357888601518255948401946001909101908401613f94565b5085821015613fd15787850151600019600388901b60f8161c191681555b5050505050600190811b01905550565b60008351613ff3818460208801613455565b835190830190614007818360208801613455565b01949350505050565b600061ffff80881683528087166020840152508460408301526080606083015261403e608083018486613d0b565b979650505050505050565b61ffff86168152608060208201526000614067608083018688613d0b565b6001600160401b0394909416604083015250606001529392505050565b6001600160401b0383111561409b5761409b6135a9565b6140af836140a98354613c74565b83613ecd565b6000601f8411600181146140dd57600085156140cb5750838201355b6140d58682613f13565b845550610cea565b600083815260209020601f19861690835b8281101561410e57868501358255602094850194600190920191016140ee565b508682101561412b5760001960f88860031b161c19848701351681555b505060018560011b0183555050505050565b600081518084526020808501945080840160005b8381101561416d57815187529582019590820190600101614151565b509495945050505050565b60408152600061418b6040830185613479565b828103602084015261419d818561413d565b95945050505050565b61ffff861681526001600160a01b038516602082015260a0604082018190526000906141d490830186613479565b841515606084015282810360808401526141ee8185613479565b98975050505050505050565b6000806040838503121561420d57600080fd5b505080516020909101519092909150565b60006020828403121561423057600080fd5b81516001600160401b0381111561424657600080fd5b611f7884828501613d84565b61ffff8516815260806020820152600061426f6080830186613479565b6001600160401b0385166040840152828103606084015261403e8185613479565b60208082526025908201527f4552433732313a207472616e736665722066726f6d20696e636f72726563742060408201526437bbb732b960d91b606082015260800190565b634e487b7160e01b600052603260045260246000fd5b6000600182016142fd576142fd613e83565b5060010190565b8082028115828204841417610bd057610bd0613e83565b6000825161432d818460208701613455565b9190910192915050565b602081526000611793602083018461413d565b828152604060208201526000611f786040830184613479565b80820180821115610bd057610bd0613e83565b60208082526032908201527f4552433732313a207472616e7366657220746f206e6f6e20455243373231526560408201527131b2b4bb32b91034b6b83632b6b2b73a32b960711b606082015260800190565b61ffff8616815260a0602082015260006143e560a0830187613479565b6001600160401b038616604084015282810360608401526144068186613479565b905082810360808401526141ee8185613479565b61ffff8716815260c06020820152600061443760c0830188613479565b82810360408401526144498188613479565b6001600160a01b0387811660608601528616608085015283810360a085015290506144748185613479565b9998505050505050505050565b6001600160a01b03858116825284166020820152604081018390526080606082018190526000906144b490830184613479565b9695505050505050565b6000602082840312156144d057600080fd5b815161179381613422565b6020808252601c908201527b115490cdcc8c4e881d1bdad95b88185b1c9958591e481b5a5b9d195960221b60408201526060019056feddf252ad1be2c89b69c2b068fc378daa952ba7f163c4a11628f55a4df523b3efa2646970667358221220bff1b5f955192a11071ce47fbcc9666911a08464985d5271a28057beb312ef0d64736f6c63430008120033",
  "linkReferences": {},
  "deployedLinkReferences": {}
}