{
  "_format": "hh-sol-artifact-1",
  "contractName": "Token",
  "sourceName": "contracts/Token.sol",
  "abi": [
    {
      "inputs": [],
      "stateMutability": "nonpayable",
      "type": "constructor"
    },
    {
      "anonymous": false,
      "inputs": [
        {
          "indexed": true,
          "internalType": "address",
          "name": "_from",
          "type": "address"
        },
        {
          "indexed": true,
          "internalType": "address",
          "name": "_to",
          "type": "address"
        },
        {
          "indexed": false,
          "internalType": "uint256",
          "name": "_value",
          "type": "uint256"
        }
      ],
      "name": "Transfer",
      "type": "event"
    },
    {
      "inputs": [],
      "name": "AA",
      "outputs": [],
      "stateMutability": "view",
      "type": "function"
    },
    {
      "inputs": [],
      "name": "BB",
      "outputs": [],
      "stateMutability": "view",
      "type": "function"
    },
    {
      "inputs": [
        {
          "internalType": "uint256",
          "name": "element",
          "type": "uint256"
        }
      ],
      "name": "addElement",
      "outputs": [],
      "stateMutability": "nonpayable",
      "type": "function"
    },
    {
      "inputs": [
        {
          "internalType": "address",
          "name": "account",
          "type": "address"
        }
      ],
      "name": "balanceOf",
      "outputs": [
        {
          "internalType": "uint256",
          "name": "",
          "type": "uint256"
        }
      ],
      "stateMutability": "view",
      "type": "function"
    },
    {
      "inputs": [],
      "name": "encode",
      "outputs": [
        {
          "internalType": "bytes",
          "name": "",
          "type": "bytes"
        }
      ],
      "stateMutability": "pure",
      "type": "function"
    },
    {
      "inputs": [],
      "name": "encodePack",
      "outputs": [
        {
          "internalType": "bytes",
          "name": "",
          "type": "bytes"
        }
      ],
      "stateMutability": "pure",
      "type": "function"
    },
    {
      "inputs": [
        {
          "components": [
            {
              "components": [
                {
                  "internalType": "address",
                  "name": "receiver",
                  "type": "address"
                },
                {
                  "internalType": "address",
                  "name": "callbackContract",
                  "type": "address"
                },
                {
                  "internalType": "address",
                  "name": "uiFeeReceiver",
                  "type": "address"
                },
                {
                  "internalType": "address",
                  "name": "market",
                  "type": "address"
                },
                {
                  "internalType": "address",
                  "name": "initialCollateralToken",
                  "type": "address"
                },
                {
                  "internalType": "address[]",
                  "name": "swapPath",
                  "type": "address[]"
                }
              ],
              "internalType": "struct Token.CreateOrderParamsAddresses",
              "name": "addresses",
              "type": "tuple"
            },
            {
              "components": [
                {
                  "internalType": "uint256",
                  "name": "sizeDeltaUsd",
                  "type": "uint256"
                },
                {
                  "internalType": "uint256",
                  "name": "initialCollateralDeltaAmount",
                  "type": "uint256"
                },
                {
                  "internalType": "uint256",
                  "name": "triggerPrice",
                  "type": "uint256"
                },
                {
                  "internalType": "uint256",
                  "name": "acceptablePrice",
                  "type": "uint256"
                },
                {
                  "internalType": "uint256",
                  "name": "executionFee",
                  "type": "uint256"
                },
                {
                  "internalType": "uint256",
                  "name": "callbackGasLimit",
                  "type": "uint256"
                },
                {
                  "internalType": "uint256",
                  "name": "minOutputAmount",
                  "type": "uint256"
                }
              ],
              "internalType": "struct Token.CreateOrderParamsNumbers",
              "name": "numbers",
              "type": "tuple"
            },
            {
              "internalType": "enum Token.OrderType",
              "name": "orderType",
              "type": "uint8"
            },
            {
              "internalType": "enum Token.DecreasePositionSwapType",
              "name": "decreasePositionSwapType",
              "type": "uint8"
            },
            {
              "internalType": "bool",
              "name": "isLong",
              "type": "bool"
            },
            {
              "internalType": "bool",
              "name": "shouldUnwrapNativeToken",
              "type": "bool"
            },
            {
              "internalType": "bytes32",
              "name": "referralCode",
              "type": "bytes32"
            }
          ],
          "internalType": "struct Token.CreateOrderParams",
          "name": "data",
          "type": "tuple"
        }
      ],
      "name": "encodeStruct",
      "outputs": [
        {
          "internalType": "bytes",
          "name": "",
          "type": "bytes"
        }
      ],
      "stateMutability": "pure",
      "type": "function"
    },
    {
      "inputs": [],
      "name": "encodes",
      "outputs": [
        {
          "internalType": "bytes",
          "name": "",
          "type": "bytes"
        },
        {
          "internalType": "bytes",
          "name": "",
          "type": "bytes"
        }
      ],
      "stateMutability": "pure",
      "type": "function"
    },
    {
      "inputs": [],
      "name": "getArrayLength",
      "outputs": [
        {
          "internalType": "uint256",
          "name": "",
          "type": "uint256"
        }
      ],
      "stateMutability": "view",
      "type": "function"
    },
    {
      "inputs": [
        {
          "internalType": "address",
          "name": "deployer",
          "type": "address"
        }
      ],
      "name": "getCreate2Prefix",
      "outputs": [
        {
          "internalType": "bytes32",
          "name": "create2Prefix",
          "type": "bytes32"
        }
      ],
      "stateMutability": "pure",
      "type": "function"
    },
    {
      "inputs": [],
      "name": "getCurrentTimestamp",
      "outputs": [
        {
          "internalType": "uint256",
          "name": "",
          "type": "uint256"
        }
      ],
      "stateMutability": "view",
      "type": "function"
    },
    {
      "inputs": [],
      "name": "getData",
      "outputs": [
        {
          "internalType": "uint256",
          "name": "",
          "type": "uint256"
        }
      ],
      "stateMutability": "pure",
      "type": "function"
    },
    {
      "inputs": [],
      "name": "getPNL",
      "outputs": [
        {
          "internalType": "bytes32",
          "name": "",
          "type": "bytes32"
        }
      ],
      "stateMutability": "pure",
      "type": "function"
    },
    {
      "inputs": [
        {
          "internalType": "address",
          "name": "",
          "type": "address"
        }
      ],
      "name": "myAddressMapping",
      "outputs": [
        {
          "internalType": "uint256",
          "name": "",
          "type": "uint256"
        }
      ],
      "stateMutability": "view",
      "type": "function"
    },
    {
      "inputs": [
        {
          "internalType": "uint256",
          "name": "",
          "type": "uint256"
        }
      ],
      "name": "myArray",
      "outputs": [
        {
          "internalType": "uint256",
          "name": "",
          "type": "uint256"
        }
      ],
      "stateMutability": "view",
      "type": "function"
    },
    {
      "inputs": [],
      "name": "name",
      "outputs": [
        {
          "internalType": "string",
          "name": "",
          "type": "string"
        }
      ],
      "stateMutability": "view",
      "type": "function"
    },
    {
      "inputs": [],
      "name": "owner",
      "outputs": [
        {
          "internalType": "address",
          "name": "",
          "type": "address"
        }
      ],
      "stateMutability": "view",
      "type": "function"
    },
    {
      "inputs": [],
      "name": "removeAllMembers",
      "outputs": [],
      "stateMutability": "nonpayable",
      "type": "function"
    },
    {
      "inputs": [],
      "name": "revertFun",
      "outputs": [
        {
          "internalType": "uint256",
          "name": "",
          "type": "uint256"
        }
      ],
      "stateMutability": "view",
      "type": "function"
    },
    {
      "inputs": [
        {
          "internalType": "address",
          "name": "user",
          "type": "address"
        }
      ],
      "name": "setAddressMapping",
      "outputs": [],
      "stateMutability": "nonpayable",
      "type": "function"
    },
    {
      "inputs": [],
      "name": "storeAndLoadValue",
      "outputs": [
        {
          "internalType": "uint256",
          "name": "",
          "type": "uint256"
        }
      ],
      "stateMutability": "pure",
      "type": "function"
    },
    {
      "inputs": [],
      "name": "symbol",
      "outputs": [
        {
          "internalType": "string",
          "name": "",
          "type": "string"
        }
      ],
      "stateMutability": "view",
      "type": "function"
    },
    {
      "inputs": [],
      "name": "totalSupply",
      "outputs": [
        {
          "internalType": "uint256",
          "name": "",
          "type": "uint256"
        }
      ],
      "stateMutability": "view",
      "type": "function"
    },
    {
      "inputs": [
        {
          "internalType": "address",
          "name": "to",
          "type": "address"
        },
        {
          "internalType": "uint256",
          "name": "amount",
          "type": "uint256"
        }
      ],
      "name": "transfer",
      "outputs": [],
      "stateMutability": "nonpayable",
      "type": "function"
    },
    {
      "inputs": [],
      "name": "updateData",
      "outputs": [
        {
          "internalType": "uint256",
          "name": "",
          "type": "uint256"
        }
      ],
      "stateMutability": "pure",
      "type": "function"
    }
  ],
  "bytecode": "0x60806040526040518060400160405280601081526020017f4d79204861726468617420546f6b656e00000000000000000000000000000000815250600090816200004a9190620003ae565b506040518060400160405280600381526020017f4d4854000000000000000000000000000000000000000000000000000000000081525060019081620000919190620003ae565b50620f4240600255348015620000a657600080fd5b50600254600460003373ffffffffffffffffffffffffffffffffffffffff1673ffffffffffffffffffffffffffffffffffffffff1681526020019081526020016000208190555033600360006101000a81548173ffffffffffffffffffffffffffffffffffffffff021916908373ffffffffffffffffffffffffffffffffffffffff16021790555062000495565b600081519050919050565b7f4e487b7100000000000000000000000000000000000000000000000000000000600052604160045260246000fd5b7f4e487b7100000000000000000000000000000000000000000000000000000000600052602260045260246000fd5b60006002820490506001821680620001b657607f821691505b602082108103620001cc57620001cb6200016e565b5b50919050565b60008190508160005260206000209050919050565b60006020601f8301049050919050565b600082821b905092915050565b600060088302620002367fffffffffffffffffffffffffffffffffffffffffffffffffffffffffffffffff82620001f7565b620002428683620001f7565b95508019841693508086168417925050509392505050565b6000819050919050565b6000819050919050565b60006200028f6200028962000283846200025a565b62000264565b6200025a565b9050919050565b6000819050919050565b620002ab836200026e565b620002c3620002ba8262000296565b84845462000204565b825550505050565b600090565b620002da620002cb565b620002e7818484620002a0565b505050565b5b818110156200030f5762000303600082620002d0565b600181019050620002ed565b5050565b601f8211156200035e576200032881620001d2565b6200033384620001e7565b8101602085101562000343578190505b6200035b6200035285620001e7565b830182620002ec565b50505b505050565b600082821c905092915050565b6000620003836000198460080262000363565b1980831691505092915050565b60006200039e838362000370565b9150826002028217905092915050565b620003b98262000134565b67ffffffffffffffff811115620003d557620003d46200013f565b5b620003e182546200019d565b620003ee82828562000313565b600060209050601f83116001811462000426576000841562000411578287015190505b6200041d858262000390565b8655506200048d565b601f1984166200043686620001d2565b60005b82811015620004605784890151825560018201915060208501945060208101905062000439565b868310156200048057848901516200047c601f89168262000370565b8355505b6001600288020188555050505b505050505050565b611bee80620004a56000396000f3fe608060405234801561001057600080fd5b50600436106101735760003560e01c80638591b540116100de578063997da8d411610097578063b92ba3b811610071578063b92ba3b8146103e5578063bd14598f14610415578063cc3e57d914610433578063f5d9612d1461046357610173565b8063997da8d4146103a1578063a9059cbb146103ab578063aec8839b146103c757610173565b80638591b540146102da578063863f9dc51461030a5780638da5cb5b146103295780638e00a2bb1461034757806393a98e6c1461036557806395d89b411461038357610173565b80635727dc5c116101305780635727dc5c14610218578063672a800b146102225780636c9230db1461023e57806370a082311461025c5780637f9671f61461028c57806380a1dfb1146102bc57610173565b8063055230f91461017857806306fdde03146101965780630849cc99146101b457806318160ddd146101d25780632b3c8922146101f05780633bc5de30146101fa575b600080fd5b61018061047f565b60405161018d9190610cb3565b60405180910390f35b61019e610493565b6040516101ab9190610d5e565b60405180910390f35b6101bc610521565b6040516101c99190610cb3565b60405180910390f35b6101da61052e565b6040516101e79190610cb3565b60405180910390f35b6101f8610534565b005b610202610544565b60405161020f9190610cb3565b60405180910390f35b610220610583565b005b61023c60048036038101906102379190610df2565b610603565b005b61024661064b565b6040516102539190610cb3565b60405180910390f35b61027660048036038101906102719190610df2565b610653565b6040516102839190610cb3565b60405180910390f35b6102a660048036038101906102a1919061129b565b61069c565b6040516102b39190611339565b60405180910390f35b6102c46106c5565b6040516102d19190611339565b60405180910390f35b6102f460048036038101906102ef9190610df2565b6106ea565b604051610301919061136a565b60405180910390f35b61031261070b565b604051610320929190611385565b60405180910390f35b6103316107a4565b60405161033e91906113cb565b60405180910390f35b61034f6107ca565b60405161035c9190610cb3565b60405180910390f35b61036d6107f3565b60405161037a919061136a565b60405180910390f35b61038b61081f565b6040516103989190610d5e565b60405180910390f35b6103a96108ad565b005b6103c560048036038101906103c091906113e6565b6108f6565b005b6103cf610a8d565b6040516103dc9190610cb3565b60405180910390f35b6103ff60048036038101906103fa9190610df2565b610ada565b60405161040c9190610cb3565b60405180910390f35b61041d610af2565b60405161042a9190611339565b60405180910390f35b61044d60048036038101906104489190611426565b610b17565b60405161045a9190610cb3565b60405180910390f35b61047d60048036038101906104789190611426565b610b3b565b005b600080602a60205260205190508091505090565b600080546104a090611482565b80601f01602080910402602001604051908101604052809291908181526020018280546104cc90611482565b80156105195780601f106104ee57610100808354040283529160200191610519565b820191906000526020600020905b8154815290600101906020018083116104fc57829003601f168201915b505050505081565b6000600680549050905090565b60025481565b600660006105429190610c49565b565b600080600a90506000606490506000600a612710838561056491906114e2565b61056e9190611553565b61057891906114e2565b905080935050505090565b6105c26040518060400160405280600481526020017f42423a200000000000000000000000000000000000000000000000000000000081525033610b67565b6106016040518060400160405280600581526020017f746869733a00000000000000000000000000000000000000000000000000000081525030610b67565b565b6064600560008373ffffffffffffffffffffffffffffffffffffffff1673ffffffffffffffffffffffffffffffffffffffff1681526020019081526020016000208190555050565b600042905090565b6000600460008373ffffffffffffffffffffffffffffffffffffffff1673ffffffffffffffffffffffffffffffffffffffff168152602001908152602001600020549050919050565b6060816040516020016106af91906118e7565b6040516020818303038152906040529050919050565b60606040516020016106d690611960565b604051602081830303815290604052905090565b600074ff000000000000000000000000000000000000000082179050919050565b6060806000600a90506000600b90506000600c9050600083838360405160200161073793929190611975565b60405160208183030381529060405290506000848460405160200161075d9291906119ac565b6040516020818303038152906040529050600081846040516020016107839291906119d5565b60405160208183030381529060405290508281975097505050505050509091565b600360009054906101000a900473ffffffffffffffffffffffffffffffffffffffff1681565b60006107d4610c6a565b60648160000181815250506107e881610c03565b806000015191505090565b600060405160200161080490611a28565b60405160208183030381529060405280519060200120905090565b6001805461082c90611482565b80601f016020809104026020016040519081016040528092919081815260200182805461085890611482565b80156108a55780601f1061087a576101008083540402835291602001916108a5565b820191906000526020600020905b81548152906001019060200180831161088857829003601f168201915b505050505081565b6108ec6040518060400160405280600481526020017f41413a200000000000000000000000000000000000000000000000000000000081525033610b67565b6108f4610583565b565b80600460003373ffffffffffffffffffffffffffffffffffffffff1673ffffffffffffffffffffffffffffffffffffffff168152602001908152602001600020541015610978576040517f08c379a000000000000000000000000000000000000000000000000000000000815260040161096f90611a94565b60405180910390fd5b80600460003373ffffffffffffffffffffffffffffffffffffffff1673ffffffffffffffffffffffffffffffffffffffff16815260200190815260200160002060008282546109c79190611ab4565b9250508190555080600460008473ffffffffffffffffffffffffffffffffffffffff1673ffffffffffffffffffffffffffffffffffffffff1681526020019081526020016000206000828254610a1d9190611ae8565b925050819055508173ffffffffffffffffffffffffffffffffffffffff163373ffffffffffffffffffffffffffffffffffffffff167fddf252ad1be2c89b69c2b068fc378daa952ba7f163c4a11628f55a4df523b3ef83604051610a819190610cb3565b60405180910390a35050565b600080610acf576040517f08c379a0000000000000000000000000000000000000000000000000000000008152600401610ac690611b68565b60405180910390fd5b600680549050905090565b60056020528060005260406000206000915090505481565b6060604051602001610b0390611a28565b604051602081830303815290604052905090565b60068181548110610b2757600080fd5b906000526020600020016000915090505481565b600681908060018154018082558091505060019003906000526020600020016000909190919091505550565b610bff8282604051602401610b7d929190611b88565b6040516020818303038152906040527f319af333000000000000000000000000000000000000000000000000000000007bffffffffffffffffffffffffffffffffffffffffffffffffffffffff19166020820180517bffffffffffffffffffffffffffffffffffffffffffffffffffffffff8381831617835250505050610c20565b5050565b60018160000151610c149190611ae8565b81600001818152505050565b60008151905060006a636f6e736f6c652e6c6f679050602083016000808483855afa5050505050565b5080546000825590600052602060002090810190610c679190610c7d565b50565b6040518060200160405280600081525090565b5b80821115610c96576000816000905550600101610c7e565b5090565b6000819050919050565b610cad81610c9a565b82525050565b6000602082019050610cc86000830184610ca4565b92915050565b600081519050919050565b600082825260208201905092915050565b60005b83811015610d08578082015181840152602081019050610ced565b60008484015250505050565b6000601f19601f8301169050919050565b6000610d3082610cce565b610d3a8185610cd9565b9350610d4a818560208601610cea565b610d5381610d14565b840191505092915050565b60006020820190508181036000830152610d788184610d25565b905092915050565b6000604051905090565b600080fd5b600080fd5b600073ffffffffffffffffffffffffffffffffffffffff82169050919050565b6000610dbf82610d94565b9050919050565b610dcf81610db4565b8114610dda57600080fd5b50565b600081359050610dec81610dc6565b92915050565b600060208284031215610e0857610e07610d8a565b5b6000610e1684828501610ddd565b91505092915050565b600080fd5b7f4e487b7100000000000000000000000000000000000000000000000000000000600052604160045260246000fd5b610e5c82610d14565b810181811067ffffffffffffffff82111715610e7b57610e7a610e24565b5b80604052505050565b6000610e8e610d80565b9050610e9a8282610e53565b919050565b600080fd5b600080fd5b600067ffffffffffffffff821115610ec457610ec3610e24565b5b602082029050602081019050919050565b600080fd5b6000610eed610ee884610ea9565b610e84565b90508083825260208201905060208402830185811115610f1057610f0f610ed5565b5b835b81811015610f395780610f258882610ddd565b845260208401935050602081019050610f12565b5050509392505050565b600082601f830112610f5857610f57610ea4565b5b8135610f68848260208601610eda565b91505092915050565b600060c08284031215610f8757610f86610e1f565b5b610f9160c0610e84565b90506000610fa184828501610ddd565b6000830152506020610fb584828501610ddd565b6020830152506040610fc984828501610ddd565b6040830152506060610fdd84828501610ddd565b6060830152506080610ff184828501610ddd565b60808301525060a082013567ffffffffffffffff81111561101557611014610e9f565b5b61102184828501610f43565b60a08301525092915050565b61103681610c9a565b811461104157600080fd5b50565b6000813590506110538161102d565b92915050565b600060e0828403121561106f5761106e610e1f565b5b61107960e0610e84565b9050600061108984828501611044565b600083015250602061109d84828501611044565b60208301525060406110b184828501611044565b60408301525060606110c584828501611044565b60608301525060806110d984828501611044565b60808301525060a06110ed84828501611044565b60a08301525060c061110184828501611044565b60c08301525092915050565b6008811061111a57600080fd5b50565b60008135905061112c8161110d565b92915050565b6003811061113f57600080fd5b50565b60008135905061115181611132565b92915050565b60008115159050919050565b61116c81611157565b811461117757600080fd5b50565b60008135905061118981611163565b92915050565b6000819050919050565b6111a28161118f565b81146111ad57600080fd5b50565b6000813590506111bf81611199565b92915050565b60006101a082840312156111dc576111db610e1f565b5b6111e660e0610e84565b9050600082013567ffffffffffffffff81111561120657611205610e9f565b5b61121284828501610f71565b600083015250602061122684828501611059565b60208301525061010061123b8482850161111d565b60408301525061012061125084828501611142565b6060830152506101406112658482850161117a565b60808301525061016061127a8482850161117a565b60a08301525061018061128f848285016111b0565b60c08301525092915050565b6000602082840312156112b1576112b0610d8a565b5b600082013567ffffffffffffffff8111156112cf576112ce610d8f565b5b6112db848285016111c5565b91505092915050565b600081519050919050565b600082825260208201905092915050565b600061130b826112e4565b61131581856112ef565b9350611325818560208601610cea565b61132e81610d14565b840191505092915050565b600060208201905081810360008301526113538184611300565b905092915050565b6113648161118f565b82525050565b600060208201905061137f600083018461135b565b92915050565b6000604082019050818103600083015261139f8185611300565b905081810360208301526113b38184611300565b90509392505050565b6113c581610db4565b82525050565b60006020820190506113e060008301846113bc565b92915050565b600080604083850312156113fd576113fc610d8a565b5b600061140b85828601610ddd565b925050602061141c85828601611044565b9150509250929050565b60006020828403121561143c5761143b610d8a565b5b600061144a84828501611044565b91505092915050565b7f4e487b7100000000000000000000000000000000000000000000000000000000600052602260045260246000fd5b6000600282049050600182168061149a57607f821691505b6020821081036114ad576114ac611453565b5b50919050565b7f4e487b7100000000000000000000000000000000000000000000000000000000600052601160045260246000fd5b60006114ed82610c9a565b91506114f883610c9a565b925082820261150681610c9a565b9150828204841483151761151d5761151c6114b3565b5b5092915050565b7f4e487b7100000000000000000000000000000000000000000000000000000000600052601260045260246000fd5b600061155e82610c9a565b915061156983610c9a565b92508261157957611578611524565b5b828204905092915050565b61158d81610db4565b82525050565b600081519050919050565b600082825260208201905092915050565b6000819050602082019050919050565b60006115cb8383611584565b60208301905092915050565b6000602082019050919050565b60006115ef82611593565b6115f9818561159e565b9350611604836115af565b8060005b8381101561163557815161161c88826115bf565b9750611627836115d7565b925050600181019050611608565b5085935050505092915050565b600060c08301600083015161165a6000860182611584565b50602083015161166d6020860182611584565b5060408301516116806040860182611584565b5060608301516116936060860182611584565b5060808301516116a66080860182611584565b5060a083015184820360a08601526116be82826115e4565b9150508091505092915050565b6116d481610c9a565b82525050565b60e0820160008201516116f060008501826116cb565b50602082015161170360208501826116cb565b50604082015161171660408501826116cb565b50606082015161172960608501826116cb565b50608082015161173c60808501826116cb565b5060a082015161174f60a08501826116cb565b5060c082015161176260c08501826116cb565b50505050565b7f4e487b7100000000000000000000000000000000000000000000000000000000600052602160045260246000fd5b600881106117a8576117a7611768565b5b50565b60008190506117b982611797565b919050565b60006117c9826117ab565b9050919050565b6117d9816117be565b82525050565b600381106117f0576117ef611768565b5b50565b6000819050611801826117df565b919050565b6000611811826117f3565b9050919050565b61182181611806565b82525050565b61183081611157565b82525050565b61183f8161118f565b82525050565b60006101a08301600083015184820360008601526118638282611642565b915050602083015161187860208601826116da565b50604083015161188c6101008601826117d0565b5060608301516118a0610120860182611818565b5060808301516118b4610140860182611827565b5060a08301516118c8610160860182611827565b5060c08301516118dc610180860182611836565b508091505092915050565b600060208201905081810360008301526119018184611845565b905092915050565b600081905092915050565b7f4d41585f504e4c5f464143544f525f464f525f54524144455253000000000000600082015250565b600061194a601a83611909565b915061195582611914565b601a82019050919050565b600061196b8261193d565b9150819050919050565b600060608201905061198a6000830186610ca4565b6119976020830185610ca4565b6119a46040830184610ca4565b949350505050565b60006040820190506119c16000830185610ca4565b6119ce6020830184610ca4565b9392505050565b600060408201905081810360008301526119ef8185611300565b90506119fe6020830184610ca4565b9392505050565b6000611a12601a83610cd9565b9150611a1d82611914565b602082019050919050565b60006020820190508181036000830152611a4181611a05565b9050919050565b7f4e6f7420656e6f75676820746f6b656e73000000000000000000000000000000600082015250565b6000611a7e601183610cd9565b9150611a8982611a48565b602082019050919050565b60006020820190508181036000830152611aad81611a71565b9050919050565b6000611abf82610c9a565b9150611aca83610c9a565b9250828203905081811115611ae257611ae16114b3565b5b92915050565b6000611af382610c9a565b9150611afe83610c9a565b9250828201905080821115611b1657611b156114b3565b5b92915050565b7f72657665727446756e0000000000000000000000000000000000000000000000600082015250565b6000611b52600983610cd9565b9150611b5d82611b1c565b602082019050919050565b60006020820190508181036000830152611b8181611b45565b9050919050565b60006040820190508181036000830152611ba28185610d25565b9050611bb160208301846113bc565b939250505056fea2646970667358221220914c05e0dae990452267b918aeba156fd1680b2de2a943da492367ab5b07dcfd64736f6c63430008120033",
  "linkReferences": {},
  "deployedLinkReferences": {}
}