{
  "_format": "hh-sol-artifact-1",
  "contractName": "HopliteNFT",
  "sourceName": "contracts/HopliteNFT.sol",
  "abi": [
    {
      "inputs": [
        {
          "internalType": "string",
          "name": "baseURI",
          "type": "string"
        },
        {
          "internalType": "uint256",
          "name": "_goLiveDate",
          "type": "uint256"
        },
        {
          "internalType": "uint256",
          "name": "_minGasToTransfer",
          "type": "uint256"
        },
        {
          "internalType": "address",
          "name": "_lzEndpoint",
          "type": "address"
        }
      ],
      "stateMutability": "nonpayable",
      "type": "constructor"
    },
    {
      "inputs": [],
      "name": "NotWhiteList",
      "type": "error"
    },
    {
      "inputs": [],
      "name": "TooHigh",
      "type": "error"
    },
    {
      "anonymous": false,
      "inputs": [
        {
          "indexed": true,
          "internalType": "address",
          "name": "owner",
          "type": "address"
        },
        {
          "indexed": true,
          "internalType": "address",
          "name": "approved",
          "type": "address"
        },
        {
          "indexed": true,
          "internalType": "uint256",
          "name": "tokenId",
          "type": "uint256"
        }
      ],
      "name": "Approval",
      "type": "event"
    },
    {
      "anonymous": false,
      "inputs": [
        {
          "indexed": true,
          "internalType": "address",
          "name": "owner",
          "type": "address"
        },
        {
          "indexed": true,
          "internalType": "address",
          "name": "operator",
          "type": "address"
        },
        {
          "indexed": false,
          "internalType": "bool",
          "name": "approved",
          "type": "bool"
        }
      ],
      "name": "ApprovalForAll",
      "type": "event"
    },
    {
      "anonymous": false,
      "inputs": [
        {
          "indexed": false,
          "internalType": "bytes32",
          "name": "_hashedPayload",
          "type": "bytes32"
        }
      ],
      "name": "CreditCleared",
      "type": "event"
    },
    {
      "anonymous": false,
      "inputs": [
        {
          "indexed": false,
          "internalType": "bytes32",
          "name": "_hashedPayload",
          "type": "bytes32"
        },
        {
          "indexed": false,
          "internalType": "bytes",
          "name": "_payload",
          "type": "bytes"
        }
      ],
      "name": "CreditStored",
      "type": "event"
    },
    {
      "anonymous": false,
      "inputs": [
        {
          "indexed": false,
          "internalType": "uint16",
          "name": "_srcChainId",
          "type": "uint16"
        },
        {
          "indexed": false,
          "internalType": "bytes",
          "name": "_srcAddress",
          "type": "bytes"
        },
        {
          "indexed": false,
          "internalType": "uint64",
          "name": "_nonce",
          "type": "uint64"
        },
        {
          "indexed": false,
          "internalType": "bytes",
          "name": "_payload",
          "type": "bytes"
        },
        {
          "indexed": false,
          "internalType": "bytes",
          "name": "_reason",
          "type": "bytes"
        }
      ],
      "name": "MessageFailed",
      "type": "event"
    },
    {
      "anonymous": false,
      "inputs": [
        {
          "indexed": false,
          "internalType": "uint256",
          "name": "newRoyalty",
          "type": "uint256"
        }
      ],
      "name": "NewRoyalty",
      "type": "event"
    },
    {
      "anonymous": false,
      "inputs": [
        {
          "indexed": true,
          "internalType": "address",
          "name": "previousOwner",
          "type": "address"
        },
        {
          "indexed": true,
          "internalType": "address",
          "name": "newOwner",
          "type": "address"
        }
      ],
      "name": "OwnershipTransferred",
      "type": "event"
    },
    {
      "anonymous": false,
      "inputs": [
        {
          "indexed": true,
          "internalType": "uint16",
          "name": "_srcChainId",
          "type": "uint16"
        },
        {
          "indexed": true,
          "internalType": "bytes",
          "name": "_srcAddress",
          "type": "bytes"
        },
        {
          "indexed": true,
          "internalType": "address",
          "name": "_toAddress",
          "type": "address"
        },
        {
          "indexed": false,
          "internalType": "uint256[]",
          "name": "_tokenIds",
          "type": "uint256[]"
        }
      ],
      "name": "ReceiveFromChain",
      "type": "event"
    },
    {
      "anonymous": false,
      "inputs": [
        {
          "indexed": false,
          "internalType": "uint16",
          "name": "_srcChainId",
          "type": "uint16"
        },
        {
          "indexed": false,
          "internalType": "bytes",
          "name": "_srcAddress",
          "type": "bytes"
        },
        {
          "indexed": false,
          "internalType": "uint64",
          "name": "_nonce",
          "type": "uint64"
        },
        {
          "indexed": false,
          "internalType": "bytes32",
          "name": "_payloadHash",
          "type": "bytes32"
        }
      ],
      "name": "RetryMessageSuccess",
      "type": "event"
    },
    {
      "anonymous": false,
      "inputs": [
        {
          "indexed": true,
          "internalType": "uint16",
          "name": "_dstChainId",
          "type": "uint16"
        },
        {
          "indexed": true,
          "internalType": "address",
          "name": "_from",
          "type": "address"
        },
        {
          "indexed": true,
          "internalType": "bytes",
          "name": "_toAddress",
          "type": "bytes"
        },
        {
          "indexed": false,
          "internalType": "uint256[]",
          "name": "_tokenIds",
          "type": "uint256[]"
        }
      ],
      "name": "SendToChain",
      "type": "event"
    },
    {
      "anonymous": false,
      "inputs": [
        {
          "indexed": false,
          "internalType": "uint16",
          "name": "_dstChainId",
          "type": "uint16"
        },
        {
          "indexed": false,
          "internalType": "uint256",
          "name": "_dstChainIdToBatchLimit",
          "type": "uint256"
        }
      ],
      "name": "SetDstChainIdToBatchLimit",
      "type": "event"
    },
    {
      "anonymous": false,
      "inputs": [
        {
          "indexed": false,
          "internalType": "uint16",
          "name": "_dstChainId",
          "type": "uint16"
        },
        {
          "indexed": false,
          "internalType": "uint256",
          "name": "_dstChainIdToTransferGas",
          "type": "uint256"
        }
      ],
      "name": "SetDstChainIdToTransferGas",
      "type": "event"
    },
    {
      "anonymous": false,
      "inputs": [
        {
          "indexed": false,
          "internalType": "uint16",
          "name": "_dstChainId",
          "type": "uint16"
        },
        {
          "indexed": false,
          "internalType": "uint16",
          "name": "_type",
          "type": "uint16"
        },
        {
          "indexed": false,
          "internalType": "uint256",
          "name": "_minDstGas",
          "type": "uint256"
        }
      ],
      "name": "SetMinDstGas",
      "type": "event"
    },
    {
      "anonymous": false,
      "inputs": [
        {
          "indexed": false,
          "internalType": "uint256",
          "name": "_minGasToTransferAndStore",
          "type": "uint256"
        }
      ],
      "name": "SetMinGasToTransferAndStore",
      "type": "event"
    },
    {
      "anonymous": false,
      "inputs": [
        {
          "indexed": false,
          "internalType": "address",
          "name": "precrime",
          "type": "address"
        }
      ],
      "name": "SetPrecrime",
      "type": "event"
    },
    {
      "anonymous": false,
      "inputs": [
        {
          "indexed": false,
          "internalType": "uint16",
          "name": "_remoteChainId",
          "type": "uint16"
        },
        {
          "indexed": false,
          "internalType": "bytes",
          "name": "_path",
          "type": "bytes"
        }
      ],
      "name": "SetTrustedRemote",
      "type": "event"
    },
    {
      "anonymous": false,
      "inputs": [
        {
          "indexed": false,
          "internalType": "uint16",
          "name": "_remoteChainId",
          "type": "uint16"
        },
        {
          "indexed": false,
          "internalType": "bytes",
          "name": "_remoteAddress",
          "type": "bytes"
        }
      ],
      "name": "SetTrustedRemoteAddress",
      "type": "event"
    },
    {
      "anonymous": false,
      "inputs": [
        {
          "indexed": true,
          "internalType": "address",
          "name": "from",
          "type": "address"
        },
        {
          "indexed": true,
          "internalType": "address",
          "name": "to",
          "type": "address"
        },
        {
          "indexed": true,
          "internalType": "uint256",
          "name": "tokenId",
          "type": "uint256"
        }
      ],
      "name": "Transfer",
      "type": "event"
    },
    {
      "inputs": [],
      "name": "DEFAULT_PAYLOAD_SIZE_LIMIT",
      "outputs": [
        {
          "internalType": "uint256",
          "name": "",
          "type": "uint256"
        }
      ],
      "stateMutability": "view",
      "type": "function"
    },
    {
      "inputs": [],
      "name": "FUNCTION_TYPE_SEND",
      "outputs": [
        {
          "internalType": "uint16",
          "name": "",
          "type": "uint16"
        }
      ],
      "stateMutability": "view",
      "type": "function"
    },
    {
      "inputs": [],
      "name": "MAX_SUPPLY",
      "outputs": [
        {
          "internalType": "uint256",
          "name": "",
          "type": "uint256"
        }
      ],
      "stateMutability": "view",
      "type": "function"
    },
    {
      "inputs": [
        {
          "internalType": "uint96",
          "name": "newRoyalty",
          "type": "uint96"
        }
      ],
      "name": "adjustRoyalty",
      "outputs": [],
      "stateMutability": "nonpayable",
      "type": "function"
    },
    {
      "inputs": [
        {
          "internalType": "address",
          "name": "to",
          "type": "address"
        },
        {
          "internalType": "uint256",
          "name": "tokenId",
          "type": "uint256"
        }
      ],
      "name": "approve",
      "outputs": [],
      "stateMutability": "nonpayable",
      "type": "function"
    },
    {
      "inputs": [
        {
          "internalType": "address",
          "name": "owner",
          "type": "address"
        }
      ],
      "name": "balanceOf",
      "outputs": [
        {
          "internalType": "uint256",
          "name": "",
          "type": "uint256"
        }
      ],
      "stateMutability": "view",
      "type": "function"
    },
    {
      "inputs": [],
      "name": "baseTokenURI",
      "outputs": [
        {
          "internalType": "string",
          "name": "",
          "type": "string"
        }
      ],
      "stateMutability": "view",
      "type": "function"
    },
    {
      "inputs": [
        {
          "internalType": "bytes",
          "name": "_payload",
          "type": "bytes"
        }
      ],
      "name": "clearCredits",
      "outputs": [],
      "stateMutability": "nonpayable",
      "type": "function"
    },
    {
      "inputs": [
        {
          "internalType": "uint16",
          "name": "",
          "type": "uint16"
        }
      ],
      "name": "dstChainIdToBatchLimit",
      "outputs": [
        {
          "internalType": "uint256",
          "name": "",
          "type": "uint256"
        }
      ],
      "stateMutability": "view",
      "type": "function"
    },
    {
      "inputs": [
        {
          "internalType": "uint16",
          "name": "",
          "type": "uint16"
        }
      ],
      "name": "dstChainIdToTransferGas",
      "outputs": [
        {
          "internalType": "uint256",
          "name": "",
          "type": "uint256"
        }
      ],
      "stateMutability": "view",
      "type": "function"
    },
    {
      "inputs": [
        {
          "internalType": "uint16",
          "name": "_dstChainId",
          "type": "uint16"
        },
        {
          "internalType": "bytes",
          "name": "_toAddress",
          "type": "bytes"
        },
        {
          "internalType": "uint256[]",
          "name": "_tokenIds",
          "type": "uint256[]"
        },
        {
          "internalType": "bool",
          "name": "_useZro",
          "type": "bool"
        },
        {
          "internalType": "bytes",
          "name": "_adapterParams",
          "type": "bytes"
        }
      ],
      "name": "estimateSendBatchFee",
      "outputs": [
        {
          "internalType": "uint256",
          "name": "nativeFee",
          "type": "uint256"
        },
        {
          "internalType": "uint256",
          "name": "zroFee",
          "type": "uint256"
        }
      ],
      "stateMutability": "view",
      "type": "function"
    },
    {
      "inputs": [
        {
          "internalType": "uint16",
          "name": "_dstChainId",
          "type": "uint16"
        },
        {
          "internalType": "bytes",
          "name": "_toAddress",
          "type": "bytes"
        },
        {
          "internalType": "uint256",
          "name": "_tokenId",
          "type": "uint256"
        },
        {
          "internalType": "bool",
          "name": "_useZro",
          "type": "bool"
        },
        {
          "internalType": "bytes",
          "name": "_adapterParams",
          "type": "bytes"
        }
      ],
      "name": "estimateSendFee",
      "outputs": [
        {
          "internalType": "uint256",
          "name": "nativeFee",
          "type": "uint256"
        },
        {
          "internalType": "uint256",
          "name": "zroFee",
          "type": "uint256"
        }
      ],
      "stateMutability": "view",
      "type": "function"
    },
    {
      "inputs": [
        {
          "internalType": "uint16",
          "name": "",
          "type": "uint16"
        },
        {
          "internalType": "bytes",
          "name": "",
          "type": "bytes"
        },
        {
          "internalType": "uint64",
          "name": "",
          "type": "uint64"
        }
      ],
      "name": "failedMessages",
      "outputs": [
        {
          "internalType": "bytes32",
          "name": "",
          "type": "bytes32"
        }
      ],
      "stateMutability": "view",
      "type": "function"
    },
    {
      "inputs": [
        {
          "internalType": "uint16",
          "name": "_srcChainId",
          "type": "uint16"
        },
        {
          "internalType": "bytes",
          "name": "_srcAddress",
          "type": "bytes"
        }
      ],
      "name": "forceResumeReceive",
      "outputs": [],
      "stateMutability": "nonpayable",
      "type": "function"
    },
    {
      "inputs": [
        {
          "internalType": "uint256",
          "name": "tokenId",
          "type": "uint256"
        }
      ],
      "name": "getApproved",
      "outputs": [
        {
          "internalType": "address",
          "name": "",
          "type": "address"
        }
      ],
      "stateMutability": "view",
      "type": "function"
    },
    {
      "inputs": [
        {
          "internalType": "uint16",
          "name": "_version",
          "type": "uint16"
        },
        {
          "internalType": "uint16",
          "name": "_chainId",
          "type": "uint16"
        },
        {
          "internalType": "address",
          "name": "",
          "type": "address"
        },
        {
          "internalType": "uint256",
          "name": "_configType",
          "type": "uint256"
        }
      ],
      "name": "getConfig",
      "outputs": [
        {
          "internalType": "bytes",
          "name": "",
          "type": "bytes"
        }
      ],
      "stateMutability": "view",
      "type": "function"
    },
    {
      "inputs": [
        {
          "internalType": "uint16",
          "name": "_remoteChainId",
          "type": "uint16"
        }
      ],
      "name": "getTrustedRemoteAddress",
      "outputs": [
        {
          "internalType": "bytes",
          "name": "",
          "type": "bytes"
        }
      ],
      "stateMutability": "view",
      "type": "function"
    },
    {
      "inputs": [],
      "name": "goLiveDate",
      "outputs": [
        {
          "internalType": "uint256",
          "name": "",
          "type": "uint256"
        }
      ],
      "stateMutability": "view",
      "type": "function"
    },
    {
      "inputs": [
        {
          "internalType": "address",
          "name": "owner",
          "type": "address"
        },
        {
          "internalType": "address",
          "name": "operator",
          "type": "address"
        }
      ],
      "name": "isApprovedForAll",
      "outputs": [
        {
          "internalType": "bool",
          "name": "",
          "type": "bool"
        }
      ],
      "stateMutability": "view",
      "type": "function"
    },
    {
      "inputs": [
        {
          "internalType": "uint16",
          "name": "_srcChainId",
          "type": "uint16"
        },
        {
          "internalType": "bytes",
          "name": "_srcAddress",
          "type": "bytes"
        }
      ],
      "name": "isTrustedRemote",
      "outputs": [
        {
          "internalType": "bool",
          "name": "",
          "type": "bool"
        }
      ],
      "stateMutability": "view",
      "type": "function"
    },
    {
      "inputs": [],
      "name": "lzEndpoint",
      "outputs": [
        {
          "internalType": "contract ILayerZeroEndpoint",
          "name": "",
          "type": "address"
        }
      ],
      "stateMutability": "view",
      "type": "function"
    },
    {
      "inputs": [
        {
          "internalType": "uint16",
          "name": "_srcChainId",
          "type": "uint16"
        },
        {
          "internalType": "bytes",
          "name": "_srcAddress",
          "type": "bytes"
        },
        {
          "internalType": "uint64",
          "name": "_nonce",
          "type": "uint64"
        },
        {
          "internalType": "bytes",
          "name": "_payload",
          "type": "bytes"
        }
      ],
      "name": "lzReceive",
      "outputs": [],
      "stateMutability": "nonpayable",
      "type": "function"
    },
    {
      "inputs": [
        {
          "internalType": "uint16",
          "name": "",
          "type": "uint16"
        },
        {
          "internalType": "uint16",
          "name": "",
          "type": "uint16"
        }
      ],
      "name": "minDstGasLookup",
      "outputs": [
        {
          "internalType": "uint256",
          "name": "",
          "type": "uint256"
        }
      ],
      "stateMutability": "view",
      "type": "function"
    },
    {
      "inputs": [],
      "name": "minGasToTransferAndStore",
      "outputs": [
        {
          "internalType": "uint256",
          "name": "",
          "type": "uint256"
        }
      ],
      "stateMutability": "view",
      "type": "function"
    },
    {
      "inputs": [],
      "name": "name",
      "outputs": [
        {
          "internalType": "string",
          "name": "",
          "type": "string"
        }
      ],
      "stateMutability": "view",
      "type": "function"
    },
    {
      "inputs": [
        {
          "internalType": "uint16",
          "name": "_srcChainId",
          "type": "uint16"
        },
        {
          "internalType": "bytes",
          "name": "_srcAddress",
          "type": "bytes"
        },
        {
          "internalType": "uint64",
          "name": "_nonce",
          "type": "uint64"
        },
        {
          "internalType": "bytes",
          "name": "_payload",
          "type": "bytes"
        }
      ],
      "name": "nonblockingLzReceive",
      "outputs": [],
      "stateMutability": "nonpayable",
      "type": "function"
    },
    {
      "inputs": [],
      "name": "owner",
      "outputs": [
        {
          "internalType": "address",
          "name": "",
          "type": "address"
        }
      ],
      "stateMutability": "view",
      "type": "function"
    },
    {
      "inputs": [
        {
          "internalType": "uint256",
          "name": "tokenId",
          "type": "uint256"
        }
      ],
      "name": "ownerOf",
      "outputs": [
        {
          "internalType": "address",
          "name": "",
          "type": "address"
        }
      ],
      "stateMutability": "view",
      "type": "function"
    },
    {
      "inputs": [
        {
          "internalType": "uint16",
          "name": "",
          "type": "uint16"
        }
      ],
      "name": "payloadSizeLimitLookup",
      "outputs": [
        {
          "internalType": "uint256",
          "name": "",
          "type": "uint256"
        }
      ],
      "stateMutability": "view",
      "type": "function"
    },
    {
      "inputs": [],
      "name": "precrime",
      "outputs": [
        {
          "internalType": "address",
          "name": "",
          "type": "address"
        }
      ],
      "stateMutability": "view",
      "type": "function"
    },
    {
      "inputs": [
        {
          "internalType": "address[]",
          "name": "_whiteListUsers",
          "type": "address[]"
        }
      ],
      "name": "removeWhiteList",
      "outputs": [],
      "stateMutability": "nonpayable",
      "type": "function"
    },
    {
      "inputs": [],
      "name": "renounceOwnership",
      "outputs": [],
      "stateMutability": "nonpayable",
      "type": "function"
    },
    {
      "inputs": [
        {
          "internalType": "uint16",
          "name": "_srcChainId",
          "type": "uint16"
        },
        {
          "internalType": "bytes",
          "name": "_srcAddress",
          "type": "bytes"
        },
        {
          "internalType": "uint64",
          "name": "_nonce",
          "type": "uint64"
        },
        {
          "internalType": "bytes",
          "name": "_payload",
          "type": "bytes"
        }
      ],
      "name": "retryMessage",
      "outputs": [],
      "stateMutability": "payable",
      "type": "function"
    },
    {
      "inputs": [],
      "name": "royaltyHandler",
      "outputs": [
        {
          "internalType": "address",
          "name": "",
          "type": "address"
        }
      ],
      "stateMutability": "view",
      "type": "function"
    },
    {
      "inputs": [
        {
          "internalType": "uint256",
          "name": "tokenId",
          "type": "uint256"
        },
        {
          "internalType": "uint256",
          "name": "salePrice",
          "type": "uint256"
        }
      ],
      "name": "royaltyInfo",
      "outputs": [
        {
          "internalType": "address",
          "name": "",
          "type": "address"
        },
        {
          "internalType": "uint256",
          "name": "",
          "type": "uint256"
        }
      ],
      "stateMutability": "view",
      "type": "function"
    },
    {
      "inputs": [
        {
          "internalType": "address",
          "name": "from",
          "type": "address"
        },
        {
          "internalType": "address",
          "name": "to",
          "type": "address"
        },
        {
          "internalType": "uint256",
          "name": "tokenId",
          "type": "uint256"
        }
      ],
      "name": "safeTransferFrom",
      "outputs": [],
      "stateMutability": "nonpayable",
      "type": "function"
    },
    {
      "inputs": [
        {
          "internalType": "address",
          "name": "from",
          "type": "address"
        },
        {
          "internalType": "address",
          "name": "to",
          "type": "address"
        },
        {
          "internalType": "uint256",
          "name": "tokenId",
          "type": "uint256"
        },
        {
          "internalType": "bytes",
          "name": "data",
          "type": "bytes"
        }
      ],
      "name": "safeTransferFrom",
      "outputs": [],
      "stateMutability": "nonpayable",
      "type": "function"
    },
    {
      "inputs": [
        {
          "internalType": "address",
          "name": "_from",
          "type": "address"
        },
        {
          "internalType": "uint16",
          "name": "_dstChainId",
          "type": "uint16"
        },
        {
          "internalType": "bytes",
          "name": "_toAddress",
          "type": "bytes"
        },
        {
          "internalType": "uint256[]",
          "name": "_tokenIds",
          "type": "uint256[]"
        },
        {
          "internalType": "address payable",
          "name": "_refundAddress",
          "type": "address"
        },
        {
          "internalType": "address",
          "name": "_zroPaymentAddress",
          "type": "address"
        },
        {
          "internalType": "bytes",
          "name": "_adapterParams",
          "type": "bytes"
        }
      ],
      "name": "sendBatchFrom",
      "outputs": [],
      "stateMutability": "payable",
      "type": "function"
    },
    {
      "inputs": [
        {
          "internalType": "address",
          "name": "_from",
          "type": "address"
        },
        {
          "internalType": "uint16",
          "name": "_dstChainId",
          "type": "uint16"
        },
        {
          "internalType": "bytes",
          "name": "_toAddress",
          "type": "bytes"
        },
        {
          "internalType": "uint256",
          "name": "_tokenId",
          "type": "uint256"
        },
        {
          "internalType": "address payable",
          "name": "_refundAddress",
          "type": "address"
        },
        {
          "internalType": "address",
          "name": "_zroPaymentAddress",
          "type": "address"
        },
        {
          "internalType": "bytes",
          "name": "_adapterParams",
          "type": "bytes"
        }
      ],
      "name": "sendFrom",
      "outputs": [],
      "stateMutability": "payable",
      "type": "function"
    },
    {
      "inputs": [
        {
          "internalType": "address",
          "name": "operator",
          "type": "address"
        },
        {
          "internalType": "bool",
          "name": "approved",
          "type": "bool"
        }
      ],
      "name": "setApprovalForAll",
      "outputs": [],
      "stateMutability": "nonpayable",
      "type": "function"
    },
    {
      "inputs": [
        {
          "internalType": "string",
          "name": "baseURI",
          "type": "string"
        }
      ],
      "name": "setBaseURI",
      "outputs": [],
      "stateMutability": "nonpayable",
      "type": "function"
    },
    {
      "inputs": [
        {
          "internalType": "uint16",
          "name": "_version",
          "type": "uint16"
        },
        {
          "internalType": "uint16",
          "name": "_chainId",
          "type": "uint16"
        },
        {
          "internalType": "uint256",
          "name": "_configType",
          "type": "uint256"
        },
        {
          "internalType": "bytes",
          "name": "_config",
          "type": "bytes"
        }
      ],
      "name": "setConfig",
      "outputs": [],
      "stateMutability": "nonpayable",
      "type": "function"
    },
    {
      "inputs": [
        {
          "internalType": "uint16",
          "name": "_dstChainId",
          "type": "uint16"
        },
        {
          "internalType": "uint256",
          "name": "_dstChainIdToBatchLimit",
          "type": "uint256"
        }
      ],
      "name": "setDstChainIdToBatchLimit",
      "outputs": [],
      "stateMutability": "nonpayable",
      "type": "function"
    },
    {
      "inputs": [
        {
          "internalType": "uint16",
          "name": "_dstChainId",
          "type": "uint16"
        },
        {
          "internalType": "uint256",
          "name": "_dstChainIdToTransferGas",
          "type": "uint256"
        }
      ],
      "name": "setDstChainIdToTransferGas",
      "outputs": [],
      "stateMutability": "nonpayable",
      "type": "function"
    },
    {
      "inputs": [
        {
          "internalType": "uint16",
          "name": "_dstChainId",
          "type": "uint16"
        },
        {
          "internalType": "uint16",
          "name": "_packetType",
          "type": "uint16"
        },
        {
          "internalType": "uint256",
          "name": "_minGas",
          "type": "uint256"
        }
      ],
      "name": "setMinDstGas",
      "outputs": [],
      "stateMutability": "nonpayable",
      "type": "function"
    },
    {
      "inputs": [
        {
          "internalType": "uint256",
          "name": "_minGasToTransferAndStore",
          "type": "uint256"
        }
      ],
      "name": "setMinGasToTransferAndStore",
      "outputs": [],
      "stateMutability": "nonpayable",
      "type": "function"
    },
    {
      "inputs": [
        {
          "internalType": "uint16",
          "name": "_dstChainId",
          "type": "uint16"
        },
        {
          "internalType": "uint256",
          "name": "_size",
          "type": "uint256"
        }
      ],
      "name": "setPayloadSizeLimit",
      "outputs": [],
      "stateMutability": "nonpayable",
      "type": "function"
    },
    {
      "inputs": [
        {
          "internalType": "address",
          "name": "_precrime",
          "type": "address"
        }
      ],
      "name": "setPrecrime",
      "outputs": [],
      "stateMutability": "nonpayable",
      "type": "function"
    },
    {
      "inputs": [
        {
          "internalType": "uint16",
          "name": "_version",
          "type": "uint16"
        }
      ],
      "name": "setReceiveVersion",
      "outputs": [],
      "stateMutability": "nonpayable",
      "type": "function"
    },
    {
      "inputs": [
        {
          "internalType": "address",
          "name": "_handler",
          "type": "address"
        }
      ],
      "name": "setRoyaltyHandler",
      "outputs": [],
      "stateMutability": "nonpayable",
      "type": "function"
    },
    {
      "inputs": [
        {
          "internalType": "uint16",
          "name": "_version",
          "type": "uint16"
        }
      ],
      "name": "setSendVersion",
      "outputs": [],
      "stateMutability": "nonpayable",
      "type": "function"
    },
    {
      "inputs": [
        {
          "internalType": "uint16",
          "name": "_remoteChainId",
          "type": "uint16"
        },
        {
          "internalType": "bytes",
          "name": "_path",
          "type": "bytes"
        }
      ],
      "name": "setTrustedRemote",
      "outputs": [],
      "stateMutability": "nonpayable",
      "type": "function"
    },
    {
      "inputs": [
        {
          "internalType": "uint16",
          "name": "_remoteChainId",
          "type": "uint16"
        },
        {
          "internalType": "bytes",
          "name": "_remoteAddress",
          "type": "bytes"
        }
      ],
      "name": "setTrustedRemoteAddress",
      "outputs": [],
      "stateMutability": "nonpayable",
      "type": "function"
    },
    {
      "inputs": [
        {
          "internalType": "bytes32",
          "name": "",
          "type": "bytes32"
        }
      ],
      "name": "storedCredits",
      "outputs": [
        {
          "internalType": "uint16",
          "name": "srcChainId",
          "type": "uint16"
        },
        {
          "internalType": "address",
          "name": "toAddress",
          "type": "address"
        },
        {
          "internalType": "uint256",
          "name": "index",
          "type": "uint256"
        },
        {
          "internalType": "bool",
          "name": "creditsRemain",
          "type": "bool"
        }
      ],
      "stateMutability": "view",
      "type": "function"
    },
    {
      "inputs": [
        {
          "internalType": "bytes4",
          "name": "interfaceId",
          "type": "bytes4"
        }
      ],
      "name": "supportsInterface",
      "outputs": [
        {
          "internalType": "bool",
          "name": "",
          "type": "bool"
        }
      ],
      "stateMutability": "view",
      "type": "function"
    },
    {
      "inputs": [],
      "name": "symbol",
      "outputs": [
        {
          "internalType": "string",
          "name": "",
          "type": "string"
        }
      ],
      "stateMutability": "view",
      "type": "function"
    },
    {
      "inputs": [
        {
          "internalType": "uint256",
          "name": "tokenId",
          "type": "uint256"
        }
      ],
      "name": "tokenURI",
      "outputs": [
        {
          "internalType": "string",
          "name": "",
          "type": "string"
        }
      ],
      "stateMutability": "view",
      "type": "function"
    },
    {
      "inputs": [
        {
          "internalType": "address",
          "name": "from",
          "type": "address"
        },
        {
          "internalType": "address",
          "name": "to",
          "type": "address"
        },
        {
          "internalType": "uint256",
          "name": "tokenId",
          "type": "uint256"
        }
      ],
      "name": "transferFrom",
      "outputs": [],
      "stateMutability": "nonpayable",
      "type": "function"
    },
    {
      "inputs": [
        {
          "internalType": "address",
          "name": "newOwner",
          "type": "address"
        }
      ],
      "name": "transferOwnership",
      "outputs": [],
      "stateMutability": "nonpayable",
      "type": "function"
    },
    {
      "inputs": [
        {
          "internalType": "uint16",
          "name": "",
          "type": "uint16"
        }
      ],
      "name": "trustedRemoteLookup",
      "outputs": [
        {
          "internalType": "bytes",
          "name": "",
          "type": "bytes"
        }
      ],
      "stateMutability": "view",
      "type": "function"
    },
    {
      "inputs": [
        {
          "internalType": "uint256",
          "name": "_newLiveDate",
          "type": "uint256"
        }
      ],
      "name": "updateGoLiveDate",
      "outputs": [],
      "stateMutability": "nonpayable",
      "type": "function"
    },
    {
      "inputs": [
        {
          "internalType": "address[]",
          "name": "_whiteListUsers",
          "type": "address[]"
        }
      ],
      "name": "updateWhiteList",
      "outputs": [],
      "stateMutability": "nonpayable",
      "type": "function"
    },
    {
      "inputs": [
        {
          "internalType": "address",
          "name": "",
          "type": "address"
        }
      ],
      "name": "whiteList",
      "outputs": [
        {
          "internalType": "bool",
          "name": "",
          "type": "bool"
        }
      ],
      "stateMutability": "view",
      "type": "function"
    }
  ],
  "bytecode": "0x60a06040523480156200001157600080fd5b506040516200563c3803806200563c833981016040819052620000349162000460565b6040518060400160405280600f81526020016e4d6f7a61696320486f706c6974657360881b815250604051806040016040528060038152602001620484f560ec1b81525083838383838380806200009a62000094620001b360201b60201c565b620001b7565b6001600160a01b0316608052506001600655816200010b5760405162461bcd60e51b8152602060048201526024808201527f6d696e476173546f5472616e73666572416e6453746f7265206d7573742062656044820152630203e20360e41b60648201526084015b60405180910390fd5b50600755600b6200011d8382620005ea565b50600c6200012c8282620005ea565b5050505050505062000144846200020760201b60201c565b6016839055336000908152601560205260408120805460ff191660011790555b61017981101562000190576200017b338262000223565b806200018781620006b6565b91505062000164565b5050336000908152601560205260409020805460ff191690555062000715915050565b3390565b600080546001600160a01b038381166001600160a01b0319831681178455604051919092169283917f8be0079c531659141344cd1fd0a4f28419497f9722a3daafe3b4186f6b6457e09190a35050565b6200021162000366565b60136200021f8282620005ea565b5050565b6001600160a01b0382166200027b5760405162461bcd60e51b815260206004820181905260248201527f4552433732313a206d696e7420746f20746865207a65726f2061646472657373604482015260640162000102565b6000818152600d60205260409020546001600160a01b031615620002b35760405162461bcd60e51b81526004016200010290620006de565b620002c3600083836001620003c4565b6000818152600d60205260409020546001600160a01b031615620002fb5760405162461bcd60e51b81526004016200010290620006de565b6001600160a01b0382166000818152600e6020908152604080832080546001019055848352600d90915280822080546001600160a01b0319168417905551839291907fddf252ad1be2c89b69c2b068fc378daa952ba7f163c4a11628f55a4df523b3ef908290a45050565b6000546001600160a01b03163314620003c25760405162461bcd60e51b815260206004820181905260248201527f4f776e61626c653a2063616c6c6572206973206e6f7420746865206f776e6572604482015260640162000102565b565b60165442108015620003ef57506001600160a01b03831660009081526015602052604090205460ff16155b156200040e57604051637aa6656d60e11b815260040160405180910390fd5b62000427848484846200042760201b62001cc41760201c565b50505050565b634e487b7160e01b600052604160045260246000fd5b80516001600160a01b03811681146200045b57600080fd5b919050565b600080600080608085870312156200047757600080fd5b84516001600160401b03808211156200048f57600080fd5b818701915087601f830112620004a457600080fd5b815181811115620004b957620004b96200042d565b604051601f8201601f19908116603f01168101908382118183101715620004e457620004e46200042d565b81604052828152602093508a848487010111156200050157600080fd5b600091505b8282101562000525578482018401518183018501529083019062000506565b6000848483010152809850505050808701519450505060408501519150620005506060860162000443565b905092959194509250565b600181811c908216806200057057607f821691505b6020821081036200059157634e487b7160e01b600052602260045260246000fd5b50919050565b601f821115620005e557600081815260208120601f850160051c81016020861015620005c05750805b601f850160051c820191505b81811015620005e157828155600101620005cc565b5050505b505050565b81516001600160401b038111156200060657620006066200042d565b6200061e816200061784546200055b565b8462000597565b602080601f8311600181146200065657600084156200063d5750858301515b600019600386901b1c1916600185901b178555620005e1565b600085815260208120601f198616915b82811015620006875788860151825594840194600190910190840162000666565b5085821015620006a65787850151600019600388901b60f8161c191681555b5050505050600190811b01905550565b600060018201620006d757634e487b7160e01b600052601160045260246000fd5b5060010190565b6020808252601c908201527f4552433732313a20746f6b656e20616c7265616479206d696e74656400000000604082015260600190565b608051614ed3620007696000396000818161097901528181610ba901528181610eb5015281816111390152818161145c01528181611ea50152818161231f0152818161245201526135aa0152614ed36000f3fe6080604052600436106102d75760003560e01c80637533d788116101825780637533d788146107aa5780637ac8fd87146107ca5780638cfd8f5c146107ea5780638da5cb5b146108225780638ffa1f2a14610837578063950c8a741461085757806395d89b41146108775780639a733c181461088c5780639ea5d6b1146108ac5780639f38369a146108cc578063a22cb465146108ec578063a6c3d1651461090c578063ab3ffb931461092c578063af3fb21c1461093f578063b353aaa714610967578063b88d4fde1461099b578063baf3292d146109bb578063bd075be8146109db578063c4461834146109fb578063c87b56dd14610a11578063cbed8b9c14610a31578063d12473a514610a51578063d1deba1f14610a71578063d547cfb714610a84578063df2a5b3b14610a99578063e985e9c514610ab9578063eb8d72b714610ad9578063f235364114610af9578063f2fde38b14610b19578063f5ecbdbc14610b39578063f999e05d14610b59578063fa25f9b614610b7957600080fd5b80621d3567146102dc57806301ffc9a7146102fe57806306fdde031461033357806307e0db1714610355578063081812fc14610375578063095ea7b3146103a25780630b4cad4c146103c25780630df37483146103e257806310ddb1371461040257806322a3ecf91461042257806323b872dd146104a55780632a205e3d146104c55780632a55205a146104fa57806332cb6b0c14610539578063372c12b11461055d578063397457911461058d5780633d8b38f6146105ad5780633f1f4fa4146105cd57806342842e0e146105fa57806342d65a8d1461061a578063482881901461063a5780634ac3f4ff14610650578063519056361461067d57806355f804b3146106905780635b8c41e6146106b0578063612debbd146106ff5780636352211e1461071f57806366ad5c8a1461073f5780636cee6da21461075f57806370a0823114610775578063715018a614610795575b600080fd5b3480156102e857600080fd5b506102fc6102f7366004613b60565b610ba6565b005b34801561030a57600080fd5b5061031e610319366004613c09565b610dd7565b60405190151581526020015b60405180910390f35b34801561033f57600080fd5b50610348610e02565b60405161032a9190613c76565b34801561036157600080fd5b506102fc610370366004613c89565b610e94565b34801561038157600080fd5b50610395610390366004613ca4565b610f1d565b60405161032a9190613cbd565b3480156103ae57600080fd5b506102fc6103bd366004613cf1565b610f44565b3480156103ce57600080fd5b506102fc6103dd366004613ca4565b611059565b3480156103ee57600080fd5b506102fc6103fd366004613d1d565b6110f9565b34801561040e57600080fd5b506102fc61041d366004613c89565b611118565b34801561042e57600080fd5b5061047661043d366004613ca4565b600a6020526000908152604090208054600182015460029092015461ffff821692620100009092046001600160a01b0316919060ff1684565b6040805161ffff90951685526001600160a01b039093166020850152918301521515606082015260800161032a565b3480156104b157600080fd5b506102fc6104c0366004613d39565b611170565b3480156104d157600080fd5b506104e56104e0366004613e55565b6111a2565b6040805192835260208301919091520161032a565b34801561050657600080fd5b5061051a610515366004613ee3565b6111c8565b604080516001600160a01b03909316835260208301919091520161032a565b34801561054557600080fd5b5061054f61138881565b60405190815260200161032a565b34801561056957600080fd5b5061031e610578366004613f05565b60156020526000908152604090205460ff1681565b34801561059957600080fd5b506102fc6105a8366004613f45565b611276565b3480156105b957600080fd5b5061031e6105c8366004613fde565b611356565b3480156105d957600080fd5b5061054f6105e8366004613c89565b60036020526000908152604090205481565b34801561060657600080fd5b506102fc610615366004613d39565b611422565b34801561062657600080fd5b506102fc610635366004613fde565b61143d565b34801561064657600080fd5b5061054f60075481565b34801561065c57600080fd5b5061054f61066b366004613c89565b60086020526000908152604090205481565b6102fc61068b366004614030565b6114c3565b34801561069c57600080fd5b506102fc6106ab3660046140e9565b6114da565b3480156106bc57600080fd5b5061054f6106cb366004614131565b6005602090815260009384526040808520845180860184018051928152908401958401959095209452929052825290205481565b34801561070b57600080fd5b506102fc61071a366004613ca4565b6114ee565b34801561072b57600080fd5b5061039561073a366004613ca4565b6114fb565b34801561074b57600080fd5b506102fc61075a366004613b60565b61152f565b34801561076b57600080fd5b5061054f60165481565b34801561078157600080fd5b5061054f610790366004613f05565b61160b565b3480156107a157600080fd5b506102fc611691565b3480156107b657600080fd5b506103486107c5366004613c89565b6116a5565b3480156107d657600080fd5b50601454610395906001600160a01b031681565b3480156107f657600080fd5b5061054f61080536600461418e565b600260209081526000928352604080842090915290825290205481565b34801561082e57600080fd5b5061039561173f565b34801561084357600080fd5b506102fc6108523660046141c1565b61174e565b34801561086357600080fd5b50600454610395906001600160a01b031681565b34801561088357600080fd5b50610348611999565b34801561089857600080fd5b506102fc6108a7366004613f05565b6119a8565b3480156108b857600080fd5b506102fc6108c7366004613d1d565b611a22565b3480156108d857600080fd5b506103486108e7366004613c89565b611ad9565b3480156108f857600080fd5b506102fc6109073660046141f5565b611bef565b34801561091857600080fd5b506102fc610927366004613fde565b611bfa565b6102fc61093a366004614287565b611c83565b34801561094b57600080fd5b50610954600181565b60405161ffff909116815260200161032a565b34801561097357600080fd5b506103957f000000000000000000000000000000000000000000000000000000000000000081565b3480156109a757600080fd5b506102fc6109b636600461433c565b611c92565b3480156109c757600080fd5b506102fc6109d6366004613f05565b611cca565b3480156109e757600080fd5b506102fc6109f63660046143a7565b611d1d565b348015610a0757600080fd5b5061054f61271081565b348015610a1d57600080fd5b50610348610a2c366004613ca4565b611e13565b348015610a3d57600080fd5b506102fc610a4c3660046143d0565b611e86565b348015610a5d57600080fd5b506102fc610a6c366004613d1d565b611f1b565b6102fc610a7f366004613b60565b611fcb565b348015610a9057600080fd5b506103486121e1565b348015610aa557600080fd5b506102fc610ab436600461443e565b6121ee565b348015610ac557600080fd5b5061031e610ad436600461447a565b612258565b348015610ae557600080fd5b506102fc610af4366004613fde565b612286565b348015610b0557600080fd5b506104e5610b143660046144b3565b6122e0565b348015610b2557600080fd5b506102fc610b34366004613f05565b6123ab565b348015610b4557600080fd5b50610348610b5436600461452c565b612421565b348015610b6557600080fd5b506102fc610b74366004613f45565b6124d4565b348015610b8557600080fd5b5061054f610b94366004613c89565b60096020526000908152604090205481565b337f00000000000000000000000000000000000000000000000000000000000000006001600160a01b031614610c235760405162461bcd60e51b815260206004820152601e60248201527f4c7a4170703a20696e76616c696420656e64706f696e742063616c6c6572000060448201526064015b60405180910390fd5b61ffff861660009081526001602052604081208054610c4190614579565b80601f0160208091040260200160405190810160405280929190818152602001828054610c6d90614579565b8015610cba5780601f10610c8f57610100808354040283529160200191610cba565b820191906000526020600020905b815481529060010190602001808311610c9d57829003601f168201915b50505050509050805186869050148015610cd5575060008151115b8015610cfd575080516020820120604051610cf390889088906145b3565b6040518091039020145b610d585760405162461bcd60e51b815260206004820152602660248201527f4c7a4170703a20696e76616c696420736f757263652073656e64696e6720636f6044820152651b9d1c9858dd60d21b6064820152608401610c1a565b610dce8787878080601f01602080910402602001604051908101604052809392919081815260200183838082843760009201919091525050604080516020601f8a018190048102820181019092528881528a9350915088908890819084018382808284376000920191909152506125b092505050565b50505050505050565b60006001600160e01b031982166369a61f9960e11b1480610dfc5750610dfc82612629565b92915050565b6060600b8054610e1190614579565b80601f0160208091040260200160405190810160405280929190818152602001828054610e3d90614579565b8015610e8a5780601f10610e5f57610100808354040283529160200191610e8a565b820191906000526020600020905b815481529060010190602001808311610e6d57829003601f168201915b5050505050905090565b610e9c61264e565b6040516307e0db1760e01b815261ffff821660048201527f00000000000000000000000000000000000000000000000000000000000000006001600160a01b0316906307e0db17906024015b600060405180830381600087803b158015610f0257600080fd5b505af1158015610f16573d6000803e3d6000fd5b5050505050565b6000610f28826126ad565b506000908152600f60205260409020546001600160a01b031690565b6000610f4f826114fb565b9050806001600160a01b0316836001600160a01b031603610fbc5760405162461bcd60e51b815260206004820152602160248201527f4552433732313a20617070726f76616c20746f2063757272656e74206f776e656044820152603960f91b6064820152608401610c1a565b336001600160a01b0382161480610fd85750610fd88133612258565b61104a5760405162461bcd60e51b815260206004820152603d60248201527f4552433732313a20617070726f76652063616c6c6572206973206e6f7420746f60448201527f6b656e206f776e6572206f7220617070726f76656420666f7220616c6c0000006064820152608401610c1a565b61105483836126d2565b505050565b61106161264e565b600081116110bd5760405162461bcd60e51b8152602060048201526024808201527f6d696e476173546f5472616e73666572416e6453746f7265206d7573742062656044820152630203e20360e41b6064820152608401610c1a565b60078190556040518181527ffebbc4f8bb9ec2313950c718d43123124b15778efda4c1f1d529de2995b4f34d906020015b60405180910390a150565b61110161264e565b61ffff909116600090815260036020526040902055565b61112061264e565b6040516310ddb13760e01b815261ffff821660048201527f00000000000000000000000000000000000000000000000000000000000000006001600160a01b0316906310ddb13790602401610ee8565b61117b335b82612740565b6111975760405162461bcd60e51b8152600401610c1a906145c3565b61105483838361279e565b6000806111ba87876111b3886128fd565b87876122e0565b915091509550959350505050565b60008281526012602090815260408083208151808301909252546001600160a01b038116808352600160a01b9091046001600160601b031692820192909252829161123d5750604080518082019091526011546001600160a01b0381168252600160a01b90046001600160601b031660208201525b60208101516000906127109061125c906001600160601b031687614626565b611266919061463d565b91519350909150505b9250929050565b61127e61264e565b600081511161129f5760405162461bcd60e51b8152600401610c1a9061465f565b60005b81518110156113525760006001600160a01b03168282815181106112c8576112c8614686565b60200260200101516001600160a01b0316036112f65760405162461bcd60e51b8152600401610c1a9061469c565b60006015600084848151811061130e5761130e614686565b6020908102919091018101516001600160a01b03168252810191909152604001600020805460ff19169115159190911790558061134a816146c5565b9150506112a2565b5050565b61ffff83166000908152600160205260408120805482919061137790614579565b80601f01602080910402602001604051908101604052809291908181526020018280546113a390614579565b80156113f05780601f106113c5576101008083540402835291602001916113f0565b820191906000526020600020905b8154815290600101906020018083116113d357829003601f168201915b5050505050905083836040516114079291906145b3565b60405180910390208180519060200120149150509392505050565b61105483838360405180602001604052806000815250611c92565b61144561264e565b6040516342d65a8d60e01b81526001600160a01b037f000000000000000000000000000000000000000000000000000000000000000016906342d65a8d9061149590869086908690600401614707565b600060405180830381600087803b1580156114af57600080fd5b505af1158015610dce573d6000803e3d6000fd5b610dce8787876114d2886128fd565b878787612948565b6114e261264e565b60136113528282614780565b6114f661264e565b601655565b60008061150783612b1c565b90506001600160a01b038116610dfc5760405162461bcd60e51b8152600401610c1a90614839565b33301461158d5760405162461bcd60e51b815260206004820152602660248201527f4e6f6e626c6f636b696e674c7a4170703a2063616c6c6572206d7573742062656044820152650204c7a4170760d41b6064820152608401610c1a565b6116038686868080601f01602080910402602001604051908101604052809392919081815260200183838082843760009201919091525050604080516020601f890181900481028201810190925287815289935091508790879081908401838280828437600092019190915250612b3792505050565b505050505050565b60006001600160a01b0382166116755760405162461bcd60e51b815260206004820152602960248201527f4552433732313a2061646472657373207a65726f206973206e6f7420612076616044820152683634b21037bbb732b960b91b6064820152608401610c1a565b506001600160a01b03166000908152600e602052604090205490565b61169961264e565b6116a36000612c8e565b565b600160205260009081526040902080546116be90614579565b80601f01602080910402602001604051908101604052809291908181526020018280546116ea90614579565b80156117375780601f1061170c57610100808354040283529160200191611737565b820191906000526020600020905b81548152906001019060200180831161171a57829003601f168201915b505050505081565b6000546001600160a01b031690565b611756612cde565b80516020808301919091206000818152600a90925260409091206002015460ff166117b75760405162461bcd60e51b81526020600482015260116024820152701b9bc818dc99591a5d1cc81cdd1bdc9959607a1b6044820152606401610c1a565b6000828060200190518101906117cd91906148b0565b6000848152600a6020526040812080546001909101549294509092506118099161ffff8216916201000090046001600160a01b03169085612d37565b6000848152600a6020526040902060010154909150811161187e5760405162461bcd60e51b815260206004820152602960248201527f6e6f7420656e6f7567682067617320746f2070726f6365737320637265646974604482015268103a3930b739b332b960b91b6064820152608401610c1a565b815181036118f5576000838152600a602052604080822080546001600160b01b031916815560018101929092556002909101805460ff19169055517fd7be02b8dd0d27bd0517a9cb4d7469ce27df4313821ae5ec1ff69acc594ba233906118e89085815260200190565b60405180910390a1611989565b604080516080810182526000858152600a6020818152848320805461ffff80821687526001600160a01b03620100008084048216868a019081529989018b8152600160608b01818152998f90529790965297519851169096026001600160b01b03199091169690951695909517939093178455915191830191909155516002909101805491151560ff199092169190911790555b5050506119966001600655565b50565b6060600c8054610e1190614579565b6119b061264e565b6001600160a01b038116611a005760405162461bcd60e51b8152602060048201526017602482015276496e76616c69642068616e646c6572206164647265737360481b6044820152606401610c1a565b601480546001600160a01b0319166001600160a01b0392909216919091179055565b611a2a61264e565b60008111611a855760405162461bcd60e51b815260206004820152602260248201527f647374436861696e4964546f42617463684c696d6974206d757374206265203e604482015261020360f41b6064820152608401610c1a565b61ffff8216600081815260086020908152604091829020849055815192835282018390527f7315f7654d594ead24a30160ed9ba2d23247f543016b918343591e93d7afdb6d91015b60405180910390a15050565b61ffff8116600090815260016020526040812080546060929190611afc90614579565b80601f0160208091040260200160405190810160405280929190818152602001828054611b2890614579565b8015611b755780601f10611b4a57610100808354040283529160200191611b75565b820191906000526020600020905b815481529060010190602001808311611b5857829003601f168201915b505050505090508051600003611bcd5760405162461bcd60e51b815260206004820152601d60248201527f4c7a4170703a206e6f20747275737465642070617468207265636f72640000006044820152606401610c1a565b611be8600060148351611be0919061496a565b839190612d83565b9392505050565b611352338383612e90565b611c0261264e565b818130604051602001611c179392919061497d565b60408051601f1981840301815291815261ffff8516600090815260016020522090611c429082614780565b507f8c0400cfe2d1199b1a725c78960bcc2a344d869b80590d0f2bd005db15a572ce838383604051611c7693929190614707565b60405180910390a1505050565b610dce87878787878787612948565b611c9c3383612740565b611cb85760405162461bcd60e51b8152600401610c1a906145c3565b611cc484848484612f5a565b50505050565b611cd261264e565b600480546001600160a01b0319166001600160a01b0383161790556040517f5db758e995a17ec1ad84bdef7e8c3293a0bd6179bcce400dff5d4c3d87db726b906110ee908390613cbd565b611d2561264e565b6103e8816001600160601b03161115611d735760405162461bcd60e51b815260206004820152601060248201526f546f6f206869676820726f79616c747960801b6044820152606401610c1a565b6014546001600160a01b0316611dc45760405162461bcd60e51b815260206004820152601660248201527529b2ba103a3432903937bcb0b63a3ca430b7323632b960511b6044820152606401610c1a565b601454611dda906001600160a01b031682612f8d565b6040516001600160601b03821681527ff56c18f7a70485e938b87e3d7e58858e493a28163eb0efb8f9b607f50d0a9127906020016110ee565b6060611e1e826126ad565b6000611e3560408051602081019091526000815290565b90506000815111611e555760405180602001604052806000815250611be8565b80611e5f84613086565b604051602001611e7092919061499e565b6040516020818303038152906040529392505050565b611e8e61264e565b6040516332fb62e760e21b81526001600160a01b037f0000000000000000000000000000000000000000000000000000000000000000169063cbed8b9c90611ee290889088908890889088906004016149cd565b600060405180830381600087803b158015611efc57600080fd5b505af1158015611f10573d6000803e3d6000fd5b505050505050505050565b611f2361264e565b60008111611f7f5760405162461bcd60e51b815260206004820152602360248201527f647374436861696e4964546f5472616e73666572476173206d7573742062652060448201526203e20360ec1b6064820152608401610c1a565b61ffff8216600081815260096020908152604091829020849055815192835282018390527fc46df2983228ac2d9754e94a0d565e6671665dc8ad38602bc8e544f0685a29fb9101611acd565b61ffff86166000908152600560205260408082209051611fee90889088906145b3565b90815260408051602092819003830190206001600160401b0387166000908152925290205490508061206e5760405162461bcd60e51b815260206004820152602360248201527f4e6f6e626c6f636b696e674c7a4170703a206e6f2073746f726564206d65737360448201526261676560e81b6064820152608401610c1a565b80838360405161207f9291906145b3565b6040518091039020146120de5760405162461bcd60e51b815260206004820152602160248201527f4e6f6e626c6f636b696e674c7a4170703a20696e76616c6964207061796c6f616044820152601960fa1b6064820152608401610c1a565b61ffff8716600090815260056020526040808220905161210190899089906145b3565b90815260408051602092819003830181206001600160401b038916600090815290845282902093909355601f88018290048202830182019052868252612199918991899089908190840183828082843760009201919091525050604080516020601f8a018190048102820181019092528881528a935091508890889081908401838280828437600092019190915250612b3792505050565b7fc264d91f3adc5588250e1551f547752ca0cfa8f6b530d243b9f9f4cab10ea8e587878787856040516121d09594939291906149fb565b60405180910390a150505050505050565b601380546116be90614579565b6121f661264e565b61ffff83811660008181526002602090815260408083209487168084529482529182902085905581519283528201929092529081018290527f9d5c7c0b934da8fefa9c7760c98383778a12dfbfc0c3b3106518f43fb9508ac090606001611c76565b6001600160a01b03918216600090815260106020908152604080832093909416825291909152205460ff1690565b61228e61264e565b61ffff831660009081526001602052604090206122ac828483614a36565b507ffa41487ad5d6728f0b19276fa1eddc16558578f5109fc39d2dc33c3230470dab838383604051611c7693929190614707565b600080600086866040516020016122f8929190614b2a565b60408051601f198184030181529082905263040a7bb160e41b825291506001600160a01b037f000000000000000000000000000000000000000000000000000000000000000016906340a7bb109061235c908b90309086908b908b90600401614b58565b6040805180830381865afa158015612378573d6000803e3d6000fd5b505050506040513d601f19601f8201168201806040525081019061239c9190614bac565b92509250509550959350505050565b6123b361264e565b6001600160a01b0381166124185760405162461bcd60e51b815260206004820152602660248201527f4f776e61626c653a206e6577206f776e657220697320746865207a65726f206160448201526564647265737360d01b6064820152608401610c1a565b61199681612c8e565b604051633d7b2f6f60e21b815261ffff808616600483015284166024820152306044820152606481018290526060907f00000000000000000000000000000000000000000000000000000000000000006001600160a01b03169063f5ecbdbc90608401600060405180830381865afa1580156124a1573d6000803e3d6000fd5b505050506040513d6000823e601f3d908101601f191682016040526124c99190810190614bd0565b90505b949350505050565b6124dc61264e565b60008151116124fd5760405162461bcd60e51b8152600401610c1a9061465f565b60005b81518110156113525760006001600160a01b031682828151811061252657612526614686565b60200260200101516001600160a01b0316036125545760405162461bcd60e51b8152600401610c1a9061469c565b60016015600084848151811061256c5761256c614686565b6020908102919091018101516001600160a01b03168252810191909152604001600020805460ff1916911515919091179055806125a8816146c5565b915050612500565b6000806126135a60966366ad5c8a60e01b898989896040516024016125d89493929190614c04565b60408051601f198184030181529190526020810180516001600160e01b03166001600160e01b03199093169290921790915230929190613118565b91509150816116035761160386868686856131a2565b60006001600160e01b0319821663152a902d60e11b1480610dfc5750610dfc8261323f565b3361265761173f565b6001600160a01b0316146116a35760405162461bcd60e51b815260206004820181905260248201527f4f776e61626c653a2063616c6c6572206973206e6f7420746865206f776e65726044820152606401610c1a565b6126b68161325c565b6119965760405162461bcd60e51b8152600401610c1a90614839565b6000818152600f6020526040902080546001600160a01b0319166001600160a01b0384169081179091558190612707826114fb565b6001600160a01b03167f8c5be1e5ebec7d5bd14f71427d1e84f3dd0314c0f7b2291e5b200ac8c7c3b92560405160405180910390a45050565b60008061274c836114fb565b9050806001600160a01b0316846001600160a01b0316148061277357506127738185612258565b806124cc5750836001600160a01b031661278c84610f1d565b6001600160a01b031614949350505050565b826001600160a01b03166127b1826114fb565b6001600160a01b0316146127d75760405162461bcd60e51b8152600401610c1a90614c42565b6001600160a01b0382166128395760405162461bcd60e51b8152602060048201526024808201527f4552433732313a207472616e7366657220746f20746865207a65726f206164646044820152637265737360e01b6064820152608401610c1a565b6128468383836001613279565b826001600160a01b0316612859826114fb565b6001600160a01b03161461287f5760405162461bcd60e51b8152600401610c1a90614c42565b6000818152600f6020908152604080832080546001600160a01b03199081169091556001600160a01b03878116808652600e8552838620805460001901905590871680865283862080546001019055868652600d9094528285208054909216841790915590518493600080516020614e7e83398151915291a4505050565b6040805160018082528183019092526060916000919060208083019080368337019050509050828160008151811061293757612937614686565b602090810291909101015292915050565b600084511161298f5760405162461bcd60e51b8152602060048201526013602482015272746f6b656e4964735b5d20697320656d70747960681b6044820152606401610c1a565b8351600114806129b3575061ffff8616600090815260086020526040902054845111155b612a0a5760405162461bcd60e51b815260206004820152602260248201527f62617463682073697a65206578636565647320647374206261746368206c696d6044820152611a5d60f21b6064820152608401610c1a565b60005b8451811015612a4d57612a3b888888888581518110612a2e57612a2e614686565b60200260200101516132c6565b80612a45816146c5565b915050612a0d565b5060008585604051602001612a63929190614b2a565b6040516020818303038152906040529050612aa8876001848851600960008d61ffff1661ffff16815260200190815260200160002054612aa39190614626565b6133b1565b612ab6878286868634613481565b85604051612ac49190614c87565b6040518091039020886001600160a01b03168861ffff167fe1b87c47fdeb4f9cbadbca9df3af7aba453bb6e501075d0440d88125b711522a88604051612b0a9190614ca3565b60405180910390a45050505050505050565b6000908152600d60205260409020546001600160a01b031690565b60008082806020019051810190612b4e91906148b0565b601482015191935091506000612b6688838386612d37565b90508251811015612c3a5784516020808701919091206040805160808101825261ffff808d1682526001600160a01b038088168387019081528385018881526001606086018181526000898152600a909a529887902095518654935190941662010000026001600160b01b03199093169390941692909217178355519082015592516002909301805493151560ff199094169390931790925590517f10e0b70d256bccc84b7027506978bd8b68984a870788b93b479def144c839ad790612c309083908990614cb6565b60405180910390a1505b816001600160a01b031687604051612c529190614c87565b60405180910390208961ffff167f5b821db8a46f8ecbe1941ba2f51cfeea9643268b56631f70d45e2a745d99026586604051612b0a9190614ca3565b600080546001600160a01b038381166001600160a01b0319831681178455604051919092169283917f8be0079c531659141344cd1fd0a4f28419497f9722a3daafe3b4186f6b6457e09190a35050565b600260065403612d305760405162461bcd60e51b815260206004820152601f60248201527f5265656e7472616e637947756172643a207265656e7472616e742063616c6c006044820152606401610c1a565b6002600655565b6000825b82518110156124c9576007545a106124c957612d718686858481518110612d6457612d64614686565b6020026020010151613626565b80612d7b816146c5565b915050612d3b565b606081612d9181601f614ccf565b1015612dd05760405162461bcd60e51b815260206004820152600e60248201526d736c6963655f6f766572666c6f7760901b6044820152606401610c1a565b612dda8284614ccf565b84511015612e1e5760405162461bcd60e51b8152602060048201526011602482015270736c6963655f6f75744f66426f756e647360781b6044820152606401610c1a565b606082158015612e3d5760405191506000825260208201604052612e87565b6040519150601f8416801560200281840101858101878315602002848b0101015b81831015612e76578051835260209283019201612e5e565b5050858452601f01601f1916604052505b50949350505050565b816001600160a01b0316836001600160a01b031603612eed5760405162461bcd60e51b815260206004820152601960248201527822a9219b99189d1030b8383937bb32903a379031b0b63632b960391b6044820152606401610c1a565b6001600160a01b03838116600081815260106020908152604080832094871680845294825291829020805460ff191686151590811790915591519182527f17307eab39ab6107e8899845ad3d59bd9653f200f220920489ca2b5937696c31910160405180910390a3505050565b612f6584848461279e565b612f7184848484613686565b611cc45760405162461bcd60e51b8152600401610c1a90614ce2565b6127106001600160601b0382161115612ffb5760405162461bcd60e51b815260206004820152602a60248201527f455243323938313a20726f79616c7479206665652077696c6c206578636565646044820152692073616c65507269636560b01b6064820152608401610c1a565b6001600160a01b03821661304d5760405162461bcd60e51b815260206004820152601960248201527822a921991c9c189d1034b73b30b634b2103932b1b2b4bb32b960391b6044820152606401610c1a565b604080518082019091526001600160a01b039092168083526001600160601b039091166020909201829052600160a01b90910217601155565b6060600061309383613784565b60010190506000816001600160401b038111156130b2576130b2613d7a565b6040519080825280601f01601f1916602001820160405280156130dc576020820181803683370190505b5090508181016020015b600019016f181899199a1a9b1b9c1cb0b131b232b360811b600a86061a8153600a85049450846130e657509392505050565b6000606060008060008661ffff166001600160401b0381111561313d5761313d613d7a565b6040519080825280601f01601f191660200182016040528015613167576020820181803683370190505b50905060008087516020890160008d8df191503d925086831115613189578692505b828152826000602083013e909890975095505050505050565b8180519060200120600560008761ffff1661ffff168152602001908152602001600020856040516131d39190614c87565b9081526040805191829003602090810183206001600160401b0388166000908152915220919091557fe183f33de2837795525b4792ca4cd60535bd77c53b7e7030060bfcf5734d6b0c906132309087908790879087908790614d34565b60405180910390a15050505050565b60006001600160e01b031982161580610dfc5750610dfc8261385a565b60008061326883612b1c565b6001600160a01b0316141592915050565b601654421080156132a357506001600160a01b03831660009081526015602052604090205460ff16155b156132c157604051637aa6656d60e11b815260040160405180910390fd5b611cc4565b6132cf33611175565b6133325760405162461bcd60e51b815260206004820152602e60248201527f4f4e46543732313a2073656e642063616c6c6572206973206e6f74206f776e6560448201526d1c881b9bdc88185c1c1c9bdd995960921b6064820152608401610c1a565b836001600160a01b0316613345826114fb565b6001600160a01b0316146133a65760405162461bcd60e51b815260206004820152602260248201527f4f4e46543732313a2073656e642066726f6d20696e636f7272656374206f776e60448201526132b960f11b6064820152608401610c1a565b611cc484308361279e565b60006133bc8361389a565b61ffff8087166000908152600260209081526040808320938916835292905220549091508061342a5760405162461bcd60e51b815260206004820152601a602482015279131e905c1c0e881b5a5b91d85cd31a5b5a5d081b9bdd081cd95d60321b6044820152606401610c1a565b6134348382614ccf565b8210156116035760405162461bcd60e51b815260206004820152601b60248201527a4c7a4170703a20676173206c696d697420697320746f6f206c6f7760281b6044820152606401610c1a565b61ffff86166000908152600160205260408120805461349f90614579565b80601f01602080910402602001604051908101604052809291908181526020018280546134cb90614579565b80156135185780601f106134ed57610100808354040283529160200191613518565b820191906000526020600020905b8154815290600101906020018083116134fb57829003601f168201915b5050505050905080516000036135895760405162461bcd60e51b815260206004820152603060248201527f4c7a4170703a2064657374696e6174696f6e20636861696e206973206e6f742060448201526f61207472757374656420736f7572636560801b6064820152608401610c1a565b6135948787516138f5565b60405162c5803160e81b81526001600160a01b037f0000000000000000000000000000000000000000000000000000000000000000169063c58031009084906135eb908b9086908c908c908c908c90600401614d86565b6000604051808303818588803b15801561360457600080fd5b505af1158015613618573d6000803e3d6000fd5b505050505050505050505050565b61362f8161325c565b158061365b575061363f8161325c565b801561365b575030613650826114fb565b6001600160a01b0316145b61366457600080fd5b61366d8161325c565b61367b576110548282613966565b61105430838361279e565b60006001600160a01b0384163b1561377c57604051630a85bd0160e11b81526001600160a01b0385169063150b7a02906136ca903390899088908890600401614ded565b6020604051808303816000875af1925050508015613705575060408051601f3d908101601f1916820190925261370291810190614e2a565b60015b613762573d808015613733576040519150601f19603f3d011682016040523d82523d6000602084013e613738565b606091505b50805160000361375a5760405162461bcd60e51b8152600401610c1a90614ce2565b805181602001fd5b6001600160e01b031916630a85bd0160e11b1490506124cc565b5060016124cc565b60008072184f03e93ff9f4daa797ed6e38ed64bf6a1f0160401b83106137c35772184f03e93ff9f4daa797ed6e38ed64bf6a1f0160401b830492506040015b6904ee2d6d415b85acef8160201b83106137ed576904ee2d6d415b85acef8160201b830492506020015b662386f26fc10000831061380b57662386f26fc10000830492506010015b6305f5e1008310613823576305f5e100830492506008015b612710831061383757612710830492506004015b60648310613849576064830492506002015b600a8310610dfc5760010192915050565b60006001600160e01b031982166380ac58cd60e01b148061388b57506001600160e01b03198216635b5e139f60e01b145b80610dfc5750610dfc82613980565b60006022825110156138ed5760405162461bcd60e51b815260206004820152601c60248201527b4c7a4170703a20696e76616c69642061646170746572506172616d7360201b6044820152606401610c1a565b506022015190565b61ffff82166000908152600360205260408120549081900361391657506127105b808211156110545760405162461bcd60e51b815260206004820181905260248201527f4c7a4170703a207061796c6f61642073697a6520697320746f6f206c617267656044820152606401610c1a565b6113528282604051806020016040528060008152506139b5565b60006001600160e01b031982166322bac5d960e01b1480610dfc57506301ffc9a760e01b6001600160e01b0319831614610dfc565b6139bf83836139e8565b6139cc6000848484613686565b6110545760405162461bcd60e51b8152600401610c1a90614ce2565b6001600160a01b038216613a3e5760405162461bcd60e51b815260206004820181905260248201527f4552433732313a206d696e7420746f20746865207a65726f20616464726573736044820152606401610c1a565b613a478161325c565b15613a645760405162461bcd60e51b8152600401610c1a90614e47565b613a72600083836001613279565b613a7b8161325c565b15613a985760405162461bcd60e51b8152600401610c1a90614e47565b6001600160a01b0382166000818152600e6020908152604080832080546001019055848352600d90915280822080546001600160a01b031916841790555183929190600080516020614e7e833981519152908290a45050565b803561ffff81168114613b0357600080fd5b919050565b60008083601f840112613b1a57600080fd5b5081356001600160401b03811115613b3157600080fd5b60208301915083602082850101111561126f57600080fd5b80356001600160401b0381168114613b0357600080fd5b60008060008060008060808789031215613b7957600080fd5b613b8287613af1565b955060208701356001600160401b0380821115613b9e57600080fd5b613baa8a838b01613b08565b9097509550859150613bbe60408a01613b49565b94506060890135915080821115613bd457600080fd5b50613be189828a01613b08565b979a9699509497509295939492505050565b6001600160e01b03198116811461199657600080fd5b600060208284031215613c1b57600080fd5b8135611be881613bf3565b60005b83811015613c41578181015183820152602001613c29565b50506000910152565b60008151808452613c62816020860160208601613c26565b601f01601f19169290920160200192915050565b602081526000611be86020830184613c4a565b600060208284031215613c9b57600080fd5b611be882613af1565b600060208284031215613cb657600080fd5b5035919050565b6001600160a01b0391909116815260200190565b6001600160a01b038116811461199657600080fd5b8035613b0381613cd1565b60008060408385031215613d0457600080fd5b8235613d0f81613cd1565b946020939093013593505050565b60008060408385031215613d3057600080fd5b613d0f83613af1565b600080600060608486031215613d4e57600080fd5b8335613d5981613cd1565b92506020840135613d6981613cd1565b929592945050506040919091013590565b634e487b7160e01b600052604160045260246000fd5b604051601f8201601f191681016001600160401b0381118282101715613db857613db8613d7a565b604052919050565b60006001600160401b03821115613dd957613dd9613d7a565b50601f01601f191660200190565b6000613dfa613df584613dc0565b613d90565b9050828152838383011115613e0e57600080fd5b828260208301376000602084830101529392505050565b600082601f830112613e3657600080fd5b611be883833560208501613de7565b80358015158114613b0357600080fd5b600080600080600060a08688031215613e6d57600080fd5b613e7686613af1565b945060208601356001600160401b0380821115613e9257600080fd5b613e9e89838a01613e25565b955060408801359450613eb360608901613e45565b93506080880135915080821115613ec957600080fd5b50613ed688828901613e25565b9150509295509295909350565b60008060408385031215613ef657600080fd5b50508035926020909101359150565b600060208284031215613f1757600080fd5b8135611be881613cd1565b60006001600160401b03821115613f3b57613f3b613d7a565b5060051b60200190565b60006020808385031215613f5857600080fd5b82356001600160401b03811115613f6e57600080fd5b8301601f81018513613f7f57600080fd5b8035613f8d613df582613f22565b81815260059190911b82018301908381019087831115613fac57600080fd5b928401925b82841015613fd3578335613fc481613cd1565b82529284019290840190613fb1565b979650505050505050565b600080600060408486031215613ff357600080fd5b613ffc84613af1565b925060208401356001600160401b0381111561401757600080fd5b61402386828701613b08565b9497909650939450505050565b600080600080600080600060e0888a03121561404b57600080fd5b873561405681613cd1565b965061406460208901613af1565b955060408801356001600160401b038082111561408057600080fd5b61408c8b838c01613e25565b965060608a0135955060808a013591506140a582613cd1565b90935060a0890135906140b782613cd1565b90925060c089013590808211156140cd57600080fd5b506140da8a828b01613e25565b91505092959891949750929550565b6000602082840312156140fb57600080fd5b81356001600160401b0381111561411157600080fd5b8201601f8101841361412257600080fd5b6124cc84823560208401613de7565b60008060006060848603121561414657600080fd5b61414f84613af1565b925060208401356001600160401b0381111561416a57600080fd5b61417686828701613e25565b92505061418560408501613b49565b90509250925092565b600080604083850312156141a157600080fd5b6141aa83613af1565b91506141b860208401613af1565b90509250929050565b6000602082840312156141d357600080fd5b81356001600160401b038111156141e957600080fd5b6124cc84828501613e25565b6000806040838503121561420857600080fd5b823561421381613cd1565b91506141b860208401613e45565b600082601f83011261423257600080fd5b81356020614242613df583613f22565b82815260059290921b8401810191818101908684111561426157600080fd5b8286015b8481101561427c5780358352918301918301614265565b509695505050505050565b600080600080600080600060e0888a0312156142a257600080fd5b87356142ad81613cd1565b96506142bb60208901613af1565b955060408801356001600160401b03808211156142d757600080fd5b6142e38b838c01613e25565b965060608a01359150808211156142f957600080fd5b6143058b838c01614221565b955060808a0135915061431782613cd1565b81945061432660a08b01613ce6565b935060c08a01359150808211156140cd57600080fd5b6000806000806080858703121561435257600080fd5b843561435d81613cd1565b9350602085013561436d81613cd1565b92506040850135915060608501356001600160401b0381111561438f57600080fd5b61439b87828801613e25565b91505092959194509250565b6000602082840312156143b957600080fd5b81356001600160601b0381168114611be857600080fd5b6000806000806000608086880312156143e857600080fd5b6143f186613af1565b94506143ff60208701613af1565b93506040860135925060608601356001600160401b0381111561442157600080fd5b61442d88828901613b08565b969995985093965092949392505050565b60008060006060848603121561445357600080fd5b61445c84613af1565b925061446a60208501613af1565b9150604084013590509250925092565b6000806040838503121561448d57600080fd5b823561449881613cd1565b915060208301356144a881613cd1565b809150509250929050565b600080600080600060a086880312156144cb57600080fd5b6144d486613af1565b945060208601356001600160401b03808211156144f057600080fd5b6144fc89838a01613e25565b9550604088013591508082111561451257600080fd5b61451e89838a01614221565b9450613eb360608901613e45565b6000806000806080858703121561454257600080fd5b61454b85613af1565b935061455960208601613af1565b9250604085013561456981613cd1565b9396929550929360600135925050565b600181811c9082168061458d57607f821691505b6020821081036145ad57634e487b7160e01b600052602260045260246000fd5b50919050565b8183823760009101908152919050565b6020808252602d908201527f4552433732313a2063616c6c6572206973206e6f7420746f6b656e206f776e6560408201526c1c881bdc88185c1c1c9bdd9959609a1b606082015260800190565b634e487b7160e01b600052601160045260246000fd5b8082028115828204841417610dfc57610dfc614610565b60008261465a57634e487b7160e01b600052601260045260246000fd5b500490565b6020808252600d908201526c496e76616c696420506172616d60981b604082015260600190565b634e487b7160e01b600052603260045260246000fd5b6020808252600f908201526e496e76616c6964204164647265737360881b604082015260600190565b6000600182016146d7576146d7614610565b5060010190565b81835281816020850137506000828201602090810191909152601f909101601f19169091010190565b61ffff841681526040602082015260006124c96040830184866146de565b601f82111561105457600081815260208120601f850160051c8101602086101561474c5750805b601f850160051c820191505b8181101561160357828155600101614758565b600019600383901b1c191660019190911b1790565b81516001600160401b0381111561479957614799613d7a565b6147ad816147a78454614579565b84614725565b602080601f8311600181146147dc57600084156147ca5750858301515b6147d4858261476b565b865550611603565b600085815260208120601f198616915b8281101561480b578886015182559484019460019091019084016147ec565b50858210156148295787850151600019600388901b60f8161c191681555b5050505050600190811b01905550565b602080825260189082015277115490cdcc8c4e881a5b9d985b1a59081d1bdad95b88125160421b604082015260600190565b600082601f83011261487c57600080fd5b815161488a613df582613dc0565b81815284602083860101111561489f57600080fd5b6124cc826020830160208701613c26565b600080604083850312156148c357600080fd5b82516001600160401b03808211156148da57600080fd5b6148e68683870161486b565b93506020915081850151818111156148fd57600080fd5b85019050601f8101861361491057600080fd5b805161491e613df582613f22565b81815260059190911b8201830190838101908883111561493d57600080fd5b928401925b8284101561495b57835182529284019290840190614942565b80955050505050509250929050565b81810381811115610dfc57610dfc614610565b8284823760609190911b6001600160601b0319169101908152601401919050565b600083516149b0818460208801613c26565b8351908301906149c4818360208801613c26565b01949350505050565b600061ffff808816835280871660208401525084604083015260806060830152613fd36080830184866146de565b61ffff86168152608060208201526000614a196080830186886146de565b6001600160401b0394909416604083015250606001529392505050565b6001600160401b03831115614a4d57614a4d613d7a565b614a6183614a5b8354614579565b83614725565b6000601f841160018114614a8f5760008515614a7d5750838201355b614a87868261476b565b845550610f16565b600083815260209020601f19861690835b82811015614ac05786850135825560209485019460019092019101614aa0565b5086821015614add5760001960f88860031b161c19848701351681555b505060018560011b0183555050505050565b600081518084526020808501945080840160005b83811015614b1f57815187529582019590820190600101614b03565b509495945050505050565b604081526000614b3d6040830185613c4a565b8281036020840152614b4f8185614aef565b95945050505050565b61ffff861681526001600160a01b038516602082015260a060408201819052600090614b8690830186613c4a565b84151560608401528281036080840152614ba08185613c4a565b98975050505050505050565b60008060408385031215614bbf57600080fd5b505080516020909101519092909150565b600060208284031215614be257600080fd5b81516001600160401b03811115614bf857600080fd5b6124cc8482850161486b565b61ffff85168152608060208201526000614c216080830186613c4a565b6001600160401b03851660408401528281036060840152613fd38185613c4a565b60208082526025908201527f4552433732313a207472616e736665722066726f6d20696e636f72726563742060408201526437bbb732b960d91b606082015260800190565b60008251614c99818460208701613c26565b9190910192915050565b602081526000611be86020830184614aef565b8281526040602082015260006124cc6040830184613c4a565b80820180821115610dfc57610dfc614610565b60208082526032908201527f4552433732313a207472616e7366657220746f206e6f6e20455243373231526560408201527131b2b4bb32b91034b6b83632b6b2b73a32b960711b606082015260800190565b61ffff8616815260a060208201526000614d5160a0830187613c4a565b6001600160401b03861660408401528281036060840152614d728186613c4a565b90508281036080840152614ba08185613c4a565b61ffff8716815260c060208201526000614da360c0830188613c4a565b8281036040840152614db58188613c4a565b6001600160a01b0387811660608601528616608085015283810360a08501529050614de08185613c4a565b9998505050505050505050565b6001600160a01b0385811682528416602082015260408101839052608060608201819052600090614e2090830184613c4a565b9695505050505050565b600060208284031215614e3c57600080fd5b8151611be881613bf3565b6020808252601c908201527b115490cdcc8c4e881d1bdad95b88185b1c9958591e481b5a5b9d195960221b60408201526060019056feddf252ad1be2c89b69c2b068fc378daa952ba7f163c4a11628f55a4df523b3efa26469706673582212207494e5c35f0b8c4986508032fc983918ab718c839c87ddbbb4fc3347866f1c1f64736f6c63430008120033",
  "linkReferences": {},
  "deployedLinkReferences": {}
}