{
  "_format": "hh-sol-artifact-1",
  "contractName": "HopliteNFT",
  "sourceName": "contracts/HopliteNFT.sol",
  "abi": [
    {
      "inputs": [
        {
          "internalType": "string",
          "name": "baseURI",
          "type": "string"
        },
        {
          "internalType": "uint256",
          "name": "_goLiveDate",
          "type": "uint256"
        },
        {
          "internalType": "uint256",
          "name": "_minGasToTransfer",
          "type": "uint256"
        },
        {
          "internalType": "address",
          "name": "_lzEndpoint",
          "type": "address"
        }
      ],
      "stateMutability": "nonpayable",
      "type": "constructor"
    },
    {
      "inputs": [],
      "name": "NotWhiteList",
      "type": "error"
    },
    {
      "anonymous": false,
      "inputs": [
        {
          "indexed": true,
          "internalType": "address",
          "name": "owner",
          "type": "address"
        },
        {
          "indexed": true,
          "internalType": "address",
          "name": "approved",
          "type": "address"
        },
        {
          "indexed": true,
          "internalType": "uint256",
          "name": "tokenId",
          "type": "uint256"
        }
      ],
      "name": "Approval",
      "type": "event"
    },
    {
      "anonymous": false,
      "inputs": [
        {
          "indexed": true,
          "internalType": "address",
          "name": "owner",
          "type": "address"
        },
        {
          "indexed": true,
          "internalType": "address",
          "name": "operator",
          "type": "address"
        },
        {
          "indexed": false,
          "internalType": "bool",
          "name": "approved",
          "type": "bool"
        }
      ],
      "name": "ApprovalForAll",
      "type": "event"
    },
    {
      "anonymous": false,
      "inputs": [
        {
          "indexed": false,
          "internalType": "bytes32",
          "name": "_hashedPayload",
          "type": "bytes32"
        }
      ],
      "name": "CreditCleared",
      "type": "event"
    },
    {
      "anonymous": false,
      "inputs": [
        {
          "indexed": false,
          "internalType": "bytes32",
          "name": "_hashedPayload",
          "type": "bytes32"
        },
        {
          "indexed": false,
          "internalType": "bytes",
          "name": "_payload",
          "type": "bytes"
        }
      ],
      "name": "CreditStored",
      "type": "event"
    },
    {
      "anonymous": false,
      "inputs": [],
      "name": "DeleteDefaultRoyalty",
      "type": "event"
    },
    {
      "anonymous": false,
      "inputs": [
        {
          "indexed": false,
          "internalType": "uint16",
          "name": "_srcChainId",
          "type": "uint16"
        },
        {
          "indexed": false,
          "internalType": "bytes",
          "name": "_srcAddress",
          "type": "bytes"
        },
        {
          "indexed": false,
          "internalType": "uint64",
          "name": "_nonce",
          "type": "uint64"
        },
        {
          "indexed": false,
          "internalType": "bytes",
          "name": "_payload",
          "type": "bytes"
        },
        {
          "indexed": false,
          "internalType": "bytes",
          "name": "_reason",
          "type": "bytes"
        }
      ],
      "name": "MessageFailed",
      "type": "event"
    },
    {
      "anonymous": false,
      "inputs": [
        {
          "indexed": false,
          "internalType": "address",
          "name": "receiver",
          "type": "address"
        },
        {
          "indexed": false,
          "internalType": "uint96",
          "name": "newRoyalty",
          "type": "uint96"
        }
      ],
      "name": "NewDefaultRoyalty",
      "type": "event"
    },
    {
      "anonymous": false,
      "inputs": [
        {
          "indexed": false,
          "internalType": "uint256",
          "name": "tokenId",
          "type": "uint256"
        },
        {
          "indexed": false,
          "internalType": "address",
          "name": "receiver",
          "type": "address"
        },
        {
          "indexed": false,
          "internalType": "uint96",
          "name": "newRoyalty",
          "type": "uint96"
        }
      ],
      "name": "NewTokenRoyalty",
      "type": "event"
    },
    {
      "anonymous": false,
      "inputs": [
        {
          "indexed": true,
          "internalType": "address",
          "name": "previousOwner",
          "type": "address"
        },
        {
          "indexed": true,
          "internalType": "address",
          "name": "newOwner",
          "type": "address"
        }
      ],
      "name": "OwnershipTransferred",
      "type": "event"
    },
    {
      "anonymous": false,
      "inputs": [
        {
          "indexed": true,
          "internalType": "uint16",
          "name": "_srcChainId",
          "type": "uint16"
        },
        {
          "indexed": true,
          "internalType": "bytes",
          "name": "_srcAddress",
          "type": "bytes"
        },
        {
          "indexed": true,
          "internalType": "address",
          "name": "_toAddress",
          "type": "address"
        },
        {
          "indexed": false,
          "internalType": "uint256[]",
          "name": "_tokenIds",
          "type": "uint256[]"
        }
      ],
      "name": "ReceiveFromChain",
      "type": "event"
    },
    {
      "anonymous": false,
      "inputs": [
        {
          "indexed": false,
          "internalType": "uint256",
          "name": "tokenId",
          "type": "uint256"
        }
      ],
      "name": "ResetTokenRoyalty",
      "type": "event"
    },
    {
      "anonymous": false,
      "inputs": [
        {
          "indexed": false,
          "internalType": "uint16",
          "name": "_srcChainId",
          "type": "uint16"
        },
        {
          "indexed": false,
          "internalType": "bytes",
          "name": "_srcAddress",
          "type": "bytes"
        },
        {
          "indexed": false,
          "internalType": "uint64",
          "name": "_nonce",
          "type": "uint64"
        },
        {
          "indexed": false,
          "internalType": "bytes32",
          "name": "_payloadHash",
          "type": "bytes32"
        }
      ],
      "name": "RetryMessageSuccess",
      "type": "event"
    },
    {
      "anonymous": false,
      "inputs": [
        {
          "indexed": true,
          "internalType": "uint16",
          "name": "_dstChainId",
          "type": "uint16"
        },
        {
          "indexed": true,
          "internalType": "address",
          "name": "_from",
          "type": "address"
        },
        {
          "indexed": true,
          "internalType": "bytes",
          "name": "_toAddress",
          "type": "bytes"
        },
        {
          "indexed": false,
          "internalType": "uint256[]",
          "name": "_tokenIds",
          "type": "uint256[]"
        }
      ],
      "name": "SendToChain",
      "type": "event"
    },
    {
      "anonymous": false,
      "inputs": [
        {
          "indexed": false,
          "internalType": "string",
          "name": "baseTokenURI",
          "type": "string"
        }
      ],
      "name": "SetBaseURI",
      "type": "event"
    },
    {
      "anonymous": false,
      "inputs": [
        {
          "indexed": false,
          "internalType": "uint16",
          "name": "_dstChainId",
          "type": "uint16"
        },
        {
          "indexed": false,
          "internalType": "uint256",
          "name": "_dstChainIdToBatchLimit",
          "type": "uint256"
        }
      ],
      "name": "SetDstChainIdToBatchLimit",
      "type": "event"
    },
    {
      "anonymous": false,
      "inputs": [
        {
          "indexed": false,
          "internalType": "uint16",
          "name": "_dstChainId",
          "type": "uint16"
        },
        {
          "indexed": false,
          "internalType": "uint256",
          "name": "_dstChainIdToTransferGas",
          "type": "uint256"
        }
      ],
      "name": "SetDstChainIdToTransferGas",
      "type": "event"
    },
    {
      "anonymous": false,
      "inputs": [
        {
          "indexed": false,
          "internalType": "uint16",
          "name": "_dstChainId",
          "type": "uint16"
        },
        {
          "indexed": false,
          "internalType": "uint16",
          "name": "_type",
          "type": "uint16"
        },
        {
          "indexed": false,
          "internalType": "uint256",
          "name": "_minDstGas",
          "type": "uint256"
        }
      ],
      "name": "SetMinDstGas",
      "type": "event"
    },
    {
      "anonymous": false,
      "inputs": [
        {
          "indexed": false,
          "internalType": "uint256",
          "name": "_minGasToTransferAndStore",
          "type": "uint256"
        }
      ],
      "name": "SetMinGasToTransferAndStore",
      "type": "event"
    },
    {
      "anonymous": false,
      "inputs": [
        {
          "indexed": false,
          "internalType": "address",
          "name": "precrime",
          "type": "address"
        }
      ],
      "name": "SetPrecrime",
      "type": "event"
    },
    {
      "anonymous": false,
      "inputs": [
        {
          "indexed": false,
          "internalType": "uint16",
          "name": "_remoteChainId",
          "type": "uint16"
        },
        {
          "indexed": false,
          "internalType": "bytes",
          "name": "_path",
          "type": "bytes"
        }
      ],
      "name": "SetTrustedRemote",
      "type": "event"
    },
    {
      "anonymous": false,
      "inputs": [
        {
          "indexed": false,
          "internalType": "uint16",
          "name": "_remoteChainId",
          "type": "uint16"
        },
        {
          "indexed": false,
          "internalType": "bytes",
          "name": "_remoteAddress",
          "type": "bytes"
        }
      ],
      "name": "SetTrustedRemoteAddress",
      "type": "event"
    },
    {
      "anonymous": false,
      "inputs": [
        {
          "indexed": true,
          "internalType": "address",
          "name": "from",
          "type": "address"
        },
        {
          "indexed": true,
          "internalType": "address",
          "name": "to",
          "type": "address"
        },
        {
          "indexed": true,
          "internalType": "uint256",
          "name": "tokenId",
          "type": "uint256"
        }
      ],
      "name": "Transfer",
      "type": "event"
    },
    {
      "inputs": [],
      "name": "DEFAULT_PAYLOAD_SIZE_LIMIT",
      "outputs": [
        {
          "internalType": "uint256",
          "name": "",
          "type": "uint256"
        }
      ],
      "stateMutability": "view",
      "type": "function"
    },
    {
      "inputs": [],
      "name": "FUNCTION_TYPE_SEND",
      "outputs": [
        {
          "internalType": "uint16",
          "name": "",
          "type": "uint16"
        }
      ],
      "stateMutability": "view",
      "type": "function"
    },
    {
      "inputs": [
        {
          "internalType": "address",
          "name": "to",
          "type": "address"
        },
        {
          "internalType": "uint256",
          "name": "tokenId",
          "type": "uint256"
        }
      ],
      "name": "approve",
      "outputs": [],
      "stateMutability": "nonpayable",
      "type": "function"
    },
    {
      "inputs": [
        {
          "internalType": "address",
          "name": "owner",
          "type": "address"
        }
      ],
      "name": "balanceOf",
      "outputs": [
        {
          "internalType": "uint256",
          "name": "",
          "type": "uint256"
        }
      ],
      "stateMutability": "view",
      "type": "function"
    },
    {
      "inputs": [
        {
          "internalType": "bytes",
          "name": "_payload",
          "type": "bytes"
        }
      ],
      "name": "clearCredits",
      "outputs": [],
      "stateMutability": "nonpayable",
      "type": "function"
    },
    {
      "inputs": [],
      "name": "deleteDefaultRoyalty",
      "outputs": [],
      "stateMutability": "nonpayable",
      "type": "function"
    },
    {
      "inputs": [
        {
          "internalType": "uint16",
          "name": "",
          "type": "uint16"
        }
      ],
      "name": "dstChainIdToBatchLimit",
      "outputs": [
        {
          "internalType": "uint256",
          "name": "",
          "type": "uint256"
        }
      ],
      "stateMutability": "view",
      "type": "function"
    },
    {
      "inputs": [
        {
          "internalType": "uint16",
          "name": "",
          "type": "uint16"
        }
      ],
      "name": "dstChainIdToTransferGas",
      "outputs": [
        {
          "internalType": "uint256",
          "name": "",
          "type": "uint256"
        }
      ],
      "stateMutability": "view",
      "type": "function"
    },
    {
      "inputs": [
        {
          "internalType": "uint16",
          "name": "_dstChainId",
          "type": "uint16"
        },
        {
          "internalType": "bytes",
          "name": "_toAddress",
          "type": "bytes"
        },
        {
          "internalType": "uint256[]",
          "name": "_tokenIds",
          "type": "uint256[]"
        },
        {
          "internalType": "bool",
          "name": "_useZro",
          "type": "bool"
        },
        {
          "internalType": "bytes",
          "name": "_adapterParams",
          "type": "bytes"
        }
      ],
      "name": "estimateSendBatchFee",
      "outputs": [
        {
          "internalType": "uint256",
          "name": "nativeFee",
          "type": "uint256"
        },
        {
          "internalType": "uint256",
          "name": "zroFee",
          "type": "uint256"
        }
      ],
      "stateMutability": "view",
      "type": "function"
    },
    {
      "inputs": [
        {
          "internalType": "uint16",
          "name": "_dstChainId",
          "type": "uint16"
        },
        {
          "internalType": "bytes",
          "name": "_toAddress",
          "type": "bytes"
        },
        {
          "internalType": "uint256",
          "name": "_tokenId",
          "type": "uint256"
        },
        {
          "internalType": "bool",
          "name": "_useZro",
          "type": "bool"
        },
        {
          "internalType": "bytes",
          "name": "_adapterParams",
          "type": "bytes"
        }
      ],
      "name": "estimateSendFee",
      "outputs": [
        {
          "internalType": "uint256",
          "name": "nativeFee",
          "type": "uint256"
        },
        {
          "internalType": "uint256",
          "name": "zroFee",
          "type": "uint256"
        }
      ],
      "stateMutability": "view",
      "type": "function"
    },
    {
      "inputs": [
        {
          "internalType": "uint16",
          "name": "",
          "type": "uint16"
        },
        {
          "internalType": "bytes",
          "name": "",
          "type": "bytes"
        },
        {
          "internalType": "uint64",
          "name": "",
          "type": "uint64"
        }
      ],
      "name": "failedMessages",
      "outputs": [
        {
          "internalType": "bytes32",
          "name": "",
          "type": "bytes32"
        }
      ],
      "stateMutability": "view",
      "type": "function"
    },
    {
      "inputs": [
        {
          "internalType": "uint16",
          "name": "_srcChainId",
          "type": "uint16"
        },
        {
          "internalType": "bytes",
          "name": "_srcAddress",
          "type": "bytes"
        }
      ],
      "name": "forceResumeReceive",
      "outputs": [],
      "stateMutability": "nonpayable",
      "type": "function"
    },
    {
      "inputs": [
        {
          "internalType": "uint256",
          "name": "tokenId",
          "type": "uint256"
        }
      ],
      "name": "getApproved",
      "outputs": [
        {
          "internalType": "address",
          "name": "",
          "type": "address"
        }
      ],
      "stateMutability": "view",
      "type": "function"
    },
    {
      "inputs": [
        {
          "internalType": "uint16",
          "name": "_version",
          "type": "uint16"
        },
        {
          "internalType": "uint16",
          "name": "_chainId",
          "type": "uint16"
        },
        {
          "internalType": "address",
          "name": "",
          "type": "address"
        },
        {
          "internalType": "uint256",
          "name": "_configType",
          "type": "uint256"
        }
      ],
      "name": "getConfig",
      "outputs": [
        {
          "internalType": "bytes",
          "name": "",
          "type": "bytes"
        }
      ],
      "stateMutability": "view",
      "type": "function"
    },
    {
      "inputs": [
        {
          "internalType": "uint16",
          "name": "_remoteChainId",
          "type": "uint16"
        }
      ],
      "name": "getTrustedRemoteAddress",
      "outputs": [
        {
          "internalType": "bytes",
          "name": "",
          "type": "bytes"
        }
      ],
      "stateMutability": "view",
      "type": "function"
    },
    {
      "inputs": [],
      "name": "goLiveDate",
      "outputs": [
        {
          "internalType": "uint256",
          "name": "",
          "type": "uint256"
        }
      ],
      "stateMutability": "view",
      "type": "function"
    },
    {
      "inputs": [
        {
          "internalType": "address",
          "name": "owner",
          "type": "address"
        },
        {
          "internalType": "address",
          "name": "operator",
          "type": "address"
        }
      ],
      "name": "isApprovedForAll",
      "outputs": [
        {
          "internalType": "bool",
          "name": "",
          "type": "bool"
        }
      ],
      "stateMutability": "view",
      "type": "function"
    },
    {
      "inputs": [
        {
          "internalType": "uint16",
          "name": "_srcChainId",
          "type": "uint16"
        },
        {
          "internalType": "bytes",
          "name": "_srcAddress",
          "type": "bytes"
        }
      ],
      "name": "isTrustedRemote",
      "outputs": [
        {
          "internalType": "bool",
          "name": "",
          "type": "bool"
        }
      ],
      "stateMutability": "view",
      "type": "function"
    },
    {
      "inputs": [],
      "name": "lzEndpoint",
      "outputs": [
        {
          "internalType": "contract ILayerZeroEndpoint",
          "name": "",
          "type": "address"
        }
      ],
      "stateMutability": "view",
      "type": "function"
    },
    {
      "inputs": [
        {
          "internalType": "uint16",
          "name": "_srcChainId",
          "type": "uint16"
        },
        {
          "internalType": "bytes",
          "name": "_srcAddress",
          "type": "bytes"
        },
        {
          "internalType": "uint64",
          "name": "_nonce",
          "type": "uint64"
        },
        {
          "internalType": "bytes",
          "name": "_payload",
          "type": "bytes"
        }
      ],
      "name": "lzReceive",
      "outputs": [],
      "stateMutability": "nonpayable",
      "type": "function"
    },
    {
      "inputs": [
        {
          "internalType": "uint16",
          "name": "",
          "type": "uint16"
        },
        {
          "internalType": "uint16",
          "name": "",
          "type": "uint16"
        }
      ],
      "name": "minDstGasLookup",
      "outputs": [
        {
          "internalType": "uint256",
          "name": "",
          "type": "uint256"
        }
      ],
      "stateMutability": "view",
      "type": "function"
    },
    {
      "inputs": [],
      "name": "minGasToTransferAndStore",
      "outputs": [
        {
          "internalType": "uint256",
          "name": "",
          "type": "uint256"
        }
      ],
      "stateMutability": "view",
      "type": "function"
    },
    {
      "inputs": [],
      "name": "name",
      "outputs": [
        {
          "internalType": "string",
          "name": "",
          "type": "string"
        }
      ],
      "stateMutability": "view",
      "type": "function"
    },
    {
      "inputs": [
        {
          "internalType": "uint16",
          "name": "_srcChainId",
          "type": "uint16"
        },
        {
          "internalType": "bytes",
          "name": "_srcAddress",
          "type": "bytes"
        },
        {
          "internalType": "uint64",
          "name": "_nonce",
          "type": "uint64"
        },
        {
          "internalType": "bytes",
          "name": "_payload",
          "type": "bytes"
        }
      ],
      "name": "nonblockingLzReceive",
      "outputs": [],
      "stateMutability": "nonpayable",
      "type": "function"
    },
    {
      "inputs": [],
      "name": "owner",
      "outputs": [
        {
          "internalType": "address",
          "name": "",
          "type": "address"
        }
      ],
      "stateMutability": "view",
      "type": "function"
    },
    {
      "inputs": [
        {
          "internalType": "uint256",
          "name": "tokenId",
          "type": "uint256"
        }
      ],
      "name": "ownerOf",
      "outputs": [
        {
          "internalType": "address",
          "name": "",
          "type": "address"
        }
      ],
      "stateMutability": "view",
      "type": "function"
    },
    {
      "inputs": [
        {
          "internalType": "uint16",
          "name": "",
          "type": "uint16"
        }
      ],
      "name": "payloadSizeLimitLookup",
      "outputs": [
        {
          "internalType": "uint256",
          "name": "",
          "type": "uint256"
        }
      ],
      "stateMutability": "view",
      "type": "function"
    },
    {
      "inputs": [],
      "name": "precrime",
      "outputs": [
        {
          "internalType": "address",
          "name": "",
          "type": "address"
        }
      ],
      "stateMutability": "view",
      "type": "function"
    },
    {
      "inputs": [
        {
          "internalType": "address[]",
          "name": "_whiteListUsers",
          "type": "address[]"
        }
      ],
      "name": "removeWhiteList",
      "outputs": [],
      "stateMutability": "nonpayable",
      "type": "function"
    },
    {
      "inputs": [],
      "name": "renounceOwnership",
      "outputs": [],
      "stateMutability": "nonpayable",
      "type": "function"
    },
    {
      "inputs": [
        {
          "internalType": "uint256",
          "name": "tokenId",
          "type": "uint256"
        }
      ],
      "name": "resetTokenRoyalty",
      "outputs": [],
      "stateMutability": "nonpayable",
      "type": "function"
    },
    {
      "inputs": [
        {
          "internalType": "uint16",
          "name": "_srcChainId",
          "type": "uint16"
        },
        {
          "internalType": "bytes",
          "name": "_srcAddress",
          "type": "bytes"
        },
        {
          "internalType": "uint64",
          "name": "_nonce",
          "type": "uint64"
        },
        {
          "internalType": "bytes",
          "name": "_payload",
          "type": "bytes"
        }
      ],
      "name": "retryMessage",
      "outputs": [],
      "stateMutability": "payable",
      "type": "function"
    },
    {
      "inputs": [
        {
          "internalType": "uint256",
          "name": "tokenId",
          "type": "uint256"
        },
        {
          "internalType": "uint256",
          "name": "salePrice",
          "type": "uint256"
        }
      ],
      "name": "royaltyInfo",
      "outputs": [
        {
          "internalType": "address",
          "name": "",
          "type": "address"
        },
        {
          "internalType": "uint256",
          "name": "",
          "type": "uint256"
        }
      ],
      "stateMutability": "view",
      "type": "function"
    },
    {
      "inputs": [
        {
          "internalType": "address",
          "name": "from",
          "type": "address"
        },
        {
          "internalType": "address",
          "name": "to",
          "type": "address"
        },
        {
          "internalType": "uint256",
          "name": "tokenId",
          "type": "uint256"
        }
      ],
      "name": "safeTransferFrom",
      "outputs": [],
      "stateMutability": "nonpayable",
      "type": "function"
    },
    {
      "inputs": [
        {
          "internalType": "address",
          "name": "from",
          "type": "address"
        },
        {
          "internalType": "address",
          "name": "to",
          "type": "address"
        },
        {
          "internalType": "uint256",
          "name": "tokenId",
          "type": "uint256"
        },
        {
          "internalType": "bytes",
          "name": "data",
          "type": "bytes"
        }
      ],
      "name": "safeTransferFrom",
      "outputs": [],
      "stateMutability": "nonpayable",
      "type": "function"
    },
    {
      "inputs": [
        {
          "internalType": "address",
          "name": "_from",
          "type": "address"
        },
        {
          "internalType": "uint16",
          "name": "_dstChainId",
          "type": "uint16"
        },
        {
          "internalType": "bytes",
          "name": "_toAddress",
          "type": "bytes"
        },
        {
          "internalType": "uint256[]",
          "name": "_tokenIds",
          "type": "uint256[]"
        },
        {
          "internalType": "address payable",
          "name": "_refundAddress",
          "type": "address"
        },
        {
          "internalType": "address",
          "name": "_zroPaymentAddress",
          "type": "address"
        },
        {
          "internalType": "bytes",
          "name": "_adapterParams",
          "type": "bytes"
        }
      ],
      "name": "sendBatchFrom",
      "outputs": [],
      "stateMutability": "payable",
      "type": "function"
    },
    {
      "inputs": [
        {
          "internalType": "address",
          "name": "_from",
          "type": "address"
        },
        {
          "internalType": "uint16",
          "name": "_dstChainId",
          "type": "uint16"
        },
        {
          "internalType": "bytes",
          "name": "_toAddress",
          "type": "bytes"
        },
        {
          "internalType": "uint256",
          "name": "_tokenId",
          "type": "uint256"
        },
        {
          "internalType": "address payable",
          "name": "_refundAddress",
          "type": "address"
        },
        {
          "internalType": "address",
          "name": "_zroPaymentAddress",
          "type": "address"
        },
        {
          "internalType": "bytes",
          "name": "_adapterParams",
          "type": "bytes"
        }
      ],
      "name": "sendFrom",
      "outputs": [],
      "stateMutability": "payable",
      "type": "function"
    },
    {
      "inputs": [
        {
          "internalType": "address",
          "name": "operator",
          "type": "address"
        },
        {
          "internalType": "bool",
          "name": "approved",
          "type": "bool"
        }
      ],
      "name": "setApprovalForAll",
      "outputs": [],
      "stateMutability": "nonpayable",
      "type": "function"
    },
    {
      "inputs": [
        {
          "internalType": "string",
          "name": "baseURI",
          "type": "string"
        }
      ],
      "name": "setBaseURI",
      "outputs": [],
      "stateMutability": "nonpayable",
      "type": "function"
    },
    {
      "inputs": [
        {
          "internalType": "uint16",
          "name": "_version",
          "type": "uint16"
        },
        {
          "internalType": "uint16",
          "name": "_chainId",
          "type": "uint16"
        },
        {
          "internalType": "uint256",
          "name": "_configType",
          "type": "uint256"
        },
        {
          "internalType": "bytes",
          "name": "_config",
          "type": "bytes"
        }
      ],
      "name": "setConfig",
      "outputs": [],
      "stateMutability": "nonpayable",
      "type": "function"
    },
    {
      "inputs": [
        {
          "internalType": "address",
          "name": "receiver",
          "type": "address"
        },
        {
          "internalType": "uint96",
          "name": "newRoyalty",
          "type": "uint96"
        }
      ],
      "name": "setDefaultRoyalty",
      "outputs": [],
      "stateMutability": "nonpayable",
      "type": "function"
    },
    {
      "inputs": [
        {
          "internalType": "uint16",
          "name": "_dstChainId",
          "type": "uint16"
        },
        {
          "internalType": "uint256",
          "name": "_dstChainIdToBatchLimit",
          "type": "uint256"
        }
      ],
      "name": "setDstChainIdToBatchLimit",
      "outputs": [],
      "stateMutability": "nonpayable",
      "type": "function"
    },
    {
      "inputs": [
        {
          "internalType": "uint16",
          "name": "_dstChainId",
          "type": "uint16"
        },
        {
          "internalType": "uint256",
          "name": "_dstChainIdToTransferGas",
          "type": "uint256"
        }
      ],
      "name": "setDstChainIdToTransferGas",
      "outputs": [],
      "stateMutability": "nonpayable",
      "type": "function"
    },
    {
      "inputs": [
        {
          "internalType": "uint16",
          "name": "_dstChainId",
          "type": "uint16"
        },
        {
          "internalType": "uint16",
          "name": "_packetType",
          "type": "uint16"
        },
        {
          "internalType": "uint256",
          "name": "_minGas",
          "type": "uint256"
        }
      ],
      "name": "setMinDstGas",
      "outputs": [],
      "stateMutability": "nonpayable",
      "type": "function"
    },
    {
      "inputs": [
        {
          "internalType": "uint256",
          "name": "_minGasToTransferAndStore",
          "type": "uint256"
        }
      ],
      "name": "setMinGasToTransferAndStore",
      "outputs": [],
      "stateMutability": "nonpayable",
      "type": "function"
    },
    {
      "inputs": [
        {
          "internalType": "uint16",
          "name": "_dstChainId",
          "type": "uint16"
        },
        {
          "internalType": "uint256",
          "name": "_size",
          "type": "uint256"
        }
      ],
      "name": "setPayloadSizeLimit",
      "outputs": [],
      "stateMutability": "nonpayable",
      "type": "function"
    },
    {
      "inputs": [
        {
          "internalType": "address",
          "name": "_precrime",
          "type": "address"
        }
      ],
      "name": "setPrecrime",
      "outputs": [],
      "stateMutability": "nonpayable",
      "type": "function"
    },
    {
      "inputs": [
        {
          "internalType": "uint16",
          "name": "_version",
          "type": "uint16"
        }
      ],
      "name": "setReceiveVersion",
      "outputs": [],
      "stateMutability": "nonpayable",
      "type": "function"
    },
    {
      "inputs": [
        {
          "internalType": "uint16",
          "name": "_version",
          "type": "uint16"
        }
      ],
      "name": "setSendVersion",
      "outputs": [],
      "stateMutability": "nonpayable",
      "type": "function"
    },
    {
      "inputs": [
        {
          "internalType": "uint256",
          "name": "tokenId",
          "type": "uint256"
        },
        {
          "internalType": "address",
          "name": "receiver",
          "type": "address"
        },
        {
          "internalType": "uint96",
          "name": "newRoyalty",
          "type": "uint96"
        }
      ],
      "name": "setTokenRoyalty",
      "outputs": [],
      "stateMutability": "nonpayable",
      "type": "function"
    },
    {
      "inputs": [
        {
          "internalType": "uint16",
          "name": "_remoteChainId",
          "type": "uint16"
        },
        {
          "internalType": "bytes",
          "name": "_path",
          "type": "bytes"
        }
      ],
      "name": "setTrustedRemote",
      "outputs": [],
      "stateMutability": "nonpayable",
      "type": "function"
    },
    {
      "inputs": [
        {
          "internalType": "uint16",
          "name": "_remoteChainId",
          "type": "uint16"
        },
        {
          "internalType": "bytes",
          "name": "_remoteAddress",
          "type": "bytes"
        }
      ],
      "name": "setTrustedRemoteAddress",
      "outputs": [],
      "stateMutability": "nonpayable",
      "type": "function"
    },
    {
      "inputs": [
        {
          "internalType": "bytes32",
          "name": "",
          "type": "bytes32"
        }
      ],
      "name": "storedCredits",
      "outputs": [
        {
          "internalType": "uint16",
          "name": "srcChainId",
          "type": "uint16"
        },
        {
          "internalType": "address",
          "name": "toAddress",
          "type": "address"
        },
        {
          "internalType": "uint256",
          "name": "index",
          "type": "uint256"
        },
        {
          "internalType": "bool",
          "name": "creditsRemain",
          "type": "bool"
        }
      ],
      "stateMutability": "view",
      "type": "function"
    },
    {
      "inputs": [
        {
          "internalType": "bytes4",
          "name": "interfaceId",
          "type": "bytes4"
        }
      ],
      "name": "supportsInterface",
      "outputs": [
        {
          "internalType": "bool",
          "name": "",
          "type": "bool"
        }
      ],
      "stateMutability": "view",
      "type": "function"
    },
    {
      "inputs": [],
      "name": "symbol",
      "outputs": [
        {
          "internalType": "string",
          "name": "",
          "type": "string"
        }
      ],
      "stateMutability": "view",
      "type": "function"
    },
    {
      "inputs": [
        {
          "internalType": "uint256",
          "name": "tokenId",
          "type": "uint256"
        }
      ],
      "name": "tokenURI",
      "outputs": [
        {
          "internalType": "string",
          "name": "",
          "type": "string"
        }
      ],
      "stateMutability": "view",
      "type": "function"
    },
    {
      "inputs": [
        {
          "internalType": "address",
          "name": "from",
          "type": "address"
        },
        {
          "internalType": "address",
          "name": "to",
          "type": "address"
        },
        {
          "internalType": "uint256",
          "name": "tokenId",
          "type": "uint256"
        }
      ],
      "name": "transferFrom",
      "outputs": [],
      "stateMutability": "nonpayable",
      "type": "function"
    },
    {
      "inputs": [
        {
          "internalType": "address",
          "name": "newOwner",
          "type": "address"
        }
      ],
      "name": "transferOwnership",
      "outputs": [],
      "stateMutability": "nonpayable",
      "type": "function"
    },
    {
      "inputs": [
        {
          "internalType": "uint16",
          "name": "",
          "type": "uint16"
        }
      ],
      "name": "trustedRemoteLookup",
      "outputs": [
        {
          "internalType": "bytes",
          "name": "",
          "type": "bytes"
        }
      ],
      "stateMutability": "view",
      "type": "function"
    },
    {
      "inputs": [
        {
          "internalType": "address[]",
          "name": "_whiteListUsers",
          "type": "address[]"
        }
      ],
      "name": "updateWhiteList",
      "outputs": [],
      "stateMutability": "nonpayable",
      "type": "function"
    },
    {
      "inputs": [
        {
          "internalType": "address",
          "name": "",
          "type": "address"
        }
      ],
      "name": "whiteList",
      "outputs": [
        {
          "internalType": "bool",
          "name": "",
          "type": "bool"
        }
      ],
      "stateMutability": "view",
      "type": "function"
    }
  ],
  "bytecode": "0x60a06040523480156200001157600080fd5b506040516200595f3803806200595f83398101604081905262000034916200049a565b6040518060400160405280600f81526020016e4d6f7a61696320486f706c6974657360881b815250604051806040016040528060038152602001620484f560ec1b81525083838383838380806200009a62000094620001b360201b60201c565b620001b7565b6001600160a01b0316608052506001600655816200010b5760405162461bcd60e51b8152602060048201526024808201527f6d696e476173546f5472616e73666572416e6453746f7265206d7573742062656044820152630203e20360e41b60648201526084015b60405180910390fd5b50600755600b6200011d838262000624565b50600c6200012c828262000624565b5050505050505062000144846200020760201b60201c565b6015839055336000908152601460205260408120805460ff191660011790555b61017981101562000190576200017b33826200025d565b806200018781620006f0565b91505062000164565b5050336000908152601460205260409020805460ff1916905550620007e2915050565b3390565b600080546001600160a01b038381166001600160a01b0319831681178455604051919092169283917f8be0079c531659141344cd1fd0a4f28419497f9722a3daafe3b4186f6b6457e09190a35050565b62000211620003a0565b60136200021f828262000624565b507f23c8c9488efebfd474e85a7956de6f39b17c7ab88502d42a623db2d8e382bbaa601360405162000252919062000718565b60405180910390a150565b6001600160a01b038216620002b55760405162461bcd60e51b815260206004820181905260248201527f4552433732313a206d696e7420746f20746865207a65726f2061646472657373604482015260640162000102565b6000818152600d60205260409020546001600160a01b031615620002ed5760405162461bcd60e51b81526004016200010290620007ab565b620002fd600083836001620003fe565b6000818152600d60205260409020546001600160a01b031615620003355760405162461bcd60e51b81526004016200010290620007ab565b6001600160a01b0382166000818152600e6020908152604080832080546001019055848352600d90915280822080546001600160a01b0319168417905551839291907fddf252ad1be2c89b69c2b068fc378daa952ba7f163c4a11628f55a4df523b3ef908290a45050565b6000546001600160a01b03163314620003fc5760405162461bcd60e51b815260206004820181905260248201527f4f776e61626c653a2063616c6c6572206973206e6f7420746865206f776e6572604482015260640162000102565b565b601554421080156200042957506001600160a01b03831660009081526014602052604090205460ff16155b156200044857604051637aa6656d60e11b815260040160405180910390fd5b62000461848484846200046160201b62001e001760201c565b50505050565b634e487b7160e01b600052604160045260246000fd5b80516001600160a01b03811681146200049557600080fd5b919050565b60008060008060808587031215620004b157600080fd5b84516001600160401b0380821115620004c957600080fd5b818701915087601f830112620004de57600080fd5b815181811115620004f357620004f362000467565b604051601f8201601f19908116603f011681019083821181831017156200051e576200051e62000467565b81604052828152602093508a848487010111156200053b57600080fd5b600091505b828210156200055f578482018401518183018501529083019062000540565b60008484830101528098505050508087015194505050604085015191506200058a606086016200047d565b905092959194509250565b600181811c90821680620005aa57607f821691505b602082108103620005cb57634e487b7160e01b600052602260045260246000fd5b50919050565b601f8211156200061f57600081815260208120601f850160051c81016020861015620005fa5750805b601f850160051c820191505b818110156200061b5782815560010162000606565b5050505b505050565b81516001600160401b0381111562000640576200064062000467565b620006588162000651845462000595565b84620005d1565b602080601f831160018114620006905760008415620006775750858301515b600019600386901b1c1916600185901b1785556200061b565b600085815260208120601f198616915b82811015620006c157888601518255948401946001909101908401620006a0565b5085821015620006e05787850151600019600388901b60f8161c191681555b5050505050600190811b01905550565b6000600182016200071157634e487b7160e01b600052601160045260246000fd5b5060010190565b60006020808352600084546200072e8162000595565b808487015260406001808416600081146200075257600181146200076d576200079d565b60ff1985168984015283151560051b8901830195506200079d565b896000528660002060005b85811015620007955781548b820186015290830190880162000778565b8a0184019650505b509398975050505050505050565b6020808252601c908201527f4552433732313a20746f6b656e20616c7265616479206d696e74656400000000604082015260600190565b608051615129620008366000396000818161096201528181610b5d01528181610ef501528181611179015281816114e701528181611ede0152818161234b0152818161247e01526136b201526151296000f3fe6080604052600436106102c15760003560e01c8063715018a611610177578063715018a6146107895780637533d7881461079e5780638a616bc0146107be5780638cfd8f5c146107de5780638da5cb5b146108165780638ffa1f2a1461082b578063950c8a741461084b57806395d89b411461086b5780639ea5d6b1146108805780639f38369a146108a0578063a22cb465146108c0578063a6c3d165146108e0578063aa1b103f14610900578063ab3ffb9314610915578063af3fb21c14610928578063b353aaa714610950578063b88d4fde14610984578063baf3292d146109a4578063c4461834146109c4578063c87b56dd146109da578063cbed8b9c146109fa578063d12473a514610a1a578063d1deba1f14610a3a578063df2a5b3b14610a4d578063e985e9c514610a6d578063eb8d72b714610a8d578063f235364114610aad578063f2fde38b14610acd578063f5ecbdbc14610aed578063f999e05d14610b0d578063fa25f9b614610b2d57600080fd5b80621d3567146102c657806301ffc9a7146102e857806304634d8d1461031d57806306fdde031461033d57806307e0db171461035f578063081812fc1461037f578063095ea7b3146103ac5780630b4cad4c146103cc5780630df37483146103ec57806310ddb1371461040c57806322a3ecf91461042c57806323b872dd146104af5780632a205e3d146104cf5780632a55205a14610504578063372c12b11461054357806339745791146105735780633d8b38f6146105935780633f1f4fa4146105b357806342842e0e146105ee57806342d65a8d1461060e578063482881901461062e5780634ac3f4ff14610644578063519056361461067157806355f804b3146106845780635944c753146106a45780635b8c41e6146106c45780636352211e1461071357806366ad5c8a146107335780636cee6da21461075357806370a0823114610769575b600080fd5b3480156102d257600080fd5b506102e66102e1366004613c68565b610b5a565b005b3480156102f457600080fd5b50610308610303366004613d11565b610d8b565b60405190151581526020015b60405180910390f35b34801561032957600080fd5b506102e6610338366004613d65565b610db6565b34801561034957600080fd5b50610352610e42565b6040516103149190613dea565b34801561036b57600080fd5b506102e661037a366004613dfd565b610ed4565b34801561038b57600080fd5b5061039f61039a366004613e18565b610f5d565b6040516103149190613e31565b3480156103b857600080fd5b506102e66103c7366004613e45565b610f84565b3480156103d857600080fd5b506102e66103e7366004613e18565b611099565b3480156103f857600080fd5b506102e6610407366004613e71565b611139565b34801561041857600080fd5b506102e6610427366004613dfd565b611158565b34801561043857600080fd5b50610480610447366004613e18565b600a6020526000908152604090208054600182015460029092015461ffff821692620100009092046001600160a01b0316919060ff1684565b6040805161ffff90951685526001600160a01b0390931660208501529183015215156060820152608001610314565b3480156104bb57600080fd5b506102e66104ca366004613e8d565b6111b0565b3480156104db57600080fd5b506104ef6104ea366004613fa9565b6111e2565b60408051928352602083019190915201610314565b34801561051057600080fd5b5061052461051f366004614037565b611208565b604080516001600160a01b039093168352602083019190915201610314565b34801561054f57600080fd5b5061030861055e366004614059565b60146020526000908152604090205460ff1681565b34801561057f57600080fd5b506102e661058e366004614099565b6112b6565b34801561059f57600080fd5b506103086105ae366004614132565b6113e1565b3480156105bf57600080fd5b506105e06105ce366004613dfd565b60036020526000908152604090205481565b604051908152602001610314565b3480156105fa57600080fd5b506102e6610609366004613e8d565b6114ad565b34801561061a57600080fd5b506102e6610629366004614132565b6114c8565b34801561063a57600080fd5b506105e060075481565b34801561065057600080fd5b506105e061065f366004613dfd565b60086020526000908152604090205481565b6102e661067f366004614184565b61154e565b34801561069057600080fd5b506102e661069f36600461423d565b611565565b3480156106b057600080fd5b506102e66106bf366004614285565b6115aa565b3480156106d057600080fd5b506105e06106df3660046142c3565b6005602090815260009384526040808520845180860184018051928152908401958401959095209452929052825290205481565b34801561071f57600080fd5b5061039f61072e366004613e18565b611642565b34801561073f57600080fd5b506102e661074e366004613c68565b611676565b34801561075f57600080fd5b506105e060155481565b34801561077557600080fd5b506105e0610784366004614059565b611752565b34801561079557600080fd5b506102e66117d8565b3480156107aa57600080fd5b506103526107b9366004613dfd565b6117ec565b3480156107ca57600080fd5b506102e66107d9366004613e18565b611886565b3480156107ea57600080fd5b506105e06107f9366004614317565b600260209081526000928352604080842090915290825290205481565b34801561082257600080fd5b5061039f6118cd565b34801561083757600080fd5b506102e6610846366004614341565b6118dc565b34801561085757600080fd5b5060045461039f906001600160a01b031681565b34801561087757600080fd5b50610352611b27565b34801561088c57600080fd5b506102e661089b366004613e71565b611b36565b3480156108ac57600080fd5b506103526108bb366004613dfd565b611be5565b3480156108cc57600080fd5b506102e66108db366004614375565b611cfb565b3480156108ec57600080fd5b506102e66108fb366004614132565b611d06565b34801561090c57600080fd5b506102e6611d82565b6102e6610923366004614407565b611dbf565b34801561093457600080fd5b5061093d600181565b60405161ffff9091168152602001610314565b34801561095c57600080fd5b5061039f7f000000000000000000000000000000000000000000000000000000000000000081565b34801561099057600080fd5b506102e661099f3660046144bc565b611dce565b3480156109b057600080fd5b506102e66109bf366004614059565b611e06565b3480156109d057600080fd5b506105e061271081565b3480156109e657600080fd5b506103526109f5366004613e18565b611e59565b348015610a0657600080fd5b506102e6610a15366004614527565b611ebf565b348015610a2657600080fd5b506102e6610a35366004613e71565b611f54565b6102e6610a48366004613c68565b612004565b348015610a5957600080fd5b506102e6610a68366004614595565b61221a565b348015610a7957600080fd5b50610308610a883660046145d1565b612284565b348015610a9957600080fd5b506102e6610aa8366004614132565b6122b2565b348015610ab957600080fd5b506104ef610ac836600461460a565b61230c565b348015610ad957600080fd5b506102e6610ae8366004614059565b6123d7565b348015610af957600080fd5b50610352610b08366004614683565b61244d565b348015610b1957600080fd5b506102e6610b28366004614099565b612500565b348015610b3957600080fd5b506105e0610b48366004613dfd565b60096020526000908152604090205481565b337f00000000000000000000000000000000000000000000000000000000000000006001600160a01b031614610bd75760405162461bcd60e51b815260206004820152601e60248201527f4c7a4170703a20696e76616c696420656e64706f696e742063616c6c6572000060448201526064015b60405180910390fd5b61ffff861660009081526001602052604081208054610bf5906146d0565b80601f0160208091040260200160405190810160405280929190818152602001828054610c21906146d0565b8015610c6e5780601f10610c4357610100808354040283529160200191610c6e565b820191906000526020600020905b815481529060010190602001808311610c5157829003601f168201915b50505050509050805186869050148015610c89575060008151115b8015610cb1575080516020820120604051610ca7908890889061470a565b6040518091039020145b610d0c5760405162461bcd60e51b815260206004820152602660248201527f4c7a4170703a20696e76616c696420736f757263652073656e64696e6720636f6044820152651b9d1c9858dd60d21b6064820152608401610bce565b610d828787878080601f01602080910402602001604051908101604052809392919081815260200183838082843760009201919091525050604080516020601f8a018190048102820181019092528881528a93509150889088908190840183828082843760009201919091525061262392505050565b50505050505050565b60006001600160e01b03198216637424212f60e11b1480610db05750610db08261269c565b92915050565b610dbe6126c1565b6103e8816001600160601b03161115610de95760405162461bcd60e51b8152600401610bce9061471a565b610df38282612720565b604080516001600160a01b03841681526001600160601b03831660208201527fb3c4a23f8cdd9e7eef9545bfeb93240d382b94a0f6fd90cac34ccf0771416d2591015b60405180910390a15050565b6060600b8054610e51906146d0565b80601f0160208091040260200160405190810160405280929190818152602001828054610e7d906146d0565b8015610eca5780601f10610e9f57610100808354040283529160200191610eca565b820191906000526020600020905b815481529060010190602001808311610ead57829003601f168201915b5050505050905090565b610edc6126c1565b6040516307e0db1760e01b815261ffff821660048201527f00000000000000000000000000000000000000000000000000000000000000006001600160a01b0316906307e0db17906024015b600060405180830381600087803b158015610f4257600080fd5b505af1158015610f56573d6000803e3d6000fd5b5050505050565b6000610f68826127d6565b506000908152600f60205260409020546001600160a01b031690565b6000610f8f82611642565b9050806001600160a01b0316836001600160a01b031603610ffc5760405162461bcd60e51b815260206004820152602160248201527f4552433732313a20617070726f76616c20746f2063757272656e74206f776e656044820152603960f91b6064820152608401610bce565b336001600160a01b038216148061101857506110188133612284565b61108a5760405162461bcd60e51b815260206004820152603d60248201527f4552433732313a20617070726f76652063616c6c6572206973206e6f7420746f60448201527f6b656e206f776e6572206f7220617070726f76656420666f7220616c6c0000006064820152608401610bce565b61109483836127fb565b505050565b6110a16126c1565b600081116110fd5760405162461bcd60e51b8152602060048201526024808201527f6d696e476173546f5472616e73666572416e6453746f7265206d7573742062656044820152630203e20360e41b6064820152608401610bce565b60078190556040518181527ffebbc4f8bb9ec2313950c718d43123124b15778efda4c1f1d529de2995b4f34d906020015b60405180910390a150565b6111416126c1565b61ffff909116600090815260036020526040902055565b6111606126c1565b6040516310ddb13760e01b815261ffff821660048201527f00000000000000000000000000000000000000000000000000000000000000006001600160a01b0316906310ddb13790602401610f28565b6111bb335b82612869565b6111d75760405162461bcd60e51b8152600401610bce90614744565b6110948383836128c7565b6000806111fa87876111f388612a26565b878761230c565b915091509550959350505050565b60008281526012602090815260408083208151808301909252546001600160a01b038116808352600160a01b9091046001600160601b031692820192909252829161127d5750604080518082019091526011546001600160a01b0381168252600160a01b90046001600160601b031660208201525b60208101516000906127109061129c906001600160601b0316876147a7565b6112a691906147be565b91519350909150505b9250929050565b6112be6126c1565b60008151116112df5760405162461bcd60e51b8152600401610bce906147e0565b60005b81518110156113dd5760006001600160a01b031682828151811061130857611308614807565b60200260200101516001600160a01b03161415801561136557506014600083838151811061133857611338614807565b6020908102919091018101516001600160a01b031682528101919091526040016000205460ff1615156001145b6113815760405162461bcd60e51b8152600401610bce9061481d565b60006014600084848151811061139957611399614807565b6020908102919091018101516001600160a01b03168252810191909152604001600020805460ff1916911515919091179055806113d581614846565b9150506112e2565b5050565b61ffff831660009081526001602052604081208054829190611402906146d0565b80601f016020809104026020016040519081016040528092919081815260200182805461142e906146d0565b801561147b5780601f106114505761010080835404028352916020019161147b565b820191906000526020600020905b81548152906001019060200180831161145e57829003601f168201915b50505050509050838360405161149292919061470a565b60405180910390208180519060200120149150509392505050565b61109483838360405180602001604052806000815250611dce565b6114d06126c1565b6040516342d65a8d60e01b81526001600160a01b037f000000000000000000000000000000000000000000000000000000000000000016906342d65a8d9061152090869086908690600401614888565b600060405180830381600087803b15801561153a57600080fd5b505af1158015610d82573d6000803e3d6000fd5b610d8287878761155d88612a26565b878787612a71565b61156d6126c1565b60136115798282614901565b507f23c8c9488efebfd474e85a7956de6f39b17c7ab88502d42a623db2d8e382bbaa601360405161112e91906149ba565b6115b26126c1565b6103e8816001600160601b031611156115dd5760405162461bcd60e51b8152600401610bce9061471a565b6115e8838383612c45565b604080518481526001600160a01b03841660208201526001600160601b038316918101919091527ff600f0322728169b8ef070d4373dadcef9cd8d3a45d6e2700e8cdf3d0f4ba734906060015b60405180910390a1505050565b60008061164e83612d0e565b90506001600160a01b038116610db05760405162461bcd60e51b8152600401610bce90614a45565b3330146116d45760405162461bcd60e51b815260206004820152602660248201527f4e6f6e626c6f636b696e674c7a4170703a2063616c6c6572206d7573742062656044820152650204c7a4170760d41b6064820152608401610bce565b61174a8686868080601f01602080910402602001604051908101604052809392919081815260200183838082843760009201919091525050604080516020601f890181900481028201810190925287815289935091508790879081908401838280828437600092019190915250612d2992505050565b505050505050565b60006001600160a01b0382166117bc5760405162461bcd60e51b815260206004820152602960248201527f4552433732313a2061646472657373207a65726f206973206e6f7420612076616044820152683634b21037bbb732b960b91b6064820152608401610bce565b506001600160a01b03166000908152600e602052604090205490565b6117e06126c1565b6117ea6000612e80565b565b60016020526000908152604090208054611805906146d0565b80601f0160208091040260200160405190810160405280929190818152602001828054611831906146d0565b801561187e5780601f106118535761010080835404028352916020019161187e565b820191906000526020600020905b81548152906001019060200180831161186157829003601f168201915b505050505081565b61188e6126c1565b6000818152601260205260408120556040518181527f2d0c64cb223c165096aa5260f0c4f12caf09469f917f6139ff17e1795a01225d9060200161112e565b6000546001600160a01b031690565b6118e4612ed0565b80516020808301919091206000818152600a90925260409091206002015460ff166119455760405162461bcd60e51b81526020600482015260116024820152701b9bc818dc99591a5d1cc81cdd1bdc9959607a1b6044820152606401610bce565b60008280602001905181019061195b9190614abc565b6000848152600a6020526040812080546001909101549294509092506119979161ffff8216916201000090046001600160a01b03169085612f29565b6000848152600a60205260409020600101549091508111611a0c5760405162461bcd60e51b815260206004820152602960248201527f6e6f7420656e6f7567682067617320746f2070726f6365737320637265646974604482015268103a3930b739b332b960b91b6064820152608401610bce565b81518103611a83576000838152600a602052604080822080546001600160b01b031916815560018101929092556002909101805460ff19169055517fd7be02b8dd0d27bd0517a9cb4d7469ce27df4313821ae5ec1ff69acc594ba23390611a769085815260200190565b60405180910390a1611b17565b604080516080810182526000858152600a6020818152848320805461ffff80821687526001600160a01b03620100008084048216868a019081529989018b8152600160608b01818152998f90529790965297519851169096026001600160b01b03199091169690951695909517939093178455915191830191909155516002909101805491151560ff199092169190911790555b505050611b246001600655565b50565b6060600c8054610e51906146d0565b611b3e6126c1565b60008111611b995760405162461bcd60e51b815260206004820152602260248201527f647374436861696e4964546f42617463684c696d6974206d757374206265203e604482015261020360f41b6064820152608401610bce565b61ffff8216600081815260086020908152604091829020849055815192835282018390527f7315f7654d594ead24a30160ed9ba2d23247f543016b918343591e93d7afdb6d9101610e36565b61ffff8116600090815260016020526040812080546060929190611c08906146d0565b80601f0160208091040260200160405190810160405280929190818152602001828054611c34906146d0565b8015611c815780601f10611c5657610100808354040283529160200191611c81565b820191906000526020600020905b815481529060010190602001808311611c6457829003601f168201915b505050505090508051600003611cd95760405162461bcd60e51b815260206004820152601d60248201527f4c7a4170703a206e6f20747275737465642070617468207265636f72640000006044820152606401610bce565b611cf4600060148351611cec9190614b76565b839190612f75565b9392505050565b6113dd338383613082565b611d0e6126c1565b818130604051602001611d2393929190614b89565b60408051601f1981840301815291815261ffff8516600090815260016020522090611d4e9082614901565b507f8c0400cfe2d1199b1a725c78960bcc2a344d869b80590d0f2bd005db15a572ce83838360405161163593929190614888565b611d8a6126c1565b611d946000601155565b6040517f4a5f27b6a26c1d168b49c56a68ba4bb0aff57144387eb6bd10db8831e9cafdd990600090a1565b610d8287878787878787612a71565b611dd83383612869565b611df45760405162461bcd60e51b8152600401610bce90614744565b611e008484848461314c565b50505050565b611e0e6126c1565b600480546001600160a01b0319166001600160a01b0383161790556040517f5db758e995a17ec1ad84bdef7e8c3293a0bd6179bcce400dff5d4c3d87db726b9061112e908390613e31565b6060611e64826127d6565b6000611e6e61317f565b90506000815111611e8e5760405180602001604052806000815250611cf4565b80611e988461318e565b604051602001611ea9929190614baa565b6040516020818303038152906040529392505050565b611ec76126c1565b6040516332fb62e760e21b81526001600160a01b037f0000000000000000000000000000000000000000000000000000000000000000169063cbed8b9c90611f1b9088908890889088908890600401614bd9565b600060405180830381600087803b158015611f3557600080fd5b505af1158015611f49573d6000803e3d6000fd5b505050505050505050565b611f5c6126c1565b60008111611fb85760405162461bcd60e51b815260206004820152602360248201527f647374436861696e4964546f5472616e73666572476173206d7573742062652060448201526203e20360ec1b6064820152608401610bce565b61ffff8216600081815260096020908152604091829020849055815192835282018390527fc46df2983228ac2d9754e94a0d565e6671665dc8ad38602bc8e544f0685a29fb9101610e36565b61ffff86166000908152600560205260408082209051612027908890889061470a565b90815260408051602092819003830190206001600160401b038716600090815292529020549050806120a75760405162461bcd60e51b815260206004820152602360248201527f4e6f6e626c6f636b696e674c7a4170703a206e6f2073746f726564206d65737360448201526261676560e81b6064820152608401610bce565b8083836040516120b892919061470a565b6040518091039020146121175760405162461bcd60e51b815260206004820152602160248201527f4e6f6e626c6f636b696e674c7a4170703a20696e76616c6964207061796c6f616044820152601960fa1b6064820152608401610bce565b61ffff8716600090815260056020526040808220905161213a908990899061470a565b90815260408051602092819003830181206001600160401b038916600090815290845282902093909355601f880182900482028301820190528682526121d2918991899089908190840183828082843760009201919091525050604080516020601f8a018190048102820181019092528881528a935091508890889081908401838280828437600092019190915250612d2992505050565b7fc264d91f3adc5588250e1551f547752ca0cfa8f6b530d243b9f9f4cab10ea8e58787878785604051612209959493929190614c07565b60405180910390a150505050505050565b6122226126c1565b61ffff83811660008181526002602090815260408083209487168084529482529182902085905581519283528201929092529081018290527f9d5c7c0b934da8fefa9c7760c98383778a12dfbfc0c3b3106518f43fb9508ac090606001611635565b6001600160a01b03918216600090815260106020908152604080832093909416825291909152205460ff1690565b6122ba6126c1565b61ffff831660009081526001602052604090206122d8828483614c42565b507ffa41487ad5d6728f0b19276fa1eddc16558578f5109fc39d2dc33c3230470dab83838360405161163593929190614888565b60008060008686604051602001612324929190614d36565b60408051601f198184030181529082905263040a7bb160e41b825291506001600160a01b037f000000000000000000000000000000000000000000000000000000000000000016906340a7bb1090612388908b90309086908b908b90600401614d64565b6040805180830381865afa1580156123a4573d6000803e3d6000fd5b505050506040513d601f19601f820116820180604052508101906123c89190614db8565b92509250509550959350505050565b6123df6126c1565b6001600160a01b0381166124445760405162461bcd60e51b815260206004820152602660248201527f4f776e61626c653a206e6577206f776e657220697320746865207a65726f206160448201526564647265737360d01b6064820152608401610bce565b611b2481612e80565b604051633d7b2f6f60e21b815261ffff808616600483015284166024820152306044820152606481018290526060907f00000000000000000000000000000000000000000000000000000000000000006001600160a01b03169063f5ecbdbc90608401600060405180830381865afa1580156124cd573d6000803e3d6000fd5b505050506040513d6000823e601f3d908101601f191682016040526124f59190810190614ddc565b90505b949350505050565b6125086126c1565b60008151116125295760405162461bcd60e51b8152600401610bce906147e0565b60005b81518110156113dd5760006001600160a01b031682828151811061255257612552614807565b60200260200101516001600160a01b0316141580156125ab57506014600083838151811061258257612582614807565b6020908102919091018101516001600160a01b031682528101919091526040016000205460ff16155b6125c75760405162461bcd60e51b8152600401610bce9061481d565b6001601460008484815181106125df576125df614807565b6020908102919091018101516001600160a01b03168252810191909152604001600020805460ff19169115159190911790558061261b81614846565b91505061252c565b6000806126865a60966366ad5c8a60e01b8989898960405160240161264b9493929190614e10565b60408051601f198184030181529190526020810180516001600160e01b03166001600160e01b03199093169290921790915230929190613220565b915091508161174a5761174a86868686856132aa565b60006001600160e01b0319821663152a902d60e11b1480610db05750610db082613347565b336126ca6118cd565b6001600160a01b0316146117ea5760405162461bcd60e51b815260206004820181905260248201527f4f776e61626c653a2063616c6c6572206973206e6f7420746865206f776e65726044820152606401610bce565b6127106001600160601b038216111561274b5760405162461bcd60e51b8152600401610bce90614e4e565b6001600160a01b03821661279d5760405162461bcd60e51b815260206004820152601960248201527822a921991c9c189d1034b73b30b634b2103932b1b2b4bb32b960391b6044820152606401610bce565b604080518082019091526001600160a01b039092168083526001600160601b039091166020909201829052600160a01b90910217601155565b6127df81613364565b611b245760405162461bcd60e51b8152600401610bce90614a45565b6000818152600f6020526040902080546001600160a01b0319166001600160a01b038416908117909155819061283082611642565b6001600160a01b03167f8c5be1e5ebec7d5bd14f71427d1e84f3dd0314c0f7b2291e5b200ac8c7c3b92560405160405180910390a45050565b60008061287583611642565b9050806001600160a01b0316846001600160a01b0316148061289c575061289c8185612284565b806124f85750836001600160a01b03166128b584610f5d565b6001600160a01b031614949350505050565b826001600160a01b03166128da82611642565b6001600160a01b0316146129005760405162461bcd60e51b8152600401610bce90614e98565b6001600160a01b0382166129625760405162461bcd60e51b8152602060048201526024808201527f4552433732313a207472616e7366657220746f20746865207a65726f206164646044820152637265737360e01b6064820152608401610bce565b61296f8383836001613381565b826001600160a01b031661298282611642565b6001600160a01b0316146129a85760405162461bcd60e51b8152600401610bce90614e98565b6000818152600f6020908152604080832080546001600160a01b03199081169091556001600160a01b03878116808652600e8552838620805460001901905590871680865283862080546001019055868652600d90945282852080549092168417909155905184936000805160206150d483398151915291a4505050565b60408051600180825281830190925260609160009190602080830190803683370190505090508281600081518110612a6057612a60614807565b602090810291909101015292915050565b6000845111612ab85760405162461bcd60e51b8152602060048201526013602482015272746f6b656e4964735b5d20697320656d70747960681b6044820152606401610bce565b835160011480612adc575061ffff8616600090815260086020526040902054845111155b612b335760405162461bcd60e51b815260206004820152602260248201527f62617463682073697a65206578636565647320647374206261746368206c696d6044820152611a5d60f21b6064820152608401610bce565b60005b8451811015612b7657612b64888888888581518110612b5757612b57614807565b60200260200101516133ce565b80612b6e81614846565b915050612b36565b5060008585604051602001612b8c929190614d36565b6040516020818303038152906040529050612bd1876001848851600960008d61ffff1661ffff16815260200190815260200160002054612bcc91906147a7565b6134b9565b612bdf878286868634613589565b85604051612bed9190614edd565b6040518091039020886001600160a01b03168861ffff167fe1b87c47fdeb4f9cbadbca9df3af7aba453bb6e501075d0440d88125b711522a88604051612c339190614ef9565b60405180910390a45050505050505050565b6127106001600160601b0382161115612c705760405162461bcd60e51b8152600401610bce90614e4e565b6001600160a01b038216612cc45760405162461bcd60e51b815260206004820152601b60248201527a455243323938313a20496e76616c696420706172616d657465727360281b6044820152606401610bce565b6040805180820182526001600160a01b0393841681526001600160601b0392831660208083019182526000968752601290529190942093519051909116600160a01b029116179055565b6000908152600d60205260409020546001600160a01b031690565b60008082806020019051810190612d409190614abc565b601482015191935091506000612d5888838386612f29565b90508251811015612e2c5784516020808701919091206040805160808101825261ffff808d1682526001600160a01b038088168387019081528385018881526001606086018181526000898152600a909a529887902095518654935190941662010000026001600160b01b03199093169390941692909217178355519082015592516002909301805493151560ff199094169390931790925590517f10e0b70d256bccc84b7027506978bd8b68984a870788b93b479def144c839ad790612e229083908990614f0c565b60405180910390a1505b816001600160a01b031687604051612e449190614edd565b60405180910390208961ffff167f5b821db8a46f8ecbe1941ba2f51cfeea9643268b56631f70d45e2a745d99026586604051612c339190614ef9565b600080546001600160a01b038381166001600160a01b0319831681178455604051919092169283917f8be0079c531659141344cd1fd0a4f28419497f9722a3daafe3b4186f6b6457e09190a35050565b600260065403612f225760405162461bcd60e51b815260206004820152601f60248201527f5265656e7472616e637947756172643a207265656e7472616e742063616c6c006044820152606401610bce565b6002600655565b6000825b82518110156124f5576007545a106124f557612f638686858481518110612f5657612f56614807565b602002602001015161372e565b80612f6d81614846565b915050612f2d565b606081612f8381601f614f25565b1015612fc25760405162461bcd60e51b815260206004820152600e60248201526d736c6963655f6f766572666c6f7760901b6044820152606401610bce565b612fcc8284614f25565b845110156130105760405162461bcd60e51b8152602060048201526011602482015270736c6963655f6f75744f66426f756e647360781b6044820152606401610bce565b60608215801561302f5760405191506000825260208201604052613079565b6040519150601f8416801560200281840101858101878315602002848b0101015b81831015613068578051835260209283019201613050565b5050858452601f01601f1916604052505b50949350505050565b816001600160a01b0316836001600160a01b0316036130df5760405162461bcd60e51b815260206004820152601960248201527822a9219b99189d1030b8383937bb32903a379031b0b63632b960391b6044820152606401610bce565b6001600160a01b03838116600081815260106020908152604080832094871680845294825291829020805460ff191686151590811790915591519182527f17307eab39ab6107e8899845ad3d59bd9653f200f220920489ca2b5937696c31910160405180910390a3505050565b6131578484846128c7565b6131638484848461378e565b611e005760405162461bcd60e51b8152600401610bce90614f38565b606060138054610e51906146d0565b6060600061319b8361388c565b60010190506000816001600160401b038111156131ba576131ba613ece565b6040519080825280601f01601f1916602001820160405280156131e4576020820181803683370190505b5090508181016020015b600019016f181899199a1a9b1b9c1cb0b131b232b360811b600a86061a8153600a85049450846131ee57509392505050565b6000606060008060008661ffff166001600160401b0381111561324557613245613ece565b6040519080825280601f01601f19166020018201604052801561326f576020820181803683370190505b50905060008087516020890160008d8df191503d925086831115613291578692505b828152826000602083013e909890975095505050505050565b8180519060200120600560008761ffff1661ffff168152602001908152602001600020856040516132db9190614edd565b9081526040805191829003602090810183206001600160401b0388166000908152915220919091557fe183f33de2837795525b4792ca4cd60535bd77c53b7e7030060bfcf5734d6b0c906133389087908790879087908790614f8a565b60405180910390a15050505050565b60006001600160e01b031982161580610db05750610db082613962565b60008061337083612d0e565b6001600160a01b0316141592915050565b601554421080156133ab57506001600160a01b03831660009081526014602052604090205460ff16155b156133c957604051637aa6656d60e11b815260040160405180910390fd5b611e00565b6133d7336111b5565b61343a5760405162461bcd60e51b815260206004820152602e60248201527f4f4e46543732313a2073656e642063616c6c6572206973206e6f74206f776e6560448201526d1c881b9bdc88185c1c1c9bdd995960921b6064820152608401610bce565b836001600160a01b031661344d82611642565b6001600160a01b0316146134ae5760405162461bcd60e51b815260206004820152602260248201527f4f4e46543732313a2073656e642066726f6d20696e636f7272656374206f776e60448201526132b960f11b6064820152608401610bce565b611e008430836128c7565b60006134c4836139a2565b61ffff808716600090815260026020908152604080832093891683529290522054909150806135325760405162461bcd60e51b815260206004820152601a602482015279131e905c1c0e881b5a5b91d85cd31a5b5a5d081b9bdd081cd95d60321b6044820152606401610bce565b61353c8382614f25565b82101561174a5760405162461bcd60e51b815260206004820152601b60248201527a4c7a4170703a20676173206c696d697420697320746f6f206c6f7760281b6044820152606401610bce565b61ffff8616600090815260016020526040812080546135a7906146d0565b80601f01602080910402602001604051908101604052809291908181526020018280546135d3906146d0565b80156136205780601f106135f557610100808354040283529160200191613620565b820191906000526020600020905b81548152906001019060200180831161360357829003601f168201915b5050505050905080516000036136915760405162461bcd60e51b815260206004820152603060248201527f4c7a4170703a2064657374696e6174696f6e20636861696e206973206e6f742060448201526f61207472757374656420736f7572636560801b6064820152608401610bce565b61369c8787516139fd565b60405162c5803160e81b81526001600160a01b037f0000000000000000000000000000000000000000000000000000000000000000169063c58031009084906136f3908b9086908c908c908c908c90600401614fdc565b6000604051808303818588803b15801561370c57600080fd5b505af1158015613720573d6000803e3d6000fd5b505050505050505050505050565b61373781613364565b1580613763575061374781613364565b801561376357503061375882611642565b6001600160a01b0316145b61376c57600080fd5b61377581613364565b613783576110948282613a6e565b6110943083836128c7565b60006001600160a01b0384163b1561388457604051630a85bd0160e11b81526001600160a01b0385169063150b7a02906137d2903390899088908890600401615043565b6020604051808303816000875af192505050801561380d575060408051601f3d908101601f1916820190925261380a91810190615080565b60015b61386a573d80801561383b576040519150601f19603f3d011682016040523d82523d6000602084013e613840565b606091505b5080516000036138625760405162461bcd60e51b8152600401610bce90614f38565b805181602001fd5b6001600160e01b031916630a85bd0160e11b1490506124f8565b5060016124f8565b60008072184f03e93ff9f4daa797ed6e38ed64bf6a1f0160401b83106138cb5772184f03e93ff9f4daa797ed6e38ed64bf6a1f0160401b830492506040015b6904ee2d6d415b85acef8160201b83106138f5576904ee2d6d415b85acef8160201b830492506020015b662386f26fc10000831061391357662386f26fc10000830492506010015b6305f5e100831061392b576305f5e100830492506008015b612710831061393f57612710830492506004015b60648310613951576064830492506002015b600a8310610db05760010192915050565b60006001600160e01b031982166380ac58cd60e01b148061399357506001600160e01b03198216635b5e139f60e01b145b80610db05750610db082613a88565b60006022825110156139f55760405162461bcd60e51b815260206004820152601c60248201527b4c7a4170703a20696e76616c69642061646170746572506172616d7360201b6044820152606401610bce565b506022015190565b61ffff821660009081526003602052604081205490819003613a1e57506127105b808211156110945760405162461bcd60e51b815260206004820181905260248201527f4c7a4170703a207061796c6f61642073697a6520697320746f6f206c617267656044820152606401610bce565b6113dd828260405180602001604052806000815250613abd565b60006001600160e01b031982166322bac5d960e01b1480610db057506301ffc9a760e01b6001600160e01b0319831614610db0565b613ac78383613af0565b613ad4600084848461378e565b6110945760405162461bcd60e51b8152600401610bce90614f38565b6001600160a01b038216613b465760405162461bcd60e51b815260206004820181905260248201527f4552433732313a206d696e7420746f20746865207a65726f20616464726573736044820152606401610bce565b613b4f81613364565b15613b6c5760405162461bcd60e51b8152600401610bce9061509d565b613b7a600083836001613381565b613b8381613364565b15613ba05760405162461bcd60e51b8152600401610bce9061509d565b6001600160a01b0382166000818152600e6020908152604080832080546001019055848352600d90915280822080546001600160a01b0319168417905551839291906000805160206150d4833981519152908290a45050565b803561ffff81168114613c0b57600080fd5b919050565b60008083601f840112613c2257600080fd5b5081356001600160401b03811115613c3957600080fd5b6020830191508360208285010111156112af57600080fd5b80356001600160401b0381168114613c0b57600080fd5b60008060008060008060808789031215613c8157600080fd5b613c8a87613bf9565b955060208701356001600160401b0380821115613ca657600080fd5b613cb28a838b01613c10565b9097509550859150613cc660408a01613c51565b94506060890135915080821115613cdc57600080fd5b50613ce989828a01613c10565b979a9699509497509295939492505050565b6001600160e01b031981168114611b2457600080fd5b600060208284031215613d2357600080fd5b8135611cf481613cfb565b6001600160a01b0381168114611b2457600080fd5b8035613c0b81613d2e565b80356001600160601b0381168114613c0b57600080fd5b60008060408385031215613d7857600080fd5b8235613d8381613d2e565b9150613d9160208401613d4e565b90509250929050565b60005b83811015613db5578181015183820152602001613d9d565b50506000910152565b60008151808452613dd6816020860160208601613d9a565b601f01601f19169290920160200192915050565b602081526000611cf46020830184613dbe565b600060208284031215613e0f57600080fd5b611cf482613bf9565b600060208284031215613e2a57600080fd5b5035919050565b6001600160a01b0391909116815260200190565b60008060408385031215613e5857600080fd5b8235613e6381613d2e565b946020939093013593505050565b60008060408385031215613e8457600080fd5b613e6383613bf9565b600080600060608486031215613ea257600080fd5b8335613ead81613d2e565b92506020840135613ebd81613d2e565b929592945050506040919091013590565b634e487b7160e01b600052604160045260246000fd5b604051601f8201601f191681016001600160401b0381118282101715613f0c57613f0c613ece565b604052919050565b60006001600160401b03821115613f2d57613f2d613ece565b50601f01601f191660200190565b6000613f4e613f4984613f14565b613ee4565b9050828152838383011115613f6257600080fd5b828260208301376000602084830101529392505050565b600082601f830112613f8a57600080fd5b611cf483833560208501613f3b565b80358015158114613c0b57600080fd5b600080600080600060a08688031215613fc157600080fd5b613fca86613bf9565b945060208601356001600160401b0380821115613fe657600080fd5b613ff289838a01613f79565b95506040880135945061400760608901613f99565b9350608088013591508082111561401d57600080fd5b5061402a88828901613f79565b9150509295509295909350565b6000806040838503121561404a57600080fd5b50508035926020909101359150565b60006020828403121561406b57600080fd5b8135611cf481613d2e565b60006001600160401b0382111561408f5761408f613ece565b5060051b60200190565b600060208083850312156140ac57600080fd5b82356001600160401b038111156140c257600080fd5b8301601f810185136140d357600080fd5b80356140e1613f4982614076565b81815260059190911b8201830190838101908783111561410057600080fd5b928401925b8284101561412757833561411881613d2e565b82529284019290840190614105565b979650505050505050565b60008060006040848603121561414757600080fd5b61415084613bf9565b925060208401356001600160401b0381111561416b57600080fd5b61417786828701613c10565b9497909650939450505050565b600080600080600080600060e0888a03121561419f57600080fd5b87356141aa81613d2e565b96506141b860208901613bf9565b955060408801356001600160401b03808211156141d457600080fd5b6141e08b838c01613f79565b965060608a0135955060808a013591506141f982613d2e565b90935060a08901359061420b82613d2e565b90925060c0890135908082111561422157600080fd5b5061422e8a828b01613f79565b91505092959891949750929550565b60006020828403121561424f57600080fd5b81356001600160401b0381111561426557600080fd5b8201601f8101841361427657600080fd5b6124f884823560208401613f3b565b60008060006060848603121561429a57600080fd5b8335925060208401356142ac81613d2e565b91506142ba60408501613d4e565b90509250925092565b6000806000606084860312156142d857600080fd5b6142e184613bf9565b925060208401356001600160401b038111156142fc57600080fd5b61430886828701613f79565b9250506142ba60408501613c51565b6000806040838503121561432a57600080fd5b61433383613bf9565b9150613d9160208401613bf9565b60006020828403121561435357600080fd5b81356001600160401b0381111561436957600080fd5b6124f884828501613f79565b6000806040838503121561438857600080fd5b823561439381613d2e565b9150613d9160208401613f99565b600082601f8301126143b257600080fd5b813560206143c2613f4983614076565b82815260059290921b840181019181810190868411156143e157600080fd5b8286015b848110156143fc57803583529183019183016143e5565b509695505050505050565b600080600080600080600060e0888a03121561442257600080fd5b873561442d81613d2e565b965061443b60208901613bf9565b955060408801356001600160401b038082111561445757600080fd5b6144638b838c01613f79565b965060608a013591508082111561447957600080fd5b6144858b838c016143a1565b955060808a0135915061449782613d2e565b8194506144a660a08b01613d43565b935060c08a013591508082111561422157600080fd5b600080600080608085870312156144d257600080fd5b84356144dd81613d2e565b935060208501356144ed81613d2e565b92506040850135915060608501356001600160401b0381111561450f57600080fd5b61451b87828801613f79565b91505092959194509250565b60008060008060006080868803121561453f57600080fd5b61454886613bf9565b945061455660208701613bf9565b93506040860135925060608601356001600160401b0381111561457857600080fd5b61458488828901613c10565b969995985093965092949392505050565b6000806000606084860312156145aa57600080fd5b6145b384613bf9565b92506145c160208501613bf9565b9150604084013590509250925092565b600080604083850312156145e457600080fd5b82356145ef81613d2e565b915060208301356145ff81613d2e565b809150509250929050565b600080600080600060a0868803121561462257600080fd5b61462b86613bf9565b945060208601356001600160401b038082111561464757600080fd5b61465389838a01613f79565b9550604088013591508082111561466957600080fd5b61467589838a016143a1565b945061400760608901613f99565b6000806000806080858703121561469957600080fd5b6146a285613bf9565b93506146b060208601613bf9565b925060408501356146c081613d2e565b9396929550929360600135925050565b600181811c908216806146e457607f821691505b60208210810361470457634e487b7160e01b600052602260045260246000fd5b50919050565b8183823760009101908152919050565b60208082526010908201526f546f6f206869676820726f79616c747960801b604082015260600190565b6020808252602d908201527f4552433732313a2063616c6c6572206973206e6f7420746f6b656e206f776e6560408201526c1c881bdc88185c1c1c9bdd9959609a1b606082015260800190565b634e487b7160e01b600052601160045260246000fd5b8082028115828204841417610db057610db0614791565b6000826147db57634e487b7160e01b600052601260045260246000fd5b500490565b6020808252600d908201526c496e76616c696420506172616d60981b604082015260600190565b634e487b7160e01b600052603260045260246000fd5b6020808252600f908201526e496e76616c6964204164647265737360881b604082015260600190565b60006001820161485857614858614791565b5060010190565b81835281816020850137506000828201602090810191909152601f909101601f19169091010190565b61ffff841681526040602082015260006124f560408301848661485f565b601f82111561109457600081815260208120601f850160051c810160208610156148cd5750805b601f850160051c820191505b8181101561174a578281556001016148d9565b600019600383901b1c191660019190911b1790565b81516001600160401b0381111561491a5761491a613ece565b61492e8161492884546146d0565b846148a6565b602080601f83116001811461495d576000841561494b5750858301515b61495585826148ec565b86555061174a565b600085815260208120601f198616915b8281101561498c5788860151825594840194600190910190840161496d565b50858210156149aa5787850151600019600388901b60f8161c191681555b5050505050600190811b01905550565b60006020808352600084546149ce816146d0565b808487015260406001808416600081146149ef5760018114614a0957614a37565b60ff1985168984015283151560051b890183019550614a37565b896000528660002060005b85811015614a2f5781548b8201860152908301908801614a14565b8a0184019650505b509398975050505050505050565b602080825260189082015277115490cdcc8c4e881a5b9d985b1a59081d1bdad95b88125160421b604082015260600190565b600082601f830112614a8857600080fd5b8151614a96613f4982613f14565b818152846020838601011115614aab57600080fd5b6124f8826020830160208701613d9a565b60008060408385031215614acf57600080fd5b82516001600160401b0380821115614ae657600080fd5b614af286838701614a77565b9350602091508185015181811115614b0957600080fd5b85019050601f81018613614b1c57600080fd5b8051614b2a613f4982614076565b81815260059190911b82018301908381019088831115614b4957600080fd5b928401925b82841015614b6757835182529284019290840190614b4e565b80955050505050509250929050565b81810381811115610db057610db0614791565b8284823760609190911b6001600160601b0319169101908152601401919050565b60008351614bbc818460208801613d9a565b835190830190614bd0818360208801613d9a565b01949350505050565b600061ffff80881683528087166020840152508460408301526080606083015261412760808301848661485f565b61ffff86168152608060208201526000614c2560808301868861485f565b6001600160401b0394909416604083015250606001529392505050565b6001600160401b03831115614c5957614c59613ece565b614c6d83614c6783546146d0565b836148a6565b6000601f841160018114614c9b5760008515614c895750838201355b614c9386826148ec565b845550610f56565b600083815260209020601f19861690835b82811015614ccc5786850135825560209485019460019092019101614cac565b5086821015614ce95760001960f88860031b161c19848701351681555b505060018560011b0183555050505050565b600081518084526020808501945080840160005b83811015614d2b57815187529582019590820190600101614d0f565b509495945050505050565b604081526000614d496040830185613dbe565b8281036020840152614d5b8185614cfb565b95945050505050565b61ffff861681526001600160a01b038516602082015260a060408201819052600090614d9290830186613dbe565b84151560608401528281036080840152614dac8185613dbe565b98975050505050505050565b60008060408385031215614dcb57600080fd5b505080516020909101519092909150565b600060208284031215614dee57600080fd5b81516001600160401b03811115614e0457600080fd5b6124f884828501614a77565b61ffff85168152608060208201526000614e2d6080830186613dbe565b6001600160401b038516604084015282810360608401526141278185613dbe565b6020808252602a908201527f455243323938313a20726f79616c7479206665652077696c6c206578636565646040820152692073616c65507269636560b01b606082015260800190565b60208082526025908201527f4552433732313a207472616e736665722066726f6d20696e636f72726563742060408201526437bbb732b960d91b606082015260800190565b60008251614eef818460208701613d9a565b9190910192915050565b602081526000611cf46020830184614cfb565b8281526040602082015260006124f86040830184613dbe565b80820180821115610db057610db0614791565b60208082526032908201527f4552433732313a207472616e7366657220746f206e6f6e20455243373231526560408201527131b2b4bb32b91034b6b83632b6b2b73a32b960711b606082015260800190565b61ffff8616815260a060208201526000614fa760a0830187613dbe565b6001600160401b03861660408401528281036060840152614fc88186613dbe565b90508281036080840152614dac8185613dbe565b61ffff8716815260c060208201526000614ff960c0830188613dbe565b828103604084015261500b8188613dbe565b6001600160a01b0387811660608601528616608085015283810360a085015290506150368185613dbe565b9998505050505050505050565b6001600160a01b038581168252841660208201526040810183905260806060820181905260009061507690830184613dbe565b9695505050505050565b60006020828403121561509257600080fd5b8151611cf481613cfb565b6020808252601c908201527b115490cdcc8c4e881d1bdad95b88185b1c9958591e481b5a5b9d195960221b60408201526060019056feddf252ad1be2c89b69c2b068fc378daa952ba7f163c4a11628f55a4df523b3efa264697066735822122027f4debe04ba912f54f0510cd79bdff2d43e335fe36e41ec32923d6a3d91f00164736f6c63430008120033",
  "linkReferences": {},
  "deployedLinkReferences": {}
}